S023000044796E616D69634D756C746970726F746F636F6C4C69676874536F632E73333772
S31500000000683B032007650500B9E101003D4E050088
S31500000010A70A02020002000004180FAC30670401B0
S3150000002000000000000000000000000000000000CA
S3150000003000000000509B05000000000000000000CA
S315000000400000000000000000FFFFFFFFFFFFFFFFB2
S31500000050FFFFFFFFFFFFFFFFFFFFFFFFFFFFFFFFAA
S3150000006000700F000000000000000000FFFFFFFF0F
S31500000070FFFFFFFF1C000000000000000000000062
S31500000080000000000000000040DF032040DF0320E6
S31500000090683B0320F47D06002065050068390320CF
S311000000A07C120020000010000000000090
S31500000200683B032007650500B9E101003D4E050086
S31500000210214C0500414E0500454E0500000000003A
S31500000220000000000000000000000000BF230000E6
S31500000230494E05009B0E0000C765050077250000A6
S31500000240B5B002004D9D0300D98D0000514E05004A
S3150000025005980300899D0300539D0300559D0300E7
S315000002604F9D030033CB0300A1CD03005B57020073
S3150000027011A20200514E0500514E0500D75C050043
S31500000280514E0500514E0500AFCD0300514E0500FD
S31500000290514E0500514E0500514E0500514E0500C8
S315000002A0514E0500514E0500514E0500514E0500B8
S315000002B08B9D0300519D0300ED050300BB9D0300CC
S315000002C0514E0500E15E0500514E0500514E0500F8
S315000002D0514E0500514E0500514E0500514E050088
S315000002E0514E0500514E0500514E0500514E050078
S315000002F0514E0500514E0500514E0500514E050068
S31500000300514E0500514E05000000000080B54549DC
S31500000310454A0988002000F0DDFB5328A8BF52207B
S3150000032002BD2DE9FE4300F071F800F08CFD064693
S31500000330019400963AA3412200F05DF800F060F8BF
S31500000340FFF7E4FF8146E0B2B04216DA3888C01CF7
S31500000350814512DB6A46E1B2404600F072FD50B1BB
S31500000360BDF8000000F0C0FD9DF8020000F0ADFDF4
S315000003702878401C2870641CE5E737E02DE9FE4329
S3150000038000F044F800F05BFD06460194009624A3B5
S31500000390422200F030F800F033F8FFF7B7FF81464D
S315000003A0E0B2B04222DA3888083081451EDB6A4660
S315000003B0E1B2404600F041FDB0B1BDF8000000F0EA
S315000003C093FD9DF8020000F080FDBDF8040000F0EA
S315000003D08BFDBDF8060000F087FD9DF8080000F0D3
S315000003E074FD2878401C2870641CD9E700F009FBCE
S315000003F00120BDE8FE834FF48051092000F0BBBE0A
S3150000040039880A484518002000F05FBD04460848B0
S31500000410084F01680A6892F8058040467047000058
S31500000420757500005ECF0320804E03208C4E03209E
S31500000430644F032070DE032080B501F093FAFF2895
S3150000044005D0022803D2DFF82C18085C02BD002074
S3150000045002BDE0B50221009101AB0022032101F0AB
S315000004606FFC20B9BDF8040010B1012000E00020A7
S31500000470C0B20EBDF8B5069F00240025092F06461A
S3150000048002D300200021F4BDA4460DE0A7EB000E28
S31500000490B6442D021EF8010C45EA1465002110EB46
S315000004A004244D410CF1010C5FFA8CF0B842EDD3F7
S315000004B09D4206D828BF944203D2101B63EB050168
S315000004C0F4BDA01A65EB0301F4BD10B50268DFF8B0
S315000004D0A81713880B8054884C8052790A710368D8
S315000004E01A794A714FF48253CB80026893799A063F
S315000004F0DFF8882744BF4FF48353CB801378816994
S3150000050039B9C088DFF87817088003F0FD03137047
S3150000051010BD43F00203137016228169DFF86447A9
S31500000520204601F0EDFE0022227010BD80B50020AD
S3150000053001F04BFFFF2001F06EFA01F054FF00F0CE
S31500000540E6FE02460121DFF82C0701F020FFDFF866
S315000005502837DFF83427DFF83407522100F0F3FD9F
S3150000056001F079FF02F008F802F029F902F036FAF4
S3150000057003F0E6F903F0D4FE03F01AFF03F061FF7F
S3150000058003F0A0FF03F0ACFFBDE8014000F096BF0A
S3150000059003F00FBF80B504F082F820B905F056FBD2
S315000005A008B903F043FC00F062FCBDE8014000F02E
S315000005B06EBC70B5034600204FF6FF72DFF8D046DA
S315000005C034F8305095420ED09D4209D1B3F57C4F98
S315000005D00ADB04EBC0056E888E4205D00D0003D001
S315000005E0401C80B2ECE7104670BD10B50446FFF71C
S315000005F0E0FFDFF8A0160B884FF6FF72904203D19A
S315000006002246DFF8941606E0DFF8841601EBC000F8
S31500000610DFF888164268BDE81040184605F0F3BBBF
S31500000620DFF87C06006800B1008A70471CB5DFF869
S3150000063074160446087800283CD005F0BDFC024636
S31500000640DFF86416022005F0DEFB20684188009181
S315000006504379A289DFF85416022005F0D4FB022064
S3150000066005F08CFB20B12068218A4088FFF7BDFF8A
S31500000670E07B28B1228ADFF83816022005F0C3FB9A
S31500000680E07CDFF830160090A0680278A37C022098
S3150000069005F0B9FB217DA289A468521A012392B202
S315000006A02144022005F0A0FCBDE81C40AFA10220B9
S315000006B005F0A3BB13BD10B504462168487901F0C7
S315000006C051F9FF281DD0DFF8F01501EB0010217F4E
S315000006D0027B8A4215D1226840881188884206D05A
S315000006E04FF6FF7399420CD1B0F5004F09DA207925
S315000006F0022818BF032806D11189507905F0C8FED3
S3150000070008B9002010BDA07B0028204602D005F0C5
S315000007100DFF01E005F03AFF00B1012010BD7CB5E8
S315000007201446227855074CBF052203229342DFF870
S315000007308C5504D200922A46DFF8841533E0089ED1
S31500000740069A30603171F280B460B381207800F08F
S315000007500100B0732178890801F00101F1730121CC
S3150000076020783175C00800F001007075F07B30B15B
S315000007701A46204600F016FC317D891C3175308200
S31500000780307DB389411C3175205CB074481CC9B2F8
S315000007903075615CF174C4B2A34209D2C0B2009054
S315000007A02A46DFF82015022005F027FB002076BD3B
S315000007B00798B06106F043FA3077012076BD2DE93F
S315000007C0F14F84B00F4692460E9EDDF83C80DFF86E
S315000007D0F854DFF8F8149B462846202206F02EFB34
S315000007E00295CDF8048000965B4604985246394639
S315000007F0FFF795FF00240028DFF8A4946AD0C9F813
S315000008000050A87CDFF8C81408702846FFF70EFFD2
S315000008102846FFF75AFE284606F066FB38BBB8F1B5
S31500000820000F26D1042F18BF052F03D0022F18BFA3
S31500000830032F01D1012200E000222868E9880191F6
S315000008400121438800930388E87C00F020F9A0B1D9
S3150000085028688179880610D4DFF878440121217050
S3150000086000227E21284600F0D2F8002020700124C4
S3150000087030E098F8140081072CD528684179FF29C3
S3150000088024D10026DFF8F08300F041FDF1B2814269
S3150000089020D2F0B201F068F80746F0B200F03BFD56
S315000008A090B1286841882A8A384600F0A3FF58B1DB
S315000008B02846FFF70AFE2868477188F8047028461C
S315000008C0FFF7F9FE00B10124761CDDE72846FFF7A5
S315000008D0F2FE044600F0E2FA16220021DFF8A40335
S315000008E001F055FD0020C9F8000005B02046BDE81E
S315000008F0F08FDFF8E4130878401C0870FFE700F07B
S315000009007F007047DFF874130A78002814BF42F09E
S31500000910010202F0FE020A707047DFF8C013087089
S31500000920704780B1DFF8B4130978012904D1018832
S3150000093041F0400101807047022904D102884FF638
S31500000940BF710A400280704778B1DFF894130A78C5
S31500000950012A04D1DFF88C2313780B7001E0022AF8
S3150000096003D1017841F01001017070475D0000006D
S31500000970FEB5C24D2B78D90701D50020FEBDDFF8A4
S315000009802013BD4C096871B109688A79960603D5AA
S31500000990E28842F02002E28089794A0603D5E1889E
S315000009A041F04001E180B94A11784E07C84947BF76
S315000009B00F78D7700E7856709B0709D5B248018814
S315000009C0B04806F0FEFC297801F0FD012970FEBD55
S315000009D0AB4B1D8829464FF6FC76B14208DA0190EA
S315000009E000922246A8480388002006F0D5FEFEBDE8
S315000009F000901346A44802882146284606F09BFE2E
S31500000A00FEBD0020B4E70146A5480068002270B587
S31500000A1004460E462079002818BF012815460BD13A
S31500000A20A0680178CA0601D5300005D0A07B002851
S31500000A3004BFE07C0B2801D1002070BD924A002142
S31500000A401180607DE17B00280CBF0820002011B9D1
S31500000A5000F03BFA06E040F0040000F036FA208A87
S31500000A6000F042FAA07C00F030FA0B2000F02DFADC
S31500000A70E07C00F02AFA304600F027FA2046FFF71D
S31500000A8024FD2846BDE8704072E70022BFE770B536
S31500000A901D46954B8F4E1C78012C01D0337813B12F
S31500000AA00020307070BD0B0002D10AB1002070BD6D
S31500000AB0002C1EBF049C4FF657439C4206D00346AB
S31500000AC00A462146284600F073F900B1012070BDA0
S31500000AD00000000038B5D2885224950648BF492444
S31500000AE0550548BF083C150548BF083C1204034697
S31500000AF048BFA41E0846032B4FF6FD710ED8DFE84B
S31500000B0003F00902060BC0B207F039FA02E0C0B2E0
S31500000B1007F078FC014601E0641EE4B2084607F0DF
S31500000B201AFE241AE0B232BD42540844120A427038
S31500000B3070470844110A0270130C120E417083703C
S31500000B40C270704770B505460C00164608BF0020F7
S31500000B5003D02178FF2902D1FF20287070BD2046DE
S31500000B6000F042FA864288BF06463246611C681C7F
S31500000B7001F0C6FB2E7070BD70B50C00054616461A
S31500000B8003D100206870297070BD2078FF2804BF4B
S31500000B906078FF2802D12870687070BD204600F08A
S31500000BA028FA864288BF06463246A11CA81C01F0D8
S31500000BB0A7FB2E70360A6E7070BD2DE9F041541EEB
S31500000BC00BB3042A46DC0023002698465FFA88F514
S31500000BD0954225D2651B002814BF10F805C04FF0BA
S31500000BE0000C571EA7EB08074D5DFF000CFA07FC2B
S31500000BF005FA07F74CEA03033E4308F10108E5E767
S31500000C00AE4224DB5B1CDDB2954223D2651B002875
S31500000C100CBF0026465D4D5DB542F1DA01201AE0B3
S31500000C20042A10DAD5000120D2006D1E00FA02F265
S31500000C30524243FA05F1CC0748BF134346FA05F082
S31500000C40C00748BF16439E42E8DBB34202DA4FF0C4
S31500000C50FF3000E00020BDE8F0810021234A01E0DA
S31500000C60891CC9B2535C8342FAD350184078704746
S31500000C700000000076DE0320804E0320C4DE032041
S31500000C805ECF0320684F032070DE03208C4E0320C6
S31500000C909C83050074DE0320E882050000830500BE
S31500000CA0644F03208C47032008830500108305004A
S31500000CB0308305003C830500304E03207883050011
S31500000CC05C83050080830500444F0320DC83050018
S31500000CD091470320C0DE032092470320C1DE032094
S31500000CE0C2DE0320C3DE032090470320FC830500F9
S31500000CF0283808288041C00F704710B500F009F861
S31500000D00FF2801D1A32010BD002104F830100020D7
S31500000D1010BD0446084600F025BE38B500F00BF8B5
S31500000D20FF2801D1A32032BD294604EBC000BDE84F
S31500000D30344001F0C0BB04460846154600F012BE1A
S31500000D4040B11C280BD01D280CD01E2818BF1F2808
S31500000D5005D009E00B39102906D2002070471B295F
S31500000D60FBDB01E00929F8DB8A20704710F0E00080
S31500000D7011D0802806D0A02806D0C02806D0E028AA
S31500000D8006D007E01C2070471D2070471E207047C4
S31500000D901F207047FF20704700F01F007047704704
S31500000DA07047012070470120704701207047704747
S31500000DB000207047002070470020704700207047D1
S31500000DC000207047002070470120704701207047BF
S31500000DD0B5207047002070470020704700207047FC
S31500000DE0002070477047704700207047704700200A
S31500000DF07047842070477047704770477047704748
S31500000E0000207047704770470120704700207047E8
S31500000E10704707F0DFBC032070477047002070471B
S31500000E204FF6FE72C28101218181016100220270AA
S31500000E3001207047704770477047002070470020B8
S31500000E4070470020704700207047704700207047A9
S31500000E507047002070470020704700207047002030
S31500000E607047002070470020704700207047704789
S31500000E70B52070470020704700207047704700205B
S31500000E8070477047704770477047B5207047704786
S31500000E9070470020704770477047704780B54C49CF
S31500000EA00020087007F040FD4A4A108052220021B7
S31500000EB0494801F06CFA4949002008800C22BDE837
S31500000EC008400021464801F062BA10B543490A8835
S31500000ED0522A07DA404CA054521C0A8092B2A0183B
S31500000EE0401E10BD002010BD38B50546C0B2FFF744
S31500000EF0ECFF0446280AFFF7E8FF002C18BF00287D
S31500000F0001D0204632BD002032BDF8B50746C0B23A
S31500000F10FFF7DBFF06463804000EFFF7D6FF05464F
S31500000F203802000EFFF7D1FF0446380EFFF7CDFF5B
S31500000F30002E18BF002D05D0002C18BF002801D0A8
S31500000F403046F2BD0020F2BDF8B5244D2B880C4684
S31500000F502646F718522F0CDA1F4F01462246F8187C
S31500000F6001F0CEF92B88E4182C80A4B2A41B381902
S31500000F70F2BD0020F2BD30B504460020CD18AA42CD
S31500000F8008DA30BD51FA83F222445B1E12F8015C86
S31500000F9005EB0020DAB2002AF4D130BD0423EAE7DB
S31500000FA00323E8E780B50223FFF7E5FF80B202BD21
S31500000FB0034691420B4800D3704710B55C5CFF2C8A
S31500000FC008BF00240C19641CA242A8BF581810BD03
S31500000FD0C4DE03205ECF03208C4E032070DE032088
S31500000FE0804E032072DE03200078FF2808BF002011
S31500000FF0704780B502220021FFF7D4FF4FF6FF723B
S31500001000904208BF002002BD2DE9F24F022940F3AD
S315000010109580190005D0BDF800100529F7DB42F0D0
S3150000102004028246012618008AF8002005D08AF8B4
S31500001030013003261B0A8AF802304FF0000B0A9C87
S31500001040FFF757FC0AF80600761CB0B2761C0AF8C1
S315000010500040DDF8309007E0BAB24146504401F056
S315000010604FF9BE190BF1010B0B985FFA8BF1405C3F
S31500001070002865D0002500247328A04634DC4C28BF
S3150000108059F8048B1CBF5328622811D159F8047BE8
S315000010904C2806D1BDB24FF6FF70854236D00224E9
S315000010A034E0532832D1FDB2FF2D2FD001242DE09C
S315000010B06C2804D14046FFF79CFF871C26E0732866
S315000010C004D14046FFF790FF471C1FE0A0F1300116
S315000010D00A2938BFA0F1300718D3A0F1410107292A
S315000010E02CD2A0F1370711E00027752808BF01248C
S315000010F00AD0762808BF022406D0782808BF032421
S3150000110002D077281AD1042459F8045BB9B2BDF885
S31500001110000011FA86F10919884205DA0EE00AF88C
S315000011200050761C2D0A641EE1B20029B0B2F6D139
S31500001130B9B2002996D0B8F1000F8DD1002000E099
S31500001140B0B2BDE8F28F10B54A4C20604A48018023
S315000011504A490A604A4A136010BD7FB50C4609AD7C
S3150000116008990295009301911346434D414E2988F3
S31500001170024630680BE07FB50C4608A90092029142
S315000011803D4D3C4E01930246298830680023FFF707
S315000011903BFF3A493A4B0A6810804FF4825219686D
S315000011A04C80CA8004B070BD38B5344C2568298897
S315000011B00346304802683248006801B0BDE8304056
S315000011C006F016BB0020EFE77FB500F028F806F022
S315000011D05CFA04B070BD0023F6E7284B254810B52D
S315000011E01C680268218826480068BDE8104006F0A1
S315000011F069BA7CB50192214D1E4A2E681468009486
S315000012001F4C3388226806F0C7FA76BD0022F0E745
S315000012107FB500F004F806F0A3FA04B070BD0091A3
S3150000122002930192154C134925680B68144E2A88BF
S31500001230316870470023EBE7F8B50E4D0F4F2E6867
S3150000124084B00A9C03963E683588019402950C4C3E
S3150000125026687588009506F0FFFA05B0F0BD0848C7
S3150000126000687047064A1368187110684171704724
S3150000127000000000244D032082CE0320784E032078
S315000012807C4E03207FB5DFF89429DFF894091368B4
S315000012900088ADF8060003A9DFF888090568DFF8BD
S315000012A0880900880B60ADF8020002ACDFF87C19F3
S315000012B0DFF87C090988ADF80410022200210270CB
S315000012C02560ADF8001003AEDFF868090DF10604DD
S315000012D0DFF86429655C02EB011202AC157036F882
S315000012E01130538034F81130938001AC0DF10203B4
S315000012F0655C95715C5C00EBC405956001251DF885
S3150000130001401473491C02295573DFDB7FBDDFF8EA
S31500001310200900787047DFF8201901EB0010407BA8
S3150000132000F001007047412818BF422803D0432827
S3150000133018BF442801D1012070470020704741287A
S3150000134018BF422801D1012070470020704743286A
S3150000135018BF442801D10120704700207047F8B516
S3150000136015461E46069A079B044600F058FA60B1D9
S31500001370042100F0DEFB070007D0204601F02AF822
S31500001380324629462046B84794E0F1BD2DE9FC4790
S3150000139014001CBF0A9D002D814688461F461FD09B
S315000013A0F7B128780C9B0107618820794CBF402251
S315000013B0802200F034FA98B1082100F0BAFB824688
S315000013C070B10B9E207901F005F8019600953B4619
S315000013D0224641464846D047BDE8F34701F003B8E8
S315000013E0BDE8F387F8B51646069C1A460546234619
S315000013F000F015FAD0B121000BD1022100F099FBC3
S31500001400040013D0284600F0E5FF31462846A047E1
S315000014100BE0102100F08DFB070007D0284600F0F6
S31500001420D9FF224631462846B84743E0F1BD2DE9AB
S31500001430F8439046089C1A460646234600F0EFF904
S3150000144008B9862016E000259CB9202100F071FB22
S31500001450814670B10B9F0A9C099D304600F0BAFF89
S31500001460009723462A4641463046C847054600F0BF
S31500001470BAFF2846BDE8F283F8B50446A568207889
S3150000148000F0A8FF002611E02868F1B214225143AB
S31500001490471820783988FFF78AFC0121384600F082
S315000014A048FB01001CBF20788847761C2979F0B2DA
S315000014B08842E9D3BDE8F14000F095BF38B5002475
S315000014C0DFF86C570AE0DFF87007210600EB1150D1
S315000014D0427BD10748BFFFF7CFFF641C2978E0B2F3
S315000014E08842F0D331BD5CB585B00A9C8DF8080002
S315000014F0ADF80A108DF80C30ADF80E2000260196D6
S31500001500ADF8104000960023002201A902A800F0C1
S3150000151084F8019807B050BD7CB5069D96781C46A8
S315000015202B0008BFD378412E18BF422E06D0432E7B
S3150000153009D19A1E92B2FFF71FFB16E05A1ED2B2CD
S31500001540FFF700FB11E0442EF3D034B92C0004D091
S31500001550D278954201D2892076BD00291A4602D159
S3150000156000F015FF01E000F0CBFE002076BD10B5BF
S31500001570002301E0001D5B1C9CB28C4204D204884F
S315000015809442F7D1408810BD002010BDDFF8AC169C
S31500001590401A0C2290FBF2F292B20021DFF8A0066C
S315000015A0E5E70288B2F57C4FA8BF00F002B808460E
S315000015B0ECE7DFF89016401A142290FBF2F292B292
S315000015C00021DFF88406D2E710B50C460188628850
S315000015D091420DD1037B2279134209D0B1F57C4F9C
S315000015E004DBFFF7E6FF2189884201D1012010BD07
S315000015F0002010BD10B514460A88E3889A420AD125
S315000016000288B2F57C4F04DAFFF7CBFF21898842C6
S3150000161001D1012010BD002010BD2DE9F74F82B089
S3150000162004469A460025002704E08068C1886D18A4
S315000016307F1CFFB2DFF8F8150A78974280F0A48085
S31500001640DFF8F405237800EB071002789A42ECD114
S3150000165081680091407BC107EAD54FF0000804E09D
S31500001660B9F80A002D1808F1010800990A795FFAFD
S3150000167088F09042DCD20A685FFA88FC142010FBDE
S315000016800CFC02EB0C0921464846FFF79DFF00289B
S31500001690E6D04FF0000B07E0307910F0300F04BFB2
S315000016A0F0782D180BF1010BB9F808101FFA8BF022
S315000016B08842D8D2D9F804001FFA8BF20C214A438B
S315000016C08618224631464846FFF794FF0028E3D0A5
S315000016D027460398344600B104602079810610D568
S315000016E0DFF85805002105E00279930644BFC27869
S315000016F089180C30A042F7D3DFF8500589B2461896
S3150000170003E0DFF84C15ADB24E19DDF83880049DC4
S31500001710B8F1000F40461BD0019521464846FFF719
S3150000172040FF0246238879883878DFF828B5FFF726
S315000017303CFBF0B12079C1061DD521464846FFF78E
S3150000174030FF00950346798838782246D8471CE052
S31500001750DDB1214648460196FFF723FF024623885E
S3150000176079883878DFF8F0B4FFF71DFB00282E469D
S31500001770E0D17E2009E00199CDF800A0434622463B
S315000017803046FFF7C9FE00E0862005B0BDE8F08FC1
S315000017902DE9F843044688461646994600252179E0
S315000017A0E8B2884221D22068EAB214235A43871845
S315000017B03888404517D131000AD0802E03D1397BB5
S315000017C00A0605D40FE0402E0DD1397B4A060AD50C
S315000017D0B0F57C4F0CDB3846FFF7EBFE484518BFEB
S315000017E05FEA090004D06D1CD9E70020BDE8F2834A
S315000017F03846FBE780B5134607E080B5134640221E
S3150000180004E080B51346802200E0002200F007F8CD
S3150000181000B1012002BD80B500234022F6E770B575
S315000018200C4615461E4600F09DF8FF2801D1002003
S3150000183070BD2146DFF8004404EB00103346806893
S315000018402A46BDE87040A3E770B50C4615461E460D
S31500001850002100F02FF8022800DAEAE7002070BD28
S315000018601346402201E00022FAE72DE9F84F8246AE
S315000018708B4690469946FFF7D2FF002608B9FF200F
S3150000188016E00027DFF8B043DFF8A4532978F8B252
S3150000189088420CD20001205C504508D04B46424697
S315000018A05946FFF7D1FF00B1761C7F1CEEE7F0B278
S315000018B0BDE8F28F70B50022DFF87C33DFF8705395
S315000018C02E78D4B2B4420BD224011D5D854205D1D7
S315000018D00D0007D01C44647BE50703D4521CEDE7DA
S315000018E0FF2070BDD0B270BD80B50021FFF7E2FFCA
S315000018F0FF2801D1002002BD00F061F8407B00F016
S31500001900010002BD70B50E4604460021FFF7D2FF66
S31500001910FF2801D1002070BDDFF81C1301EB001574
S315000019203200687B00F0010114BF40F00100002086
S31500001930B142687314D076B12846FFF79DFD0FE0DB
S315000019400068142251430844027B0188D2092046CC
S3150000195000F004FE761CA8680279F1B29142EFD33A
S31500001960012070BD0121A5E7DFF8CC120001085C5B
S315000019707047F8B50C46FFF7F5FF01460020FF2932
S315000019801FBFDFF8B42202EB01118968002915D0C8
S31500001990002214270D79D3B2AB420ED20B68D6B211
S315000019A07E433344451C1B7B260001D11B0600E009
S315000019B05E0648BF2846521CECE7C0B2F2BD9E49FF
S315000019C001EB00107047F8B50C461546FFF7CAFF45
S315000019D001460022FF291CD000234FF0140C01E021
S315000019E0521C5B1C944800EB0116DFB2B068067906
S315000019F0B7420ED200681CFB07F73844067B15B1C8
S31500001A00760602D4EDE73706EBD5D6B2A642E7D185
S31500001A10F2BD0020F2BD002109E010B50446012107
S31500001A2000F005F82046BDE8104005F05CBA2DE947
S31500001A30F84F86B0814605F002F97D49DFF8F8A136
S31500001A400A78059004924FF0000B07E00AEB0010AD
S31500001A50017B059881420FD00BF1010B04995FFAC7
S31500001A608BF0884246DAB9F1FF0FEFD04846FFF710
S31500001A7079FFFF2883463DD000273FE00328ACBF0F
S31500001A80A26804F10802012000900023002101A8A9
S31500001A90FFF7C3FD761C2989B0B288422DD268684B
S31500001AA0B2B20C214A4384182379D906F2D41AF823
S31500001AB008208DF804202988ADF806102079410603
S31500001AC04CBF802140218DF8081028462188ADF8AA
S31500001AD00A102146FFF765FDADF80C002179E07884
S31500001AE04A07CBD5A2680328CDDB1268CBE7B9F14C
S31500001AF0FF0FB1D007B0BDE8F08F7F1C4FEA0B6037
S31500001B004FEA10580AF10800F9B250F808000279B5
S31500001B109142ECD20168FBB214204343CD1840F247
S31500001B202D112A898A42A8BF07F088F90026B2E754
S31500001B30704730B5047B012200230C4205D10020FA
S31500001B4030BD144218BF5B1C5200D5B28D42F8D38B
S31500001B500069DBB250F8230030BD4049401A8003CB
S31500001B60020C00213E4802E52DE9FE4F0027002821
S31500001B70487D4FF0010806D008B9022407E0012885
S31500001B8004D1012403E008B9082400E004240C9DD4
S31500001B900E980D9EDDF83CB0ADF80020B9468A4699
S31500001BA00193ADF830508DF838002C4800EB8905CC
S31500001BB0BDF800002988814224D1E978214221D04C
S31500001BC0A9789DF8380081421CD3E9789AF80F006D
S31500001BD0CA0608D5B0B12846FFF7BFFFBAF81010FD
S31500001BE0814201D00EE068B9BB4513D0BDF8300084
S31500001BF087420FDA0198A978C1557F1C3288521C9A
S31500001C003280BFB209F10109B9F13C0FCDDB404684
S31500001C10BDE8FE8F4FF00008F9E70000BC72050032
S31500001C20CA540600C07205004A560600465606000B
S31500001C308BDA032038760500304E03206C740500DD
S31500001C404C7605009875050048760500504E032031
S31500001C50744C0320CD0D0000C90D000078730500FB
S31500001C60687405002DE9F84785B00F9F109D0E9CFE
S31500001C700295019706468A46904699460094FFF7D4
S31500001C8090F8010003D0022803D002D310E001200F
S31500001C900EE00CBF01200020002104910390029564
S31500001CA0019700944B4642465146304600F003FAEF
S31500001CB006B0BDE8F087F0B585B00A9D0B9C00F034
S31500001CC021F8009617E078B585B000F00BF8802370
S31500001CD004E078B585B000F005F8402300F0EBF994
S31500001CE006B070BD0A9C0193002501260495039653
S31500001CF002940095704700F0DEF905B0F0BD0A9D2C
S31500001D000B9C0093002601270496039702940195E5
S31500001D107047F0B585B0012704970A9D0B9E0C9C71
S31500001D2000270397029401960095E4E77FB5099C86
S31500001D30089D0A9E0294039600240195009410E0E3
S31500001D4038B584B000F006F84023FFE700F07DFACE
S31500001D5005B030BD089C01930025039502940095BB
S31500001D60704700F072FA04B070BD2DE9F84F84B0E8
S31500001D709046DDF838901C4605468A464B46224674
S31500001D800026ADF80060FFF74AFD0700B3468DF860
S31500001D900450ADF806A08DF80840ADF80A80ADF8FD
S31500001DA00C904FD001A9FFF70FFC00284AD0ADF8E0
S31500001DB00280DDF83C90DDF840A0BDF800800024EC
S31500001DC015E0B1B249450FD2FFF78EF8A878FFF7B4
S31500001DD07CF85FEA0A0006D02879C10754BF0520BF
S31500001DE00720FFF772F8761C08F10108641C398990
S31500001DF0A0B288421ED27868A2B20C214A433B8820
S31500001E008518B3F57C4F09DA2888ADF80A0001AACF
S31500001E1029463846FFF7EEFB0028E7D02888BDF8AC
S31500001E2002108842CDD20BF1010BDDE7002005B090
S31500001E30BDE8F08F1FFA8BF111FA86F01FFA88F1D0
S31500001E408842F3D10120F2E72DE9F04F8FB0DFF899
S31500001E504C14DFF84C24DFF84C8405914FF0000A4F
S31500001E60049201E00AF1010AFFF751FA5FFA8AF1DA
S31500001E70814280F099804FEA0A604FEA105BDFF8F2
S31500001E80281418F80B2000F0D0F9DFF8201400F021
S31500001E90C9F900278CE0E07808E0A078FFF757FA48
S31500001EA00028F8D006A8FFF7A4F8801C82B2012308
S31500001EB006A9042004F098F828884946FEF779FB1D
S31500001EC04FF6FF71884207D0DFF8E423DFF8E4130A
S31500001ED052F8302000F0A9F9761C2989B0B2884260
S31500001EE065D26868B2B20C214A43841806F0A6FF90
S31500001EF0207941062088049900904CBFDFF8B8335A
S31500001F00DFF8B8332A88042003F07DFF21462846EF
S31500001F10FFF747FB814620B90599042003F073FFBC
S31500001F2004E04A465FA1042003F06DFF2079810793
S31500001F3048BFDFF88C1305D4C1064CBFDFF8841305
S31500001F40DFF88413C00754BF57A058A00191009032
S31500001F50E378A278DFF87413042003F054FF2079A5
S31500001F60CDF8009041064CBF8023402306AA0020EE
S31500001F7021210192039002912288298818F80B00EA
S31500001F8000F063F9862804D1DFF8441300F04AF91B
S31500001F90A2E7A078FFF7D3F900283FF47EAF06A8A2
S31500001FA0FFF722F8401C81E70FB0BDE8F08F7F1CD9
S31500001FB008F10800F9B250F80B0002799142BFF41B
S31500001FC051AF0168FBB214204343CD18002684E7C5
S31500001FD02DE9FE438EB0199C042C55DD189D1E4636
S31500001FE017468846814602950196009743464A461B
S31500001FF0DFF8E01200F05CF804A9212005AA03919D
S3150000200002900192009533463A464146484600F012
S315000020101CF905003BD19DF81000412818BF422845
S3150000202004D105A8FEF7E0FF451C0BE0432818BFC6
S31500002030442804D105A8FEF7DCFF851C02E006F063
S315000020401DFF0546EDB2281D84421DDB3846FEF70E
S315000020504BFF0020FEF739FF9DF810009E4CFEF75F
S3150000206034FF20882918522908DA9C4B2A4605A9EC
S31500002070184400F045F920882818208000953B4632
S315000020804246974900F014F811B0BDE8F08338468F
S31500002090FEF72AFF2846FEF718FF00953B46424604
S315000020A09049EFE725327800524F00005257000062
S315000020B0042003F0A2BE2DE9F84F88B08146129C99
S315000020C00E4617469846002004908DF81490ADF8F9
S315000020D016608DF81880ADF81A70ADF81C400090A7
S315000020E00023002204A905A8FFF797FA04987E4A60
S315000020F038B9019700964B467C49FFF7D9FF8620F1
S315000021008DE0159890B904999DF850008B78984207
S3150000211004D0774900F089F88D2080E00979C80756
S3150000212004D4744900F081F8882078E00498017995
S31500002130139D480727D50499886841680498029139
S3150000214081688868049901908878FEF7D1FD8346F6
S315000021500498C1788DF8001003290A465B46294683
S315000021602BDA02A8FEF729FD82469DF800205B4681
S31500002170294601A8FEF721FDBAF1010F1CBF4FF059
S31500002180FF31884228D01698002844D100F050F834
S31500002190FEF75FFE010042D100F04AF8FFF747F96B
S315000021A001003CD10120009000232A46002105A809
S315000021B0FFF733FA010011D031E00298FEF7FDFC7B
S315000021C0012809D09DF8002001985B462946FEF7B4
S315000021D0F4FC10F1010FD6D1872020E0049B324693
S315000021E049462846FFF7A4FC0295009443469DF80D
S315000021F0500001903A463146484601F02FFE00F065
S3150000220017F8FEF725FE009443463A4631464846FF
S31500002210FFF7E8F802E0384900F004F8002009B0BA
S31500002220BDE8F08F042003F0E8BD042003F0E5BD0F
S31500002230039543460498C1789DF850000291019099
S3150000224000943A46314648467047F0B585B01C467C
S315000022500A9E0B9D0C9B002701978DF80800ADF890
S315000022600A108DF80C40ADF80E20ADF810600097FE
S315000022702A4601A902A8FFF7D0F9040005D10D9856
S3150000228040B101998A78027004E0892802D11B497D
S31500002290FFF7C8FF204605B0F0BD0000C876050070
S315000022A0A4760500304E03205876050064760500B6
S315000022B0A083050050760500B8760500C0760500B7
S315000022C0E8760500F0760500F8760500D07605007C
S315000022D0007705000C77050070DE03208C4E032086
S315000022E06477050040770500B8770500907705000C
S315000022F0C4770500D8770500EC7705000C78050053
S3150000230070B5814224D210441144401E491E10E08B
S3150000231011F8013900F80139121F11F8014900F8C6
S31500002320014911F8015900F8015911F8016900F83D
S31500002330016993B2042BEBDA93B2002B1EBF11F89E
S31500002340013900F80139521EF6D170BD00F00DF8C2
S3150000235093B2042BFADA93B2002B1EBF11F8013B9D
S3150000236000F8013B521EF6D170BD11F8013B00F892
S31500002370013B121F11F8014B00F8014B11F8015BEC
S3150000238000F8015B11F8016B00F8016B7047130050
S3150000239003D00A46194606F083BD704710B50346BA
S315000023A000E0521E90B218B100F003F8F9D0001BFD
S315000023B010BD13F8010B11F8014BA0427047FEE760
S315000023C00C490D4808600020704700B17020704726
S315000023D00020704780B500F013F8FF2801D1A32034
S315000023E002BD002002BD00207047704700BF0348B1
S315000023F000787047E04E032004770600304E032035
S3150000240080B5FFF7AFFAFF2818BF002002BD0021F4
S315000024100170704700F05DB870B5044616460D466B
S315000024203046FFF7D7FF002020703046A847BDE8AA
S315000024307040FFF7D8BF01223D493E48ECE7012234
S315000024403D493E48E8E701223D493E48E4E7F2229D
S315000024503B493D48E0E780B5012006F0A3FE3B4836
S3150000246006F034FE3A49087001BD80B506F0AEFEAE
S31500002470012805D036480078BDE8024006F011BEB6
S3150000248001BDF0B5002400E0641C324D2E88E3B295
S31500002490B3420ED2E7B20C252F4B6F433B441E7856
S315000024A0864201BF5D888D421E799642ECD1184660
S315000024B0F0BD0020F0BD80B519B906F073FD00200F
S315000024C002BDB1F1004F02D206F076FDF7E7022019
S315000024D002BDB1F5000F3CBF0902FFF7ECBF0220B9
S315000024E0704770B505461E46FFF7CBFF04000ED0B9
S315000024F02846FFF7F9F950B1A0683146FFF7DBFF30
S3150000250028B905980499A0716171002070BD022058
S3150000251070BD1CB500931346049C01940022FFF77E
S31500002520E0FF16BD80B500230093FFF7F2FF02BD62
S31500002530EBA60200C04D03209BAA0200C84D032053
S315000025402DA80200D04D0320D84D0320B46E0500FF
S315000025503BCD03201C4703207C3B032080B5FFF7BF
S3150000256090FF20B1806800210170002002BD02208A
S3150000257002BD0022F2E7FEE736E0DFF81801017837
S31500002580022901DB012070470020704738B5DFF8CB
S31500002590045104462878A04203D02146FEF72DFCBC
S315000025A02C7031BD10B5DFF8F040207860B900F02E
S315000025B01BF806F027FE0121217028B10288B2F52A
S315000025C0817F24BF007D2070207810BDDFF8C41005
S315000025D00978012803D10129D8BF022002DD10B9EC
S315000025E0012900DDD2E770472A480178022900DB7D
S315000025F0704710B506F0F2FD02462849284C012026
S3150000260003F0FBFB0120FFF7E1FF2078FF281BD139
S3150000261006F0F8FDB8B140880006400E00F0010053
S3150000262020701822FF211F48FFF7B1FE20780128ED
S315000026300AD1FFF7B7FF052806DBBDE81040D92110
S31500002640194806F035BE207010BD80B5FFF7CCFFE7
S31500002650BDE8014006F0D6BD70B504460D461646E7
S31500002660FFF7C2FF0420FFF791FF324629462046B6
S3150000267006F0FAFD044600F003F8204670BD8146D8
S31500002680022083E780B5FFF7AFFFBDE8014006F003
S31500002690FABD0000F7DE0320F8DE0320A0AC05003B
S315000026A0A6470320AC92032094AC050080B5A74949
S315000026B0022003F0A2FBFF20FFF7AFF9FF2003F093
S315000026C0E8FEFF2007F0A4F906F020F800F077F8FE
S315000026D0FEF7B1FB9E490020088001BDF8B500F069
S315000026E0A4F8009800F0010005B000BD18B587B049
S315000026F001A9684606F0D2FA964C9DF80F00A07024
S315000027000822BDF80C00208001A9201DFFF7F8FD66
S315000027109DF814006073002200212046FEF78CFB12
S315000027208B490020088008B010BD80B5684606F0C9
S31500002730BFFA932809D1884801680A788DF80020E5
S31500002740012A04BF02218DF800109DF8000002BD89
S3150000275070B590B004460D4616462C22002105A8F9
S31500002760FFF715FE8DF81640ADF8146006A8FEF7C3
S3150000277039FB01A807F0DEFE0198ADF83A00FFF735
S31500002780D4FF8DF83C0000F053F8294605A807F061
S3150000279074FB04469DF83C00704A7149009023463C
S315000027A0012003F02AFB200004D16948018841F486
S315000027B080710180204610B070BD07F0D9BE1FB5EC
S315000027C007F06CFF032400B1072407F069FF08B186
S315000027D044F00804204607F0CEFE624807F0D5FE16
S315000027E0614807F0D5FE00F020F80098C1071BD518
S315000027F05E49022003F001FB57480168087801286A
S3150000280008BF022007F0BDFB07F04CFF00F00DF8F3
S31500002810009840F080000090684607F096FE00F0B1
S3150000282007F8032003F07EFA1FBD684607F082BE54
S3150000283078B58FB005A84E49282204F0FFFA06F0B5
S3150000284077F808B100201BE001A803F05CFA040049
S31500002850484D494E03D000903246484B0BE005A840
S31500002860FEF7E8FA05A901A807F057FB040006D011
S3150000287000903246424B2946022003F0BEFA20461B
S3150000288010B070BD10B5324C208840F40070208026
S3150000289003F0DCF9034622883A49012003F0ADFA39
S315000028A003F0D4F901280CBF0124002407F0C4FF6B
S315000028B028B102463449022003F09FFA00E024B111
S315000028C007F00CFEBDE81040F0E610BD58B5204EEE
S315000028D0224A33882D4984B00446009301202346BA
S315000028E003F08BFA3088810504D5912C2BD1FFF7A4
S315000028F0DDFE28E010F08F0F11D0902C02D1FFF7EB
S31500002900F5FE20E0912C1ED0029001942048214B28
S31500002910194A21490090022003F06FFA13E0FFF7ED
S3150000292084FF902C0FD10098C1070CD542085200A5
S315000029300092002101910291ADF80C10684607F053
S3150000294004FE08F0E6F905B050BD0000006A050077
S31500002950F2C903200C4B0320E04E0320AC6B0500AC
S315000029601C6A0500008810020070EF05D06905009A
S31500002970546A05007C6A0500906A0500986A05009D
S31500002980B06A0500C86A0500046B0500346B0500D3
S315000029909C6B0500846B0500646B050080B5FFF732
S315000029A00CFFBDE8024000F0FE0007F0E4BD10B5E4
S315000029B0FFF703FF40F0010407F070FE08B144F092
S315000029C0040407F06DFE08B144F008042046BDE893
S315000029D0104007F0D0BD0020002170471CB5DFF87D
S315000029E0B44A0A2200212046FFF7D1FC60220021CA
S315000029F0DFF8C80CFFF7CBFCA02060800521202063
S31500002A008DF80410009001AB10222121F220FFF76F
S31500002A105AF913BDDFF87C1A002000B508704FF094
S31500002A20FF3187B0002304918DF818000021039030
S31500002A3002900191009304AA08F0D5FC07B000BDEE
S31500002A4018B5DFF8504A207AC10787B012D54FF083
S31500002A50FF32002104928DF8181009F04BF800207F
S31500002A60002100232072039102900190009304AA92
S31500002A7008F0B9FCDFF8481C0020087008B010BD4B
S31500002A8080B5FFF7C7FFDFF83C1C0020087001BDCA
S31500002A902DE9F04700F00108C0F34204894692464A
S31500002AA00609450900F0C3F806F0010605F0010520
S31500002AB026D1DFF8E079387820B109F062FBF98891
S31500002AC088421DD1B8F1000F18D009F05AFBF880E2
S31500002AD0A0210120387079807C70E2077D7146BFA5
S31500002AE04FF47A7101FB09F1DFF8DC1BDFF8D40B38
S31500002AF006F062FA26B187F804A001E0FFF78AFF24
S31500002B000120BDE8F087002070472DE9F34F8FB014
S31500002B100746DDF884901546984600F084F8780A52
S31500002B2000F0030AC7F341108DF818000024F80AD4
S31500002B3000F0070BDFF8940B38400828DFF8A00BED
S31500002B4001680A7908BFA146042A08BF01242B00A0
S31500002B501A9D08BF0AAB05B90AAD1F9E06B90AAE93
S31500002B60109ACDF8008007F0070107A809F0C2FB0C
S31500002B70002854D0DFF86C1B012003F044F900F064
S31500002B8056F84CD1BAF1010F49D09DF82400C0B1D6
S31500002B90022844D10022082107A803F0A5F800283E
S31500002BA03DD107F01800182839D0ABF105000228EE
S31500002BB035D39DF8180068B9F8060BD47CBB852080
S31500002BC02BE0079858B310F1070FEAD310F1010F65
S31500002BD025D1E6E71E9A20981C991B9B049201902A
S31500002BE00091CDF814900396029507A99DF8182038
S31500002BF0384609F004FF38B1DFF8980841788807AD
S31500002C000DD5FFF707FF0AE0380708D509F015FCD0
S31500002C10FF2808BF002C02D18920FDF7F4FE012011
S31500002C2011B0BDE8F08F0AA8142109F097BFDFF8AC
S31500002C30B00A01680A685079F22870472DE9F04316
S31500002C408FB081468846169C16461D46FFF7EBFF59
S31500002C5004B90AACFFF7EBFF4ED1189F179A294625
S31500002C60199DF02F49D0F32F61D1002200298DF84C
S31500002C70242007923CD10AF0D2F880453AD1DFF8F9
S31500002C80405ADFF81048287810B1207A810764D5B9
S31500002C9005F050FE0B3840F0100004AA01238DF811
S31500002CA0100000210192009303910291F32307AAD9
S31500002CB0012008F098FB0120207205F03BFE06F18A
S31500002CC00B0188420BD001200B3600FA06F10022D8
S31500002CD0032008F056FE207A00F0FD0002E0207A7C
S31500002CE040F00200207241F28831284606F064F96D
S31500002CF0012033E0FFF7A4FE2FE019F007008DF85E
S31500002D00180008BF049101D000F02BF80AF087F8EC
S31500002D10804503D100F02FF8F0231AE000200021AF
S31500002D200023039002910190009304AA13E0F72F69
S31500002D3003DAA7F1B003102B0FD219F003008DF8B8
S31500002D40180008BF049101D000F00BF800F013F84A
S31500002D503B4604AA012008F046FB00200FB0BDE860
S31500002D60F08302218DF818108DF8192021460822CB
S31500002D7004A8FFF7C5BA002000216A1C039002913F
S31500002D8001922B7800937047002070472DE9F04799
S31500002D9004468846626892B200214046FDF7C4FEAA
S31500002DA0207C08F1020520B9A26800F0A2F82D1DCA
S31500002DB007E0022805D1082204F1080100F09FF877
S31500002DC00835207C022804BF607C05F8010B616889
S31500002DD0880403D5A28A00F097F8AD1C6068410408
S31500002DE00ED5A07D05F8010B0021A26900F082F83E
S31500002DF02D1D102204F11C0100F081F8103505E0AC
S31500002E00800603D5A26900F074F82D1D20794106CD
S31500002E104FF00C0A0ED500F05EF800F061F805D10F
S31500002E2000F06BF800F06EF800F04EF87F1CF9B277
S31500002E300229F2DB6068C10517D500F04CF8FAB23A
S31500002E4004F12C011AFB02F28E183378022B08D1FA
S31500002E50728800F059F8AD1CB28800F055F800F001
S31500002E6033F87F1CF9B20229E9DB04F1440001784A
S31500002E7005F8011B227902F01802182A1CBF4078B7
S31500002E8005F8010B6268100403D5120C00F03CF83B
S31500002E90AD1C6068C10312D500F01DF800F020F8E3
S31500002EA009D100F02AF800F02DF899F800000A3050
S31500002EB0AD1C89F800007F1CF9B20229EEDBA5EBF8
S31500002EC0080188B2BDE8F08799F80000401CAD1CE7
S31500002ED089F8000070470027A94605F8017B70476E
S31500002EE0FAB204F12C011AFB02F28E183378032B86
S31500002EF0704700212846FDF71CBE0822B11C284653
S31500002F00FFF7FEB90835728900212846FDF70CBE89
S31500002F102DE9F84FB6B00F4600F00701C0F3C10027
S31500002F208DF8041000909346984607A8FFF77CFE9C
S31500002F30DFF8AC17096800260025BBF1000F0879F9
S31500002F4008BF0DF11C0B00284DD109684879F228FD
S31500002F503CD10FA9E8B209F0FCF9002836D19DF85A
S31500002F603C00FF2818BF761C6D1CE8B20428F0DD73
S31500002F709DF80001DFF84459DFF84499DFF844A9C9
S31500002F800690F4B2009860BB9DF80410CDF800805E
S31500002F903A465B460CA809F0ADF9002800F07F80A0
S31500002FA00CA809F02CFAFF28064622D000200122A0
S31500002FB0FF2305900490039202930194009000F081
S31500002FC074F80FA9304609F0C4F900286BD1288897
S31500002FD009EB00010FA8FFF7D9FE298840182880C1
S31500002FE05BE0009801285AD19DF80001F6B2B04284
S31500002FF009D300210591049103918B220699029130
S315000030000194009247E00020059000210698049163
S31500003010FF22039202900194009100F046F80027E7
S315000030209DF800B10024B8460FA95FFA88F009F0B0
S3150000303090F9002837D19DF83C00FF2815D07F1C59
S31500003040FAB2934511D221A90FA8FFF79FFE0646B3
S315000030502888811952290ED2324621A94844FFF701
S315000030604FF9288836182E80641C08F101085FFA8B
S3150000307088F10429D8DD89F80640FDF7C2FC7428DA
S315000030800DD1002005900390002106980491FFB20F
S3150000309002900197009100F008F8FDF7B2FC0120BC
S315000030A037B0BDE8F08F0020FAE753460B22212106
S315000030B00120FEF760B82DE9F04F0024F22808BF82
S315000030C02129A7B04FF0000A4DD1112A02BF802B4B
S315000030D03098002847D1DDF8C480B8F1050F42DDED
S315000030E01120FDF701FFDFF8D457DFF8D4972E88BB
S315000030F0361DB6B2B34600276946F8B209F029F97B
S3150000310030BB9DF80000FF280FD012A96846FFF7D4
S315000031103DFE0446301980451CDB224612A909EB08
S315000031200600FFF7EDF8A619B6B27F1CF8B205281F
S31500003130E2DB5FEA0A00A6EB0B060ED10020FDF7E4
S31500003140C4FE4320FDF7C1FEB0B2FDF7CDFE06E09A
S31500003150002009E04FF0890AEBE7FDF7B6FE288864
S3150000316036182E800124204627B0BDE8F08F2DE9C1
S31500003170F04FC84E8BB0307868B10A93187A0028A1
S3150000318004BF1B68002B06D0199CE02C18BFE22C4C
S3150000319001D0179B0BB1012018E1DDF874901C9D3E
S315000031A0DDF868A0DDF85480149F8DF824208DF892
S315000031B02510834609F033FE0690CDF820A09DF831
S315000031C02510189807910290CDF814909DF82410B8
S315000031D00A9804950394019700910246437A016880
S315000031E04BEA071040EA881444F4006009F029F815
S315000031F0FEF735F80446F22020716071052009F0CB
S315000032003BFF707910B100F012F80DE09DF8240034
S31500003210A0F10C05E088A57240F00200E0800A9853
S315000032200BF09EFB00F08CF800F03AF9B3E7F1885A
S315000032300020FDF7EBBF2DE9F84F1C468AB0054686
S31500003240207A002804BF2368002B77D030B9236882
S3150000325013F1070F02D313F1010F6FD102280AD120
S315000032600023D8B2205C18B95B1CDEB2082EF8DB4E
S31500003270DBB2082B62D0169800285FD1179E237AFE
S31500003280300018BF43F008037E2D159818BF7F2D18
S3150000329003D143F4007300B10420149DDFF8F491C8
S315000032A0DDF868A0DDF87080DDF874B08DF82420B4
S315000032B02F0143EA801347F400673B4399F8050062
S315000032C0ADF826300F4698B109F0A9FD00F03EF89A
S315000032D0002E14BF2020052009F0CEFEFDF7BFFF0B
S315000032E000F0DAF80020B9F80610FDF78FFF23E0AA
S315000032F009F095FD00F02AF8FDF7B1FF00F0CCF8D3
S315000033009DF82410A1F10C05C188857241F00201D7
S31500003310C1804EB17F0907F00607C7F103077F0793
S315000033203F0E2037B8B200E0052009F0A5FE204682
S315000033300BF016FB00F004F800F0B2F8012045E0AF
S315000033400146EAB24FF6FD70FDF774BF0690CDF860
S3150000335020A00797CDF814B0CDF81080019522462D
S315000033609DF864001899039002919DF8240000903E
S31500003370637A2168BDF8260008F063BF01E000000B
S3150000338000BF2DE9F84F8AB0DDF854E0DDF858C0EB
S31500003390DDF85080179FDDF86090199EDDF868A073
S315000033A01B9D1C9CDDF874B0CDF808C0CDF804E078
S315000033B0CDF824B008940795CDF818A00596CDF859
S315000033C010900397CDF80080FFF735FF0BB0BDE8EE
S315000033D0F08F2DE9F84F2F4E8AB03478002C1EBF9F
S315000033E0347A04F00304012C52D008257E2815985F
S315000033F0149CDDF860B0DDF86480DDF868A0DDF8C7
S3150000340074908DF8242008BF4FF40275800140EABD
S31500003410041040F400602843ADF826000F461C9DBA
S31500003420707968B109F0FBFC00F03DF8FDF717FF75
S3150000343000F032F8202009F01FFEFFF7F8FE25E025
S315000034401E4609F0ECFC00F02EF8FDF708FF00F030
S3150000345023F87F0907F006079DF82410C7F1030734
S315000034607F07A1F10C04C18841F002013F0E84726E
S31500003470C1802037B8B209F0FFFD30460BF070FA74
S315000034800146E2B24FF6FD70FDF7D4FE00F008F8F3
S3150000349001209BE7F08E0320F221017141717047F4
S315000034A0002009F0E9BD0690CDF820A00797CDF8D9
S315000034B014900495CDF80C80CDF808B00194002343
S315000034C09DF8240000900022BDF82600002108F097
S315000034D0B8BE2DE9F84F9AB091462B980246FF2ABE
S315000034E00C461F4600F0E5804821DFF8DC334A43EE
S315000034F019680D1D091DAB5843F400738B5008A9BC
S3150000350043F48063AB5008F024FF002840F0D180DC
S31500003510079700213E7A4FF00C0808A808FB01F235
S31500003520104490F82C00002814BF032846F0080623
S3150000353003D0022808BF46F02006491C0229ECDB0E
S315000035409DF82400299DDDF89CA001062499259864
S3150000355048BF46F0100646EA811646EA0026E02DE8
S3150000356046F4A04618BFE12DB6B203D1DFF85C23BE
S31500003570107820B15FEA0A0018BF46F400668DF89D
S315000035801890289F01B94F46DDF8B4B0DDF8B09029
S3150000359009F045FC05940490CDF80CB0CDF80890E0
S315000035A00195009764090798437A016804F00604B8
S315000035B00246C4F103043046640708F005FE240EF3
S315000035C02034ADF800409DF81850DDF81C9000241A
S315000035D04FF6FC7B08A808FB04F1471807F12C06F8
S315000035E03078002818BF032818D1FDF738FEFFF7FA
S315000035F053FF5FEA0A0014BF2020052009F03CFDB6
S315000036007089584506DB07F12E0009F0B7FB5845CF
S31500003610B8BF70817189FFF70BFE1FE002281FD12A
S31500003620FDF71DFEFFF738FFA5F10907877200F0C9
S315000036304FF85FEA0A0014BFBDF80000052009F044
S315000036401BFDB0884FF6FF71884204BF48460BF059
S3150000365087F901467088FAB2FDF7BDFDFFF720FF36
S31500003660641C022CB6DB9DF82400010621D5FDF76B
S31500003670F6FDFFF711FF8572BAF1000F00F028F88A
S3150000368014BFBDF80000052009F0F6FC0998810476
S3150000369048BFBDF8348003D448460BF061F9804634
S315000036A048460BF05DF92A464146FDF794FDFFF7C3
S315000036B0F7FE01201BB0BDE8F08F0000FC8E032052
S315000036C0648F03205C8F0320007102000800020053
S315000036D0C18841F00201C1809DF86410C172704733
S315000036E0644F032088940500012070472DE9F84FA8
S315000036F0064676480C46017AC8079EB0154603D59D
S315000037009DF8B410E32972D19DF8A0000B93002810
S3150000371002BF6E490878002810D1184608F06FFEDF
S31500003720FF280BD00CA908F014FE00285FD10D98D5
S3150000373041045CD49DF84600002858D1002E18BFDD
S315000037407C2E8DF8286005D07F2E50D15F490878F1
S3150000375000284CD05D498DF82A408DF8295008780C
S31500003760299C2A9D2B9EDDF8B090DDF8B8A02F9FEE
S31500003770DDF8C080DDF8C4B0002863D0280003D08F
S3150000378000F079F8FFF7F3FC9DF828007F2804BFC6
S315000037909DF8A000032805D19DF8B40000F05DF85F
S315000037A0032145E09DF8B400E02836D02AD3E2286C
S315000037B01ED002D3E32820D024E09DF8A0100B9B56
S315000037C09DF829200091E1200590CDF824B09DF8C0
S315000037D02A109DF82800CDF820800797CDF818A06C
S315000037E0CDF81090039602950194FFF7C7FD31E0DE
S315000037F000F043F8FFF7C4FD2CE000F03EF8FFF7B9
S31500003800E8FD27E09DF828107C2909D1A0F1E40203
S315000038100C2A24BFB038102818D200F02CF80EE07D
S315000038207F2913D19DF8B4009DF8A01000F015F87B
S3150000383000910B9B9DF829209DF82A107E20FFF70A
S31500003840FAFC07E09DF8B400E22803D000F013F874
S31500003850FFF73FFE1FB0BDE8F08FCDF824B0CDF8DE
S3150000386020800797CDF818A00590CDF81090039604
S315000038700295019470479DF8B4009DF8A01005903C
S3150000388000910B9B9DF829209DF82A109DF8280091
S31500003890CDF824B0CDF820800797CDF818A0CDF844
S315000038A01090039602950194704728B90748017A4B
S315000038B0C80748BFFFF7C4B87047000070DE032092
S315000038C08C4E032094940500E8430320F08E0320D9
S315000038D0912800D0704780B500F0E1FE18B9BDE828
S315000038E001400BF065B901BD1CB5059C1CB1049CDB
S315000038F0009403F075FF13BD30B50246DFF8B40837
S31500003900DFF8B458002303E0D45C604068435B1CD6
S315000039108B42F9DB30BD02460846142324210BF006
S315000039204BBA0A460146142324200BF078BA902895
S3150000393000D0704780B50BF015FBBDE801403CE3B5
S3150000394030B585B00024DFF874586946E0B2FFF759
S31500003950E2FF9DF8010038B19DF8000020B918205B
S315000039606043284401210174641C062CEDDB00F041
S3150000397024FB05B030BD2DE9F04F002497B0A046DA
S31500003980A346A146002505A9E8B2FFF7C4FF0BF040
S3150000399054FB1822DFF824186A438E183268821AFC
S315000039A09DF8150000280FD09DF81410002923D18A
S315000039B0BDF820104FF47A7359438A4208D3317CFC
S315000039C041B9BDF82210002900F0B5804B439A4258
S315000039D0C0F0B18004A903912122BDF81C10029207
S315000039E00EAB019300919DF81A30BDF81820BDF872
S315000039F01610FEF72AFC002840F09D809DF8100066
S31500003A00FDF791FC20B10EA8FDF7EEFA401C03E08D
S31500003A109DF8100005F032FA5FFA80FA0AF1030207
S31500003A20DCB120799DF815306188834204BFBDF86A
S31500003A3016308B420FD19DF81A30DB095B4504BF67
S31500003A40BDF81C30434506D1DFF874371F88D2B263
S31500003A50D21991453FDA00F07CF8FDF700FC0446E8
S31500003A609DF81A00BDF81C2097A100915FEAD01BB3
S31500003A7014BF00200820BDF816100A23FDF76DFBC1
S31500003A809DF8150020714FF48251E1804FF0FF0937
S31500003A90BDF81C8000270AA9F8B204F0B9FC00287A
S31500003AA002BF9DF829009DF81510884202BFBDF897
S31500003AB02A00BDF81610884209D19DF835109DF8E8
S31500003AC028002246FDF706F8484598BF81467F1C28
S31500003AD0F8B20228DFDDBDF81800FDF705FA9DF8FB
S31500003AE01000FDF7F2F951460EA8FDF72DFA002059
S31500003AF030740BF0A2FA30600EAB002000905246F4
S31500003B009DF81000412818BF42280AD1AAF10101E8
S31500003B10C9B20DF13900FFF7EFFE00906B460422A3
S31500003B2001E0092A07D20020C6E90200194606F17B
S31500003B300800FEF7E5FB6D1C062DFFF624AF1CB151
S31500003B406188207900F005F800F037FA17B0BDE873
S31500003B50F08F10B50C46FCF76FFC08B9032C0BD19F
S31500003B60DFF86006FDF720FBB42808BFFDF72AFB47
S31500003B70BDE81040FDF731BB10BD2DE9F04F0546FD
S31500003B8087B02C7D687D00264FA10028009107BFD5
S31500003B9008204FF0400800204FF080082F682A8A3E
S31500003BA079880723FDF7D9FA8DF80580AA89A1B28D
S31500003BB0C81C90427DDAA868415C8DF80610641C2A
S31500003BC0A1B2FDF7EFF980469DF80600A41C10B1DE
S31500003BD0012853D05DE0A868A1B2641C425C8DF850
S31500003BE00420A1B2AA89FDF7DDF90746A41C00F05E
S31500003BF06DF881469DF80400FDF72FF84FF0000A96
S31500003C00A41C60B99DF8040005F038F98346AA891A
S31500003C10A8685B46A1B2FDF7AEF982465C44286807
S31500003C20298A9DF805300091424641884079FDF782
S31500003C305AFC00281FBF80789DF8041088428D2703
S31500003C4028D1286841798DF80910286841889DF89F
S31500003C500500ADF80A10ADF80C808DF80E0002A82C
S31500003C60298AADF81010ADF81470ADF81690CDF89D
S31500003C7018A000F0FCF9070098D00BE000F026F839
S31500003C8003469DF805204146284600F09FFAA41CED
S31500003C90F1E785273846FDF718F99DF80600FDF788
S31500003CA014F94046FDF720F90126852F7FF47EAFF3
S31500003CB003E016B90020FDF708F9FCF7A2FE012083
S31500003CC007B0BDE8F08F000000000000AA89A868D0
S31500003CD0A1B2FDF767B92DE9F047064686B0357DF6
S31500003CE0707D91A10028009107BF08204FF0400A7F
S31500003CF000204FF0800A3468328A61880923FDF774
S31500003D002CFA08E08620FDF7E0F82046FDF7DDF8FE
S31500003D104846FDF7E9F8B289A9B2CB1C9A4257DBAF
S31500003D20B068445C6D1CA9B2FDF73CF9AD1C012CD2
S31500003D30814648D83068318A009153464188407997
S31500003D404A46FDF7D0FB5FEA0008DBD0002701A951
S31500003D50F8B2FFF7E0FD9DF80400A04201BF31680C
S31500003D609DF805004A7990421FD1BDF806004A88A1
S31500003D70904204BFBDF80800484516D19DF80A00D8
S31500003D80504502BFBDF80C00328A90420DD19DF815
S31500003D900400002820D0BDF81000F288904202BF2F
S31500003DA09DF812000979884216D07F1CF8B20628C1
S31500003DB0CDDB8B20A7E75FFA89F0FDF786F84FEA9F
S31500003DC01929641E2EE085209DE7BDF81400A0E7A2
S31500003DD0FCF717FE01202FE10020FDF776F82046BC
S31500003DE0FDF773F84846FDF77FF814B1012CECD0C7
S31500003DF091E798F80200FDF768F8BDF81000FDF7A6
S31500003E0073F8BDF81200FDF76FF898F80200FCF79A
S31500003E1024FF002809D198F8020005F02FF8DDF8F4
S31500003E2014900446E0B20028C5D174E710B500240A
S31500003E30E0B200F004F9641CE0B20628F8DBDFF813
S31500003E40880300210170002010BD80B5B12106282D
S31500003E5002DA00F006F90021084602BD2DE9F0431A
S31500003E6087B006460E9C0F4690469946002502A945
S31500003E70E8B2FFF750FD9DF80800002804BF9DF842
S31500003E800900B0420FD1BDF80A00B84204BFBDF820
S31500003E900C00404507D19DF80E00484504BFBDF80B
S31500003EA01000A04206D06D1CEAB2062ADFDB07B07E
S31500003EB0BDE8F08300202C460F9F109D01903846E8
S31500003EC004F0DCFF412F014618BF422F284608D1D7
S31500003ED0FDF78AF80146681CFFF70EFD01900421E4
S31500003EE001A8E4B21825B54E00916C432644D6E9E4
S31500003EF00223FCF7BFFA04460D463846FCF7ADFE32
S31500003F00012804D10022954208BF944207D1002817
S31500003F10CDD1002106988D4201D88442C7D3012213
S31500003F20327400F04AF8C2E70000000010B542788B
S31500003F304B789A4202BF42884B889A421AD18288AD
S31500003F408B889A4202BF82798B799A4212D1028972
S31500003F500B899A4202BF02780C78A2420AD13AB182
S31500003F6082898B899A4202BF807B897B884201D1F4
S31500003F70012010BD002010BD30B585B004460025D7
S31500003F8000F093F921466846FFF7D0FF78B900F0B4
S31500003F9088F9F5DB002500F088F99DF8010030B1BD
S31500003FA06D1CE9B20629F6DBFF2005B030BD2146BF
S31500003FB0E8B2FFF7B6FCE8B2F7E72DE9F8474FF0AD
S31500003FC0FF3985B0C8460025DFF8F0A14FF47A77AF
S31500003FD000F06BF99DF8010008B39DF80000F0B9F8
S31500003FE0BDF80C60BDF80E400BF027F8EBB21821B7
S31500003FF04B437E435AF803105344411A187C7C43C2
S315000040004A4618B18E4204D3721A05E024B18C4296
S3150000401001D2002200E0621A424598BF904600F0A5
S3150000402040F9D5DB18F1010F674803D04146FEF78A
S3150000403042FA01E00021017006B0BDE8F08718B52C
S3150000404085B004466946FFF766FC00228DF801201C
S3150000405069462046FFF765FC6846FCF7DFFE06B0BA
S3150000406010BD80B5FFF7EBFFBDE80140A5E72DE9E0
S31500004070F041054686B028890090AB79AA88698800
S315000040806878FDF730FAFF26012708B986208EE00A
S31500004090E88920B1A989884238BF8720F7D3002450
S315000040A001A9E0B2FFF737FC9DF804109DF8050062
S315000040B0002904BF6978884213D1BDF806106A88C2
S315000040C0914202BFBDF80810AA88914209D19DF815
S315000040D00A10AA79914202BFBDF80C102A899142B2
S315000040E014D0002802BFF0B2FF282646641CE0B2B6
S315000040F00628D5DB3446E8894FF6FF71884207D19A
S3150000410017B9E0B2FFF7ADFF002050E00027F2E755
S315000041100026002804BFA88988420AD1142229460D
S3150000412001A8FEF7EDF801A80AF027FF08B101275C
S315000041300126E0B2FF2808BF892038D017B3002037
S315000041408DF80400E7B269788DF80510062F6888A7
S31500004150ADF80600A888ADF80800A8798DF80A0021
S315000041602889ADF80C000DDA18204743DFF84C809B
S315000041700AF063FF48F8070008F108023A440020F5
S31500004180C2E900003EB9A889ADF81000E889ADF88B
S3150000419012002869059001A8FCF740FE050005D12C
S315000041A001A9E0B2FFF7BDFBFFF707FF284606B0FF
S315000041B0BDE8F081C59D1C8193010001384B0320A9
S315000041C070DE0320E9380000845B03202DE9F84700
S315000041D085B007469A46FF26012400258846914663
S315000041E000F063F89DF80000012801BF38689DF8CB
S315000041F00110427991421BD1BDF8021042889142CA
S3150000420004BFBDF80410414512D19DF8061049457A
S3150000421002BFBDF808103A8A914209D1BDF80C10C8
S31500004220FA88914202BF9DF80E10007981420FD0A4
S315000042309DF80100002802BFF0B2FF282E4600F0CC
S3150000424030F8CDDB3546E8B2FF2803D1892027E0D8
S315000042500024F8E7C4B101208DF8000039684879D8
S315000042608DF8010039684A88ADF80220ADF804805F
S315000042708DF80690398AADF80810F888ADF80C006C
S31500004280396808798DF80E00ADF810A06846FCF77D
S31500004290C5FD040003D16946E8B2FFF742FB20469C
S315000042A0CAE66D1CE8B2062870476946E8B2FFF711
S315000042B032BB30B585B004460025FFF7F6FF214630
S315000042C06846FFF733FE38B9FFF7EBFFF5DB20460C
S315000042D0FFF752FE05B030BD0020FBE782690021E2
S315000042E01172FF2182695172BF21826911708F2379
S315000042F081694B70AF2281698A707F228169CA7099
S31500004300372281698A710F228169CA718722816980
S315000043100A71002281694A7101200F4901F06DBDC1
S3150000432080B5FF208DF800004B218DF802108DF826
S31500004330011068460BF032FC00280CBF07490849FB
S31500004340012001F05AFD01BD002814BF05480648AA
S315000043500168491C01607047A0B50500C8B5050095
S31500004360F0B50500E4920320E892032010B51E4C38
S315000043702046FFF7B3FF0521217241F64C411B4849
S31500004380E0602182204610BD19487047E0B502A8BA
S3150000439000210190009148F20803002210211548DF
S315000043A00CF0F8F89DF80800401E8041C00F0EBDC5
S315000043B070473EB502A8019000250E4C009548F2C4
S315000043C008130022102120460CF0E4F89DF808009E
S315000043D048B9094908680CF0F1FD02AB002220211A
S315000043E020460CF0C7F937BDD0420320EC950320D8
S315000043F0C04203204CC7032038B2032080B5A0B0CA
S3150000440080787D22694604F098FB01001CBF69464E
S3150000441002F0A1FE21B000BD38B50A46014610469D
S315000044200DF044FBFF28044601D1182032BD0122BD
S3150000443001210EF065FA054620460DF0B4FA28462D
S3150000444032BD80B502F088FDBDE80240012010B5FE
S31500004450040014BF084800200EF024FB50B1002CC5
S31500004460BDE8104014BF054A054A03460549022027
S3150000447001F0C3BC10BD00001C91050004910500AD
S3150000448010910500D890050038B50EF073FC0EF0BB
S3150000449078FC78B1FCF7B8FC60B1094C207804F0E0
S315000044A039FE0546207804F076FE3DB1BDE8314080
S315000044B0FCF7A9BCBDE831400EF0B6BC31BD00002A
S315000044C03BCD032070478268521C8260426832B13D
S315000044D00268531C036011704168491E41607047B1
S315000044E080B5522200214F48FDF751FFBDE8084034
S315000044F08FE0FEB5054601F03FFB0646284601F073
S315000045004BFB9DF800102A464FF6FF7416B3019B2D
S315000045101B78212A1EDA4220022B434E09DA434336
S31500004520F01830F81230A34214D05B1C20F8123079
S3150000453010E00FD1002306EB420700FB03F637F825
S3150000454006E0A6451CBF0EF1010E27F806E05B1C2F
S31500004550022BF2DB354F334E37F8123036F812C0E5
S315000045609C458041C043C00FA4451CBF0CF1010C03
S3150000457026F812C0092D18BF0B2D0AD1B6F814C0A3
S31500004580BF8A01EB0C0EBE45AEBFB7826144B18255
S315000045900CE01D2D0AD1B6F83AC07F8F01EB0C0E48
S315000045A0BE45BDBF491E61447187778736F8121034
S315000045B0994203D310B92846FCF71EFC00201C497B
S315000045C0C6B28A5DAA4204D0401CC6B2112EF7DBE1
S315000045D0F7BD112E15DA02F034FB054615480178B1
S315000045E08D4203DBDD21144804F062FE22201349CC
S315000045F04543481930F81610A1421CBF491C20F843
S315000046001610F7BD522200210648FDF7C0BE000075
S3150000461000BF5222FF210548FDF7B9BE034A22F822
S31500004620101070474C93032018940320A093032086
S31500004630A0B90500B847032090B90500F4930320FC
S31500004640DFF82C1BC873704710B5DFF8284B2068BD
S31500004650427B112A04D0B021DFF81C0B04F028FE9F
S3150000466020684121417310BD80B5022002F0EFFAA7
S3150000467002F0F6FADFF8FC1ADFF8F40A0A68137B90
S31500004680042B03D1017C491D017404E04FF47A71B7
S31500004690183004F091FCBDE8014002F0E2BADFF800
S315000046A0D40A0168487B33281CBF4328532801D10C
S315000046B001207047002070472DE9FF410EF0C8FB2E
S315000046C008F0BAFC002851D0DFF8A44A0020207672
S315000046D0DFF8A80A01790C3001F0A0F8607D18B166
S315000046E00EF04AFD0020607500212173002500F0C0
S315000046F03FF80FF0E6FC0EF0FDFBDFF8848ADFF8EA
S31500004700746ADFF8E47B3978E8B288422ED202F088
S31500004710A7FA306841884FF6FF72914218BF012010
S3150000472007D100220821001D01F0DEFA401E80415B
S31500004730C00F94F8281001F00101014212D0306830
S315000047404188ADF808100822011D6846FDF7D8FD1E
S315000047500A230A2201F0A8F802230B224146002070
S315000047600FF0ACFE02F07DFA6D1CCCE7BDE8FF81D0
S3150000477010B5DFF8000A0068017B032918BF042979
S3150000478006D141884FF6FF72914208BF032008D038
S3150000479001F011FA044601F012FA214603F0C1FDB8
S315000047A0022001F014FA0FF039FF00F003FFBDE814
S315000047B010400FF0B1BC38B5DFF8B449DFF8B45992
S315000047C0E07300214FF6FF7001F049F92968487B34
S315000047D0032818BF00281ED0332818BF432814D139
S315000047E001F0E0F82868017B032918BF042906D1E7
S315000047F003214173E07BBDE8324002F098BAE07BCA
S3150000480002F095FABDE83140B2E721204873BDE8D1
S31500004810314006F06DB831BD10B5DFF85819DFF834
S3150000482050490A68002050734FF6FE7008F0FBFAF4
S315000048304FF6FF7008F0FFFA01F0B4F8E07BBDE830
S31500004840104002F074BA00007FB504461522E07AE3
S31500004850DFF820590290032094F90A100191238968
S315000048602FA10093234610F058F82968487B70B9A9
S31500004870208901F011F90AD0DFF8702A10780B2888
S3150000488005D102F0EFF910B902F0EEF910B170207F
S3150000489004B070BD2868017D880708D508F0BFFA06
S315000048A04FF6FE72904203D110F06FF800E0002040
S315000048B0214600F061FF06000DD12868017D8807BA
S315000048C04CBF0220012000F02CFF0021012010F037
S315000048D0A3FA060001D03046DAE7DFF8141A0878A2
S315000048E008B111F000FC00220821204601F0FCF975
S315000048F030B10421204611F065FC08B1A520C7E7B8
S31500004900DFF8F009DFF8282C017821740020E08117
S315000049106261204600F066F9064602F05EF9DAE7C3
S31500004920423870574242000070B506463346182298
S3150000493001F03AF8DFF83808DFF83828002180F867
S31500004940201070251368197B032918BF042911D07C
S315000049500025310008BF05750CD0FF2E02D10121BC
S31500004960017507E00122B4000275641C21022030A3
S3150000497004F022FB00F01EFE284670BDDFF8F007AB
S31500004980007D7047DFF8E817002081F82000CBE7AC
S3150000499038B50D4688B00446686907901622297C0A
S315000049A00691E8890590297B0491E87A0390032013
S315000049B095F90A1002912B890BA1019300952346C4
S315000049C00FF0ABFF01200EF000FC287B00280CBF87
S315000049D04FF6FE7008F023FA2B46224609B0BDE8D2
S315000049E030400146012092E042423870574242422E
S315000049F0574244002DE9F041DFF878570E46296802
S31500004A008046487B002814461F464BD1200049D0DB
S31500004A10042C47DCDFF8D40801780B2942D102F0D8
S31500004A2021F900283ED102F01FF908B1042C39DB28
S31500004A30387B032816D14FF6FE718E4214D1012C15
S31500004A4008BF002610D0022C2CD108F0E8F94FF64A
S31500004A50FC71884202DA08F0E2F901E00FF095FFF6
S31500004A60064601E0012C1DD0B8F1000F0CD0387BB2
S31500004A7003280CBF012100212046012C18BF00206D
S31500004A8010F0CAF9010026D13946304600F074FE0E
S31500004A90010020D102F0E0F802F0C5F820B102F0E2
S31500004AA0E3F808B1702016E02868407B332818BF69
S31500004AB0532803D0DFF8B81600208873204600F08C
S31500004AC030FEDFF82C18087820B102F0CDF808B9CE
S31500004AD011F009FB0020BDE8F08138B50446DFF887
S31500004AE0905608222146281DFDF70AFC207B032844
S31500004AF0A8BF00209421E9732870DFF8781628787B
S31500004B000A6800280CBF01203120507331BD10B552
S31500004B101C46FFF76FFF01002BD1207B03282046A0
S31500004B2002D1BDE810405DE0FFF7D7FFDFF8400691
S31500004B30DFF84046002181814FF001032068817B28
S31500004B40480905D1DFF82C0C027803FA01F108E0D8
S31500004B5001F01F0140F0180003FA01F1052241EAB5
S31500004B60C061052006F00DFF010002D02268002179
S31500004B70517310BD38B5DFF8FC5504462868007B34
S31500004B80032818BF042806D1E079C10744BF94F969
S31500004B90050011F06FFB28682178817302F01DF87B
S31500004BA02968DFF82C0C0A7B825C2189608911F068
S31500004BB03CFE040004D09420FFF7FDFD204632BDE4
S31500004BC0DFF8AC459420E073022002F03FF800F0D5
S31500004BD004F803202074002032BDC82104F1180017
S31500004BE004F0EAB910B504460022082101F07CF869
S31500004BF008B1012010BD08F012F900224FF6FF712E
S31500004C0000F0E8FD217C204600F008FE6269E1899B
S31500004C10207C0FF033FDDFF85C0501680A7B012A72
S31500004C2008BF10F093FEFFF7A3FD002010BD7CB572
S31500004C30DFF8405529680446487B002802BFDFF8A4
S31500004C40AC1608780B2801D0702076BD0EF0C6FA97
S31500004C50DFF81C652CB10222214606F12800FDF77B
S31500004C604FFB684600F0D3FE08B1932076BD9DF851
S31500004C700030142200F098FE00F01AFE010061D107
S31500004C809DF8000000F04DFD2868007B012818BF44
S31500004C90022807D0032818BF042838D1002000F0C6
S31500004CA0FFFEA0B300F01BFE2868007B032814BF9C
S31500004CB0042811F088FEFFF75BFD012011F0A4FE29
S31500004CC001003FD12868007B032818BF04280ED1B5
S31500004CD096F828108A0708D50522DFF8541801200F
S31500004CE000F046F801002CD076BD032801D0042838
S31500004CF027D1DFF88C4402230B22214601200FF036
S31500004D00DDFB207841071CD50EF0ECF919E0296887
S31500004D1013204873002272734FF001022868817BCA
S31500004D20480908BF02FA01F107D001F01F0140F05F
S31500004D30180002FA01F141EAC0610522072006F0D7
S31500004D4020FE002076BD11E00000000038B50446C4
S31500004D501046032818BF04280D4601D0022032BD94
S31500004D6000F0DFFC29462046BDE83840FF2200BFA0
S31500004D702DE9FC418046DFF8FC0300680D46017B07
S31500004D800129164640D0477B022F07D0032F3BD17F
S31500004D905FEA080102D1007D810735D4332000F097
S31500004DA016FF0EF055F815F0784F12BF0522DFF802
S31500004DB0C40902782946052006F0E3FD0446A8B991
S31500004DC0DFF8AC73387301200EF0FFF908F02FF806
S31500004DD078805FEA080014BF022001203870381D71
S31500004DE000F02CFE00207873BE7302E0384600F017
S31500004DF0EEFE5FEA08003146284602D011F023FE97
S31500004E0003E011F01FFE00E0702401940095434674
S31500004E105FF02C0203A103200FF07FFD2046BDE8C2
S31500004E20F6810000424244420000000038B50446C4
S31500004E300CF044FD0546204611F02DFE2C182046A8
S31500004E4011F046FF4FF6FF5101402046BDE83440C1
S31500004E5011F045BFFEB5054607F0E1FFC54C064615
S31500004E602068007B032818BF042806D1E879C1070B
S31500004E7044BF95F9050011F0FDF92168287888737B
S31500004E8001F0ABFE6889002100F0E9FD00F03EFF6D
S31500004E9060B1300003D04FF6F8718E4206DB0FF09A
S31500004EA074FD21684A8890420646F8D0304607F0DD
S31500004EB0BAFF288907F0BFFF06208DF80800DFF843
S31500004EC010192068027B8B5C8DF809300021019156
S31500004ED000910223408802AA012112F04EF8FF2811
S31500004EE0064604D11820FFF766FC1820FEBD206890
S31500004EF09F4D4188304611F00FFE287802281CBFCE
S31500004F003046FFF793FF00F063F8074630460CF093
S31500004F104AFDCFB19420E873022001F097FE206885
S31500004F20017B042908D1C82105F1180004F044F8D2
S31500004F30032028740020FEBD4FF4167105F11800F9
S31500004F4004F03AF80020F4E79420FFF734FC01203F
S31500004F50FEBD78B587B00C4616461D4630B92046CC
S31500004F6012F0FAF903A910F0CAFF03A8019007236B
S31500004F700C998DF8096001208DF808308DF80B101A
S31500004F800090360A8DF80A60042302AA0121204601
S31500004F9011F0F3FFFF28064618D0214611F0BCFD9C
S31500004FA015B93046FFF742FF0D9808B930460DE0B7
S31500004FB0204610F0DFFF18B1304612F0FBF901E091
S31500004FC000F006F830460CF0EEFCFF2008B070BD8D
S31500004FD000220021304612F02FBD2DE9F34F824604
S31500004FE085B014469DF818001D4603A912F000F876
S31500004FF00027002C14BF4FF0010BBB460026BBF167
S31500005000000F4FF6FF79B84607D008B10DF10C082E
S315000050106678760806F0010604E09DF8180011F09F
S31500005020E4FD804600F0F7FB087B032818BF042840
S3150000503000F09B806D1C9DF81800E9B20CF054FE40
S315000050400546400800F001008DF809008DF808A01B
S31500005050280600F0E0FB4A7B58BF45F08005022A8F
S3150000506004D1434A107D50EA0A0101D1022729E002
S31500005070404607F083FEADF8000003219DF81800B6
S3150000508011F003FD814608B94FF0010930000CBF4D
S315000050904FF0050A4FF0010ABBF1000F03D0201DA7
S315000050A011F016FE01E0BDF800000146CDF80090B3
S315000050B053462A46404610F03DFE00F0EDFC814680
S315000050C008BF0127DCB19DF8080018B9484600F072
S315000050D0E3FC02D1201D11F0FBFD01210191009797
S315000050E0014633464A464046FFF733FF9DF809001E
S315000050F050B94FF6FF71404612F07BFF04E03A4686
S315000051004946404611F06AFB7FBB9DF8090028B16D
S315000051104146484612F091FF12F0DEFF30001EBFF6
S3150000512048464FF6FF7188420DD012F015F9FF2858
S3150000513009D0DFF8E8190A6832F810304BF6FF712B
S315000051400B4022F8103084B107F069FE0EB100243E
S3150000515005E09DF80810002914BF03240124014628
S3150000516043464A46204613F05DF907B0BDE8F08F86
S31500005170D8C80320C0C903205C5B000010C9032007
S3150000518042CB03202DE9FF4705460C46904602A96F
S31500005190204611F02DFF814601AA0020106020460E
S315000051A011F083FC29000646DFF8747908D0B9F1BE
S315000051B0000F18BF0DF1080911F00FFF824604E039
S315000051C0204611F012FD8146BA46002000900423C5
S315000051D04246214601A80CF085FC0DF1050011F0B0
S315000051E077FD80469DF80740280006D008223946FC
S315000051F05046FDF7D3F8002871D1DFF828793968D1
S31500005200C87E10B17078820712D5280010D0487B6E
S31500005210022808BF002C0BD1404607F004FE0EF012
S3150000522050FF992300F0BFFB992001F080FD56E066
S3150000523000F06CFD002818BF002C03D09420FFF767
S31500005240BAFA4CE000F062FD002848D0484612F059
S3150000525061FDFF2801D0290004D1386840884946FD
S3150000526012F0EBFE12F038FF3868DFF8BC484188D0
S315000052704A46404600F0AEFADFF8B00890F9021050
S31500005280090261853868417B012916BF3129112140
S3150000529043214173022001F0D9FCDFF8940801682C
S315000052A0FFF79CFC11F08FFB002020743968C87E44
S315000052B020B904F1180003F075FE0EE02DB17078E8
S315000052C0820702D5FFF7F8F907E0087B042804D126
S315000052D00521FFF783FC09202074AD21E17301F05D
S315000052E07CFCBDE8FF870000B8470320E2470320A7
S315000052F0D14703201CDF03202DE9F04F8DB08146F6
S3150000530011F0D3FB074611F01BFC0190484611F043
S315000053106CFC824602AB052205A9484613F0B4FB95
S315000053200228804621D0484611F0B5FB01999DF828
S315000053300820DFF8F06708188518681C8DF800004B
S3150000534000F0F8F8EC1C01284FF6FF7B0ED002287F
S3150000535013D0042800F0C88006281CD0072876D071
S31500005360082829D07C2800F08980DDE0EBB20022F5
S3150000537049460020FFF731FED6E03068417B01291F
S3150000538002BFDFF8A4271078002803D1EAB2494605
S31500005390FFF7F8FEC8E0504610F097FD0146584565
S315000053A01CBF504611F0E6F93068417B022902D154
S315000053B0504611F03AFBB7E09DF8001048460CF055
S315000053C047FD0746E1B248460CF042FD0446AD1DD6
S315000053D0E9B248460CF03CFD58450546EBD011F0C5
S315000053E0F2FA3068417B132908D100F078FA484672
S315000053F011F0FBFB0146204612F01FFE3068407B91
S31500005400022818BF13281CD1284607F00CFD384681
S3150000541007F011FD0021002000F000FA5146204659
S3150000542000F01DFBDFF80407DFF80817C0780F2827
S31500005430B4BF401C0F20087000F0BCF83068417BF8
S31500005440132971D12322427306F05EFB6CE00198AA
S31500005450012138440CF02AFB044600230022214691
S31500005460012011F0EBFA002820465BD00CF09BFAE5
S3150000547005AA414648460DF0BEFE55E09DF80010CF
S3150000548000F059F80746AD1C00F054F8652F08BF28
S315000054906D2849D1DFF8A0160A6812F80970E0B243
S315000054A0B84241D20822514603A8FCF729FF6B46B1
S315000054B00022E1B2484611F03BFCA8BB9DF8000073
S315000054C0FF2831D0DFF874460120207001F0C3FBBD
S315000054D09DF8001003A811F09DFA01F0C2FB002010
S315000054E020709DF800001DE0484611F09CFB044624
S315000054F00FF278600088ADF80A0000210191009152
S3150000550002230DF10A020121204611F036FDFF2883
S31500005510054609D0214611F0FFFA002128460CF075
S3150000552007FF28460CF03FFA0DB0BDE8F08F0000EB
S3150000553000F8FF07E9B248460CF0D6BB38B50220A2
S3150000554001F085FB01F08CFBDFF8DC45DFF8D45574
S315000055500020207607F070FD28B12968C87E10B9B2
S31500005560FFF7AAF820E007F067FD10B900F0CEFBC0
S3150000557048B1207C38B1FFF730FB207C411E2174F6
S315000055800CF0C5FF10E02868417B132909D000F014
S31500005590BDFB30B92868407B11281CBF4328412831
S315000055A002D1E07BFFF707F9F8E1DFF87C15002070
S315000055B00874704710B501F06BFBFF28DFF86845EB
S315000055C003D0207D10B1012000E0002010F0DAFFAA
S315000055D0002060800822201DBDE810400021FCF755
S315000055E0D6BE2DE9F8438946DFF83C45DFF83C8511
S315000055F001210546617384B0174640460DF0C7FD8C
S3150000560004F0EEFD00281ED1012D01D028001BD18B
S3150000561000974B46262297A103200FF07EF901F052
S315000056201AFBDFF81C0504683CB1012D08BF06F023
S3150000563017FC39464846A04703E03946484603F07A
S315000056409AFB01F00EFB5FE0DFF8D8643068407B20
