S02300004F54572D626F6F746C6F616465722D666731332D636F6D62696E65642E733337B3
S3150FE100000F4880F308880F48004700004D05E10FC0
S3150FE100104D05E10F4D05E10F4D05E10F4D05E10FE2
S3150FE100204D05E10F4D05E10F6805E10F4D05E10FB7
S3150FE100304D05E10F4D05E10F4D05E10F4D05E10FC2
S3150FE10040004000200105E10F10B5054C237833B9C7
S3150FE10050044B13B10448AFF300800123237010BDA5
S3150FE1006010010020000000007C05E10F08B5034BED
S3150FE100701BB103490348AFF3008008BD0000000040
S3150FE10080140100207C05E10F044B054A9A60D3F871
S3150FE10090882042F47002C3F88820704700ED00E033
S3150FE100A00000E10F094A0A4BD969C90705D512B90B
S3150FE100B06FF002007047013AF6E7002AF8D0012205
S3150FE100C01861DA60D86940F380007047809698002E
S3150FE100D000000E4070B509B9002070BD0E4A00232D
S3150FE100E0082550F8234094610C4CD5600133D6694D
S3150FE100F0F60705D514B96FF00200EEE7013CF6E716
S3150FE10100002CF8D0D469A40702D49942E9D1E3E7E8
S3150FE101106FF00100E1E700BF00000E408096980006
S3150FE101202DE9F8431C4B884641F671311D6C196474
S3150FE101301A49074648684968996841F00101ADB225
S3150FE10140996096084FF00009B14501D3002005E00B
S3150FE1015007EB89042046FFF7A5FF48B10E4B9A68D6
S3150FE1016022F001029A600DB100221A64BDE8F8830C
S3150FE10170C4F30A04C4F50064A408A6EB09039C4280
S3150FE1018028BF1C4621464046FFF7A4FF0028E5D1CC
S3150FE10190A14408EB8408D7E700000E4000300E407B
S3150FE101A0204B41F671311A6C10B519641E494C6832
S3150FE101B04968996841F00101996001211861D96097
S3150FE101C0D9694C0792B209D5996821F00101996075
S3150FE101D00AB100221A644FF0FF301FE00221134CDF
S3150FE101E0D9601946D869C00700D56CB9C8698B685B
S3150FE101F010F0020023F001038B6007D00AB1002350
S3150FE102000B646FF0010009E0013CEBE724B902B1A1
S3150FE102100C646FF0020001E00AB1086410BD1046EC
S3150FE10220FCE700BF00000E4000300E4080969800BC
S3150FE10230FFF776BF08B50A4B1A680A4B1A600A4BE5
S3150FE1024040221A615A685203FCD400F07BF8002869
S3150FE10250FBD040F2022000F0AFF8002008BD00BF4E
S3150FE10260040100200001002000300E4010B5104CB3
S3150FE10270104BA36000F0C0F80F4B5B68B3F5803FFE
S3150FE1028009D040F20923984202D0B0F5007F02D19E
S3150FE1029000F016F850B9094BA3601846016881F3CF
S3150FE102A0088881F3098840688746FEE710BD00BFDD
S3150FE102B000ED00E00000E10F00500E400008E10FF5
S3150FE102C0F8B51C4B1A681069D568836AAB4201D23F
S3150FE102D00020F8BD05F560529A42F9D95B1BC618A5
S3150FE102E0C758154B9F42F3D14FF0FF32F16800F03B
S3150FE102F0EBF8124B98420446EAD1114B1B68A3F176
S3150FE103007E62A2F58432B2F5605F10D21A68BA4204
S3150FE103100DD1B1689A68914209D84FF0FF32D96889
S3150FE10320284600F0D1F8001B18BF0120D1E70120C4
S3150FE10330CFE700BF2800E10F07B0CD5EE320BBDEBC
S3150FE103402808E10FF8B5184B1B68D3E90347BB6AD9
S3150FE103501B1BFD182646EA68A318B3421CD839467B
S3150FE10360204600F07CF8B0B1104B1B68A3F17E621A
S3150FE10370A2F58432B2F5605F14D219680C4A914244
S3150FE1038010D1D9684FF0FF32204600F09DF8094BA6
S3150FE10390C31A58425841F8BD304600F059F806F5F0
S3150FE103A00066D8E70020F6E72800E10F2808E10FFD
S3150FE103B007B0CD5EE320BBDE4FF000534FF20F02E5
S3150FE103C05A800A4A1880136823F4E06343F40073F2
S3150FE103D01360BFF34F8F0649064BCA6802F4E0621A
S3150FE103E01343CB60BFF34F8F00BFFDE700500E40C5
S3150FE103F000ED00E00400FA054FF000534FF20F0154
S3150FE104005A888A4201D1188870473AB91B88012B5D
S3150FE1041040F2022018BF4FF4007070474FF400709E
S3150FE10420704707B503469B0753BF6FEA01414FF686
S3150FE10430FF7343EA01416FEA11410422019120F072
S3150FE1044003000DEB0201FFF7F3FE03B05DF804FBCA
S3150FE1045008B5FFF7A5FEB0FA80F0400908BDF8B57B
S3150FE1046040EA02031446DA0705460E4601D5002097
S3150FE10470F8BD0CB90120FBE7830721D50988FFF702
S3150FE10480D0FF0028F3D1023C032C05F1020506F15A
S3150FE1049002060BD924F003073A4631462846FFF701
S3150FE104A0C7FE0028E3D13E443D44E41B002CE1D0D6
S3150FE104B031882846FFF7B5FFB0FA80F04009D7E754
S3150FE104C0032CE7D8F4E7000010B50B4CD4F8B030A5
S3150FE104D043F04003C4F8B030084B01241C600144DB
S3150FE104E09A605C601A46884201D1D86910BD10F84E
S3150FE104F0014B9461F7E700BF00400E4000C0014099
S3150FE105000B4880470B4880470B490C4A0C4B9A42E4
S3150FE10510BEBF51F8040B42F8040BF8E709490A4A42
S3150FE1052000209142BCBF41F8040BFAE7FFF782FEC8
S3150FE105308900E10F6D02E10F8005E10F0001002057
S3150FE1054010010020100100202C010020FEE700BF62
S3150FE10550F8B500BFF8BC08BC9E467047F8B500BFBA
S3150FE10560F8BC08BC9E467047AD1007B0010000000D
S3150FE1057000030A010008E10F0080000000000000FF
S3150FE10580C0EA2101C0EA21016D00E10F4900E10F47
S3150FE10800007C00200923E10F0523E10F5923E10FB6
S3150FE108100523E10F0523E10F0523E10F0523E10F82
S3150FE108200523E10F0523E10FC43BE10F0523E10F9B
S3150FE108300523E10FF83BE10F0523E10F0523E10F57
S3150FE1084010B5054C237833B9044B13B10448AFF314
S3150FE1085000800123237010BD180100200000000065
S3150FE10860643DE10F08B5034B1BB103490348AFF3F1
S3150FE10870008008BD000000001C010020643DE10F6F
S3150FE1088002440346934200D1704703F8011BF9E78F
S3150FE10890004870474A43E00F004870476A43E00F4C
S3150FE108A0004870478642E00F0068024BC31A584270
S3150FE108B058417047FD0505FD034A044B90420CBFB5
S3150FE108C018460020704700BFFD0505FD503AE10FC0
S3150FE108D00120704700207047014B1B68186970476C
S3150FE108E02808E10F014B1868704700BF2800E10F98
S3150FE108F0014B1868704700BF2808E10F044B054A02
S3150FE109001B68196891420CBF18690020704700BF38
S3150FE109102800E10FAD1007B01A4AF0B513681B694D
S3150FE1092085B05C6B184B6D46074603F1100EAC466E
S3150FE10930186859682E4603C6083373453546F7D10D
S3150FE1094013681A69A2421BD25B69A34218D9102216
S3150FE109506146204603F056F890B9237C012B0DD85A
S3150FE109607A68236A9A4209D9102204F1280107F11C
S3150FE109700C0003F047F8B0FA80F0400905B0F0BD7E
S3150FE109800120FBE72808E10F643AE10F30B505686E
S3150FE10990046802680368880785B011D0CDE9005471
S3150FE109A0CDE902236C460B4604AD224603CAAA42A1
S3150FE109B018605960144603F10803F6D105B030BD4E
S3150FE109C0C1E90054C1E90223F8E77FB58B07024677
S3150FE109D015D00B466D4601F11006186859682C467D
S3150FE109E003C40833B3422546F7D1009B1360019B3D
S3150FE109F01360029B1360039B136004B070BDD1E9D2
S3150FE10A000054D1E90203156014601060F4E700F1B8
S3150FE10A100473102A30B54FEA43131AD101221A6033
S3150FE10A20D1E90054D1E90223C0F81051C0F81041C1
S3150FE10A30C0F81021C0F81031D1E90454D1E90623E9
S3150FE10A40C0F81051C0F81041C0F81021C0F81031AC
S3150FE10A5030BD00221A60D1E90054D1E90223456283
S3150FE10A60446242624362F3E7F0B58C0789B006460A
S3150FE10A700B4615460FD0082A6C4610D101F1100727
S3150FE10A8018685968224603C20833BB421446F7D1A8
S3150FE10A902A4669463046FFF7BAFF09B0F0BD01F1C4
S3150FE10AA0200718685968224603C20833BB42144629
S3150FE10AB0F7D1EDE718B124220021FFF7E1BE704728
S3150FE10AC070B50E461546044690B189B12422002130
S3150FE10AD0FFF7D6FE802D02D0B5F5807F0BD12046EC
S3150FE10AE0EA0840F8045B314602F09BFF002070BD37
S3150FE10AF06FF02100FBE76FF02200F8E72DE9F04FE9
S3150FE10B00814685B088469B461646F2B11768B9F11C
S3150FE10B10000F00F0B5800F9B002B00F0B180109B0A
S3150FE10B20002B00F0AD80BBF1000F00F0A9800E9B0A
S3150FE10B30002B00F0A580D9F80030802B03D0B3F558
S3150FE10B40807F40F0A08000240DE01746DFE7A7B1D4
S3150FE10B500F9B0E9A1B5DD25D5340109A01371355C9
S3150FE10B6007F00F0701344445F1D3002E00F08E80D4
S3150FE10B703760002005B0BDE8F08F00F089F84FF43B
S3150FE10B80404347600360054600F084FCD9F8003026
S3150FE10B90802B824614BF1022082209F10401284650
S3150FE10BA0FFF762FF05F18403184659460093FFF7F5
S3150FE10BB00CFF5046A8EB040A2AF00F0A00F06EFC70
S3150FE10BC0A244032354451AD10F9B03EB040A109B4E
S3150FE10BD01C440F9B434401930323019A92452DD164
S3150FE10BE000F058FC594604460098FFF7CFFE204621
S3150FE10BF000F054FC284600F055F84446B3E7482286
S3150FE10C00AA600522AA602A699107FCD4AB60029318
S3150FE10C1000F040FC0F9B0190191905F1A000FFF7B9
S3150FE10C20D4FE109B05F180001919FFF7AFFE019A6B
S3150FE10C30104600F033FC1034029BC3E7AFB94822EC
S3150FE10C40AA600522AA602A699207FCD4AB600393D6
S3150FE10C5000F020FC0E99029005F18000FFF796FE59
S3150FE10C60029A104600F01AFC039B0E991AF8012B13
S3150FE10C70C95D01374A4004F8012B07F00F07ACE7CE
S3150FE10C806FF0210076E76FF0220073E7304671E7E8
S3150FE10C90024B034801221A60704700BF0016C84392
S3150FE10CA000000F40094B98420ED003F5806398423E
S3150FE10CB009D10122064B03EBC2035A68054B1344D4
S3150FE10CC09B0000221A6070470022F3E700000F40F5
S3150FE10CD0743AE10F8005F2102DE9F04F99B007460E
S3150FE10CE00E4690461D46FFF7D3FF04462FB1022F5E
S3150FE10CF000F2E5800423036000E0076000236360F0
S3150FE10D00E364626822F4406262602363636356F8C8
S3150FE10D10232012BA4DF823200133082BF7D100F027
S3150FE10D20B9FB009BC4F80431019BC4F80431029B63
S3150FE10D30C4F80431039BC4F80431049BC4F80431AD
S3150FE10D40059BC4F80431069BC4F80431079BC4F82C
S3150FE10D50043100F0A3FBDFF874A15A4B236500269B
S3150FE10D6008F00309229B9E4239D1AB0700F08A8036
S3150FE10D7000F090FBD4F80061D4F80011D4F800210B
S3150FE10D80D4F80031CDE90061CDE90223D4F8006151
S3150FE10D90D4F80011D4F80021D4F80031CDE904617B
S3150FE10DA0CDE906232E4600F079FB08AF6B461A46CE
S3150FE10DB003CABA4230607160134606F10806F6D1EE
S3150FE10DC02046FFF76FFF2B1F1C3553F8042F12BA7E
S3150FE10DD0AB421A60F9D1002019B0BDE8F08F08EBEC
S3150FE10DE0861BB9F1000F0FD008AA0BF1400CDBF807
S3150FE10DF00000DBF80410134603C30BF1080BE345C0
S3150FE10E001A46F4D10DF1200B00F044FBDBE9013179
S3150FE10E10DBF80C20DBF80070C4F8A471C4F8A43138
S3150FE10E20C4F8A411C4F8A421DBE90531DBF81C20D1
S3150FE10E30DBF81070C4F8A471C4F8A431C4F8A41196
S3150FE10E40C4F8A421DBE90931DBF82C20DBF82070AB
S3150FE10E50C4F8A471C4F8A431C4F8A411C4F8A42148
S3150FE10E60DBE90CC1DBE90E23C4F8A4C1C4F8A41174
S3150FE10E70C4F8A421C4F8A43100F010FB0136C4F87C
S3150FE10E8050A06FE700F006FBD4F80061D4F800112B
S3150FE10E90D4F80021D4F80031C5E90061C5E9022390
S3150FE10EA0D4F80061D4F80011D4F80021D4F8003158
S3150FE10EB0C5E90461C5E9062300F0F0FA80E70248C7
S3150FE10EC08AE700BF888AC80180AFFFFF070D81015E
S3150FE10ED02DE9F3470228144680460E461F46DDE903
S3150FE10EE00A924ED81CB9002002B0BDE8F08713680C
S3150FE10EF03F2B42D8516809B1002F3ED1B8F1010F0E
S3150FE10F003DD0224D2249B8F1020F18BF0D4603F02D
S3150FE10F103F00E318136022BF53680133536090B368
S3150FE10F20C0F1400A544522D331465246484402F0B5
S3150FE10F3078FD012300934A463B4629464046A4EBFA
S3150FE10F400A04FFF7C9FE3F2C56440DD93D46A309C6
S3150FE10F50009332463B4629464046FFF7BDFE24F055
S3150FE10F603F031E4404F03F04002CBCD00020224670
S3150FE10F703146484402F055FDB5E73D46C7E7054D15
S3150FE10F80C5E70548B0E73F2CF1D9E0E7C43AE10FF1
S3150FE10F90843AE10FA43AE10F80AFFFFF2DE9F0416B
S3150FE10FA0012886B004460E4690461D4604D045D329
S3150FE10FB0022841D022483CE01C272A68D3008DF84D
S3150FE10FC00F3053098DF80E30530B8DF80D30530D4D
S3150FE10FD08DF80C306B68D90001EB52718DF80B105F
S3150FE10FE002F03F025909372A8DF80A104FEA5331B9
S3150FE10FF04FEA535394BFC2F13802C2F178028DF82A
S3150FE1100009108DF808300F493346CDE900852046A2
S3150FE11010FFF75EFF08220DEB02013346CDE90085AE
S3150FE110202046FFF755FF3A4631460C9802F0F9FC98
S3150FE11030002006B0BDE8F0812027BEE71427BCE704
S3150FE1104080AFFFFFE43AE10F18B16C220021FFF701
S3150FE1105017BC704707B590F868300190002B00F187
S3150FE110602803009300F1080314BF01200220FFF7C4
S3150FE110702FFF03B05DF804FB07B590F868200091E8
S3150FE11080002A034600F1280200F1080114BF0120EE
S3150FE110900220FFF783FF03B05DF804FB00239942BB
S3150FE110A0D4BF00210121C0E9003380F868107047F1
S3150FE110B0FFF7D0BFFFF7E0BF2DE9F047304E3579A7
S3150FE110C0854207468846914658D2B3681C6E2C4432
S3150FE110D0451B954228BF1546241A21462A46404606
S3150FE110E002F09FFCFFF7F8FB04EB050A011D8A45A9
S3150FE110F0A7EB050717D300F11C02A24213D98C42C5
S3150FE11100A44638BF8C46ACEB0101B368ACEB0400E7
S3150FE111106831924594BFCCEB0A02CCEB020219443B
S3150FE11120404402F07EFCFFF7E9FB011D8A4517D328
S3150FE1113000F10802A24213D98C42A44638BF8C466D
S3150FE11140ACEB0101B368ACEB04008031924594BF7F
S3150FE11150CCEB0A02CCEB02021944404402F061FCEB
S3150FE111604D4508D23179C91BA9EB0502314408EB8C
S3150FE11170050002F056FC0020BDE8F0870025EFE7F9
S3150FE11180340100202DE9F043284C8046207989B0BF
S3150FE111900F46D0B1C0F104058D4228BF0D462A4650
S3150FE111A04146204402F03DFC22792A44D2B2042A78
S3150FE111B022710BD1E368A068214602F007F80023FC
S3150FE111C0237118B109B0BDE8F08305467E1B36F0F1
S3150FE111D003061CD0202200216846FFF751FB202E83
S3150FE111E0B14628BF4FF0200908EB05014A4668468C
S3150FE111F002F017FCE368A0684A46694601F0E6FF8C
S3150FE112004D44A6EB09060028DCD1002EE7D1BD42FD
S3150FE112104FF0000608D27F1B3A4608EB050103485B
S3150FE11220266002F0FEFB27713046CBE73401002042
S3150FE1123038B100238360036043608372C16018464F
S3150FE11240704741F2013070472DE9F047002588B02C
S3150FE1125004460E4617469846A946BD4201D30020DD
S3150FE112605BE0A37A142B2ED005D873B10A2B21D0CC
S3150FE1127041F2023051E0232B3AD0282B42D01E2BDC
S3150FE11280F6D1735D238123230BE0725D1209226090
S3150FE11290715D238101F00F0104310F2A616006D1DF
S3150FE112A00A23A372A37A322B20D100204CE042B954
S3150FE112B01E23F6E7725D236813442360735DFF2BEC
S3150FE112C0F0D01423EDE72368A7EB050A9A4528BF6B
S3150FE112D09A4670195146C0472368013DA3EB0A03AD
S3150FE112E023605544BBB91E23A372B0B90135B4E7E8
S3150FE112F0725D238943EA022323816368132B08D1A5
S3150FE113002823CEE7725D636813446360735DFF2B39
S3150FE11310C8D03223C5E70028C4D008B0BDE8F087AE
S3150FE11320A8B92089202B28BF202383429A4628BFBC
S3150FE113308246E36852466946984751466846C04732
S3150FE113406368A3EB0A0363606368002BE8D184F853
S3150FE113500A90CAE7084B10B5202204460021184629
S3150FE11360FFF78EFA01228460427104491030BDE81D
S3150FE113701040FFF75DBF00BF34010020B910E10F48
S3150FE1138070B40646586878B1084D6C7924B10020DF
S3150FE113906871086830660424EB60121B2144044B24
S3150FE113A0044870BCFFF750BF70BC70473401002092
S3150FE113B08511E10F44010020436D002B0CBF042082
S3150FE113C0012070474B6810B59BB10C4C207968B181
S3150FE113D0C0F10402FF212044FFF752FAE368A06847
S3150FE113E00422214601F0F2FE00232371A37E1E2B78
S3150FE113F001D1002010BD41F20230FBE7340100209C
S3150FE11400044BD3F84421D20703D4D3F84021104239
S3150FE11410FBD1704700400E40C0F30322013A38B5C5
S3150FE114200546092A13D8DFE802F02313121205162F
S3150FE1143019121C20104C0020C5F3043508B1FFF733
S3150FE11440DFFF04F1047405EBC404A400216038BD89
S3150FE1145000200A4CF0E70120094CEDE71020094C7A
S3150FE11460EAE74FF48030084CE6E70020074CE3E764
S3150FE114700020074CE0E700BFB0400E40C0400E40F1
S3150FE11480E0400E40E8400E40F0400E4050410E4025
S3150FE1149000400E40EFF3108072B6704700B962B6A6
S3150FE114A070470E2910B543680DD801228A4047F2DD
S3150FE114B0E004224223F01F0306D140F61F742242B5
S3150FE114C001D01943416010BD41F01001F9E7000069
S3150FE114D0F0B54AB130261E4C012546438D403444C2
S3150FE114E00BB304F1C06425603024444304F1804416
S3150FE114F0072904F5204419D865688E000F27B740F0
S3150FE1150025EA070502FA06F63543656052B9012267
S3150FE1151002FA01F1302250430D4A0244A3B102F11E
S3150FE11520C0621160F0BD04F18064DCE701F1804532
S3150FE11530083DA668AD000F27AF4026EA070602FA77
S3150FE1154005F53543A560E1E702F18062E9E700BF02
S3150FE115500CA00040094A0A4BD969C90705D512B94A
S3150FE115606FF002007047013AF6E7002AF8D0012240
S3150FE115701861DA60D86940F3800070478096980069
S3150FE1158000000E4070B509B9002070BD0E4A002368
S3150FE11590082550F8234094610C4CD5600133D66988
S3150FE115A0F60705D514B96FF00200EEE7013CF6E751
S3150FE115B0002CF8D0D469A40702D49942E9D1E3E724
S3150FE115C06FF00100E1E700BF00000E408096980042
S3150FE115D02DE9F8431C4B884641F671311D6C1964B0
S3150FE115E01A49074648684968996841F00101ADB261
S3150FE115F0996096084FF00009B14501D3002005E047
S3150FE1160007EB89042046FFF7A5FF48B10E4B9A6811
S3150FE1161022F001029A600DB100221A64BDE8F88347
S3150FE11620C4F30A04C4F50064A408A6EB09039C42BB
S3150FE1163028BF1C4621464046FFF7A4FF0028E5D107
S3150FE11640A14408EB8408D7E700000E4000300E40B6
S3150FE11650204B41F671311A6C10B519641E494C686D
S3150FE116604968996841F00101996001211861D960D2
S3150FE11670D9694C0792B209D5996821F001019960B0
S3150FE116800AB100221A644FF0FF301FE00221134C1A
S3150FE11690D9601946D869C00700D56CB9C8698B6896
S3150FE116A010F0020023F001038B6007D00AB100238B
S3150FE116B00B646FF0010009E0013CEBE724B902B1DD
S3150FE116C00C646FF0020001E00AB1086410BD104628
S3150FE116D0FCE700BF00000E4000300E4080969800F8
S3150FE116E0FFF776BF0B4A536911699B0003F03C0381
S3150FE116F0C1F381110B438370136903F03F03437009
S3150FE117009369D26903F0F003C2F303121343037033
S3150FE11710704700BFD0FF0FE02DE9F04F0C780CB901
S3150FE1172002234360002343624B78CA7891F802B0F3
S3150FE117308D7A91F808A091F8069091F80780002B21
S3150FE117404B7A4FEA024214BF4FF0400E4FF0000EB4
S3150FE1175042EA0B62002B14BF8023002342EA0A02FE
S3150FE11760002DCD7A42EA892214BF4FF0200C4FF0BB
S3150FE11770000C42EA0822002D0D7B42EA0E0214BF4D
S3150FE11780102700271343002D0D79497943EA0C03FE
S3150FE1179014BF082600263B43002D14BF4FF4005516
S3150FE117A000253343002914BF4FF0805100212B430D
S3150FE117B00B4303600CB101234360BDE8F08F0000DA
S3150FE117C01FB5124B1A6842F480121A60D3F8C02083
S3150FE117D042F00102C3F8C02000F05CF84FF47A231F
S3150FE117E0B0FBF3F00A4B0D22186000216846FFF7B4
S3150FE117F047F801238DF8003069460A2305488DF82D
S3150FE118000230FFF789FF05B05DF804FB00400E409B
S3150FE1181058010020008001400C4A0D4B10B5546A67
S3150FE118201B68A4B213FB00400A4B80B21880A0429A
S3150FE11830094B2CBF002401241C70134611B15A6ABF
S3150FE118408242FCD101225A619A6110BD00800140AA
S3150FE118505801002054010020560100200A4B1A7846
S3150FE118600A4B22B1D86810F0010003D17047DA684C
S3150FE11870D20707D4586A064B1B88984234BF00201B
S3150FE11880012070470120704756010020008001407A
S3150FE118905401002030B51C4B87B001AA03F11005A6
S3150FE118A018685968144603C40833AB422246F7D188
S3150FE118B01B78164A2370D2F8943003F00703022BF4
S3150FE118C01ED01369C3F30443102B1BD806A90B448F
S3150FE118D00F4913F8140C0F4B43438B4206D1116991
S3150FE118E00122C1F341618A40B3FBF2F3074AD2F811
S3150FE118F00001C0F304200130B3FBF0F007B030BDB7
S3150FE11900054BF3E7054BF1E7243BE10F00400E40B2
S3150FE1191000093D0040420F0000F04902C0EA2101F3
S3150FE11920F8B504461D4616460F46FFF7C3F8DDE93F
S3150FE1193006122046FFF7C4F80023636284F8387075
S3150FE119403268C4F839207268C4F83D202B0CB268AE
S3150FE1195084F845302B0AC4F8412084F8463084F8E0
S3150FE119604750F8BD30B585B01D4600F12803CDE9E6
S3150FE119700112009300F1240200F138032946FFF723
S3150FE11980BDF805B030BD00002DE9F041A2B00F461C
S3150FE1199016469846289C054660B359B352B34BB3E6
S3150FE119A044B301211548FFF737FD4022002102A874
S3150FE119B0FEF766FF414602A800F016FB21460AA88C
S3150FE119C012AC00F011FB402200212046FEF758FF32
S3150FE119D03946204600F008FB31461AA800F004FB11
S3150FE119E0009402AB20222946054800F00DFB22B0F8
S3150FE119F0BDE8F08140F20160F9E700BF00050A009A
S3150FE11A0000000F4010B50446FFF71EFB20460021EC
S3150FE11A10BDE81040FFF742BBFFF74ABB0146FFF7B0
S3150FE11A2049BB1C2350F8042F0AB9043BFAD1002B0A
S3150FE11A30CCBF00200120704730B505680468026805
S3150FE11A400368C1E90054C1E9022305680468026825
S3150FE11A500368C1E90454C1E9062330BDD1E9022384
S3150FE11A6030B5D1E900540560046002600360D1E945
S3150FE11A700454D1E90623056004600260036030BDBA
S3150FE11A802DE9F04104461D460E46904600211C22E3
S3150FE11A90181DFEF7F5FE01232B60FFF7FBFC414610
S3150FE11AA0074604F58070FFF7D9FF314604F58270DA
S3150FE11AB004F58476FFF7D2FF29463046FFF7CEFFCE
S3150FE11AC03846FFF7EBFC0D4F0D4B0E4A0E490F480B
S3150FE11AD023656369DB010BD5FFF7DCFC2946044679
S3150FE11AE03046FFF7A9FF2046BDE8F041FFF7D6BC28
S3150FE11AF022656165A065E765EBE700BF393801004F
S3150FE11B0039398401D02484FC1C82FED88B1C81A038
S3150FE11B102DE9F04F8DB0044698460F461546FFF76F
S3150FE11B20B9FC04F5827607F14002114604F5867B8E
S3150FE11B30814630460392FFF791FF29465846FFF754
S3150FE11B408DFF04F58873184605F120010293FFF71F
S3150FE11B5085FF4846FFF7A2FC424921654249616587
S3150FE11B6001254249A165E565FFF794FC04F5847902
S3150FE11B7007F1200A019039463046FFF76FFF5146CC
S3150FE11B804846FFF76BFF039A029B11461846FFF78C
S3150FE11B9065FF0198FFF782FC354B2365354B63658E
S3150FE11BA0A565FFF777FC04F58073019008F1400115
S3150FE11BB018460293FFF740FF04A94846FFF73CFF9B
S3150FE11BC0019A1046FFF76AFCFFF764FC394601906C
S3150FE11BD05846FFF743FF019A1046FFF75FFC264A87
S3150FE11BE02265264A62656FF42673A2F5FE221A4430
S3150FE11BF0A265E565FFF74EFC514607463046FFF70E
S3150FE11C002DFF3846FFF74AFC1D4A22651D4A6265DC
S3150FE11C10A565FFF73FFC414607464846FFF70CFF30
S3150FE11C203846FFF73BFCFFF735FC04A9074630467C
S3150FE11C30FFF714FF3846FFF731FC134A2265134AC3
S3150FE11C406265A565FFF726FC029B044608F12001B4
S3150FE11C501846FFF7F1FE2046FFF720FC0DB0BDE871
S3150FE11C60F08F00BF8AD11C81D91C83D11C81E11C65
S3150FE11C70D01482CB1481E11C8CE11C811C84D91C0C
S3150FE11C80E014D8141482E11C84D31482D11CE0141D
S3150FE11C902DE9F041044690B00F46244E05219046BA
S3150FE11CA0FFF7FFFB00232360236363630FCE08ADCA
S3150FE11CB00FC596E80F0085E80F0008AA6B4607F1F6
S3150FE11CC040012046FFF7DCFEFFF7E4FB04F58675DE
S3150FE11CD00646694604F58270FFF7C0FE3946284687
S3150FE11CE0FFF7BCFE07F1200104F58870FFF7B6FE9A
S3150FE11CF03046FFF7D3FB0E4B23650E4B63650E4B59
S3150FE11D00A3650123E365FFF7C5FB08F1200106464D
S3150FE11D1004F58070FFF790FE41462846FFF78CFEEB
S3150FE11D203046FFF7BBFB10B0BDE8F081443BE10F56
S3150FE11D308AD11C81D91C83D11C81E11C2DE9F04F7D
S3150FE11D40A5B01D460446CDE9001205A81C220021C7
S3150FE11D50FEF796FD4FF0010820220021284605F1F6
S3150FE11D602007CDF8108005F1400AFEF789FD202204
S3150FE11D7000213846FEF784FD202200215046FEF76A
S3150FE11D807FFD05212046FFF78CFB00232360FF260D
S3150FE11D90236363637211019806F01F0350F8222043
S3150FE11DA008FA03F3134206F1FF3102D10E46002979
S3150FE11DB0F0D1FFF76FFB04F582733946804618467B
S3150FE11DC00293FFF74BFE4046FFF768FB7A4B7B4AE0
S3150FE11DD0236562657A4AA265FFF75CFB04F58079B4
S3150FE11DE014A980464846FFF727FE4046FFF756FB04
S3150FE11DF0FFF750FB294680464846FFF72FFE404640
S3150FE11E00FFF74CFB6F4A704B22654FF486726365A1
S3150FE11E10A265FFF73FFB04F5867883460CA940469A
S3150FE11E20FFF70AFE1CA94846FFF706FE5846FFF7DD
S3150FE11E3035FBFFF72FFB029B03935146834618466B
S3150FE11E40FFF70CFE5846FFF729FB604B236501238D
S3150FE11E506365FFF71FFB04F5847B2946029058461D
S3150FE11E60FFF7FCFD029A1046FFF718FB584A226569
S3150FE11E7002F1D94202F5DE1202F595626265A2F52B
S3150FE11E8086120123A2F2BA42A265E365FFF702FBCE
S3150FE11E901CA902905846FFF7E1FD0CA94046FFF752
S3150FE11EA0DDFD029A1046FFF7F9FA4A4A22654A4AD8
S3150FE11EB062654A4AA265FFF7EDFA2946029004F5F3
S3150FE11EC08870FFF7B9FD029A1046FFF7E7FAFFF7B9
S3150FE11ED0E1FA039B029039461846FFF7BFFD5846D4
S3150FE11EE05146FFF7BBFD14A94046FFF7B7FD029A2E
S3150FE11EF01046FFF7D3FA3A4B23653A4B6365FFF783
S3150FE11F00C9FA514683464846FFF796FD394640469C
S3150FE11F10FFF792FD5846FFF7C1FA012106F01F03BD
S3150FE11F2001FA03F37211019951F82220134217D0E6
S3150FE11F302B687BB92846FFF774FD58B12B6A4BB96D
S3150FE11F403846FFF76EFD28B12B6C1BB95046FFF7EC
S3150FE11F5068FD60B92B46009A29462046FFF7D8FD62
S3150FE11F6016F1FF36BFF425AF25B0BDE8F08F009B24
S3150FE11F70AC4603F1200E18685968624603C208336E
S3150FE11F8073459446F7D1BC4603F1200E186859689C
S3150FE11F90624603C2083373459446F7D10DF1100E2D
S3150FE11FA0BEE80F0005F1400CACE80F009EE80F000C
S3150FE11FB08CE80F00D4E700BF8AD11C81821CC00CCC
S3150FE11FC00C0C0100C00C0C83D91C83D88AD11C835D
S3150FE11FD0DA0C81148CE11CD01484E31482D11C0138
S3150FE11FE0D81483D11CC00C0110B520220C46002158
S3150FE11FF0FEF746FC04F12002013812F8013D00F824
S3150FE12000013FA242F9D110BD2DE9F04FBBB0894690
S3150FE120100446002190460AA860229A46449FFEF79D
S3150FE120202FFC6022002122A8FEF72AFCB9F1000F4E
S3150FE1203000F01E81BAF1000F00F01A81002F00F0B7
S3150FE120401781B8F1000F40F3138100232360236357
S3150FE1205063636368884E43F0100363600C21204687
S3150FE12060FFF71FFA636823F4406343F40063636089
S3150FE12070636823F4407343F4007363600FCE2AADB4
S3150FE120800FC596E80F0085E80F00FFF703FA04F591
S3150FE12090847683463946304604F58675FFF7DEFCCE
S3150FE120A02AA92846FFF7DAFC5846FFF7F7F9012286
S3150FE120B0724B236562656269D20104D440F2026014
S3150FE120C03BB0BDE8F08F391F082251F8040F002805
S3150FE120D000F0C6800193FFF7DDF907F1200B0090C1
S3150FE120E059463046FFF7BAFC2AA92846FFF7B6FC50
S3150FE120F0009A1046FFF7D2F9019B23650123636529
S3150FE121006369DB01DAD507F11C02082352F8041FD4
S3150FE12110002900F0A980B8F1200FA8BF4FF02008E1
S3150FE121202022002132A8FEF7ABFB08F1FF30CC46A7
S3150FE1213020F003033AA940330B441CF8012B00F0BE
S3150FE121400301C9008A4053F8601C0A4343F8602C27
S3150FE12150ACEB0903434500F1FF30E9DBFFF79AF9F1
S3150FE1216032A980463046FFF779FC4046FFF796F9EC
S3150FE12170434B2365FFF78EF904F58078814632A943
S3150FE121804046FFF759FC4846FFF788F92AAA02AB02
S3150FE1219059462046FFF774FCFFF77CF904F5887979
S3150FE121A0834602A904F58270FFF758FC32A9484627
S3150FE121B0FFF754FC39462846FFF750FC5846FFF720
S3150FE121C06DF9304B236503F1FA43A3F500636365BC
S3150FE121D0FFF760F932A983464846FFF72DFC02A9BE
S3150FE121E04046FFF729FC5846FFF758F90AAB32AAE2
S3150FE121F025492046FFF7A2FD22AB02AA514620460A
S3150FE12200FFF79CFD0AAA11462046FFF741FD22ABD7
S3150FE1221019460AAA2046FFF77BFC22AA1146204659
S3150FE12220FFF736FDFFF736F90C2180462046FFF71B
S3150FE1223038F922A93046FFF711FC39462846FFF750
S3150FE122400DFC4046FFF72AF9104B2365104B6365EA
S3150FE12250636913F0807F40F2046018BF00202FE717
S3150FE12260013A7FF432AF29E7013B7FF44FAF25E720
S3150FE1227040F2016024E700BF643BE10F3035DA102D
S3150FE1228030D00C0130E11C84843BE10F3035DA1498
S3150FE122903938010049BA89B24840C0F303114140C8
S3150FE122A008B280EA013000B2C3B280EA431080B2CD
S3150FE122B0704738B5044645181046AC4200D138BDD3
S3150FE122C0014614F8010BFFF7E5FFF6E710B50B4CE6
S3150FE122D0D4F8B03043F04003C4F8B030084B0124D2
S3150FE122E01C6001449A605C601A46884201D1D86944
S3150FE122F010BD10F8014B9461F7E700BF00400E40A7
S3150FE1230000C00140FEE7000008B500F0CDF800F08F
S3150FE123107FF80A4A0A4B0B498B4206D30A4B0B4A03
S3150FE123200021934206D300F01BF852F8040F43F84D
S3150FE12330040BF1E743F8041BF3E700BF643DE10F3C
S3150FE123400001002018010020180100200C040020D4
S3150FE1235000207047002070474FF4017000F0DABD9E
S3150FE12360254B13B501225A641A6842F480721A603A
S3150FE1237001A8FFF7B7F99DF80530012B03D89DF8B2
S3150FE123800430022B09D91D4B4FF418721A601C4AFF
S3150FE123905A601C4A5A661C4ADA661C4B40221A617D
S3150FE123A05A685203FCD4FFF7D3FF00F0ACFD00F0FF
S3150FE123B011F900F011F918B14FF4017000F0AAFD0F
S3150FE123C000F038F9044600F0C7FA1CB140F2037386
S3150FE123D09C4203D140F2012000F09CFDA4F205746A
S3150FE123E0012C94BF40F203204FF4017000F092FDEF
S3150FE123F0002002B010BD00BF00000E408C420E401F
S3150FE124009A6F0500180100040084320800300E406F
S3150FE1241008B5214B5A68B2F5803F1ED05B685B0564
S3150FE1242002D4012301220EE000F094FDA0F2022076
S3150FE1243080B20728F5D8012303FA00F010F0C90F8F
S3150FE12440EFD000231A4604210968013107D14FF471
S3150FE124500270BDE8084000F04FBD0023E2E7BBB1D3
S3150FE12460002000F0BDFC0028F1D00C4AD2F89030E4
S3150FE1247043F00203C2F89030094A002393601846ED
S3150FE12480016881F3088881F3098840688746FEE78A
S3150FE12490002AEAD108BD00BF00500E4000000E40F1
S3150FE124A000ED00E000207047044B054A9A60D3F82F
S3150FE124B0882042F47002C3F88820704700ED00E0EF
S3150FE124C00008E10F024A00231370024A13707047A6
S3150FE124D05C0100205D01002038B50378042B054629
S3150FE124E00C4650D008D8012B0AD0032B50D1182314
S3150FE124F0237040F608100DE0182BF8D0432BF5E7C3
S3150FE12500264B42781978D9B9012A04D015232370BD
S3150FE1251040F6041038BD1A70AB781A44FF2AF5D18C
S3150FE1252000228021E81CFFF7C4FE95F88320C0F353
S3150FE125300F239A4216D01523237040F60210E9E7CE
S3150FE12540174B1B78934204D10623237040F60610EE
S3150FE12550E0E70133DBB29342DED01523237040F679
S3150FE125600510D7E795F88430C0B2834204D015231E
S3150FE12570237040F60110CDE7094B6A781A700623EE
S3150FE1258023700020C6E706230B7040F60710C1E75C
S3150FE125901823237040F60310BCE700BF5D0100204E
S3150FE125A05C01002007B54FF47A710DF1070000F0D9
S3150FE125B031FB50B99DF80730313BDBB2022B01D825
S3150FE125C0034AD05C03B05DF804FB0120FAE700BFD4
S3150FE125D0383CE10F00F0C2B910B5144B14491B6832
S3150FE125E092B09C684522684601F01BFAC4F3036377
S3150FE125F0092B8CBF373330338DF81430C4F30343D3
S3150FE12600092B04F00F048CBF37333033092C8CBF01
S3150FE12610373430340122452168468DF816308DF86E
S3150FE12620184000F037FA002012B010BD2808E10F6C
S3150FE126304E3CE10F2DE9F047F8B000248DF80F403D
S3150FE12640FFF7BEF8B84EDFF8FC82DFF8FC923C27C5
S3150FE126500125062DFDD8DFE815F009000D00120062
S3150FE12660330053004C01C1000425F2E7FFF7B4FF35
S3150FE126700125EEE7FFF796FF3C270546E9E701223D
S3150FE126801121AA4800F006FA202317AA05A954A892
S3150FE1269000F0EEFD28220021A348FEF7F1F8FF2313
S3150FE126A0012105207370FFF7B7F800F03DFA18B175
S3150FE126B00121002000F0B8FAFFF704FF0325C8E770
S3150FE126C0432000F01DFA00214FF47A70FFF7A4F8CA
S3150FE126D000F02AFA18B9FFF7C1F80028F8D000F090
S3150FE126E023FA0028C0D1013FB3D1182000F008FA30
S3150FE126F0182000F005FA182000F002FA0025A8E7E5
S3150FE12700002185220DF1C900FEF7BAF8002140F646
S3150FE12710B830FFF781F800F007FA78B34FF47A7320
S3150FE1272000930123194604AA0DF1C90000F020FA1E
S3150FE127309DF8C930012B0DD140F6B83200928421B4
S3150FE1274004AA0DF1CA0000F013FA049B842B044688
S3150FE1275018D1C8B90DF10F010DF1C900FFF7BCFE94
S3150FE1276040F607139842044614D1B3780BB1F378C8
S3150FE1277013B918238DF80F3006251DE0FFF76EF814
S3150FE127800028C8D040F2047415208DF80F0000F030
S3150FE12790B7F95EE780B99DF8C930012B0CD1644BCF
S3150FE127A0009333AA8023314654A800F09BFD0446DB
S3150FE127B010B118238DF80F309DF80FA0BAF1180F4D
S3150FE127C0504608BF062500F09BF9BAF1180F7FF4C2
S3150FE127D040AF504600F094F95046D8E7012100206A
S3150FE127E000F022FA01210A20FFF716F89DF80F30C3
S3150FE127F0062B4FF0010208D140F607139C4204D194
S3150FE128004C481B2100F046F978E71A214A4800F0B7
S3150FE1281041F9A4F51063B3F5E06F39BF18214748C5
S3150FE1282047481021012200F035F941F201039C429C
S3150FE1283049D02FDC40F603139C4246D01FDC40F60D
S3150FE1284001139C4247D040F602139C4245D09DF8B6
S3150FE128500F00000909288CBF3730303000F050F9EE
S3150FE128609DF80F0000F00F0009288CBF373030308C
S3150FE1287000F046F90D2000F043F90A203CE740F657
S3150FE1288005139C422BD024DB40F606139C42DED186
S3150FE1289027231BE041F207039C4214D00ADC41F2E5
S3150FE128A005039C421FD022DC41F204039C42CED1A8
S3150FE128B050230BE041F209039C4212D015DB41F2A2
S3150FE128C00A039C42C3D14F2300E021238DF80F3039
S3150FE128D0BDE72223FAE72323F8E72423F6E72523A7
S3150FE128E0F4E74123F2E74323F0E74423EEE74523F9
S3150FE128F0ECE7B37853B3F37843B333789B070ED54D
S3150FE12900D9F8003072689B689A4204D9FDF7F6FF51
S3150FE12910716A00F0ABFA01221321404672E740F2E9
S3150FE12920012000F0F7FAF6E760010020E93CE10F3C
S3150FE12930A43CE10FCE3CE10FB43CE10FFA3CE10FD1
S3150FE12940933CE10F3B3CE10F2808E10F40F20320F6
S3150FE1295000F0E0FAD2E600BF7047000070B5012142
S3150FE129603648374DFEF758FD01213648FEF754FD3F
S3150FE1297001214FF4AA40FEF74FFD01213248FEF740
S3150FE129804BFD40F6AA630024EB60304A2C6041F21E
S3150FE1299005036C666B60AC606C61EC64AA646C6792
S3150FE129A0AC67EC676B602B682B60FEF773FF00F586
S3150FE129B0E1404FF4E1134001B0FBF3F0244B203833
S3150FE129C003EAC00068610123042221462046FEF78F
S3150FE129D07FFD01231A46194620460326FEF778FDA9
S3150FE129E0AC67012304226E6705212046FEF770FDD1
S3150FE129F00523EB60174B4FF0E0621A604FF440226C
S3150FE12A001C62DC625C63DC66C3F88020124AC3F8A1
S3150FE12A108840C3F88440C3F89820104AC3F8B02021
S3150FE12A200F4AC3F8B840C3F8B44016600122DA631F
S3150FE12A3003F1C063083302221A6070BD40410500FD
S3150FE12A400000014000350A0000320400F9FF0100E1
S3150FE12A50F8FF7F0000200E40143DE10F01000C004E
S3150FE12A6028200E44084B986A10F0020005D0074A59
S3150FE12A70022313609360012070471B6A9B07FBD407
S3150FE12A80034B02221A60F6E700200E4020200E4487
S3150FE12A9028200E447F2938B50546144624D8FFF77A
S3150FE12AA0E1FFA8B941F2062038BDE85C985401333D
S3150FE12AB08B42FAD10E490888013B63F30E100D4B99
S3150FE12AC008800222C3F8C810DA6324B90020EBE7C5
S3150FE12AD00023094AECE7FFF7C5FF0028FBD0074AB9
S3150FE12AE013699B06FCD5F1E741F20310DCE700BF62
S3150FE12AF00001002000200E408C0300200000014061
S3150FE12B0008B50146FFF7AEFF0028FBD0054B1A4685
S3150FE12B1018694006FCD5596313699B06FCD500205D
S3150FE12B2008BD00BF000001400E4BD3F8940040F200
S3150FE12B30011398420FD040F2022398420DD00A4B6F
S3150FE12B40C01A0A4B1B6883420AD02ABFC3F500732A
S3150FE12B50C01AC01870470020F3E74FF48070F0E712
S3150FE12B600020704700200E408801002088030020D6
S3150FE12B702DE9F843089F04460D461646FBB9FFF7C4
S3150FE12B80D3FF2149DFF888E00B68204FA84228BF21
S3150FE12B902846224604EB000C4FF0010800244FF0C3
S3150FE12BA0020962451DD104B10B6006B1306041F2F5
S3150FE12BB00423A84234BF18460020BDE8F8832FB19D
S3150FE12BC0FEF7FEFD00213846FEF726FEFFF7ACFFC6
S3150FE12BD0A842D4D2002FF9D0FEF740FE0028F5D057
S3150FE12BE0CDE71EF8034002F8014B0133B3F5007F41
S3150FE12BF004D1C7F8009000230124D2E7B3F5807F13
S3150FE12C0008BFC7F80080F7E78803002008200E46C3
S3150FE12C108801002007B50123009100221946FFF72D
S3150FE12C20A7FF03B05DF804FB10B10A4B02221A604D
S3150FE12C3071B1084A0849012313609360074AC2F844
S3150FE12C409810074900200860D363064B02221A60E9
S3150FE12C500020704720200E44143DE10F00200E4066
S3150FE12C608803002008200E46F0B50F4B85B06C4661
S3150FE12C70024603F11007264618685968254603C52B
S3150FE12C800833BB422C46F7D104AB501E13F8011D96
S3150FE12C9010F8012F914204D1B342F7D1012005B0CB
S3150FE12CA0F0BD0020FBE700BF543DE10FC0F30A037F
S3150FE12CB02DE9F04105460F4616460BB900F076F9B8
S3150FE12CC005F5006424F4FF6424F0070405EB060818
S3150FE12CD0A04506D8324639462846BDE8F04100F010
S3150FE12CE06CB9204600F062F904F50064F0E770B5BF
S3150FE12CF09EB0446B0546FDF7FBFD06462046FFF702
S3150FE12D00B3FF48B3237C012B28D86369012B25D167
S3150FE12D10A4693369A34221D8A5421FD8B4F5002F80
S3150FE12D201CD803A8FEF76EFE621B294603A8FEF721
S3150FE12D3073FE03A8FEF772FEFDF7AAFD0546FDF742
S3150FE12D40ABFD2B46009004F12002214603A8FEF7C6
S3150FE12D501BFEB0FA80F040091EB070BD0020FBE704
S3150FE12D6070B504460E461546FDF7C2FD0369A3424B
S3150FE12D700AD8426963199A4206D32A463146204652
S3150FE12D80BDE87040FFF792BF70BD00002DE9F0413D
S3150FE12D90154607468846FDF7A5FD104B02689A4290
S3150FE12DA019D1FDF7A5FD0646FDF7A8FDC41963196F
S3150FE12DB0B3F5002F0FD83FB9FDF7A0FD7369834235
S3150FE12DC002D9306900F0F2F82A4641462046BDE8BD
S3150FE12DD0F041FFF76BBFBDE8F08100BFAD1007B063
S3150FE12DE0F8B5D0E9006706F160460446456BFDF795
S3150FE12DF07FFDB6F5803F01D90020F8BD0369BB42DF
S3150FE12E00FAD8B7F5002FF7D84033AB4202D8B5F56C
S3150FE12E10002F05D9FFF746FB80F00100C0B2ECE7C2
S3150FE12E20FFF740FB20B12046BDE8F840FFF75FBF53
S3150FE12E302846FFF719FFA8B12B7C012BDCD86B696C
S3150FE12E40002BDAD0022BEED1AB69C4F104011944A0
S3150FE12E504FF0FF322046FFF739FA034BC31A5842B8
S3150FE12E605841CAE70120C8E7E320BBDE08B54FF0BA
S3150FE12E70FF32FFF72BFA044B984203D140F20920B8
S3150FE12E8000F048F8002008BDE320BBDEB1F5BE7FB8
S3150FE12E9010B5044610D34FF4BE720021FDF7F0FCD6
S3150FE12EA00023637004F5807204F1B80104F1280080
S3150FE12EB0BDE8104000F0DCB940F2052010BD13B5B6
S3150FE12EC0044600910146283000F00CFAC4F8780167
S3150FE12ED018B141F20703984209D1A3784BB1E278D1
S3150FE12EE040F2032040F20223002A08BF184602B03F
S3150FE12EF010BD40F20120FAE74FF000534FF20F02F7
S3150FE12F0018805A8070474FF000534CF23C325A808A
S3150FE12F10704700004FF000534FF20F025A800A4AF2
S3150FE12F201880136823F4E06343F400731360BFF36F
S3150FE12F304F8F0649064BCA6802F4E0621343CB6032
S3150FE12F40BFF34F8F00BFFDE700500E4000ED00E0ED
S3150FE12F500400FA054FF000534FF20F015A888A42E7
S3150FE12F6001D1188870473AB91B88012B40F202202C
S3150FE12F7018BF4FF4007070474FF40070704707B5F4
S3150FE12F8003469B0753BF6FEA01414FF6FF7343EACF
S3150FE12F9001416FEA11410422019120F003000DEB8B
S3150FE12FA00201FEF79DFB03B05DF804FB08B5FEF7E2
S3150FE12FB04FFBB0FA80F0400908BDF8B540EA0203CD
S3150FE12FC01446DA0705460E4601D50020F8BD0CB9C1
S3150FE12FD00120FBE7830721D50988FFF7D0FF0028FA
S3150FE12FE0F3D1023C032C05F1020506F102060BD9DA
S3150FE12FF024F003073A4631462846FEF771FB0028CF
S3150FE13000E3D13E443D44E41B002CE1D03188284610
S3150FE13010FFF7B5FFB0FA80F04009D7E7032CE7D801
S3150FE13020F4E770B5D1E90152AA4205D290F84030E2
S3150FE130302B449B1A402B10D9002012E00A6890F816
S3150FE130404040D65C90F84120224402F03F02013322
S3150FE13050013486548B6080F840408B689D42EDD8F1
S3150FE13060012070BD2DE9F8431746D1E90125521B21
S3150FE1307090F840509DF820909DF824802A44934281
S3150FE1308004460E4657D9FFF7CCFF00285DD1122330
S3150FE1309084F8463041F20200BDE8F88394F8412006
S3150FE130A0A25C7A5594F84120013202F03F0284F88E
S3150FE130B0412094F84020013A84F84020013594F8F4
S3150FE130C0402012B1AB42E9D11D46D6E901128A423F
S3150FE130D001D2AB4231D8AB42D9D1D4F888202946B7
S3150FE130E03846FFF7F3F8C4F88800B9F1000F04D0BA
S3150FE130F02A463946E06CFEF78FFCB8F1000F08D08F
S3150FE1310094F843302BB12B463A463946A06CFEF77D
S3150FE1311029FC94F8433043B1E36DA26D2B449342FE
S3150FE13120E36524BF002384F84330636D1D44656571
S3150FE1313041F20300B0E70025C1E731688A5C7A55B1
S3150FE13140B2680132B2600135BFE70020A4E70000A3
S3150FE131507FB50023CDE90033082315460DEB0302B6
S3150FE131600446FFF77FFF41F203039842064626D155
S3150FE1317094F8433063B108220DEB0201E06CFEF7E0
S3150FE131804BFC08230DEB03021146A06CFEF7EAFB9D
S3150FE13190039A6A6094F84320029B2B605AB9094A55
S3150FE131A0934208D0084A934205D008220DEB02015B
S3150FE131B0E06CFEF731FC6B682365002363653046EF
S3150FE131C004B070BDF70A0AF7FC0404FC2DE9F843D5
S3150FE131D0044658680D4616461F46002843D08B070E
S3150FE131E043D1FDF779FB216E00F1040C06EB0109E2
S3150FE131F0CC451DD800F11C02914219D28C4563468C
S3150FE1320038BF0B46591AA3EB0C00914594BFC3EB9C
S3150FE132100909C3EB020905EB010868304A46414645
S3150FE13220204400F0FEFB4A46FF214046FDF728FB0E
S3150FE13230FDF764FB226E031D93420AD3B1180830E2
S3150FE13240814206D39B1AEA58C4F880204FF0FF3229
S3150FE13250EA50D7E900383246206E2946C047236E39
S3150FE132601E4426660020BDE8F88341F20200FAE724
S3150FE13270F8B504464FF0FF36154603F0200300225A
S3150FE1328080F84620A0F8402080F8432080F84520BA
S3150FE1329080F84420C0E918220F4680F84230C0F882
S3150FE132A088601822FF216830FDF7EAFAC4F88060DA
S3150FE132B0C4F88460C4E91275FDF70CFB18B117B9B0
S3150FE132C041F20B00F8BDFDF703FB30B1002DF7D04E
S3150FE132D0E06CFEF797FB0020F4E7002DF8D12846C6
S3150FE132E0F0E700002DE9F04F9BB0CDE907230393FB
S3150FE132F0249EDFF800B400230446894609939846D5
S3150FE13300099A039B9A4257D294F84630122BF8D872
S3150FE13310DFE813F05B00700054009A00B8013B0040
S3150FE133203200D5013B00CF013B00CF01B40252037E
S3150FE1333013001D032103490252030027636D0F2B6F
S3150FE1334041D801251023019700950AAA07A920461E
S3150FE13350FFF788FE41F2030398427AD1D4F848A0E9
S3150FE13360FDF79EFA8023CDE900030BAA2B46022136
S3150FE133705046FEF7D5FAE1E70125D4E914329A4230
S3150FE13380C0F01B8184F84650BAE70DF1280AD4E95B
S3150FE133901452AA42099916D2089BAD1A94F8402005
S3150FE133A05B1A032D134440F2A781032B00F2CB8165
S3150FE133B007A92046FFF735FE00204AE00025636D99
S3150FE133C0072B40F2C380012311E005AA07A9204686
S3150FE133D0FFF7BEFE41F2030398423AD1069B2365FE
S3150FE133E000236365059AB84B9A422DD1022384F8DF
S3150FE133F0463085E705AA07A92046FFF7A9FE41F260
S3150FE134000303984225D194F84420059B22B1AF4A94
S3150FE13410934219D10C23EAE794F84220D1074FD50D
S3150FE1342094F84320002A40F0CA82A94A934241D038
S3150FE1343017D8A84A934207D00ED8A34A934203D08E
S3150FE1344002F1B642934215D1122384F8463041F286
S3150FE1345001001BB0BDE8F08F9F4A9342F4D09F4A1B
S3150FE13460F0E79F4A93421BD00CD85B4543D09D4A68
S3150FE13470934217D0122384F8463005A8FDF714FAC4
S3150FE13480D8B1E4E7984A9342DED0984A9342DBD02B
S3150FE134908E4A9342EED1FDF71BFA0028BAD0D3E755
S3150FE134A00E23A4E70F2384F84630236DA36500238B
S3150FE134B0E36525E7122384F8463041F20800C8E7B1
S3150FE134C05B4514D000F27F82834A934207D0834A49
S3150FE134D0934206D07F4A93420FD1062387E704230F
S3150FE134E085E7072383E7092381E70B237FE794F832
S3150FE134F04330002BA8D1102379E705A8FDF7D4F9BE
S3150FE13500D0B11123059884F84630C4F88C00FDF745
S3150FE13510D3F994F842309A0680467FF5F1AE00284A
S3150FE135203FF4EEAE4368002B3FF4EAAE20469847F0
S3150FE1353000283FF4E5AE8AE7122384F8463094F883
S3150FE135404330002BB9D041F2040082E70123009307
S3150FE13550019508230AAA07A92046FFF783FD41F241
S3150FE13560030398427FF475AF0A9B03F07F43B3F1F0
S3150FE13570407F05D0122384F8463041F2090068E70F
S3150FE135800B9B0493DB070ED594F8423043F001030E
S3150FE1359084F84230FDF79CF900283FF410AF049B05
S3150FE135A0DF0504D50BE7FDF795F90028F2D01223D5
S3150FE135B084F8463041F20A004BE7CDE900550AAAF5
S3150FE135C007A92046FFF74EFD41F2030398427FF428
S3150FE135D040AF09F1080C0AAF63460DF1400E3A46CA
S3150FE135E003CA724518605960174603F10803F6D10D
S3150FE135F01068186099F8003043F0010389F800303C
S3150FE136006046FDF789F900287FF4B7AE122384F8F7
S3150FE13610463041F20C001CE70123CDE900330AAA3B
S3150FE13620082307A92046FFF71DFD41F20303984240
S3150FE136307FF40FAF99F8003043F0020389F80030B9
S3150FE136400A9BC9F80430236D083BC9F824300B9B5C
S3150FE136500493FDF747F9264A036893427FF4F7AEE1
S3150FE13660FDF740F9049BC2689A427FF4EDAE05235C
S3150FE1367084F8463094F8453043F0010384F8453039
S3150FE1368000236366636D072BC6D939E60423CDE9BB
S3150FE1369000550AAA07A92046FFF7E4FC41F2030306
S3150FE136A098427FF4D6AE226D0A9B0493042A01D980
S3150FE136B023660125636D032BE8D90A2397E60023D9
S3150FE136C06366082393E600BFEB17A603FC0404FC2D
S3150FE136D0F70909F7F40A0AF4F50909F5F60808F600
S3150FE136E0FA0606FAF90707F9FD0303FDFE0101FEE6
S3150FE136F0AD1007B0F70A0AF79D423FF659AE9D4264
S3150FE1370028BF1D46032D88BF25F003050123CDE90B
S3150FE13710003352462B4607A92046FFF7A3FC41F299
S3150FE13720030398427FF495AE94F84630082B13D1F4
S3150FE13730B7688FB13368606E2A465146B847636EF4
S3150FE137401D44656623E6402D28BF4025D7E74FF098
S3150FE13750FF320AF805200135032DF8D90A2B06D1D8
S3150FE1376033462A4651462046FFF730FD0FE6052B35
S3150FE137707FF40DAE99F8013098077FF508AEF3683F
S3150FE13780002B3FF404AE626E042A0AD85319062BB6
S3150FE1379007D90BAB9B1A1A68C4F884204FF0FF3296
S3150FE137A01A60F768C6E794F84230990607D5D4F858
S3150FE137B08C00FDF781F8804600283FF448AE0127DB
S3150FE137C03FE0002B58D0B8F1000F55D0D8F81030A4
S3150FE137D0002B51D020469847DDE90853ED1A94F8AE
S3150FE137E040302B4498423FF6E3ADD4E91452AD1A7B
S3150FE137F0402D28BF40259D4228BF1D462B46CDE9CA
S3150FE1380000770AAA07A92046FFF72CFC41F203032A
S3150FE1381098427FF41EAE94F842309A0611D5B8F16C
S3150FE13820000F3FF414AED8F808A0BAF1000F3FF439
S3150FE138300EAE33462A460AA92046D04700287FF422
S3150FE1384008AED4E9142194F84230914203F02003F3
S3150FE13850B7D3002B3FF4B7ADB8F1000F3FF4B3ADDB
S3150FE13860D8F80C30002B3FF4AEAD314620469847E1
S3150FE1387000283FF4A8ADECE50120ADE70023CDE943
S3150FE1388000330AAA042307A92046FFF7EBFB41F20F
S3150FE13890030398427FF4DDADD4F88820554B9A4265
S3150FE138A005D0122384F8463041F20500D1E5FDF744
S3150FE138B00FF810B9012389F8033099F80330002B7B
S3150FE138C03ED094F845309B0707D0F5682DB1042219
S3150FE138D0336804F184011046A847236E83B37368F6
S3150FE138E073B31AAF4FF0FF3347F8583D04F1800831
S3150FE138F004224146384600F085F840B1FCF7FEFF59
S3150FE1390028B10422D6E9003541461044A84704F10F
S3150FE13910680504222946384600F074F880B17768C5
S3150FE13920FCF7DAFF3368142204F16C010830B8476B
S3150FE139307768FCF7D1FF0422336829461044B8476C
S3150FE13940012389F802300D2384F8463034E501234B
S3150FE1395084F843304BE594F84450002D7FF433ADB2
S3150FE139604023CDE900550AAA07A92046FFF77AFBBE
S3150FE1397041F2030398427FF46CADE06CFEF74EF82B
S3150FE13980E76CFCF785FF8246FCF786FF534600900E
S3150FE1399012AA0AA93846FDF7F7FF38B1122389F8BB
S3150FE139A0035041F2060084F8463052E5012389F8C7
S3150FE139B0033084F8443006E541F2070049E55B45FB
S3150FE139C07FF480AD40E50C4A93423FF48EAD0B4A4E
S3150FE139D093423FF488AD0A4A93427FF48EADFCF7EA
S3150FE139E077FF00287FF430AD94F84330002B3FF496
S3150FE139F011AD29E5E320BBDEFD0303FDFE0101FE6B
S3150FE13A00FC0404FC30B50024A24201D1002007E0FA
S3150FE13A10035D01340D1915F8015CAB42F4D0581B67
S3150FE13A2030BD10B5431E0A44914200D110BD11F8C5
S3150FE13A30014B03F8014FF7E7F8B500BFF8BC08BC37
S3150FE13A409E467047F8B500BFF8BC08BC9E46704766
S3150FE13A50FD0505FD5513E10F8113E10FC513E10FC8
S3150FE13A60B913E10F13B779FAC925DDB7ADF3CFE096
S3150FE13A70F1B614B800000F400000000000040F403B
S3150FE13A800100000067452301EFCDAB8998BADCFE53
S3150FE13A9010325476C3D2E1F00000000000000000BE
S3150FE13AA000000000C1059ED8367CD5073070DD17C2
S3150FE13AB0F70E5939FFC00B316858151164F98FA705
S3150FE13AC0BEFA4FA46A09E667BB67AE853C6EF37231
S3150FE13AD0A54FF53A510E527F9B05688C1F83D9ABE3
S3150FE13AE05BE0CD198000000000000000000000003F
S3150FE13AF000000000000000000000000000000000D0
S3150FE13B0000000000000000000000000000000000BF
S3150FE13B1000000000000000000000000000000000AF
S3150FE13B20000000000400000700000D1013001A202A
S3150FE13B302630384048000000200000000001000058
S3150FE13B40050C0000FFFFFFFFFFFFFFFFFFFFFFFF7A
S3150FE13B50000000000000000000000000010000006E
S3150FE13B60FFFFFFFF512563FCC2CAB9F3849E17A776
S3150FE13B70ADFAE6BCFFFFFFFFFFFFFFFF000000000E
S3150FE13B80FFFFFFFF96C298D84539A1F4A033EB2D7D
S3150FE13B90817D0377F240A463E5E6BCF847422CE169
S3150FE13BA0F2D1176BF551BF376840B6CBCE5E316BAD
S3150FE13BB05733CE2B169E0F7C4AEBE78E9B7F1AFE71
S3150FE13BC0E242E34F07B0CD5E0100000001000A01BA
S3150FE13BD0843500000000000000000800F10010002D
S3150FE13BE05123E10F5523E10FE12DE10F8D2EE10F6A
S3150FE13BF0BF2EE10F0000000013B779FAC925DDB733
S3150FE13C00ADF3CFE0F1B614B80101000000000000FA
S3150FE13C10803500004000000001000A0100000000AD
S3150FE13C20000000000000000000000000000000009E
S3150FE13C3000000000000000000205000D0A46616960
S3150FE13C406C656420746F20626F6F740D0A000D0A44
S3150FE13C504765636B6F20426F6F746C6F616465725A
S3150FE13C602076582E592E410D0A312E2075706C6F24
S3150FE13C7061642067626C0D0A322E2072756E0D0A31
S3150FE13C80332E2065626C20696E666F0D0A424C20F9
S3150FE13C903E20000D0A66696C65206572726F7220AF
S3150FE13CA03078000000000000612DE10F00000000F8
S3150FE13CB08D2DE10F0D0A53657269616C2075706C7C
S3150FE13CC06F61642061626F727465640D0A000D0A9B
S3150FE13CD053657269616C2075706C6F616420636FF7
S3150FE13CE06D706C6574650D0A000D0A626567696E24
S3150FE13CF02075706C6F61640D0A000D0A584D6F6483
S3150FE13D00656D20626C6F636B206572726F72203026
S3150FE13D1078000000F00F10031C000140880100201D
S3150FE13D20130000000900000000010000020200007C
S3150FE13D3013000000F00F10031C0001408802002061
S3150FE13D40130000000900000000020000010100005D
S3150FE13D50D3FFFFFFB814B6F1E0CFF3ADB7DD25C959
S3150FE13D60FA79B71300000000F07F10308C030020C2
S3150FE13D7034000140000000006508E10F4108E10F42
S50303B148
S70500000000FA
