:1000000000000120C5350000093600000936000057
:1000100071E500000936000009360000A52D00003A
:10002000A52D0000A52D0000A52D0000419E00007B
:1000300009360000DC770200A19E0000059F000049
:1000400009870000D53F020009360000093600008C
:10005000FD36020041400200E13F0200F93F02008C
:10006000D93F020009360000ED30000009360000DB
:100070000936000009360000093600000936000084
:100080000936000009360000113100000936000071
:100090000936000009360000093600000936000064
:1000A0000936000009360000093600004D30000016
:1000B00045400200DD3F0200056A0200799D000014
:1000C0008540020025840000012802000936000056
:1000D0000936000009360000093600000936000024
:1000E0000936000009360000093600000936000014
:1000F0000936000009360000A52D000010B5054C9A
:10010000237833B9044B13B10448AFF300800123C3
:10011000237010BD000600200000000008B102009E
:1001200008B5034B1BB103490348AFF3008008BD7A
:10013000000000000406002008B10200154B002B4F
:1001400008BF134B9D46A3F5803A00218B460F460E
:100150001348144A121A00F063F80F4B002B00D01A
:1001600098470E4B002B00D0984700200021040038
:100170000D000D48002802D00C48AFF3008000F0BD
:100180002BF8200029000CF033FC00F011F800BF20
:100190000000080000000120000000000000000036
:1001A000000600203877002000000000000000005A
:1001B00008B5074B044613B10021AFF30080054B8F
:1001C0001868836A03B1984720460EF055F800BFBF
:1001D00000000000B473020070B50D4E0D4CA41B5E
:1001E000A4100025A54209D10B4E0C4C27F0D6F8DF
:1001F000A41BA4100025A54205D170BD56F82530DA
:1002000098470135EEE756F8253098470135F2E773
:10021000F4050020F4050020F4050020F805002076
:1002200002440346934200D1704703F8011BF9E7EB
:100230002DE9F04788B0002B149F109EDDE9121ABB
:100240001D4627F02007BBBF03F100431D460023D6
:100250002D231446B8BF1446462F0B7004D0452FEB
:1002600000D10136022300E0032307AA049206AA64
:10027000CDE902A2CDE9003622462B4600F0BCFBB8
:10028000472F804602D1119BDB0726D5462F08EB6E
:10029000060911D198F80030302B0AD10022002332
:1002A0002046294602F070F918B9C6F10106CAF8CD
:1002B0000060DAF8003099440022002320462946E5
:1002C00002F062F938B93022079B4B4505D2591C20
:1002D00007911A70F8E7CDF81C90079B159AA3EBCD
:1002E00008034046136008B0BDE8F087F7B5002961
:1002F0000446BABF49422D232B23092904F8022BB7
:10030000437020DD0DF107031F460A2691FBF6F529
:1003100006FB15113031092D03F8011C03F1FF32E2
:10032000294609DC3031023B02F8011CBB4222465F
:1003300004D3101A03B0F0BD1346E7E713F8012BFE
:1003400004F8012BF2E7302319448370021DC170B9
:10035000EFE700002DE9F04F91B00C46DDF8688022
:1003600016461F46054601F005F90368089318462E
:1003700000F0ABFA00230E93D8F800300990073351
:1003800023F0070303F1080294F818A0D4F800B092
:10039000C8F80020D3E90023C4E91223D4E9128964
:1003A00029F000430B93CDF828804FF0FF32A94B82
:1003B000DDE90A0102F01AF970BB4FF0FF32A54BDC
:1003C000DDE90A0102F0F4F830BB002200234046C8
:1003D000494602F0E3F810B12D2384F843309E4AD9
:1003E0009E4BBAF1470F8CBF90469846032323617A
:1003F0002BF0040323604FF00009009733460FAA47
:100400002146284600F0ECF9013040F090804FF092
:10041000FF3011B0BDE8F08F42464B46404649469A
:1004200002F0E4F810B18E4A8E4BDAE76368591C8B
:100430004BF480620EA90DA840D1062363600DF134
:100440003303CDE901234FF0000C63682260CDE94E
:10045000030A009342464B46CDE9051C2846FFF7A8
:10046000E7FE0AF0DF03472B804609D10D9BD81C1D
:1004700002DB6268934247DDAAF1020A5FFA8AFA58
:10048000BAF1650F0D9924D80139524604F1500094
:100490000D91FFF72BFF0E9A1318012A8146236155
:1004A00002DC2268D10701D5013323619DF8333086
:1004B000002BA2D02D2384F843309EE7BAF1670FBA
:1004C00000F07881BAF1470FB9D1002BB7D10123E1
:1004D000B4E7BAF1660F19D1002963680CDD216118
:1004E00013B92268D20702D501330B4423610D9B57
:1004F000A3654FF00009D9E713B92268D00701D5E9
:100500000233F3E70123F1E74FF0670ADDE90D322B
:10051000934205DB22682361D107E8D50133E5E783
:10052000002BD4BFC3F1020301231344DEE7236889
:100530005A0507D42369424631462846B847013058
:100540002BD164E7BAF1650F40F2DD800022002371
:10055000D4E9120102F018F8002833D00123424AEE
:1005600031462846B84701303FF451AFDDE90D234D
:100570009A4202DB2368D8070FD5DDE9082331460C
:100580002846B84701303FF442AF4FF0000804F16D
:100590001A090E9B013B434509DC23689B0700F1C8
:1005A0000481E0680F9B9842B8BF184631E70123E9
:1005B0004A4631462846B84701303FF428AF08F193
:1005C0000108E6E70D9B002B2BDC0123264A314670
:1005D0002846B84701303FF41AAF0D9B23B90E9B54
:1005E00013B92368D907D8D5DDE908233146284651
:1005F000B84701303FF40BAF4FF0000904F11A0A7D
:100600000D9B5B424B4501DC0E9B94E70123524658
:1006100031462846B84701303FF4F9AE09F10109E7
:10062000EEE70E9AA36D9A42A8BF1A46002A914699
:1006300007DD1346314642462846B84701303FF4AD
:10064000E6AE04F11A034FF0000B29EAE9790A93A8
:1006500016E000BFFFFFEF7FBC730200B87302001B
:10066000C4730200C07302006877020001230A9A73
:1006700031462846B84701303FF4C9AE0BF1010BB3
:10068000D4F858A0AAEB09035B45EFDCDDE90D23A4
:100690009A42D04415DB2368DA0712D40E9B0D99D9
:1006A000A3EB0A02A3EB010A9245A8BF9246BAF156
:1006B000000F0EDC4FF000082AEAEA7A04F11A096A
:1006C00019E0DDE9082331462846B8470130E5D175
:1006D0009DE65346424631462846B8470130E9D1A7
:1006E00095E601234A4631462846B84701303FF493
:1006F0008EAE08F10108DDE90D239B1AA3EB0A0376
:100700004345EEDC49E70E9A012A01DCDB073AD5C6
:100710000123424631462846B84701303FF477AEC0
:10072000DDE9082331462846B847013008F10108C1
:100730003FF46DAE0E9B002203F1FF3AD4E91201A3
:10074000002301F021FFC8B95346424631462846EE
:10075000B84701300ED15AE60123524631462846A9
:10076000B84701303FF453AE08F101080E9B013B3E
:100770004345F1DC4B4604F15002DDE64FF0000842
:1007800004F11A0AF2E70123DFE701234A46314662
:100790002846B84701303FF43AAE08F10108E36853
:1007A0000F9A9B1A4345F0DCFBE64FF0000804F17A
:1007B0001909F4E7002B3FF48AAE4FF0000CCDE9A5
:1007C000051C0DF133012260CDE9030ACDE90121B9
:1007D000009342464B462846FFF72AFD804645E6F1
:1007E0002DE9F04791461F468A680B69DDF82080A5
:1007F0009342B8BF1346C9F8003091F8432006462B
:100800000C4612B10133C9F800302368990642BF83
:10081000D9F800300233C9F80030256815F0060514
:1008200007D104F1190AE368D9F800209B1AAB42FA
:1008300028DC94F843302268003318BF0123920665
:100840002DD404F1430239463046C047013020D050
:100850002368E568D9F8002003F00603042B08BFDD
:10086000AD1AA36822690CBF25EAE57500259342FD
:10087000C4BF9B1AED184FF000091A344D451AD128
:10088000002008E00123524639463046C047013077
:1008900003D14FF0FF30BDE8F0870135C3E7E11821
:1008A0005A1C302081F84300224494F8451082F805
:1008B00043100233C5E70123224639463046C0477C
:1008C0000130E6D009F10109D8E7034613F8012BFE
:1008D000002AFBD1181A013870472DE9F74F036938
:1008E0000C69A3428046C0F28280013C01F11407EA
:1008F0004FEA840C00F1140657F8245056F82400EF
:1009000006EB0C03013507EB0C090193B0FBF5F581
:1009100095B34FF0000A3846B646D34650F8042B3C
:1009200093B205FB03A34FEA134A9BB2ABEB03035D
:10093000120CDEF800B005FB02A213FA8BF34FEAAB
:10094000124A1FFA82FBDEF80020CBEB124202EBC8
:1009500023429BB243EA024381454FEA224B4EF8C1
:10096000043BDBD256F80C3033B9019B043B9E426A
:100970001A4630D3C8F81040404601F081F80028EC
:1009800025DB013530464FF0000C57F8042BD0F82A
:1009900000E093B2ACEB0303120C13FA8EF3C2EB3C
:1009A0001E4202EB23429BB243EA0243B9454FEA9F
:1009B000224C40F8043BE8D256F8242006EB84038E
:1009C0002AB9043B9E421A460BD3C8F81040284669
:1009D00003B0BDE8F08F1268043B002ACAD1013C85
:1009E000C5E71268043B002AEFD1013CEAE700208A
:1009F000EEE70000000000002DE9F04F456A97B0D7
:100A000016461F460446DDF88C80CDE902673DB9E5
:100A1000102000F0BDFD6062C0E901550560C560B1
:100A2000636A196851B15A684A60012393408B6028
:100A3000204600F044FE636A00221A603B1EBBBFE2
:100A400023F00043039300230122ACBFC8F8003019
:100A5000C8F80020B24BDDF80C8033EA08031BD144
:100A6000229A42F20F731360029B23B9C8F313005A
:100A7000002800F04F85249B53B9AA4B21E0AA4BD4
:100A800005930833249A1360059817B0BDE8F08FDA
:100A9000A44B05930333F5E7DDE902670022002349
:100AA0003046394601F070FD824660B1229A01233A
:100AB0001360249B002B00F02A859C4B249A136022
:100AC000013B0593E0E714AB019315AB009332466D
:100AD0003B46204601F04BF8C8F30A558346002DEB
:100AE0007CD0C7F3130343F07F59B04649F4401953
:100AF000A5F2FF35CDF84CA000228D4B404649466B
:100B000001F022F980A3D3E9002301F0D5FA80A3F4
:100B1000D3E9002301F01AF9064628460F4601F0F2
:100B200061FA7DA3D3E9002301F0C6FA02460B4621
:100B30003046394601F00AF906460F4601F06CFDD1
:100B40000022824600233046394601F027FD48B195
:100B5000504601F047FA32463B4601F015FD08B910
:100B60000AF1FF3ABAF1160F59D8724901EBCA01DE
:100B7000DDE90223D1E9000101F02EFD002850D06B
:100B80000AF1FF3A00231293149B5D1BB5F1010893
:100B900049BFC5F10103002308934FF0000858BF77
:100BA0000893BAF1000F3EDB0023D044CDF834A007
:100BB0000993209B092B00F29080052BC4BF043BB6
:100BC0002093209BA3F10203CCBF00250125032B1A
:100BD00000F28F80DFE803F07D7F3171DDE914538F
:100BE0001D4405F23240202813DDC0F14000029B75
:100BF00008FA00F805F2124023FA00F048EA000073
:100C000001F0E0F901238046A1F1F879013D139349
:100C100072E7029BC0F1200003FA00F0F0E7012325
:100C2000B1E71290B0E7089BA3EB0A030893CAF15F
:100C30000003099300230D93BBE701230C93219B31
:100C4000002B59DD06939946666A002272600422E1
:100C500002F114009842716870D9204600F0FBFC44
:100C6000636A30601B680593B9F10E0F00F2EB80E8
:100C7000002D00F0E8809DED027BBAF1000F8DEDB4
:100C8000107B79DD2B4A0AF00F0302EBC30393EDCF
:100C9000007B4FEA2A16F0068DED0A7B6AD5264BBB
:100CA000DDE91001D3E9082301F030FBCDE90201B1
:100CB00006F00F060325204F51E001230C93219BE2
:100CC000534403F1010906934B46012BB8BF01239E
:100CD000BAE70023B2E70023F0E7012500232093C1
:100CE0000C954FF0FF330693994600221223219270
:100CF000AAE701230C93F4E70123069399461A46C9
:100D0000F5E700BFAFF3008061436F63A787D23F71
:100D1000B3C8608B288AC63FFB799F501344D33FEA
:100D20000000F07FD1730200C873020069770200EF
:100D30000000F83F00740200D873020001317160B6
:100D4000520085E7F10708D5DDE90A01D7E900235C
:100D500001F0B2F9CDE90A01013576100837002E0D
:100D6000F0D1DDE90A23DDE9020101F0CFFACDE996
:100D700002011AE002259EE700F0A080CAF10006F9
:100D80009F4BA04F06F00F0203EBC203D3E90023F1
:100D9000DDE9100101F090F9CDE9020136110023DF
:100DA0000225002E7FD1002BE1D1129B002B00F0F9
:100DB0008780DDE902670022934B3046394601F017
:100DC000EDFB00287CD0B9F1000F79D0069B002BF9
:100DD00035DD0AF1FF330A93394600228B4B30464A
:100DE00001F06AF9CDE90201069F0135284601F0BC
:100DF000F9F8DDE9022301F05FF90022844B00F0ED
:100E0000A5FF0546A1F15076002F5DD10022814B50
:100E1000DDE9020100F098FF2A463346CDE90201E0
:100E200001F0DAFB002840F088822A4606F10043F0
:100E3000DDE9020101F0B2FB002840F07C82DDE92F
:100E40001023CDE90223159B002BC0F25081BAF18B
:100E50000E0F00F34C816A4B03EBCA0393ED007B4A
:100E6000219B002B8DED067B80F2D880B9F1000F1D
:100E700000F3D48040F05E820022664B51EC170BE9
:100E800001F01AF9DDE9022301F09CFB4F464E46C2
:100E9000002840F03482059B059A5D1C31231370B5
:100EA0000AF1010A2FE2F20705D5D7E9002301F084
:100EB00003F9013501237610083772E7022574E73C
:100EC000CDF828A04F4691E74D4B03EBC70353E9FC
:100ED00002010C9B002B47D002460B4600204E49D6
:100EE00001F014FA2A46334600F02EFFCDE90E0138
:100EF000059DDDE9020101F08FFB064601F072F865
:100F000002460B46DDE9020100F01EFF303605F80F
:100F1000016BDDE90E23CDE9020101F03FFB002862
:100F200063D1DDE902230020374900F00DFFDDE940
:100F30000E2301F033FB002840F0B780059BEB1A2D
:100F40009F427FF77CAF0022304BDDE90E0101F0BC
:100F5000B3F80022CDE90E012C4BDDE9020101F0CE
:100F6000ABF8CDE90201C4E733462A4601F0A4F804
:100F7000059BCDE90E01DD191E46DDE9020101F0F8
:100F80004BFB074601F02EF8303702460B46DDE9F1
:100F9000020100F0D9FE06F8017BAE42CDE9020164
:100FA0004FF0000226D11C4BDDE90E0100F0CEFE11
:100FB00002460B46DDE9020101F00EFB002874D168
:100FC000DDE90E230020144900F0BEFE02460B4668
:100FD000DDE9020101F0E2FA00283FF430AF15F834
:100FE000013C302B05F1FF3202D0DDF828A04AE0A9
:100FF0001546F4E7054B01F05FF8CDE90201BCE7C7
:1010000000740200D87302000000F03F000024408A
:1010100000001C40000014400000E03FDDE90267D2
:10102000059DDDE906233046394601F06FF901F0F0
:10103000F3FA804600F0D6FFDDE9062301F03CF824
:1010400002460B463046394608F1300600F07CFE79
:1010500005F8016B059EAE1BB14502460B4639D122
:1010600000F074FEDDE9062306460F4601F0B4FAEF
:10107000C8B9DDE906233046394601F085FA10B1DA
:1010800018F0010F0FD15946204600F018FB00233D
:10109000229A2B700AF101031360249B002B3FF46A
:1010A000F3AC1D60F0E4CDF828A015F8012C392A26
:1010B00005F1FF3308D1059A9A4209D10A9B013301
:1010C0000A933023137013461A7801321A708CE792
:1010D0001D46EAE700229B4B00F0EEFF00220023B2
:1010E00006460F4601F050FA00289AD0CBE70C9A3A
:1010F000002A00F08B80209A012A6EDC139A002AC5
:1011000067D003F23343DDE90857089A01211A44F6
:1011100020460892984400F072FB0646002D0CDD34
:10112000B8F1000F09DD4545089A2B46A8BF434694
:10113000D21A0892ED1AA8EB0308099BEBB10C9B9D
:10114000002B67D08FB131463A46204600F0F6FBBF
:101150005A4601460646204600F05AFB59460A9078
:10116000204600F0ACFA0A9B9B46099BDA1B04D090
:101170005946204600F0E2FB83460121204600F05C
:101180003EFB0D9B0746002B00F0CB811A46014623
:10119000204600F0D3FB209B012B074640DC029B3E
:1011A000002B39D1039BC3F31303002B36D1039BD0
:1011B00023F000431B0D1B052BB1089B0133089343
:1011C00008F10108012309930D9B002B2AD101206E
:1011D00030E0149BC3F1360395E7099B09F1FF3713
:1011E000BB42BFBF099B0997FA1A0D9BBBBF9B1857
:1011F0000D93DF1B0027B9F1000FB5BF089B089DB9
:10120000A3EB09054B46B8BF00237EE7DDE908578D
:101210000C9E83E7099AABE70023D4E7029BD2E751
:10122000002309933B6907EB8303186900F099FADF
:10123000C0F12000404410F01F0047D0C0F120034F
:10124000042B3BDD089BC0F11C00034408930544BC
:101250008044089B002B05DD59461A46204600F0C5
:10126000BBFB8346B8F1000F05DD394642462046F8
:1012700000F0B2FB0746129B53B33946584600F0C4
:10128000FFFB002824DA002359460A22204600F0FA
:101290002DFA0C9B0AF1FF3A8346002B00F048819F
:1012A000002331460A22204600F020FA069B002B3C
:1012B00006464FDC209B022B4CDD11E0C9D0089A7A
:1012C0001C331A4408921D449844C2E70346F6E7CB
:1012D000B9F1000F38DC209B022B35DDCDF81890DA
:1012E000069B63B939460522204600F0FFF9014606
:1012F0000746584600F0C4FB00283FF7CCAD219BC1
:10130000059D6FEA030A4FF000093946204600F0B8
:10131000D6F9002E3FF4B7AEB9F1000F05D0B145B4
:1013200003D04946204600F0CAF93146204600F075
:10133000C6F9A8E600273E46E1E7DDF828A03E46CC
:10134000A9E500BF000024400C9BCDF81890002BAD
:1013500000F0F580002D05DD31462A46204600F0DC
:101360003BFB0646099B002B4CD07168204600F0E1
:1013700072F9326902320546920006F10C010C3016
:1013800000F05EF901222946204600F025FB059B6E
:101390000893029B03F00103B146099306463946C0
:1013A0005846FFF79AFA4946054600F13008584674
:1013B00000F066FB324602903946204600F07AFB88
:1013C000C368024603BB01460A90584600F058FB2A
:1013D0000A9A0346114620460A9300F070F90A9BC8
:1013E000A3B9209A92B9099A82B9B8F1390F29D0D4
:1013F000029B002B01DD05F13108089B5D1C83F881
:10140000008082E73046C2E70123E3E7029A002A20
:1014100004DB24D1209A12BB099A02BB002BECDD1D
:1014200059460122204600F0D7FA3946834600F09B
:1014300027FB002803DCE0D118F0010FDDD0B8F164
:10144000390FD8D1089B089A5D1C3923137015F801
:10145000013C392B05F1FF324ED0013353E0089A9D
:10146000002B02F1010506DDB8F1390FEAD008F1D1
:101470000108089BC3E7059B069A05F8018CEB1A47
:10148000934221D0594600230A22204600F02EF92B
:10149000B14583464FF000034FF00A02494620460B
:1014A00005D100F023F981460646089577E700F05C
:1014B0001DF93146814600230A22204600F016F924
:1014C0000646F2E74FF0000959460122204600F097
:1014D00083FA3946834600F0D3FA0028B7DC02D1FC
:1014E00018F0010FB3D115F8013C302B05F1FF3294
:1014F0007FF40BAF1546F6E7059B934205D1059A9D
:101500000AF1010A31231370FFE615469FE7174BD6
:10151000FFF7D7BA249B002B7FF4B1AA144BFFF737
:10152000D0BA209B012B7FF73AAE0D9B09934EE674
:10153000069B002B03DC209B022B3FF7D1AE059DC1
:1015400039465846FFF7C9F900F1300805F8018B14
:10155000059B069AEB1A9A42B4DD594600230A22EB
:10156000204600F0C3F88346EAE700BF6877020030
:10157000C8730200044B1B68186A044B002808BF9C
:101580001846F030704700BF0400002068000020BB
:10159000024B0146186800F047BB00BF0400002062
:1015A00001F0FF01102A2BDB10F0070F08D010F814
:1015B000013B013A8B422DD010F0070F42B3F6D118
:1015C000F0B441EA012141EA014122F007047FF031
:1015D00000070023F0E80256083C85EA010586EA88
:1015E000010685FA47F5A3FA87F586FA47F6A5FAC4
:1015F00087F68EB9EED1F0BC01F0FF0102F00702D0
:1016000032B110F8013B013A83EA010313B1F8D17A
:101610000020704701387047002D06BF354603385B
:10162000073815F0010F07D1013015F4807F02BF94
:10163000013015F4C03F0130F0BC0138704700BFE5
:1016400010B5431E0A44914200D110BD11F8014B60
:1016500003F8014FF7E770B5456A04460E463DB9F9
:101660001020FFF795FF6062C0E901550560C56075
:10167000656AEB6883B1636ADB6853F82600B8B922
:10168000012101FA06F56A1D9200204600F0BEFA1B
:1016900060B1C0E901650EE021220421204600F07E
:1016A000B5FA636AE860DB68002BE4D1002070BD06
:1016B000026843F826200023C0E90333F7E770B53A
:1016C000446A06460D463CB91020FFF761FF706280
:1016D000C0E901440460C4603DB1736A6A68DB68B4
:1016E00053F82210296043F8225070BD2DE9F041D3
:1016F0000D691F4606460C4601F1140C0023DCF868
:10170000000081B202FB01710F0C000C02FB0070A3
:1017100089B2013301EB00419D424FEA10474CF87A
:10172000041BECDCD7B1A368AB4212DC6168304625
:101730000131FFF790FF2269023204F10C0180466B
:1017400092000C30FFF77CFF21463046FFF7B7FFD1
:10175000444604EB850301355F6125612046BDE801
:10176000F081020C12040346B2B90304102013F0F6
:101770007F4F04BF1B02083013F0704F04BF1B01E2
:10178000043013F0404F04BF9B000230002B06DBF7
:101790005B0003D5013070470020E8E72020704748
:1017A000036813F0070201460BD0DA0723D4980729
:1017B00049BF5B089B0801200B605CBF0B600220E7
:1017C000704798B2A8B91B0C102013F0FF0F04BF8C
:1017D0001B0A08301A0704BF1B0904309A0704BF0C
:1017E0009B080230DA0702D45B0806D001300B6098
:1017F00070471046E9E7002070472020704710B579
:101800000C460121FFF727FF01224461026110BD50
:101810002DE9F74F14460A6923699A42B8BF0B466F
:101820008846BCBFA0461C46D8F81070D4F810906B
:10183000D8F80830D8F8041007EB0906B342B8BF4F
:101840000131FFF708FF00F1140505EB860E2B466A
:101850000022734516D304F1140208F1140102EBBF
:10186000890301EB87070093009B019293420CD8F8
:10187000002E03DD5EF8043D002B5DD0066103B051
:10188000BDE8F08F43F8042BE3E7B2F800B0BBF1FA
:10189000000F23D08946AC464FF0000859F8044B9E
:1018A000DCF800A0A3B21FFA8AFA0BFB03A34FEAED
:1018B000144ADCF8004043444FEA14480BFB0A8406
:1018C00004EB1344E2469BB243EA04434F454FEA1C
:1018D00014484AF8043B2BD8CCF80480019BB3F899
:1018E00002A00432BAF1000F20D02B688946A84626
:1018F0004FF0000BB9F800C0B8F802400AFB0C44E6
:101900005C44C4469BB243EA04434CF8043B59F898
:10191000043BB8F804B01B0C0AFB03B303EB1443FD
:101920004F454FEA134B05D8C8F8043004359BE700
:10193000D446B3E7E046DDE7013E99E72DE9F843F9
:10194000154612F0030206460F4607D0013A214C15
:10195000002354F82220FFF7C9FE0746AD1035D00A
:10196000746A3CB91020FFF713FE7062C0E90144AD
:101970000460C460D6F82480D8F808404CB940F21E
:1019800071213046FFF73BFF0023C8F808000446EA
:1019900003604FF00008EB070AD53946224630466F
:1019A000FFF736FF394681463046FFF788FE4F463F
:1019B0006D100BD0206838B9224621463046FFF71B
:1019C00027FF2060C0F800800446E4E73846BDE801
:1019D000F88300BFC87402002DE9F0470C464FEAB7
:1019E000621A236949680AEB0309A3680746164689
:1019F00009F10105AB4232DB3846FFF72CFE00232C
:101A0000804600F114011A4653452BDB20692AEA6F
:101A1000EA7A04F1140316F01F0201EB8A0103EBCA
:101A2000800C25D0C2F1200E00201E688A46964008
:101A300030434AF8040B53F8040B9C4520FA0EF08F
:101A400014D8486008B109F10205013D3846C8F8CC
:101A500010502146FFF733FE4046BDE8F0870131C4
:101A60005B00C7E741F823200133CDE75146DCE7AF
:101A7000043953F8042B41F8042F9C45F9D8E4E7C6
:101A800003690A699B1A30B50CD1920014301431E5
:101A90008418114454F8045D51F8042D954203D084
:101AA00005D30123184630BDA042F3D3FAE74FF027
:101AB000FF33F7E72DE9F0470D4607461146284664
:101AC0001446FFF7DDFF061E08D131463846FFF702
:101AD000C2FD0123C0E90436BDE8F087A4BF234658
:101AE0002C4638466168A6BF1D4600260126FFF732
:101AF000B2FD2B69C660266905F1140904F11402D0
:101B000002EB860709EB830800F114054FF0000E85
:101B100052F804AB59F8044B1EFA8AF1A3B2C91A61
:101B2000230CC3EB1A4303EB214389B24FEA234E44
:101B3000C84541EA0343944645F8043BE8D8BC4510
:101B400004D355F8043D83B10661C5E75CF8041B76
:101B50001EFA81F31A1402EB11429BB243EA0243CC
:101B60004FEA224E45F8043BE9E7013EE9E72DE95B
:101B7000F743012199469046DDE90A65FFF76BFDC1
:101B8000C9F30A540746C9F3130334BBB8F1000282
:101B9000019327D002A840F8082DFFF701FE009915
:101BA000F0B1019AC0F1200302FA03F30B43C240E3
:101BB0007B610192019BBB61002B14BF02210121BB
:101BC0003961C4B1A4F2334404443460C0F1350037
:101BD0002860384603B0BDE8F08343F48013D5E7AE
:101BE0007961E7E701A8FFF7DBFD019B7B6101213C
:101BF00039612030E5E707EB8103A0F23240306025
:101C00001869FFF7AEFDC0EB4110E1E738B502FB04
:101C100001F4214600F008F8054618B122460021DB
:101C2000FEF7FEFA284638BD70B5CD1C25F0030539
:101C300008350C2D38BF0C25002D064601DBA942C6
:101C400003D90C233360002070BD00F069F8214AED
:101C50001468214691B9204C23681BB9304600F026
:101C60003DF820602946304600F038F8431C24D166
:101C70000C233360304600F054F8E4E70B685B1B3C
:101C800018D40B2B0FD90B60CD50CC18304600F078
:101C900048F804F10B00231D20F00700C31AD3D02D
:101CA0005A42E250D0E78C424B6816BF6360136023
:101CB0000C46EBE70C464968CCE7C41C24F003044F
:101CC000A04205D0211A304600F008F80130CFD0EC
:101CD0002560DBE71C0600202006002038B5064CF6
:101CE00000230546084623600CF0C8FA431C02D1C5
:101CF000236803B12B6038BD945D002082B001B928
:101D000001A942B14BB113780B601278101C18BFB7
:101D1000012002B070471046FBE76FF00100F8E7C2
:101D20007047704749B1FF2A85BF8A2303600A7054
:101D30004FF0FF3098BF0120704708467047000001
:101D400081F0004102E000BF83F0004330B54FEA6C
:101D500041044FEA430594EA050F08BF90EA020FD9
:101D60001FBF54EA000C55EA020C7FEA645C7FEA6C
:101D7000655C00F0E2804FEA5454D4EB5555B8BF8F
:101D80006D420CDD2C4480EA020281EA030382EA00
:101D9000000083EA010180EA020281EA0303362D92
:101DA00088BF30BD11F0004F4FEA01314FF4801C65
:101DB0004CEA113102D0404261EB410113F0004F77
:101DC0004FEA03334CEA133302D0524263EB43032E
:101DD00094EA050F00F0A780A4F10104D5F1200ECC
:101DE0000DDB02FA0EFC22FA05F2801841F1000127
:101DF00003FA0EF2801843FA05F359410EE0A5F1FB
:101E000020050EF1200E012A03FA0EFC28BF4CF02B
:101E1000020C43FA05F3C01851EBE37101F00045E1
:101E200007D54FF0000EDCF1000C7EEB00006EEBEE
:101E30000101B1F5801F1BD3B1F5001F0CD3490878
:101E40005FEA30004FEA3C0C04F101044FEA4452CF
:101E500012F5800F80F09A80BCF1004F08BF5FEA56
:101E6000500C50F1000041EB045141EA050130BD36
:101E70005FEA4C0C404141EB010111F4801FA4F1D9
:101E80000104E9D191F0000F04BF01460020B1FA2E
:101E900081F308BF2033A3F10B03B3F120020CDA66
:101EA0000C3208DD02F1140CC2F10C0201FA0CF044
:101EB00021FA02F10CE002F11402D8BFC2F1200CA9
:101EC00001FA02F120FA0CFCDCBF41EA0C0190405F
:101ED000E41AA2BF01EB0451294330BD6FEA0404A8
:101EE0001F3C1CDA0C340EDC04F11404C4F1200293
:101EF00020FA04F001FA02F340EA030021FA04F3A5
:101F000045EA030130BDC4F10C04C4F1200220FAFB
:101F100002F001FA04F340EA0300294630BD21FA39
:101F200004F0294630BD94F0000F83F4801306BFFF
:101F300081F480110134013D4EE77FEA645C18BFF3
:101F40007FEA655C29D094EA050F08BF90EA020F8A
:101F500005D054EA000C04BF1946104630BD91EA82
:101F6000030F1EBF0021002030BD5FEA545C05D185
:101F70004000494128BF41F0004130BD14F58004C4
:101F80003CBF01F5801130BD01F0004545F0FE4138
:101F900041F470014FF0000030BD7FEA645C1ABF6D
:101FA000194610467FEA655C1CBF0B46024650EAA4
:101FB000013406BF52EA033591EA030F41F40021D0
:101FC00030BD00BF90F0000F04BF0021704730B556
:101FD0004FF4806404F132044FF000054FF000012B
:101FE00050E700BF90F0000F04BF0021704730B5EC
:101FF0004FF4806404F1320410F0004548BF4042C1
:102000004FF000013EE700BF42004FEAE2014FEA15
:1020100031014FEA02701FBF12F07F4393F07F4FF0
:1020200081F06051704732F07F4208BF704793F0F3
:102030007F4F04BF41F40021704730B54FF4607406
:1020400001F0004521F000411CE700BF50EA010209
:1020500008BF704730B54FF000050AE050EA0102B2
:1020600008BF704730B511F0004502D5404261EB22
:1020700041014FF4806404F132045FEA915C3FF463
:10208000D8AE4FF003025FEADC0C18BF03325FEA00
:10209000DC0C18BF033202EBDC02C2F1200300FAB1
:1020A00003FC20FA02F001FA03FE40EA0E0021FAD6
:1020B00002F11444BDE600BF70B54FF0FF0C4CF4C4
:1020C000E06C1CEA11541DBF1CEA135594EA0C0F76
:1020D00095EA0C0F00F0DEF82C4481EA030621EAB1
:1020E0004C5123EA4C5350EA013518BF52EA0335EC
:1020F00041F4801143F4801338D0A0FB02CE4FF09E
:102100000005E1FB02E506F00042E0FB03E54FF0CD
:102110000006E1FB03569CF0000F18BF4EF0010EC5
:10212000A4F1FF04B6F5007F64F5407404D25FEAC1
:102130004E0E6D4146EB060642EAC62141EA555174
:102140004FEAC52040EA5E504FEACE2EB4F1FD0CB6
:1021500088BFBCF5E06F1ED8BEF1004F08BF5FEA34
:10216000500E50F1000041EB045170BD06F00046E6
:1021700046EA010140EA020081EA0301B4EB5C0493
:10218000C2BFD4EB0C0541EA045170BD41F480118B
:102190004FF0000E013C00F3AB8014F1360FDEBFB0
:1021A000002001F0004170BDC4F10004203C35DA8C
:1021B0000C341BDC04F11404C4F1200500FA05F30F
:1021C00020FA04F001FA05F240EA020001F00042B0
:1021D00021F0004110EBD37021FA04F642EB060126
:1021E0005EEA430E08BF20EAD37070BDC4F10C0450
:1021F000C4F1200500FA04F320FA05F001FA04F214
:1022000040EA020001F0004110EBD37041F10001FF
:102210005EEA430E08BF20EAD37070BDC4F120050A
:1022200000FA05F24EEA020E20FA04F301FA05F272
:1022300043EA020321FA04F001F0004121FA04F21A
:1022400020EA020000EBD3705EEA430E08BF20EAEA
:10225000D37070BD94F0000F0FD101F00046400024
:1022600041EB010111F4801F08BF013CF7D041EAA6
:10227000060195F0000F18BF704703F000465200AA
:1022800043EB030313F4801F08BF013DF7D043EA7B
:102290000603704794EA0C0F0CEA135518BF95EA31
:1022A0000C0F0CD050EA410618BF52EA4306D1D1B8
:1022B00081EA030101F000414FF0000070BD50EAD7
:1022C000410606BF1046194652EA430619D094EA61
:1022D0000C0F02D150EA013613D195EA0C0F05D14B
:1022E00052EA03361CBF104619460AD181EA03019F
:1022F00001F0004141F0FE4141F470014FF0000057
:1023000070BD41F0FE4141F4780170BD70B54FF0F1
:10231000FF0C4CF4E06C1CEA11541DBF1CEA135571
:1023200094EA0C0F95EA0C0F00F0A7F8A4EB050453
:1023300081EA030E52EA03354FEA013100F088804A
:102340004FEA03334FF0805545EA131343EA126313
:102350004FEA022245EA111545EA10654FEA0026C8
:102360000EF000419D4208BF964244F1FD0404F581
:10237000407402D25B084FEA3202B61A65EB0305DD
:102380005B084FEA32024FF480104FF4002CB6EB9A
:10239000020E75EB030E22BFB61A754640EA0C001A
:1023A0005B084FEA3202B6EB020E75EB030E22BF5A
:1023B000B61A754640EA5C005B084FEA3202B6EB9B
:1023C000020E75EB030E22BFB61A754640EA9C005A
:1023D0005B084FEA3202B6EB020E75EB030E22BF2A
:1023E000B61A754640EADC0055EA060E18D04FEAE8
:1023F000051545EA16754FEA06164FEAC30343EA88
:1024000052734FEAC2025FEA1C1CC0D111F4801F54
:102410000BD141EA00014FF000004FF0004CB6E74D
:1024200011F4801F04BF01430020B4F1FD0C88BFEC
:10243000BCF5E06F3FF6AFAEB5EB030C04BFB6EBF7
:10244000020C5FEA500C50F1000041EB045170BDEA
:102450000EF0004E4EEA113114EB5C04C2BFD4EB17
:102460000C0541EA045170BD41F480114FF0000E9B
:10247000013C90E645EA060E8DE60CEA135594EA17
:102480000C0F08BF95EA0C0F3FF43BAF94EA0C0F1A
:102490000AD150EA01347FF434AF95EA0C0F7FF48F
:1024A00025AF104619462CE795EA0C0F06D152EAE3
:1024B00003353FF4FDAE1046194622E750EA4106C7
:1024C00018BF52EA43067FF4C5AE50EA41047FF4D8
:1024D0000DAF52EA43057FF4EBAE12E74FF0FF3C3D
:1024E00006E000BF4FF0010C02E000BF4FF0010C0E
:1024F0004DF804CD4FEA410C7FEA6C5C4FEA430C87
:1025000018BF7FEA6C5C1BD001B050EA410C0CBFD5
:1025100052EA430C91EA030F02BF90EA020F002037
:10252000704710F1000F91EA030F58BF994208BF9E
:1025300090422CBFD8176FEAE37040F0010070475B
:102540004FEA410C7FEA6C5C02D150EA013C07D1B2
:102550004FEA430C7FEA6C5CD6D152EA033CD3D0FD
:102560005DF8040B704700BF8446104662468C46F7
:102570001946634600E000BF01B5FFF7B7FF00282A
:1025800048BF10F1000F01BD4DF808EDFFF7F4FF53
:102590000CBF012000205DF808FB00BF4DF808EDDE
:1025A000FFF7EAFF34BF012000205DF808FB00BF01
:1025B0004DF808EDFFF7E0FF94BF012000205DF823
:1025C00008FB00BF4DF808EDFFF7CEFF94BF0120D8
:1025D00000205DF808FB00BF4DF808EDFFF7C4FFD1
:1025E00034BF012000205DF808FB00BF4FEA410C1A
:1025F0007FEA6C5C02D150EA013C0AD14FEA430CFD
:102600007FEA6C5C02D152EA033C02D14FF0000039
:1026100070474FF0010070474FEA410212F5001277
:1026200015D211D56FF47873B3EB625212D94FEA19
:10263000C12343F0004343EA505311F0004F23FA03
:1026400002F018BF404270474FF00000704750EA58
:10265000013005D111F0004008BF6FF00040704715
:102660004FF00000704700BF06289FBF1823584353
:10267000034B185C88BF002000F00100704700BFCA
:10268000E0750200FFF7F0BF08B50246FFF7FAFF5A
:1026900020B1034B182101FB0232107A08BD00BFA4
:1026A000E075020008B50246FFF7ECFF20B1034BCE
:1026B000182101FB0232D06808BD00BFE07502009E
:1026C00008B50246FFF7DEFF20B1034B182101FBDE
:1026D0000232107D08BD00BFE07502000C4A135C99
:1026E000012B10B410D10B4B0B4C1B6854F820403D
:1026F0001B1BB3F5967F07D302231354C81CC0B22B
:102700005DF8044B02F05EBB5DF8044B704700BF00
:102710004C0600208C0600203006002009B102F093
:1027200051BB02F03DBB000010B5184C236840219E
:102730000A3300202360FFF7D1FF45210120FFF776
:10274000CDFF4A210220FFF7C9FF4F210320FFF7E9
:10275000C5FF54210420FFF7C1FF59210520FFF7D1
:10276000BDFF0B4A0023995C49B90133062BFAD10E
:10277000084809F03EFF084B00221A7010BD22687D
:1027800047F230539A42F3D8F8E700BF8C06002096
:102790004C060020540600202406002006289FBF77
:1027A00018235843034B185C88BF002000F0010039
:1027B000704700BF8876020008B50246FFF7EEFFBB
:1027C00028B1044B182101FB0232106908BD012019
:1027D000FCE700BF8876020008B50246FFF7DEFF7F
:1027E00020B1034B182101FB0232506908BD00BF24
:1027F00088760200062870B502460E461ED81823B9
:102800000F4C4343E118E35CC3B1FFF7C7FF90B13E
:102810000C7ACD681046FFF7CFFF002E0CBF0122C7
:10282000042210F1FF332946204618BF0123BDE8DA
:1028300070400BF0CDBB04460546EBE770BD00BF12
:1028400088760200062870B502460E4616D8182370
:10285000114C4343E118E35C83B1FFF79FFF70B174
:102860000C7ACD681046FFF7A7FF5EB901280DD19D
:1028700001223020094BAA4044431A5170BD04463E
:102880000546EFE7012E01D10028F1D001223020CA
:10289000AA404443024BF0E7887602000CA00046B1
:1028A0000CA0004401280BD002284FF000031A4668
:1028B00007BF4FF4617164201946184600F026BB2B
:1028C00070470000014B1868704700BF28060020C1
:1028D00008B50246FFF7D6FE20B1034B182101FBD5
:1028E0000232507808BD00BFE075020008B502460C
:1028F000FFF7C8FE28B1044B182101FB0232507DBE
:1029000008BD4020FCE700BFE0750200F8B50646B0
:102910000F460025ECB22046FFF7A6FE48B1204640
:10292000FFF7B2FEB04204D12046FFF7BBFEB8422B
:1029300003D00135072DEDD108242046F8BD000055
:10294000F7B50546FFF790FE002863D0324C267895
:1029500086B9324A3248012101F05CFB00F0AAFB43
:10296000304BA02283F8122383F80A232E4B1E70CB
:10297000012323702846FFF787FE06462846FFF707
:1029800091FE04462846FFF77DFE78B1274A1823BA
:1029900003FB05231F692846FFF792FE40B3052E6F
:1029A00026D8DFE806F0050A0F1425190127F2E7FB
:1029B000032C1DD14FF0807014E00D2C18D14FF076
:1029C00000700FE00A2C13D14FF080500AE00E2C5B
:1029D0000ED14FF4801005E0022C18D0072C07D13F
:1029E0004FF40030012F0CBF014600210BF032FBE9
:1029F000012321463046CDE9003322460BF09CFAF4
:102A00000B49E0B203B0BDE8F04000F061BB4FF409
:102A10008030E7E703B0F0BD2C0600202927000036
:102A20005406002000E100E024060020E0750200CA
:102A3000D92B000038B50446FFF716FED8B1204662
:102A4000FFF722FE05462046FFF72CFE02462046F1
:102A5000FFF718FE80B1094B182101FB04342069EF
:102A6000074B302169430B4402EBC3029200136809
:102A7000C31A5842584138BD0120F1E7E075020001
:102A80001CA010422DE9F04104460D461646FFF702
:102A900017FE18B1294B2A4AC3F824242046FFF711
:102AA000C9FF0128074626D1264B1A5D98469AB9D8
:102AB000254E9DB1254D2B7803F0FF022BB90A213D
:102AC0002348326009F034FD2F70012308F80430E8
:102AD000204B326843F82420BDE8F0811C4809F0FF
:102AE000A5FD0028F1D10A211948356009F0EBFC59
:102AF000164B1F70E9E72046FFF7F8FE0EB10230D3
:102B00000FE0104B1A5D002AE6D01E55114A0E4BFD
:102B100052F824201B689B1A41F28832934206D94E
:102B200004302946C0B2BDE8F041FFF7F7BD142BD1
:102B3000D2D9B3F5967FE2D30130F2E700A000408E
:102B4000000013134C0600208C06002024060020F1
:102B5000540600203006002000220121FFF792BF1A
:102B60002DE9F041064690460C4631B1FFF7A8FD2D
:102B700018B1144B144AC3F824243046FFF75AFF07
:102B800001280746114D0AD12B7833B93046FFF79B
:102B9000ADFE2146FFF7C2FD2F70BDE8F081304643
:102BA000FFF7A4FE0646B8F1000F02D02146FFF75A
:102BB000B5FD701C2146C0B2FFF7B0FD00232B709D
:102BC000EBE700BF00A00040000013132506002023
:102BD00000220121FFF7C4BF0A2813D008D8072814
:102BE0000ED0092814D0062815D10020FFF7B4BF55
:102BF000CD2809D0CE2809D00B280CD10320F5E729
:102C00000120F3E70220F1E70420EFE70520EDE7DC
:102C10000620FFF7DDBF70472DE9F8430121264864
:102C2000DFF8B080254F264E09F0F2FF254B002437
:102C30001C60E5B22846FFF717FDB8B12846FFF73C
:102C400023FD81462846FFF72DFD01462846FFF764
:102C500019FD78B3182303FB04831B6913F1FF33B9
:102C600018BF0123032248460BF0B2F90023E355B5
:102C700046F824300134072CDBD1134A13480121D4
:102C800011611349D1F81C24120C120402601C4675
:102C9000C1F82424E0B201210134FFF7ABFD072C79
:102CA000F8D101230422052100200BF091F9002026
:102CB000BDE8F8830123D1E700350A004C06002067
:102CC000300600208C06002000300E402806002030
:102CD00000A00040E075020088B303687BB3D9010F
:102CE00006D523F08073036003210020FFF70EBE9A
:102CF0009A0105D523F0007303600D210120F5E74B
:102D0000D90005D523F0805303600A210220EDE7A6
:102D1000DA0205D523F4801303600E210320E5E7D2
:102D2000D90305D523F48033036002210520DDE7B4
:102D30009A0304D523F4003303600721F6E7082043
:102D4000704737B502AB43F8040D1846FFF7C4FFD0
:102D50000828054611D0FFF7BBFD012807D1024620
:102D600000212846FFF7FCFE012003B030BD012200
:102D700000212846FFF786FEF6E70020F5E7000071
:102D8000BFF34F8F0549064BCA6802F4E062134354
:102D9000CB60BFF34F8F00BFFDE700BF00ED00E049
:102DA0000400FA0508B501210846FFF74BFD002194
:102DB0000220FFF747FD00210120FFF743FD01211D
:102DC0000220FFF73FFDEEE7212810B515D8202897
:102DD00030D2032806D802282CD240B1012814D0C2
:102DE000002020E0062810D004D80528F8D10024BF
:102DF00001230CE00828FAD9F2E7462814D8442821
:102E0000F5D24028ECD34128F1D901240023042233
:102E10000E2101200BF0DCF80120234604220F21B3
:102E20000BF0D6F8012010BD6028D9D3612801D954
:102E30006428E0E70024E9E7F0B52C4F3C7885B042
:102E40000646002C4FD10121FFF7D4FC0121284870
:102E5000284D09F09FF90A2127480AF083FA042136
:102E6000264809F07FFF0121254809F0D1FE012104
:102E7000224809F0CDFEEB6A43F00803EB62214BD8
:102E8000E02283F81B234FF000621A603046FFF700
:102E9000A3FC2B6C23F001032B646B6C23F01F034A
:102EA000184368643046FFF787FC174B8DF80040E5
:102EB000B0FA80F0400918608DF804008DF8050024
:102EC000694628468DF801408DF802408DF8034090
:102ED0008DF806408DF807408DF80840039400F007
:102EE0003BF901233B7005B0F0BD00BFA9060020EF
:102EF000900600200060044002001E0080061600BC
:102F000030253E0000E100E0AC0600202DE9F04F46
:102F10009A46464B93F8008085B08B461746B8F129
:102F2000000F0FD0032811D84148036C23F0010390
:102F30000364002100F007F93E4B3F4800221A705D
:102F400009F04BF9404605B0BDE8F08FFA2508447A
:102F500068434FF47A75B0FBF5F5002A60D0B5F5FB
:102F6000803F02D2B2F5803F02D34FF00008E9E77C
:102F70004FF001092E4C2A4620460021FA2600F087
:102F8000D9F806FB0BF64FF47A73B6FBF3F6AE1BDB
:102F900032462046012100F0CDF83A462046002175
:102FA00000F012F901221146204600F00DF91C2311
:102FB0006360224B8DF8089000271B788DF8043051
:102FC0008DF80530039703238DF806308DF8073010
:102FD000236C8DF800704FF0010B43EA0B038DF862
:102FE00001708DF802B08DF80370694623642046A5
:102FF00000F0B2F82A463946204600F09BF83246E7
:103000005946204600F096F85946204600F09BF8B5
:10301000084B094883F800A0394609F0CDF891E73C
:10302000B5F5803FA1D201279146A3E7A90600206C
:1030300000600440A806002090060020AC06002096
:10304000014B1878704700BFA80600200B4808B550
:10305000036A1B0710D508238362036C23F0010366
:103060000364002100F06FF8054B064800221A7037
:10307000BDE8084009F0C1B808BD00BF00600440C9
:10308000A80600209006002070B5094E04460125D0
:1030900004B970BD94FAA4F0B0FA80F005FA00F318
:1030A00024EA030456F82030002BF1D09847EFE7CC
:1030B000B0060020054B4FF48022C3F880211A602F
:1030C0004FF48062C3F880211A60704700E100E08D
:1030D00038B504460D460AF07AFA034B43F82450FB
:1030E000BDE838400AF077BAB0060020074BD3F8A5
:1030F0002804D3F81C24104020F42A5020F02A0081
:103100004004400CC3F82404FFF7BEBF00A00040F9
:10311000074BD3F82804D3F81C24104020F4AA400D
:1031200020F055000004000CC3F82404FFF7ACBFE6
:1031300000A0004011B1012903D070471030026097
:1031400070471430FBE7436B9B07FCD411B101239C
:10315000436070470223FBE730B50C783CB98368C5
:10316000DB0704D5436B9D07FCD4022343604B78F7
:103170008D78002B14BF4FF480520022CB6805B924
:103180001BB142F4007203B10361CB780BB142F47E
:1031900080720B790BB142F040024B790BB142F0D7
:1031A0008002CB798D79097A1B0143EA85030B43B1
:1031B000134303603CB18368DA0704D4436B9B0775
:1031C000FCD40123436030BD11B1012903D0704705
:1031D0001830026070471C30FBE700002D4B002ABE
:1031E00070B52D4D446B08BF1D462C4B14BF1026E7
:1031F000002698423AD102293FD004D8B9B101291A
:1032000021D000232DE0062931D0812935D0032992
:10321000F7D1234B1A6819681B68120C1B0C03F0BA
:10322000F00302F4FE421A43C1F3034318E01D49C0
:103230000B680A6803F4FE4302F00F021A430B689E
:1032400003F0F0030CE0174A1368116812681B0CB6
:10325000120C02F0F00203F4FE431343C1F30342E5
:103260001343B3402C400D4A2343536370BD0E4BB0
:103270001A681B6802F00F02E2E7094A1368116836
:10328000126803F4FE4301F00F010B4302F0F00259
:10329000E6E700BF0080FFFFFFFF00800020004046
:1032A0001482E00F1082E00F1882E00F38B50C4650
:1032B00002238360002289780546FFF78FFF20797B
:1032C00061786279030243EA016343EA0243E278E8
:1032D00043EAC203E2790AB143F00053227A0AB109
:1032E00043F00403A2790AB143F00203627A0AB1FF
:1032F00043F00103F328A27806D12AB903299CBF21
:1033000023F0706343F0806351B20029ACBF43EAFD
:10331000421343F0E0032B616B69002923F4F2139D
:1033200023F00703BCBF22F080021343227843EA54
:103330004243E27A0AB143F480436B616B0103F1CB
:103340008443A27A9A60EB6FD5F88030EB6838BD81
:10335000B0F5FA4F10B50B4C38BF4FF4FA40844229
:1033600028BF044619B9084809F074FE0146631ED7
:103370001944B1FBF4F018B101387F2828BF7F2031
:10338000C0B210BD0024F40040410500F8B5CC786F
:1033900005460E4674BB21461E48FFF7D9FF04467A
:1033A0000A23AB607178337841EA0361B3781B0478
:1033B00003F4FE0319432402337904F4FE44214349
:1033C0000BB141F0100105F180632960C0217279D1
:1033D000196005F1C0631A602B681B0618D50E48EA
:1033E00009F038FE0D4B9D4212D10D48BDE8F84062
:1033F00009F030BE076817F08007D1D1394605487B
:10340000FFF7A6FF39464FF4FA40FFF7A1FFC7E7E1
:10341000F8BD00BF0024F400B800320000200040D6
:1034200000B2040038B50A238360144B0361002501
:103430004FF4F81345618561C5610360104B456425
:10344000036443F6E4130563056245628362D0F8C2
:103450008C3043F00103C0F88C30D0F8903043F04A
:1034600001032A462946C0F89030FFF7B7FE2946E7
:103470000122BDE83840FFF7B1BE00BF00FFFF00EA
:10348000000F033F08B528B9074809F0E3FD0028FD
:1034900008BF012000F57420044B00F23F20B0FB70
:1034A000F3F00138C0B208BD4041050040420F00B2
:1034B0000B4A536911699B0003F03C03C1F381116E
:1034C0000B438370136903F03F0343709369D26920
:1034D00003F0F003C2F3031213430370704700BFFD
:1034E000D0FF0FE000487047C0175302104AD2F8CF
:1034F000943003F00703023B032B13D8DFE803F0FB
:103500000C14020E0B4B1B68D2F80001C0F3042010
:103510000130B3FBF0F07047074BF4E7074B1B6833
:103520005B08F1E7054BEEE74FF40043ECE700BF23
:1035300000400E40E0010020D8010020DC01002006
:1035400008B5FFF7D3FF054BD3F80831C3F30823C1
:103550000133B0FBF3F0024B186008BD00400E4091
:10356000D4010020014B1868704700BFD80100202B
:10357000054B1860054BD3F8943003F00703022B7A
:1035800001D1FFF7DDBF7047D801002000400E4099
:10359000044B054A9A60D3F8882042F47002C3F8BD
:1035A0008820704700ED00E0000000004FF400406C
:1035B00070474FF47A707047014B1868704700BF2E
:1035C000E00100200A4880470A490B4A0B4B9A4207
:1035D000BEBF51F8040B42F8040BF8E70849094A4A
:1035E00000209142BCBF41F8040BFAE7FCF7A6FDAE
:1035F0009135000084B1020004000020FC05002089
:103600000006002038770020FEE700BF8378012BFA
:1036100002D1732001F0C4BB7047FFF7F7BF000071
:1036200037B5044601213248324D08F010FD05F04F
:103630005BFF314B314A1C602146314B286008F05A
:103640004FFE286800F03CFD2E4A2F48002100F074
:10365000FBFC4FF49671032003F06AFF2B49022014
:1036600003F066FF1421012003F062FF1421002003
:10367000002403F05DFF0021254808F08BFD009435
:10368000244B254A0121052005F0C8F9234B2A685F
:10369000186001460323224808F0D6FE204801F0B6
:1036A00079FB01F0A1FB712001F07AFB0120FFF70B
:1036B00047F92046FFF744F90220FFF741F90120BE
:1036C000FFF7BAFB2046FFF7EDF8224621462046D9
:1036D00003F0E4FA2346134A1348134C042105F07F
:1036E000A8F800224FF0FF31204605F0AAF8F8E7CD
:1036F00000200540300700209C5D002094770200E8
:10370000257700006D370000F00600208051010091
:103710009C070020540700202A07002050070020A3
:1037200044070020AC7702003407002010B50E4B90
:103730001B685C68B4B000231A466946204605F051
:103740002FFA012801D034B010BD9DF80030802B35
:1037500004D0822BEFD103F0E5FFECE708F0AEFDDB
:10376000694603F0BBFEE6E79C5D002008B50A4B06
:1037700000227A201A7001F04BFB772001F048FB01
:10378000064B1A78042A06D004221A707320BDE86A
:10379000084001F005BB08BD2907002044020020B5
:1037A00010B58378012B8AB00FD10AAC44230021D5
:1037B000074804F8243D08F04AFC064B1B684FF408
:1037C000FA722146986808F043FE0AB010BD00BFA7
:1037D000002005409C5D0020002170B5044608468D
:1037E00000F00AFCFFF718FA0220FFF7EDFA0F4B82
:1037F0000F481C700F4B00241C7003F0C1FB00F03D
:10380000C9FB054600F0CCFB064600F0CFFB314675
:1038100002464FF48273284609F0BEF8064B07486B
:103820000222012104F00CFF204670BD4007002059
:1038300088770200440200209477020021360000BD
:103840000B787A2B33D010D86C2B2ED005D8592B6F
:103850001DD05E2B25D000207047722B1FD0732BFC
:103860001BD0712BF7D102F01ABD852B11D005D8D2
:10387000802B18D0842BEED103F09CBE872B0AD06E
:1038800003D38E2BE7D101F0BBBC08F07BBF01F066
:1038900019BC01F037BB03F095BC03F07DB802F012
:1038A00089BC03F015BB02F0CFBB03F02FBA04F0C4
:1038B000E7B80000024B1B689B69D878704700BFCF
:1038C0009C5D00200149024802F002BCA1370000C3
:1038D000BC7702000120704710B50C4630B900F0EB
:1038E00059FB207000F05CFB607010BD00230B7072
:1038F0004B70FAE710B501F0CFFA01F0A9FA0446CF
:1039000001F0F2FA40F6B7339C421DD8B4F5166FB9
:103910001CD3642303FB04F0A0F56A304FF4167344
:103920000A21A0F5C070B0FBF3F0C3B2B3FBF1F213
:1039300001FB123302EB8200DBB24000042BC0B269
:1039400001D90844C0B210BD6420FCE7FF20FAE7AB
:1039500008B5FFF7AFFF08B9002008BD0020FFF74A
:10396000C9FF044B1B789842F6D00A33181A18BFC7
:103970000120F2E7985D00200246034803490068F1
:10398000012307F041BF00BFB4070020031005006A
:1039900010B50020FFF7AEFF094B04460246002198
:1039A000084802F07DFB20B1732001F0F9F90020F6
:1039B00010BD05480470FFF7DFFF0120F8E700BFE6
:1039C0000D360000BC770200985D002013B50E4C48
:1039D0000120216802F0FCF8FF2002F0ABFD206816
:1039E00003F0AEFD094865230370FFF7C5FF00F043
:1039F000CBFA02AA042342F8040D4FF4A221206856
:103A000007F002FF02B010BDB4070020985D00204F
:103A1000F0B5264D264F2A68D6688DB000231A4689
:103A20006946304605F0BCF8012801D00DB0F0BD64
:103A30009DF80030C32B15D0C42B35D0C02BEDD151
:103A40009DF80830002BE9D0019BBB4203D1002038
:103A500001F026F9E2E7002BE0D003A99DF8090068
:103A60009847DBE79DF8043063B92B689B69DC78E5
:103A70000CB9FFF7ABFF322001F092F9204601F0BC
:103A800005F8CBE7072B03D1322001F089F9C5E710
:103A9000052B01D17C20F8E7062B01D17D20F4E72E
:103AA000082BBBD13020F0E77220EEE79C5D0020B0
:103AB000A14C000008B5064B186807F0B7FF00F0EE
:103AC000DFFFFFF783FFBDE8084000F00FBB00BF3A
:103AD000B407002007B5094809490068012301AA75
:103AE00007F0DCFE28B1652306488DF80430FFF7A7
:103AF00043FF9DF8040003B05DF804FBB407002009
:103B000003100500985D002037B5114C204600F0E9
:103B100053FA04230DEB03024FF4A221206807F0AF
:103B2000BDFE054670B900F02FFAFFF7D3FF094B31
:103B300021681870284602F04BF803F077F801204E
:103B400003B030BD03F078F8FFF7B4FF0020F7E7CB
:103B5000B4070020985D0020F0B5044687B001202E
:103B6000FEF7C4FE0430A042B44D01D0302C03D186
:103B700003232B70FFF7A6FE0220FEF7B7FE0130ED
:103B800084420CD1AE4808F028FB2B78042B7AD85D
:103B9000DFE813F012008300D40019012101022094
:103BA000FEF7A4FE02308442ECD00220FEF79EFE17
:103BB00004308442E9D1E5E7722C03D1FFF77AFFA4
:103BC000012368E0712C60D1FFF79EFF074601F0EA
:103BD0007FFB002204219B4801F09CFB0022012175
:103BE000994801F09FFBFFF7B3FE38B1042373201F
:103BF0002B7001F0D5F8752001F00AF9934E944C22
:103C00003168207803F002FE306802F0A9FC00263B
:103C1000FF23904A0397CDE9016307210123009612
:103C20008D4802F01BFD8D498D4800F011FF207872
:103C300000F0B4FA012332463146304603F0FCFF6F
:103C40002378042B06D1FEF73DFE08B1FFF779F883
:103C500001232B702378012B05D12A78042A00D068
:103C60002B7021780CE0072B07D8A92222FA03F346
:103C7000DB0702D5702001F093F82178042902D0E7
:103C8000042000F02FFB07B0F0BD762C98D1012066
:103C9000FEF708FE05232B70F5E7722C40D1FFF7E5
:103CA00009FFFFF731FF0120FEF720FE02308442BA
:103CB00001D0312C0ED1664B19786A4B1B689B6979
:103CC0001B7893B3032000F00DFB0220FEF7EAFD02
:103CD00002232B700220FEF709FEA04227D100210B
:103CE000574808F069FA042373202B7001F058F844
:103CF000782001F08DF8792001F08AF87B2001F01E
:103D000087F80020FEF7F2FD02308442BBD1042385
:103D100073202B7001F044F8752001F079F8B2E7B8
:103D20007C2C04BF02232B70BDE70120CBE70220CF
:103D3000FEF7DCFD03308442E3D1D0E7722C03D1DF
:103D4000FFF7B8FEFFF7E0FE0120FEF7CFFD0230DF
:103D5000844201D0332C14D13D4E0020317800F044
:103D6000C1FA3178042000F0BDFA01260020FEF7E8
:103D700099FD2E7003F014FA32463B493B4800F09F
:103D800015FF322C7FF47FAF03F0FCFB03F086FDC0
:103D90002F4B0420197800F0A5FA01240020FEF72B
:103DA00081FD2C7003F0FCF922462F492F4800F0CA
:103DB000FDFE2C4B1B689B691B78002B3FF463AF07
:103DC00003F0E8FB5FE7722C7FF45DAFFFF772FE54
:103DD000FEF7D6FF57E7722C04D1FFF76BFEFFF713
:103DE00093FE50E7732C0BD10DF1170001F022F870
:103DF00020B19DF8170000F0D3FF44E77420FAE7E4
:103E0000782C0DD11A4B1048FF22002102F006F940
:103E100000283FF438AF174BFF221A707320EAE7EF
:103E2000772C29D10022124B0748114602F0F6F8F0
:103E300000283FF428AF0F4B0022EEE74402002099
:103E40009C070020EB010020F3010020B4070020B4
:103E50004007002060020020BC77020025770000A8
:103E6000480200209C5D0020E40100200971000050
:103E70001B36000028070020792C22D11A4B002481
:103E80001A78CDE9004423460721184802F012FDB4
:103E9000174A1648214602F02DFD00283FF4F3AEE4
:103EA000BCE701230024CDE9003422460E4BEBE7AA
:103EB00042F210710F4800F061F9E4E6FFF768FD87
:103EC000E1E67A2CEDD07B2CF2D0752CF6D0742C58
:103ED0007FF4D9AE084B1B78002B7FF4D4AE0020C2
:103EE000FEF7E0FC6CE600BF60020020BC77020039
:103EF0001B360000F00600202907002013B5084CEF
:103F0000206800231A460DF1070104F049FE01283C
:103F100001D002B010BD9DF80700FFF71DFEEFE7CE
:103F200050070020002840F2034018BF00207047CF
:103F3000012070470023038003230B80704700009B
:103F40002DE910481C46012303700B7008231370E1
:103F50000C4B196C586CE070002242EA010B4FEADE
:103F60001B63010E21702371010C4FEA1B4361702A
:103F70006371010A4FEA1B23A170A37184F807B093
:103F8000BDE81088B081E00F014B186A704700BF90
:103F9000DC770200014B93F822007047DC770200C7
:103FA000014B93F821007047DC770200014B93F836
:103FB00020007047DC77020038B5064C06490546FC
:103FC000204607F04BFB10B92C60012038BD0020C3
:103FD000FCE700BF0808002064020020004870478A
:103FE0000808002008B505F02BF8BDE80840014698
:103FF000102008F0C9B8000013B5054C0091034625
:1040000004F128020C21204608F049FB02B010BD43
:104010006008002038B50B4C134605460A46014699
:10402000204608F083FB022808D048B995F83030C4
:10403000E21804EB830482F858006066012038BD62
:104040000020FCE760080020F8B50546154800236D
:10405000164604461A46C71897F8587007B1013239
:1040600001330C2BF7D1052A01D90020F8BD0A46EF
:104070000D4B0C48294608F059FB0028F5D10B4F91
:104080003B7823B90A4808F0C8F801233B7095F83B
:104090003030E21804EB8304012082F85800666691
:1040A000E4E700BF6008002059410000F408002048
:1040B000E53F0000014808F000BB00BF6008002099
:1040C0000146014808F05CBB600800200023064A56
:1040D0001846D11891F8581001B1013001330C2B5A
:1040E000F7D11130704700BF6008002038B5FFF7E6
:1040F000EDFF10240546AC4200D938BD2046002112
:1041000008F042F80134F6E72DE9F34104F098FF96
:1041100001460646112008F037F80E4F00241225FC
:104120004FF0FF383B1993F858306BB107EB84031D
:1041300001AA986ACDF80480314608F086FA28462C
:10414000019908F021F8013501340C2CEAD102B0B4
:10415000BDE8F0816008002010B50446FFF7D4FFE9
:1041600094F83020044B03EB82035B6E1BB12046B6
:10417000BDE81040184710BD6008002010B508F0D9
:10418000A2F90446FFF7C0FF204610BD10B508F0A5
:104190001BFA0446FFF7B8FF204610BD2DE9F04397
:1041A00085B000230428CDE90133039301D0012811
:1041B0003BD105F0FFFC01A9102007F0DFFF02A9A9
:1041C000112007F0DBFF019B7BB3029C6CB3A34281
:1041D00038BF03F1FF331C1B05F0F2FC0025DFF8AC
:1041E000648004442F462E4608EB050393F858904C
:1041F000B9F1000F13D003A906F1120007F0BEFFBA
:1042000058B9039908EB8503A142986A8CBF0B1B30
:10421000631A092B0CD808F02CFA0136F6B20135D6
:104220000C2DE1D10FB1FFF76FFF05B0BDE8F083B2
:104230004B1CF2D0A142F0D9091B08F044F94F46BB
:10424000EBE700BF600800202DE9F047DDF824808F
:104250000D4691461C46074608F028F800F0D0FBB2
:10426000064608F017F88246B8F1000F06D09DF810
:10427000282029464046FDF793F9C0B9DAF8043002
:104280001B785A0706D5032E24D0042E24D1042FE0
:1042900017D102E06EB1BE4211D184B19DF8202049
:1042A00029462046FDF77CF908B9202D07D10120C9
:1042B00003E0A5F1200358425841BDE8F087042EE1
:1042C0000AD1722D08D1B9F1040F05D1B7FA87F0E0
:1042D0004009F2E7032F01D00020EEE7002CDDD1EA
:1042E0002046EAE730B58BB00C46054607F0C0FF24
:1042F0006523002201A980688DF804308DF80850EC
:104300008DF8094008F0A4F80BB030BD13B50023B8
:10431000114C8DF8043001238DF8063063788DF848
:10432000050093B12378C3F3C20304EB83035B68F6
:104330000BB101A898472378C3F3C202013262F39C
:10434000C50323706378013B6370044B1B6803B1A2
:10435000984702B010BD00BFC45D0020FC080020DB
:1043600010B50E4C63788BB12378C3F3C20304EB12
:1043700083035B6803B198472378C3F3C202013219
:1043800062F3C50323706378013B6370044B1B68C1
:1043900013B1BDE81040184710BD00BFA05D00205C
:1043A000FC0800200A4B0B4A18600B4B196013786D
:1043B00003F0F80300216FF3C50313705170074A2F
:1043C0001378517003F0F80361F3C503137070475D
:1043D00000090020C45D0020FC080020A05D002032
:1043E00070B5124D2B7A8B4206460C4618D3B9B1E4
:1043F00007F05CFF00F004FB30B99EB9E8681C21AF
:1044000001FB0400183870BD1C206FF01B0110FB6D
:104410000414E86820440EB90C30F4E71430F2E7D5
:104420000020F0E705F11800EDE700BF04090020C7
:10443000F0B5B9B015465268019092788DF8031026
:1044400002B9AA70224C6278072A3ED8227802F07C
:10445000070204EB82020DF10301536001A82A4612
:1044600001F087FE6E689DF8037033788DF8C030D8
:10447000184B04933A462B7801998DF814300DF1BE
:104480001600FDF7DDF86B788DF8157043F0010329
:104490008DF8C230F3788DF8C43001238DF80C30DC
:1044A0000D4B002203A918688DF8C1208DF8C32098
:1044B00007F0CEFF38B923785A1C62F30203237049
:1044C00063780133637039B0F0BD0120FBE700BFB2
:1044D000C45D00200D43000000090020F0B5254C0C
:1044E000B9B015468DF8031061780190072902D9FB
:1044F000012039B0F0BD217801F0070104EB810102
:104500004B60002AF4D00DF1030101A801F031FE47
:104510006E689DF8037033788DF8C030164B0493A5
:104520003A462B7801998DF814300DF11600FDF7FD
:1045300087F86B788DF8C230F3788DF8C43001239A
:104540008DF80C300D4B8DF81570002203A91868FA
:104550008DF8C1208DF8C32007F07AFF0028C8D15C
:1045600023785A1C62F3020323706378013363706B
:10457000BFE700BFA05D00206143000000090020EC
:1045800007B513788DF80030D37A8DF80130137A9F
:104590008DF802309DF803306FF306038DF8033079
:1045A0000A460023014668468DF80530FFF748F9B2
:1045B00003B05DF804FB0000114B30B5114C5C609A
:1045C0000B6082782270C2786178C2F3060512F01F
:1045D0007F0218BF0122A2704278E27065F30601E3
:1045E00025221A7061700278920744BF27221A7040
:1045F0004279C2F306029A7000225A7030BD00BFA1
:1046000024090020F5080020037813F00C0F14BFD4
:10461000012000207047000008B50246FFF7F4FFB4
:10462000074B38B992F90520002A06DB1878421E9C
:104630005042504100221A7008BD0120FAE700BF25
:1046400004090020014B1870704700BF04090020C6
:10465000F7B5314D314C297881B12268304B561A6B
:10466000724272419A70002844D002781A704278DF
:104670005A702C4B1B680BB129489847297823683E
:10468000994235D2284B1A6853788DF80030274B61
:104690001B788DF8013029B9990744BF43F0040312
:1046A0008DF8013093788DF8023001F02DFC1C4C10
:1046B0000190037823701E4B1A7812F0070206D07F
:1046C0001C4B1A781AB190F90120D243D20F1A4F1D
:1046D0001A4E3946304602F081FC70B92070022330
:1046E00063700123A3700F4B1B680BB10C489847F4
:1046F00003B0F0BD18705870BBE7114B39783068C3
:104700006A46FFF795FE10B100232370E7E72B7888
:1047100001332B70ECE700BF450900204009002061
:1047200046090020E85D00203C09002049090020DE
:10473000440900202D0900202C0900203809002000
:10474000514600000020FFF783BF0000F0B50025B0
:1047500085B0164E01AC2F463068276000F1080185
:104760002246043001F0FCFB114B18709DF9053016
:10477000002B16DA33680F490F485A789B788DF86A
:1047800008208DF80A3002AA0C4B097800688DF8D1
:1047900009500394FFF74CFE003018BF012005B00C
:1047A000F0BD0028D8D10220F9E700BF3C09002065
:1047B000340900202C09002038090020C9480000D5
:1047C0002DE9F043BFB01D2101A807F0C9FD002568
:1047D000354BDFF8EC901D70AA2229460DF12E0012
:1047E00089F80050FBF71CFD304B314E1C78314BE3
:1047F000224619680DF12E00FCF722FF2E4B0A937A
:104800008DF82D408DF82C5001F096FB012830607A
:1048100047D9DFF8B080D8F800309B69987810F05D
:104820000704474625D0254B1B681B788DF8D930E7
:10483000FF238DF8D83000F0E3F8022389F8003028
:1048400004238DF82430D8F800308DF8DA002A4699
:1048500009A9186807F0FCFD401B18BF01203FB0F4
:10486000BDE8F08301F050FB017801A807F06CFD72
:10487000013433689C42F5D3032301AC8DF8243016
:104880000FCC36AD0FC594E80F0007C52B703B6801
:10489000002209A9186807F0DBFD003018BF0120CD
:1048A000DDE70220DBE700BF450900202C090020DE
:1048B0004009002038090020454700003C0900203D
:1048C000490900203009002070B5437804463BB107
:1048D00001238370164B1B684BB3BDE8704018472B
:1048E000144A157845B18370114B1B6803B1984782
:1048F000BDE87040FFF72ABF01F01EFB0E4B1860A9
:1049000030B90123A3700A4B1B6883B12046E4E74A
:10491000FFF756FF012803D102236370A070F2E76E
:104920000228F0D12846BDE87040FFF791BE70BD67
:10493000E85D00203409002040090020014B186088
:10494000704700BF30090020F8B515460BB90020AC
:10495000F8BD1A7A002AFAD00028F8D00029F6D03B
:104960001B4A069C14601B4C23601B4B18601B4B9E
:10497000197002F025FB0028E9D0194B194A1D7067
:10498000194B1B689B699B78137013F0070311D0B8
:104990002A1C18BF012211490F4802F01FFB0028F2
:1049A000D5D02368586801F095FAFFF7CFFE18B903
:1049B0000120CDE71A46EEE70128C8D0FFF700FF37
:1049C0000028F5D00128C2D00020FFF741FEEFE714
:1049D000E85D00203C090020380900202C09002057
:1049E0002D09002044090020300900200020FFF795
:1049F0002FBE0000014B1960704700BF5C0900200A
:104A0000410709D4820709D4C30709D410F0800FE5
:104A100014BF042000207047032070470220704715
:104A20000120704738B5094D2C1D28B92B6893E833
:104A3000030084E8030038BD07F038FCFFF7E0FF0F
:104A40000028F3D02B680833F1E700BF500900209D
:104A500008B5074B1860074B1960074B1B6818789F
:104A6000064B1870FFF7DEFF02F090FA012008BD38
:104A7000500900204C0900205C090020EC5D00205A
:104A8000014B00221A707047EC5D002008B5054B01
:104A90001870FFF7C7FF044B1B6803B1984701204C
:104AA00008BD00BFEC5D00204C090020F0B5114BA3
:104AB00091F8A4601F7A1D684A7985B00C4609797F
:104AC00002975B6801932B7D009394F8B3002B69E8
:104AD000FFF7BAFB60B104F1A8023146201DFFF7D1
:104AE0004FFD054B1B681BB105B0BDE8F0401847F2
:104AF00005B0F0BD500900204C09002030B5094B2D
:104B000085B01D7A14461A6802955B680193137D7F
:104B1000009313690A4601462046FFF795FB05B04E
:104B200030BD00BF50090020124B17B41B685A68F3
:104B30009C681078517901941C68C1F3060110F04B
:104B4000020F4FF000008DF802108DF801000CBF2D
:104B5000252127214CB102AB03F8081D93E803007F
:104B6000234603B05DF8044B184703B05DF8044BCF
:104B7000704700BF9009002008B5084A0848002186
:104B8000FFF748FA48B1074A0023C2E90033C2E9F7
:104B90000433C2E90833044A136008BD594D0000CC
:104BA000F05D00206009002090090020F0B50E465D
:104BB00087B01546074618B90025284607B0F0BD4E
:104BC0000029F9D008688B88029002A8ADF80C3053
:104BD000FFF71AFD014608B10125EEE706AB01908B
:104BE00003F8150D01AA012000F07AFE9DF80330AC
:104BF000002BF1D0012B0ED1019B9DF80A101A78E1
:104C0000914208D19DF80B205B7802F07F0203F0FF
:104C10007F039A42E0D01F4CEDB11F4807F006FD1C
:104C20000546C0B10023E258BA4211D1E2189DF8FE
:104C30000D10526810689288ADF814209DF8152068
:104C400004904A40520603D1134807F0A7FCB4E78A
:104C50001033302BE7D123682BB12369C3B1236A0A
:104C6000002BA9D1022319016218675001999160A4
:104C70009DF8031011735660084A11680029ABD1E2
:104C800004EB0314FA210448146007F01CFCA3E7AA
:104C90000123E8E760090020F05D00209009002072
:104CA0002B482DE9F0412B4C02680021032504F12B
:104CB000100604F12007137B013BDBB21373DBBB4F
:104CC000A242C2E90033936029D0B2422AD0BA424C
:104CD0002AD003210133B3FBF5F202EB42029B1A07
:104CE0004FEA031C04EB0C0254F80CC0BCF1000F9B
:104CF0001CD0EAB10121D2F804E0D2F808C09EF835
:104D000003309EF802809CF800E0F04503F07F033A
:104D100016D001B10260BDE8F041FFF705BF1946AA
:104D20000B46D7E70121FBE70221F9E79942D1D1F0
:104D300000230360BDE8F081936804339360DAE7F1
:104D40009CF801C00CF07F0C9C45B4D0E1E700BF9B
:104D500090090020600900200C4B834214D10C4BB9
:104D60001B68D3E9012390781978884207D1D2785B
:104D70005B7802F07F0203F07F039A4201D0FFF7D5
:104D8000D3BE0020FFF78CBF704700BFF05D00204E
:104D900090090020014B1860704700BF9409002063
:104DA00007B5074B02A9002201F8010D186807F0AA
:104DB0004FFBB0FA80F0400903B05DF804FB00BF80
:104DC0009409002007B5074B02A9002201F8010D44
:104DD000186807F05EFBB0FA80F0400903B05DF898
:104DE00004FB00BF9409002007B500230093054A87
:104DF000054B0121042003F011FE044B186003B0A1
:104E00005DF804FBE009002098090020E409002077
:104E100007B502A9002301F8010D05481A460068EC
:104E200003F00CFE431E5842584103B05DF804FBEA
:104E3000E40900200146054808B500231A46006829
:104E400003F0AEFE431E5842584108BDE40900205D
:104E50001FB50023CDE901330393FF238DF80930FB
:104E60000C4C03238DF80630E0238DF8083001A99F
:104E7000092320468DF80530FEF718FA0123A360B8
:104E8000E368DB07FCD4A36C41F288305843000B85
:104E900004B010BD0020004013B51F2300240121E1
:104EA0000E48ADF802308DF800408DF801408DF8C5
:104EB00004408DF8054007F0ABFE2046FEF7E2FA0D
:104EC00021468DF802000648FEF742FA69468DF841
:104ED00003000448FEF75AFA02B010BD00B2040005
:104EE000C0CF6A000020004008B50448FEF79AFAD7
:104EF00000210348BDE8084007F08ABE00200040BA
:104F000000B2040070B50D464978013998B00446E6
:104F10000A2974D8DFE801F02A0673333E737373ED
:104F200073735E00FFF778FB064610B1022018B0DD
:104F300070BD01464D2204A8FBF772F960790DF1AE
:104F4000030304AA294600F07F0000F033FF01A903
:104F50002046FFF731FB3346019A9DF8031004A861
:104F6000FFF7BCFA0028E1D1FF20E0E740792946AD
:104F700000F07F0000F0BAFE0028F5D1D6E7022A43
:104F8000D4D94179A878134601F07F012A4600F070
:104F900097FDF1E7FFF740FB05460028C6D1014623
:104FA0004D2204A8FBF73CF9204601A9FFF704FBBA
:104FB000607940F2856300F07F00ADF8103000F0BA
:104FC000D3FC8DF812002B46019A032104A8FFF7A9
:104FD00085FAC9E7FFF720FB05460028A6D14D2238
:104FE000014604A8FBF71CF901A92046FFF7E4FAE3
:104FF00040F68543ADF8103000F01AFAE1E70020E2
:1050000095E7000000B599B04D22002104A8FBF7F8
:1050100007F901A91248FFF7CFFA40F25943ADF85A
:105020001030104B1B78022B14BF012381238DF805
:1050300012300B4B59790C4B0DF11302187801F01B
:105040007F0100F079FA094B019A0A2104A8FFF7C1
:1050500045FAB0FA80F0400919B05DF804FB00BFD2
:10506000230A0020220A0020210A00207550000097
:10507000FFF7C8BF38B50E4C2278022A14D10D4B69
:105080001D786A1C1A700C4B187800F093F9854251
:105090000AD20021094A0A48FEF7BCFF0A21084843
:1050A000BDE8384007F00FBA0023237038BD00BFB9
:1050B000220A0020210A0020200A0020715000004E
:1050C000E8090020F0B599B005460E461746FFF7EF
:1050D000A3FA044668B97378032B2CD0052B4FD064
:1050E000012B26D101464D2204A8FBF799F8032F86
:1050F00001D002201DE06A79B1788DF8031040F2EA
:10510000592302F07F0205A8ADF810308DF8121077
:1051100000F014F901A906468DF813002846FFF7A0
:105120004BFA311D2346019AC9B204A8FFF7D6F9FC
:10513000FF2019B0F0BD2E4C2378002BD9D1B278C6
:105140006B792C4912F0400F4FF001002A4A0CBF36
:1051500020700226C3F3060318BF2670137023784D
:1051600008BFF0780870002BC3D0244B2A681A605F
:10517000AA889A80FFF746FF0028D9D12070B8E7A7
:105180004D22014604A8FBF74BF818A96879F3787B
:1051900001F85D3D00F07F0000F0BEF969799DF8EF
:1051A000030001F07F0100F02FF906460028A0D08F
:1051B00001A92846FFF700FA6A799DF803108DF8D7
:1051C000121040F2596302F07F0205A8ADF81030CA
:1051D0008DF8136000F0FAF800288AD0311D2346BC
:1051E000019AC9B204A8FFF779F9002881D19FE795
:1051F000220A0020210A0020200A0020230A002081
:1052000070B50D464978013998B0044604295CD838
:10521000DFE801F024035B2E3E00FFF7FDF90646B0
:1052200010B1022018B070BD01464D2204A8FAF753
:10523000F7FF60790DF1030304AA294600F07F000F
:1052400000F0B8FD01A92046FFF7B6F9019A9DF8D4
:105250000310334604A8FFF741F907E040792946D7
:1052600000F07F0000F042FD0128DAD1FF20D9E7ED
:10527000022A08BF0023417908BFAB7001F07F010B
:105280001346A8782A4600F01BFC0028C9D0EDE799
:10529000FFF7C2F905460028C3D14D22014604A8F4
:1052A000FAF7BEFF01A92046FFF786F9607940F2C0
:1052B0008E6300F07F00ADF8103000F055FB2B46F8
:1052C0008DF81200019A0321C4E70020AAE700002C
:1052D0001FB50D4A0D4C10685168127A01AB03C31B
:1052E0001A700B4B01221A7000213C222046FAF75B
:1052F00097FF01A8FBF7E9FA01A902462046FCF74F
:105300009FF904B010BD00BFBE7702002C0A002038
:10531000800200201AB9024BD86283F8301070471F
:105320002C0A0020002808BF00211AB9024B83F87C
:1053300038105863704700BF2C0A00202DE9FF4148
:105340001A4B6E4680460D4603F10804B4461868B1
:105350005968374603C70833A3423E46F7D1186859
:105360009B883860BB80B8F1000F1DD0E2B9104CAB
:1053700094F8383001339D4214DC9DB1012D04D0E6
:10538000646B312101FB05445B3C2046FBF79DFA31
:10539000C5B22A4621464046FCF752F9284604B0D9
:1053A000BDE8F0816446F0E70025F7E7C777020023
:1053B0002C0A002028B9044B93F838000130C0B201
:1053C00070470020704700BF2C0A002010B50C4623
:1053D000B2B901290B4B07D193F83020D96A52009A
:1053E000FCF72EF9012010BD31216FF0610211FB95
:1053F0000424596B2144033111F8012C5200EFE7CA
:105400000020F0E72C0A002071B9084B012817BFD3
:105410005B6B93F83000312202FB003018BF10F8AC
:10542000600C4000C0B27047002070472C0A00207A
:10543000014B1878704700BF800200202DE9F0472B
:10544000314D25236B70AA7012B10020BDE8F087A2
:10545000067890F801C00F782C4BB6B9BCF1010F5B
:1054600013D193F83010D86A4C0033466FF0010620
:1054700006FB0342024412F8022CBA4235D0CA1A83
:10548000D2B2012AE1D90133F2E793F838E0586B40
:1054900000224FF031084FF00209D4B27445D4D243
:1054A00008FB02F3C15CB14208D10344597861455D
:1054B00004D1997819FB01318B4201D10132ECE71B
:1054C000023393F801A0BA45F6D10234E4B2FF2CBE
:1054D000BBD00F4B00211A1F204600F001FA002814
:1054E000B3D10C4B2C701C700BE0094B00211A1F20
:1054F000012000F0F5F90028A7D1064A0123137016
:105500002B700148A2E700BF680A00202C0A002087
:10551000700A0020800200200A783AB1054B03EBA4
:10552000C00090F8383001339A4201DD01230B703E
:10553000704700BF2C0A002037B50D4602A914465B
:1055400001F8010D2846FFF7E7FF9DF807202270BC
:10555000012A04D10023A370E27003B030BD0749D3
:1055600001EBC50131236FF0610013FB02034A6BAD
:10557000D118D35CA3704B78E370EEE72C0A0020BF
:10558000431CDBB22DE9F041013B02F1010803EBC2
:10559000830C01EB8107C2EB82745FFA88F84FEA53
:1055A000470E0CEB040544447444144E64447544A3
:1055B000FF004FF0140C45440CFB037306EB85050C
:1055C00006EB84043344D7B2042F0AD10A2300EB3C
:1055D000800003FB01013944FF2306F82130BDE8B8
:1055E000F08115F822E0BEF1FF0F4FEA820CEDD0FA
:1055F00054F80C7043F822700132E4E7740A00207A
:105600002DE9F04F87B0551E93F8048002921C4696
:105610000A2205EB850312FB01330E465449009321
:1056200001EB830312330393142303FB05F22823B6
:1056300013FB0623CB18B8F1000F0193EBB283469E
:1056400008BF4FF001084FF0000904935FFA89F397
:10565000984513D8BBF1850F0DD0277BDFF810914B
:10566000002F08BF01274FF000084FF0FF0A5FFA34
:1056700088F39F4229D807B0BDE8F08FDDF80CA071
:105680000427FF231AF8021CFF29FAB215D09AF852
:105690000000012811D0207908B9207B20B12068B2
:1056A00010F80900884208D10199049801F82730C0
:1056B00031460593FFF764FF059B013F7A1CAAF171
:1056C000040ADFD109F10109C0E705EB85010A22CF
:1056D0004FEA4800042302FB0611DAB20392009A53
:1056E00002EB030C4FEA8C0E19F82CC0BCF1FF0F33
:1056F00039D0CE449EF802E0BEF1010F33D194F8C8
:1057000004E0BEF1000F04D194F80CE0BEF1000FEC
:1057100017D0D4F808E00EEB000B1EF800E0E645C9
:1057200021D101EB030C09EB8C0C9BF801E09CF8F8
:1057300001C08CEA0E0C1CF07F0F14D11CF0800FFE
:1057400011D1019A02F823A094F80CC0BCF1000F0B
:1057500009D0029B039A581E3146C0B2FFF710FFD2
:1057600008F1010883E713F1FF33B6D2F8E700BF71
:10577000740A002003310160032A4FF00001F0B5E4
:1057800001718160017301D80160F0BD033AD2B2AA
:105790000226012704686518645C9CB96C78002CAB
:1057A000F3D04C1C141B94FBF6F4E4B2047324B144
:1057B00003B11F700135856011460131C9B28A42BB
:1057C000E8D8E2E74C1C0471F7E70000F0B5027876
:1057D0005AB90E78012E08D00F4D2B68D3B10F4C5B
:1057E000247804EB4404944201D100200FE013F824
:1057F00002E0B64503EB020C02F1030708D19CF866
:105800000130037028680244012093780B70F0BDCA
:105810003A46E8E71846FAE7A80A0020A40A00205A
:10582000F0B52C4A89B016460025104605EB450315
:1058300031780DF8031008A90B4400EB8501013500
:105840004C7813F81F1CC4F3060767F30601E4093C
:1058500064F3C71103F81F1CB47813F81E1C64F31B
:105860004511F478052D64F3030103F81E1C06F1BD
:105870000406DBD1002505EB45030DEB0301147D88
:10588000CC7308A90B4400EB850101354C7D13F85E
:10589000101CC4F3060666F30601E40964F3C7119D
:1058A00003F8101C947D13F80F1C64F34511D47D8C
:1058B000052D64F3030103F80F1C02F10402DAD191
:1058C0000548064900681E236A4605F09DFF09B099
:1058D000F0BD00BF740A0020285E00200110050002
:1058E00073B501298DF8070015461C468DF8061082
:1058F000084633D8A2B39BB39DF8076016B90720BA
:1059000002B070BDFFF756FD8642F8D80DF10701D1
:105910000DF10600FFF75AFF9DF80710481E9DF88D
:10592000061001EB81011423C90003FB00110D4B8C
:1059300019440523296023702B68002213F82200E4
:10594000FF28D1B206D121702378002B0CBF022092
:105950000020D5E70132052AF0D1F5E70620CFE790
:105960000320CDE7740A0020FFF724BD2DE9F04F96
:1059700085B091468DF807008DF806100DF10600F0
:105980000DF107010093FFF721FF9DF807309DF807
:105990000620012B3CD1002A14BF00240524013B22
:1059A00003EB83034FF00A0818FB0233621E434ED9
:1059B00053FA82F316F82330FF2B7CD1023C6FF0B0
:1059C0000041B2469DF807509DF80670013DA800C1
:1059D0004319002C18FB073201DB00291ADC0134C3
:1059E000E4B22244B9F8003026F8223005440A23F4
:1059F00003FB07573C4406EB8406009BB37006F09C
:105A000055FCFEF7FDFFF070012005B0BDE8F08FFA
:105A10000524C4E722440AEB82001AF822C0BCF134
:105A2000FF0F46D099F801109DF80D2099F800E07D
:105A30008DF80CE0C1F3060B6BF30602C90961F3A4
:105A4000C712E6458DF80D200DD208FB073323441D
:105A50000AEB83035B785B0605D0D3B2590612D1FB
:105A60004FF0FF3116E0E6450DD99DF80D305A068E
:105A700009D005EB850308FB0733234406EB8303BA
:105A80005B785B0608D003A9022221F005FC011E09
:105A900003DC0ED001340CE0012105EB850508FB89
:105AA0000757631C57FA83F3274456F8272046F814
:105AB0002320013C86E70020A7E700BF740A0020EE
:105AC0002DE9F04186B001298DF8070015461C46E6
:105AD0008DF80610084603D9002006B0BDE8F08115
