:1000000000000120D55800001959000019590000BE
:1000100071BD0000195900001959000081560000F7
:1000200081560000815600008156000021780000B2
:1000300019590000F454020081780000E5780000AE
:10004000BD5C0000A51E02001959000019590000EE
:10005000CD150200111F0200B11E0200C91E0200D0
:10006000A91E0200455100007957000019590000EF
:1000700029520000195900001959000019590000AF
:1000800019590000195900009D5700001959000026
:100090001959000019590000195900001959000098
:1000A0001959000019590000195900001959000088
:1000B000151F0200AD1E0200D5480200597700004E
:1000C000551F0200D9590000D1060200195900003D
:1000D0001959000019590000195900001959000058
:1000E0001959000019590000195900001959000048
:1000F00019590000195900008156000010B5054C2F
:10010000237833B9044B13B10448AFF300800123C3
:10011000237010BDD8050020000000006885020093
:1001200008B5034B1BB103490348AFF3008008BD7A
:1001300000000000DC05002068850200154B002B44
:1001400008BF134B9D46A3F5803A00218B460F460E
:100150001348144A121A00F063F80F4B002B00D01A
:1001600098470E4B002B00D0984700200021040038
:100170000D000D48002802D00C48AFF3008000F0BD
:100180002BF82000290009F0EDFF00F011F800BF66
:100190000000080000000120000000000000000036
:1001A000D805002044790020000000000000000075
:1001B00008B5074B044613B10021AFF30080054B8F
:1001C0001868836A03B1984720460BF055FC00BFBE
:1001D000000000006C51020070B50D4E0D4CA41BC8
:1001E000A4100025A54209D10B4E0C4C24F0B2FFFF
:1001F000A41BA4100025A54205D170BD56F82530DA
:1002000098470135EEE756F8253098470135F2E773
:10021000D0050020D0050020D0050020D405002006
:1002200002440346934200D1704703F8011BF9E7EB
:100230002DE9F04788B0002B149F109EDDE9121ABB
:100240001D4627F02007BBBF03F100431D460023D6
:100250002D231446B8BF1446462F0B7004D0452FEB
:1002600000D10136022300E0032307AA049206AA64
:10027000CDE902A2CDE9003622462B4600F0BCFBB8
:10028000472F804602D1119BDB0726D5462F08EB6E
:10029000060911D198F80030302B0AD10022002332
:1002A0002046294602F020F918B9C6F10106CAF81D
:1002B0000060DAF8003099440022002320462946E5
:1002C00002F012F938B93022079B4B4505D2591C70
:1002D00007911A70F8E7CDF81C90079B159AA3EBCD
:1002E00008034046136008B0BDE8F087F7B5002961
:1002F0000446BABF49422D232B23092904F8022BB7
:10030000437020DD0DF107031F460A2691FBF6F529
:1003100006FB15113031092D03F8011C03F1FF32E2
:10032000294609DC3031023B02F8011CBB4222465F
:1003300004D3101A03B0F0BD1346E7E713F8012BFE
:1003400004F8012BF2E7302319448370021DC170B9
:10035000EFE700002DE9F04F91B00C46DDF8688022
:1003600016461F46054601F005F90368089318462E
:1003700000F0ABFA00230E93D8F800300990073351
:1003800023F0070303F1080294F818A0D4F800B092
:10039000C8F80020D3E90023C4E91223D4E9128964
:1003A00029F000430B93CDF828804FF0FF32A94B82
:1003B000DDE90A0102F0CAF870BB4FF0FF32A54B2D
:1003C000DDE90A0102F0A4F830BB00220023404618
:1003D000494602F093F810B12D2384F843309E4A29
:1003E0009E4BBAF1470F8CBF90469846032323617A
:1003F0002BF0040323604FF00009009733460FAA47
:100400002146284600F0ECF9013040F090804FF092
:10041000FF3011B0BDE8F08F42464B46404649469A
:1004200002F094F810B18E4A8E4BDAE76368591CDB
:100430004BF480620EA90DA840D1062363600DF134
:100440003303CDE901234FF0000C63682260CDE94E
:10045000030A009342464B46CDE9051C2846FFF7A8
:10046000E7FE0AF0DF03472B804609D10D9BD81C1D
:1004700002DB6268934247DDAAF1020A5FFA8AFA58
:10048000BAF1650F0D9924D80139524604F1500094
:100490000D91FFF72BFF0E9A1318012A8146236155
:1004A00002DC2268D10701D5013323619DF8333086
:1004B000002BA2D02D2384F843309EE7BAF1670FBA
:1004C00000F07881BAF1470FB9D1002BB7D10123E1
:1004D000B4E7BAF1660F19D1002963680CDD216118
:1004E00013B92268D20702D501330B4423610D9B57
:1004F000A3654FF00009D9E713B92268D00701D5E9
:100500000233F3E70123F1E74FF0670ADDE90D322B
:10051000934205DB22682361D107E8D50133E5E783
:10052000002BD4BFC3F1020301231344DEE7236889
:100530005A0507D42369424631462846B847013058
:100540002BD164E7BAF1650F40F2DD800022002371
:10055000D4E9120101F0C8FF002833D00123424A38
:1005600031462846B84701303FF451AFDDE90D234D
:100570009A4202DB2368D8070FD5DDE9082331460C
:100580002846B84701303FF442AF4FF0000804F16D
:100590001A090E9B013B434509DC23689B0700F1C8
:1005A0000481E0680F9B9842B8BF184631E70123E9
:1005B0004A4631462846B84701303FF428AF08F193
:1005C0000108E6E70D9B002B2BDC0123264A314670
:1005D0002846B84701303FF41AAF0D9B23B90E9B54
:1005E00013B92368D907D8D5DDE908233146284651
:1005F000B84701303FF40BAF4FF0000904F11A0A7D
:100600000D9B5B424B4501DC0E9B94E70123524658
:1006100031462846B84701303FF4F9AE09F10109E7
:10062000EEE70E9AA36D9A42A8BF1A46002A914699
:1006300007DD1346314642462846B84701303FF4AD
:10064000E6AE04F11A034FF0000B29EAE9790A93A8
:1006500016E000BFFFFFEF7F7451020070510200EF
:100660007C51020078510200F054020001230A9AE2
:1006700031462846B84701303FF4C9AE0BF1010BB3
:10068000D4F858A0AAEB09035B45EFDCDDE90D23A4
:100690009A42D04415DB2368DA0712D40E9B0D99D9
:1006A000A3EB0A02A3EB010A9245A8BF9246BAF156
:1006B000000F0EDC4FF000082AEAEA7A04F11A096A
:1006C00019E0DDE9082331462846B8470130E5D175
:1006D0009DE65346424631462846B8470130E9D1A7
:1006E00095E601234A4631462846B84701303FF493
:1006F0008EAE08F10108DDE90D239B1AA3EB0A0376
:100700004345EEDC49E70E9A012A01DCDB073AD5C6
:100710000123424631462846B84701303FF477AEC0
:10072000DDE9082331462846B847013008F10108C1
:100730003FF46DAE0E9B002203F1FF3AD4E91201A3
:10074000002301F0D1FEC8B953464246314628463F
:10075000B84701300ED15AE60123524631462846A9
:10076000B84701303FF453AE08F101080E9B013B3E
:100770004345F1DC4B4604F15002DDE64FF0000842
:1007800004F11A0AF2E70123DFE701234A46314662
:100790002846B84701303FF43AAE08F10108E36853
:1007A0000F9A9B1A4345F0DCFBE64FF0000804F17A
:1007B0001909F4E7002B3FF48AAE4FF0000CCDE9A5
:1007C000051C0DF133012260CDE9030ACDE90121B9
:1007D000009342464B462846FFF72AFD804645E6F1
:1007E0002DE9F04791461F468A680B69DDF82080A5
:1007F0009342B8BF1346C9F8003091F8432006462B
:100800000C4612B10133C9F800302368990642BF83
:10081000D9F800300233C9F80030256815F0060514
:1008200007D104F1190AE368D9F800209B1AAB42FA
:1008300028DC94F843302268003318BF0123920665
:100840002DD404F1430239463046C047013020D050
:100850002368E568D9F8002003F00603042B08BFDD
:10086000AD1AA36822690CBF25EAE57500259342FD
:10087000C4BF9B1AED184FF000091A344D451AD128
:10088000002008E00123524639463046C047013077
:1008900003D14FF0FF30BDE8F0870135C3E7E11821
:1008A0005A1C302081F84300224494F8451082F805
:1008B00043100233C5E70123224639463046C0477C
:1008C0000130E6D009F10109D8E7034613F8012BFE
:1008D000002AFBD1181A013870472DE9F74F036938
:1008E0000C69A3428046C0F28280013C01F11407EA
:1008F0004FEA840C00F1140657F8245056F82400EF
:1009000006EB0C03013507EB0C090193B0FBF5F581
:1009100095B34FF0000A3846B646D34650F8042B3C
:1009200093B205FB03A34FEA134A9BB2ABEB03035D
:10093000120CDEF800B005FB02A213FA8BF34FEAAB
:10094000124A1FFA82FBDEF80020CBEB124202EBC8
:1009500023429BB243EA024381454FEA224B4EF8C1
:10096000043BDBD256F80C3033B9019B043B9E426A
:100970001A4630D3C8F81040404601F031F800283C
:1009800025DB013530464FF0000C57F8042BD0F82A
:1009900000E093B2ACEB0303120C13FA8EF3C2EB3C
:1009A0001E4202EB23429BB243EA0243B9454FEA9F
:1009B000224C40F8043BE8D256F8242006EB84038E
:1009C0002AB9043B9E421A460BD3C8F81040284669
:1009D00003B0BDE8F08F1268043B002ACAD1013C85
:1009E000C5E71268043B002AEFD1013CEAE700208A
:1009F000EEE70000000000002DE9F04F456A97B0D7
:100A000016461F460446DDF88C80CDE902673DB9E5
:100A1000102000F0BDFD6062C0E901550560C560B1
:100A2000636A196851B15A684A60012393408B6028
:100A3000204600F0F4FD636A00221A603B1EBBBF33
:100A400023F00043039300230122ACBFC8F8003019
:100A5000C8F80020B24BDDF80C8033EA08031BD144
:100A6000229A42F20F731360029B23B9C8F313005A
:100A7000002800F04F85249B53B9AA4B21E0AA4BD4
:100A800005930833249A1360059817B0BDE8F08FDA
:100A9000A44B05930333F5E7DDE902670022002349
:100AA0003046394601F020FD824660B1229A01238A
:100AB0001360249B002B00F02A859C4B249A136022
:100AC000013B0593E0E714AB019315AB009332466D
:100AD0003B46204600F0FBFFC8F30A558346002D35
:100AE0007CD0C7F3130343F07F59B04649F4401953
:100AF000A5F2FF35CDF84CA000228D4B404649466B
:100B000001F0D2F880A3D3E9002301F085FA80A395
:100B1000D3E9002301F0CAF8064628460F4601F043
:100B200011FA7DA3D3E9002301F076FA02460B46C1
:100B30003046394601F0BAF806460F4601F01CFD72
:100B40000022824600233046394601F0D7FC48B1E6
:100B5000504601F0F7F932463B4601F0C5FC08B9B2
:100B60000AF1FF3ABAF1160F59D8724901EBCA01DE
:100B7000DDE90223D1E9000101F0DEFC002850D0BC
:100B80000AF1FF3A00231293149B5D1BB5F1010893
:100B900049BFC5F10103002308934FF0000858BF77
:100BA0000893BAF1000F3EDB0023D044CDF834A007
:100BB0000993209B092B00F29080052BC4BF043BB6
:100BC0002093209BA3F10203CCBF00250125032B1A
:100BD00000F28F80DFE803F07D7F3171DDE914538F
:100BE0001D4405F23240202813DDC0F14000029B75
:100BF00008FA00F805F2124023FA00F048EA000073
:100C000001F090F901238046A1F1F879013D139399
:100C100072E7029BC0F1200003FA00F0F0E7012325
:100C2000B1E71290B0E7089BA3EB0A030893CAF15F
:100C30000003099300230D93BBE701230C93219B31
:100C4000002B59DD06939946666A002272600422E1
:100C500002F114009842716870D9204600F0ABFC94
:100C6000636A30601B680593B9F10E0F00F2EB80E8
:100C7000002D00F0E8809DED027BBAF1000F8DEDB4
:100C8000107B79DD2B4A0AF00F0302EBC30393EDCF
:100C9000007B4FEA2A16F0068DED0A7B6AD5264BBB
:100CA000DDE91001D3E9082301F0E0FACDE9020102
:100CB00006F00F060325204F51E001230C93219BE2
:100CC000534403F1010906934B46012BB8BF01239E
:100CD000BAE70023B2E70023F0E7012500232093C1
:100CE0000C954FF0FF330693994600221223219270
:100CF000AAE701230C93F4E70123069399461A46C9
:100D0000F5E700BFAFF3008061436F63A787D23F71
:100D1000B3C8608B288AC63FFB799F501344D33FEA
:100D20000000F07F8951020080510200F15402005E
:100D30000000F83FB851020090510200013171608B
:100D4000520085E7F10708D5DDE90A01D7E900235C
:100D500001F062F9CDE90A01013576100837002E5D
:100D6000F0D1DDE90A23DDE9020101F07FFACDE9E6
:100D700002011AE002259EE700F0A080CAF10006F9
:100D80009F4BA04F06F00F0203EBC203D3E90023F1
:100D9000DDE9100101F040F9CDE90201361100232F
:100DA0000225002E7FD1002BE1D1129B002B00F0F9
:100DB0008780DDE902670022934B3046394601F017
:100DC0009DFB00287CD0B9F1000F79D0069B002B49
:100DD00035DD0AF1FF330A93394600228B4B30464A
:100DE00001F01AF9CDE90201069F0135284601F00C
:100DF000A9F8DDE9022301F00FF90022844B00F08D
:100E000055FF0546A1F15076002F5DD10022814BA0
:100E1000DDE9020100F048FF2A463346CDE9020130
:100E200001F08AFB002840F088822A4606F1004340
:100E3000DDE9020101F062FB002840F07C82DDE97F
:100E40001023CDE90223159B002BC0F25081BAF18B
:100E50000E0F00F34C816A4B03EBCA0393ED007B4A
:100E6000219B002B8DED067B80F2D880B9F1000F1D
:100E700000F3D48040F05E820022664B51EC170BE9
:100E800001F0CAF8DDE9022301F04CFB4F464E4663
:100E9000002840F03482059B059A5D1C31231370B5
:100EA0000AF1010A2FE2F20705D5D7E9002301F084
:100EB000B3F8013501237610083772E7022574E78D
:100EC000CDF828A04F4691E74D4B03EBC70353E9FC
:100ED00002010C9B002B47D002460B4600204E49D6
:100EE00001F0C4F92A46334600F0DEFECDE90E01DA
:100EF000059DDDE9020101F03FFB064601F022F805
:100F000002460B46DDE9020100F0CEFE303605F860
:100F1000016BDDE90E23CDE9020101F0EFFA0028B3
:100F200063D1DDE902230020374900F0BDFEDDE991
:100F30000E2301F0E3FA002840F0B780059BEB1A7E
:100F40009F427FF77CAF0022304BDDE90E0101F0BC
:100F500063F80022CDE90E012C4BDDE9020101F01E
:100F60005BF8CDE90201C4E733462A4601F054F8A4
:100F7000059BCDE90E01DD191E46DDE9020101F0F8
:100F8000FBFA074600F0DEFF303702460B46DDE98C
:100F9000020100F089FE06F8017BAE42CDE90201B4
:100FA0004FF0000226D11C4BDDE90E0100F07EFE61
:100FB00002460B46DDE9020101F0BEFA002874D1B9
:100FC000DDE90E230020144900F06EFE02460B46B8
:100FD000DDE9020101F092FA00283FF430AF15F884
:100FE000013C302B05F1FF3202D0DDF828A04AE0A9
:100FF0001546F4E7054B01F00FF8CDE90201BCE717
:10100000B8510200905102000000F03F000024405F
:1010100000001C40000014400000E03FDDE90267D2
:10102000059DDDE906233046394601F01FF901F040
:10103000A3FA804600F086FFDDE9062300F0ECFF0E
:1010400002460B463046394608F1300600F02CFEC9
:1010500005F8016B059EAE1BB14502460B4639D122
:1010600000F024FEDDE9062306460F4601F064FA8F
:10107000C8B9DDE906233046394601F035FA10B12A
:1010800018F0010F0FD15946204600F0C8FA00238E
:10109000229A2B700AF101031360249B002B3FF46A
:1010A000F3AC1D60F0E4CDF828A015F8012C392A26
:1010B00005F1FF3308D1059A9A4209D10A9B013301
:1010C0000A933023137013461A7801321A708CE792
:1010D0001D46EAE700229B4B00F09EFF0022002302
:1010E00006460F4601F000FA00289AD0CBE70C9A8A
:1010F000002A00F08B80209A012A6EDC139A002AC5
:1011000067D003F23343DDE90857089A01211A44F6
:1011100020460892984400F022FB0646002D0CDD84
:10112000B8F1000F09DD4545089A2B46A8BF434694
:10113000D21A0892ED1AA8EB0308099BEBB10C9B9D
:10114000002B67D08FB131463A46204600F0A6FB0F
:101150005A4601460646204600F00AFB59460A90C8
:10116000204600F05CFA0A9B9B46099BDA1B04D0E0
:101170005946204600F092FB83460121204600F0AC
:10118000EEFA0D9B0746002B00F0CB811A46014674
:10119000204600F083FB209B012B074640DC029B8E
:1011A000002B39D1039BC3F31303002B36D1039BD0
:1011B00023F000431B0D1B052BB1089B0133089343
:1011C00008F10108012309930D9B002B2AD101206E
:1011D00030E0149BC3F1360395E7099B09F1FF3713
:1011E000BB42BFBF099B0997FA1A0D9BBBBF9B1857
:1011F0000D93DF1B0027B9F1000FB5BF089B089DB9
:10120000A3EB09054B46B8BF00237EE7DDE908578D
:101210000C9E83E7099AABE70023D4E7029BD2E751
:10122000002309933B6907EB8303186900F049FA2F
:10123000C0F12000404410F01F0047D0C0F120034F
:10124000042B3BDD089BC0F11C00034408930544BC
:101250008044089B002B05DD59461A46204600F0C5
:101260006BFB8346B8F1000F05DD39464246204648
:1012700000F062FB0746129B53B33946584600F014
:10128000AFFB002824DA002359460A22204600F04A
:10129000DDF90C9B0AF1FF3A8346002B00F04881F0
:1012A000002331460A22204600F0D0F9069B002B8D
:1012B00006464FDC209B022B4CDD11E0C9D0089A7A
:1012C0001C331A4408921D449844C2E70346F6E7CB
:1012D000B9F1000F38DC209B022B35DDCDF81890DA
:1012E000069B63B939460522204600F0AFF9014656
:1012F0000746584600F074FB00283FF7CCAD219B11
:10130000059D6FEA030A4FF000093946204600F0B8
:1013100086F9002E3FF4B7AEB9F1000F05D0B14504
:1013200003D04946204600F07AF93146204600F0C5
:1013300076F9A8E600273E46E1E7DDF828A03E461C
:10134000A9E500BF000024400C9BCDF81890002BAD
:1013500000F0F580002D05DD31462A46204600F0DC
:10136000EBFA0646099B002B4CD07168204600F032
:1013700022F9326902320546920006F10C010C3066
:1013800000F00EF901222946204600F0D5FA059B0F
:101390000893029B03F00103B146099306463946C0
:1013A0005846FFF79AFA4946054600F13008584674
:1013B00000F016FB324602903946204600F02AFB28
:1013C000C368024603BB01460A90584600F008FB7A
:1013D0000A9A0346114620460A9300F020F90A9B18
:1013E000A3B9209A92B9099A82B9B8F1390F29D0D4
:1013F000029B002B01DD05F13108089B5D1C83F881
:10140000008082E73046C2E70123E3E7029A002A20
:1014100004DB24D1209A12BB099A02BB002BECDD1D
:1014200059460122204600F087FA3946834600F0EB
:10143000D7FA002803DCE0D118F0010FDDD0B8F1B5
:10144000390FD8D1089B089A5D1C3923137015F801
:10145000013C392B05F1FF324ED0013353E0089A9D
:10146000002B02F1010506DDB8F1390FEAD008F1D1
:101470000108089BC3E7059B069A05F8018CEB1A47
:10148000934221D0594600230A22204600F0DEF87C
:10149000B14583464FF000034FF00A02494620460B
:1014A00005D100F0D3F881460646089577E700F0AD
:1014B000CDF83146814600230A22204600F0C6F8C6
:1014C0000646F2E74FF0000959460122204600F097
:1014D00033FA3946834600F083FA0028B7DC02D19C
:1014E00018F0010FB3D115F8013C302B05F1FF3294
:1014F0007FF40BAF1546F6E7059B934205D1059A9D
:101500000AF1010A31231370FFE615469FE7174BD6
:10151000FFF7D7BA249B002B7FF4B1AA144BFFF737
:10152000D0BA209B012B7FF73AAE0D9B09934EE674
:10153000069B002B03DC209B022B3FF7D1AE059DC1
:1015400039465846FFF7C9F900F1300805F8018B14
:10155000059B069AEB1A9A42B4DD594600230A22EB
:10156000204600F073F88346EAE700BFF05402001B
:1015700080510200044B1B68186A044B002808BF06
:101580001846F030704700BF0400002068000020BB
:10159000024B0146186800F0F7BA00BF04000020B3
:1015A00010B5431E0A44914200D110BD11F8014B01
:1015B00003F8014FF7E770B5456A04460E463DB99A
:1015C0001020FFF7E5FF6062C0E901550560C560C6
:1015D000656AEB6883B1636ADB6853F82600B8B9C3
:1015E000012101FA06F56A1D9200204600F0BEFABC
:1015F00060B1C0E901650EE021220421204600F01F
:10160000B5FA636AE860DB68002BE4D1002070BDA6
:10161000026843F826200023C0E90333F7E770B5DA
:10162000446A06460D463CB91020FFF7B1FF7062D0
:10163000C0E901440460C4603DB1736A6A68DB6854
:1016400053F82210296043F8225070BD2DE9F04173
:101650000D691F4606460C4601F1140C0023DCF808
:10166000000081B202FB01710F0C000C02FB007044
:1016700089B2013301EB00419D424FEA10474CF81B
:10168000041BECDCD7B1A368AB4212DC61683046C6
:101690000131FFF790FF2269023204F10C0180460C
:1016A00092000C30FFF77CFF21463046FFF7B7FF72
:1016B000444604EB850301355F6125612046BDE8A2
:1016C000F081020C12040346B2B90304102013F097
:1016D0007F4F04BF1B02083013F0704F04BF1B0183
:1016E000043013F0404F04BF9B000230002B06DB98
:1016F0005B0003D5013070470020E8E720207047E9
:10170000036813F0070201460BD0DA0723D49807C9
:1017100049BF5B089B0801200B605CBF0B60022087
:10172000704798B2A8B91B0C102013F0FF0F04BF2C
:101730001B0A08301A0704BF1B0904309A0704BFAC
:101740009B080230DA0702D45B0806D001300B6038
:1017500070471046E9E7002070472020704710B519
:101760000C460121FFF727FF01224461026110BDF1
:101770002DE9F74F14460A6923699A42B8BF0B4610
:101780008846BCBFA0461C46D8F81070D4F810900C
:10179000D8F80830D8F8041007EB0906B342B8BFF0
:1017A0000131FFF708FF00F1140505EB860E2B460B
:1017B0000022734516D304F1140208F1140102EB60
:1017C000890301EB87070093009B019293420CD899
:1017D000002E03DD5EF8043D002B5DD0066103B0F2
:1017E000BDE8F08F43F8042BE3E7B2F800B0BBF19B
:1017F000000F23D08946AC464FF0000859F8044B3F
:10180000DCF800A0A3B21FFA8AFA0BFB03A34FEA8D
:10181000144ADCF8004043444FEA14480BFB0A84A6
:1018200004EB1344E2469BB243EA04434F454FEABC
:1018300014484AF8043B2BD8CCF80480019BB3F839
:1018400002A00432BAF1000F20D02B688946A846C6
:101850004FF0000BB9F800C0B8F802400AFB0C4486
:101860005C44C4469BB243EA04434CF8043B59F839
:10187000043BB8F804B01B0C0AFB03B303EB14439E
:101880004F454FEA134B05D8C8F8043004359BE7A1
:10189000D446B3E7E046DDE7013E99E72DE9F8439A
:1018A000154612F0030206460F4607D0013A214CB6
:1018B000002354F82220FFF7C9FE0746AD1035D0AB
:1018C000746A3CB91020FFF763FE7062C0E90144FE
:1018D0000460C460D6F82480D8F808404CB940F2BF
:1018E00071213046FFF73BFF0023C8F8080004468B
:1018F00003604FF00008EB070AD539462246304610
:10190000FFF736FF394681463046FFF788FE4F46DF
:101910006D100BD0206838B9224621463046FFF7BB
:1019200027FF2060C0F800800446E4E73846BDE8A1
:10193000F88300BF805202002DE9F0470C464FEAC1
:10194000621A236949680AEB0309A3680746164629
:1019500009F10105AB4232DB3846FFF72CFE0023CC
:10196000804600F114011A4653452BDB20692AEA10
:10197000EA7A04F1140316F01F0201EB8A0103EB6B
:10198000800C25D0C2F1200E00201E688A469640A9
:1019900030434AF8040B53F8040B9C4520FA0EF030
:1019A00014D8486008B109F10205013D3846C8F86D
:1019B00010502146FFF733FE4046BDE8F087013165
:1019C0005B00C7E741F823200133CDE75146DCE750
:1019D000043953F8042B41F8042F9C45F9D8E4E767
:1019E00003690A699B1A30B50CD192001430143186
:1019F0008418114454F8045D51F8042D954203D025
:101A000005D30123184630BDA042F3D3FAE74FF0C7
:101A1000FF33F7E72DE9F0470D4607461146284604
:101A20001446FFF7DDFF061E08D131463846FFF7A2
:101A3000C2FD0123C0E90436BDE8F087A4BF2346F8
:101A40002C4638466168A6BF1D4600260126FFF7D2
:101A5000B2FD2B69C660266905F1140904F1140270
:101A600002EB860709EB830800F114054FF0000E26
:101A700052F804AB59F8044B1EFA8AF1A3B2C91A02
:101A8000230CC3EB1A4303EB214389B24FEA234EE5
:101A9000C84541EA0343944645F8043BE8D8BC45B1
:101AA00004D355F8043D83B10661C5E75CF8041B17
:101AB0001EFA81F31A1402EB11429BB243EA02436D
:101AC0004FEA224E45F8043BE9E7013EE9E72DE9FC
:101AD000F743012199469046DDE90A65FFF76BFD62
:101AE000C9F30A540746C9F3130334BBB8F1000223
:101AF000019327D002A840F8082DFFF701FE0099B6
:101B0000F0B1019AC0F1200302FA03F30B43C24083
:101B10007B610192019BBB61002B14BF022101215B
:101B20003961C4B1A4F2334404443460C0F13500D7
:101B30002860384603B0BDE8F08343F48013D5E74E
:101B40007961E7E701A8FFF7DBFD019B7B610121DC
:101B500039612030E5E707EB8103A0F232403060C5
:101B60001869FFF7AEFDC0EB4110E1E738B502FBA5
:101B700001F4214600F008F8054618B1224600217C
:101B8000FEF74EFB284638BD70B5CD1C25F0030589
:101B900008350C2D38BF0C25002D064601DBA94267
:101BA00003D90C233360002070BD00F069F8214A8E
:101BB0001468214691B9204C23681BB9304600F0C7
:101BC0003DF820602946304600F038F8431C24D107
:101BD0000C233360304600F054F8E4E70B685B1BDD
:101BE00018D40B2B0FD90B60CD50CC18304600F019
:101BF00048F804F10B00231D20F00700C31AD3D0CE
:101C00005A42E250D0E78C424B6816BF63601360C3
:101C10000C46EBE70C464968CCE7C41C24F00304EF
:101C2000A04205D0211A304600F008F80130CFD08C
:101C30002560DBE7F4050020F805002038B5064CE8
:101C4000002305460846236009F018FF431C02D113
:101C5000236803B12B6038BD1459002082B001B94C
:101C600001A942B14BB113780B601278101C18BF58
:101C7000012002B070471046FBE76FF00100F8E763
:101C80007047704749B1FF2A85BF8A2303600A70F5
:101C90004FF0FF3098BF01207047084670470000A2
:101CA00081F0004102E000BF83F0004330B54FEA0D
:101CB00041044FEA430594EA050F08BF90EA020F7A
:101CC0001FBF54EA000C55EA020C7FEA645C7FEA0D
:101CD000655C00F0E2804FEA5454D4EB5555B8BF30
:101CE0006D420CDD2C4480EA020281EA030382EAA1
:101CF000000083EA010180EA020281EA0303362D33
:101D000088BF30BD11F0004F4FEA01314FF4801C05
:101D10004CEA113102D0404261EB410113F0004F17
:101D20004FEA03334CEA133302D0524263EB4303CE
:101D300094EA050F00F0A780A4F10104D5F1200E6C
:101D40000DDB02FA0EFC22FA05F2801841F10001C7
:101D500003FA0EF2801843FA05F359410EE0A5F19B
:101D600020050EF1200E012A03FA0EFC28BF4CF0CC
:101D7000020C43FA05F3C01851EBE37101F0004582
:101D800007D54FF0000EDCF1000C7EEB00006EEB8F
:101D90000101B1F5801F1BD3B1F5001F0CD3490819
:101DA0005FEA30004FEA3C0C04F101044FEA445270
:101DB00012F5800F80F09A80BCF1004F08BF5FEAF7
:101DC000500C50F1000041EB045141EA050130BDD7
:101DD0005FEA4C0C404141EB010111F4801FA4F17A
:101DE0000104E9D191F0000F04BF01460020B1FACF
:101DF00081F308BF2033A3F10B03B3F120020CDA07
:101E00000C3208DD02F1140CC2F10C0201FA0CF0E4
:101E100021FA02F10CE002F11402D8BFC2F1200C49
:101E200001FA02F120FA0CFCDCBF41EA0C019040FF
:101E3000E41AA2BF01EB0451294330BD6FEA040448
:101E40001F3C1CDA0C340EDC04F11404C4F1200233
:101E500020FA04F001FA02F340EA030021FA04F345
:101E600045EA030130BDC4F10C04C4F1200220FA9C
:101E700002F001FA04F340EA0300294630BD21FADA
:101E800004F0294630BD94F0000F83F4801306BFA0
:101E900081F480110134013D4EE77FEA645C18BF94
:101EA0007FEA655C29D094EA050F08BF90EA020F2B
:101EB00005D054EA000C04BF1946104630BD91EA23
:101EC000030F1EBF0021002030BD5FEA545C05D126
:101ED0004000494128BF41F0004130BD14F5800465
:101EE0003CBF01F5801130BD01F0004545F0FE41D9
:101EF00041F470014FF0000030BD7FEA645C1ABF0E
:101F0000194610467FEA655C1CBF0B46024650EA44
:101F1000013406BF52EA033591EA030F41F4002170
:101F200030BD00BF90F0000F04BF0021704730B5F6
:101F30004FF4806404F132044FF000054FF00001CB
:101F400050E700BF90F0000F04BF0021704730B58C
:101F50004FF4806404F1320410F0004548BF404261
:101F60004FF000013EE700BF42004FEAE2014FEAB6
:101F700031014FEA02701FBF12F07F4393F07F4F91
:101F800081F06051704732F07F4208BF704793F094
:101F90007F4F04BF41F40021704730B54FF46074A7
:101FA00001F0004521F000411CE700BF50EA0102AA
:101FB00008BF704730B54FF000050AE050EA010253
:101FC00008BF704730B511F0004502D5404261EBC3
:101FD00041014FF4806404F132045FEA915C3FF404
:101FE000D8AE4FF003025FEADC0C18BF03325FEAA1
:101FF000DC0C18BF033202EBDC02C2F1200300FA52
:1020000003FC20FA02F001FA03FE40EA0E0021FA76
:1020100002F11444BDE600BF70B54FF0FF0C4CF464
:10202000E06C1CEA11541DBF1CEA135594EA0C0F16
:1020300095EA0C0F00F0DEF82C4481EA030621EA51
:102040004C5123EA4C5350EA013518BF52EA03358C
:1020500041F4801143F4801338D0A0FB02CE4FF03E
:102060000005E1FB02E506F00042E0FB03E54FF06E
:102070000006E1FB03569CF0000F18BF4EF0010E66
:10208000A4F1FF04B6F5007F64F5407404D25FEA62
:102090004E0E6D4146EB060642EAC62141EA555115
:1020A0004FEAC52040EA5E504FEACE2EB4F1FD0C57
:1020B00088BFBCF5E06F1ED8BEF1004F08BF5FEAD5
:1020C000500E50F1000041EB045170BD06F0004687
:1020D00046EA010140EA020081EA0301B4EB5C0434
:1020E000C2BFD4EB0C0541EA045170BD41F480112C
:1020F0004FF0000E013C00F3AB8014F1360FDEBF51
:10210000002001F0004170BDC4F10004203C35DA2C
:102110000C341BDC04F11404C4F1200500FA05F3AF
:1021200020FA04F001FA05F240EA020001F0004250
:1021300021F0004110EBD37021FA04F642EB0601C6
:102140005EEA430E08BF20EAD37070BDC4F10C04F0
:10215000C4F1200500FA04F320FA05F001FA04F2B4
:1021600040EA020001F0004110EBD37041F10001A0
:102170005EEA430E08BF20EAD37070BDC4F12005AB
:1021800000FA05F24EEA020E20FA04F301FA05F213
:1021900043EA020321FA04F001F0004121FA04F2BB
:1021A00020EA020000EBD3705EEA430E08BF20EA8B
:1021B000D37070BD94F0000F0FD101F000464000C5
:1021C00041EB010111F4801F08BF013CF7D041EA47
:1021D000060195F0000F18BF704703F0004652004B
:1021E00043EB030313F4801F08BF013DF7D043EA1C
:1021F0000603704794EA0C0F0CEA135518BF95EAD2
:102200000C0F0CD050EA410618BF52EA4306D1D158
:1022100081EA030101F000414FF0000070BD50EA77
:10222000410606BF1046194652EA430619D094EA01
:102230000C0F02D150EA013613D195EA0C0F05D1EB
:1022400052EA03361CBF104619460AD181EA03013F
:1022500001F0004141F0FE4141F470014FF00000F7
:1022600070BD41F0FE4141F4780170BD70B54FF092
:10227000FF0C4CF4E06C1CEA11541DBF1CEA135512
:1022800094EA0C0F95EA0C0F00F0A7F8A4EB0504F4
:1022900081EA030E52EA03354FEA013100F08880EB
:1022A0004FEA03334FF0805545EA131343EA1263B4
:1022B0004FEA022245EA111545EA10654FEA002669
:1022C0000EF000419D4208BF964244F1FD0404F522
:1022D000407402D25B084FEA3202B61A65EB03057E
:1022E0005B084FEA32024FF480104FF4002CB6EB3B
:1022F000020E75EB030E22BFB61A754640EA0C00BB
:102300005B084FEA3202B6EB020E75EB030E22BFFA
:10231000B61A754640EA5C005B084FEA3202B6EB3B
:10232000020E75EB030E22BFB61A754640EA9C00FA
:102330005B084FEA3202B6EB020E75EB030E22BFCA
:10234000B61A754640EADC0055EA060E18D04FEA88
:10235000051545EA16754FEA06164FEAC30343EA28
:1023600052734FEAC2025FEA1C1CC0D111F4801FF5
:102370000BD141EA00014FF000004FF0004CB6E7EE
:1023800011F4801F04BF01430020B4F1FD0C88BF8D
:10239000BCF5E06F3FF6AFAEB5EB030C04BFB6EB98
:1023A000020C5FEA500C50F1000041EB045170BD8B
:1023B0000EF0004E4EEA113114EB5C04C2BFD4EBB8
:1023C0000C0541EA045170BD41F480114FF0000E3C
:1023D000013C90E645EA060E8DE60CEA135594EAB8
:1023E0000C0F08BF95EA0C0F3FF43BAF94EA0C0FBB
:1023F0000AD150EA01347FF434AF95EA0C0F7FF430
:1024000025AF104619462CE795EA0C0F06D152EA83
:1024100003353FF4FDAE1046194622E750EA410667
:1024200018BF52EA43067FF4C5AE50EA41047FF478
:102430000DAF52EA43057FF4EBAE12E74FF0FF3CDD
:1024400006E000BF4FF0010C02E000BF4FF0010CAE
:102450004DF804CD4FEA410C7FEA6C5C4FEA430C27
:1024600018BF7FEA6C5C1BD001B050EA410C0CBF76
:1024700052EA430C91EA030F02BF90EA020F0020D8
:10248000704710F1000F91EA030F58BF994208BF3F
:1024900090422CBFD8176FEAE37040F001007047FC
:1024A0004FEA410C7FEA6C5C02D150EA013C07D153
:1024B0004FEA430C7FEA6C5CD6D152EA033CD3D09E
:1024C0005DF8040B704700BF8446104662468C4698
:1024D0001946634600E000BF01B5FFF7B7FF0028CB
:1024E00048BF10F1000F01BD4DF808EDFFF7F4FFF4
:1024F0000CBF012000205DF808FB00BF4DF808ED7F
:10250000FFF7EAFF34BF012000205DF808FB00BFA1
:102510004DF808EDFFF7E0FF94BF012000205DF8C3
:1025200008FB00BF4DF808EDFFF7CEFF94BF012078
:1025300000205DF808FB00BF4DF808EDFFF7C4FF71
:1025400034BF012000205DF808FB00BF4FEA410CBA
:102550007FEA6C5C02D150EA013C0AD14FEA430C9D
:102560007FEA6C5C02D152EA033C02D14FF00000DA
:1025700070474FF0010070474FEA410212F5001218
:1025800015D211D56FF47873B3EB625212D94FEABA
:10259000C12343F0004343EA505311F0004F23FAA4
:1025A00002F018BF404270474FF00000704750EAF9
:1025B000013005D111F0004008BF6FF000407047B6
:1025C0004FF00000704700BF10B596B004462422BB
:1025D000002101A8FDF724FE47238DF80430094BA4
:1025E0008DF808401B6801A90022986807F092FC4A
:1025F000C7210AA802F0C0FC08B19DF82C0016B053
:1026000010BD00BFE869002030B597B005460C4604
:102610002422002101A8FDF703FE52238DF8043087
:102620008DF80850ACB12368CDF8093023798DF8C6
:102630000D300A4B1B6801A90022986807F06AFC5C
:10264000D0210AA802F098FC08B19DF82C0017B020
:1026500030BD01238DF80E30EBE700BFE8690020A4
:1026600000B5B7B0002302920E228DF804200A4A6A
:102670008DF80C0010688DF80D10CDF80E308DF827
:1026800012301A4601A9006807F044FCB0FA80F045
:10269000400937B05DF804FBE8690020074B084AA1
:1026A000C3F824240D2808D1064B1B682BB9064B10
:1026B000062202201A7002F035BD704700A00040CB
:1026C00000001313B40914421402002038B5074C5B
:1026D00023788342054607D00548002301220421C0
:1026E000006804F0F9FC257038BD00BF140200201A
:1026F000A006002038B5054604F006FC164C174B22
:10270000174A1D602946206003F04CF92168154CDA
:10271000052002F0BFFA0021134803F0FFF8012161
:10272000124803F0FBF800210F4803F009F90021DB
:102730000E4803F005F90E4B0E4A0A48062103F035
:1027400076FD0020FFF7C2FF00224FF0FF31204648
:1027500003F075FDF8E700BFA0060020E86900203F
:10276000F0010020A4060020C8060020B0060020CA
:102770007D420000E453020070B5124CA378072B91
:102780001ED80133A3706378AA2505FB0346A82A47
:1027900028BFA822F070304632710530FEF700FFE6
:1027A000637809480133DBB2072B88BF00236370CD
:1027B000012200230421006804F08EFC012070BD7A
:1027C0000020FCE718590020A00600200449054B12
:1027D00048701B780B700222BE20FFF7CDBF00BFF0
:1027E0006B5E0020E66900200449054B48701B78A9
:1027F0000B7002225420FFF7BFBF00BF6B5E0020AA
:10280000E46900200449054B48701B780B700222D4
:102810005720FFF7B1BF00BF6B5E0020155F00209F
:102820000C4A0D4B12781A700C4A5870127872B11B
:1028300069B1023301F1180251F8040B43F8040B9B
:102840009142F9D11A2204494720FFF795BF02228D
:10285000F9E700BFEC6900206B5E0020135F0020E9
:102860000C4A0D4B12781A700C4A5870127872B1DB
:1028700069B1023301F1180251F8040B43F8040B5B
:102880009142F9D11A2204494F20FFF775BF022265
:10289000F9E700BFE56900206B5E0020135F0020B0
:1028A0000C4A0D4B12781A700C4A5870127872B19B
:1028B00069B1023301F1180251F8040B43F8040B1B
:1028C0009142F9D11A2204494620FFF755BF02224E
:1028D000F9E700BF976A00206B5E0020135F0020BD
:1028E0000449054B48701B780B7002224520FFF706
:1028F00043BF00BF6B5E0020145F002010B4134B79
:1029000002781A70124A134B12781A7002785A70B1
:1029100042789A70027A104CA42A84BFA4220272D0
:10292000027ADA700023027A591CDBB29A4208D884
:102930000A4B084918785DF8044B0432D2B2FFF70D
:102940001BBF4268D25C1A550B46ECE79C06002080
:10295000C16900206B5E00206F5E0020C26900200C
:102960001FB50023CDF80630CDF80A30ADF80E3093
:10297000064B8DF804001B689B6901A8DB788DF875
:102980000530FFF7BBFF05B05DF804FBE8690020E8
:10299000F0B53C4B3C4E1B683C4CDD683C4F91B065
:1029A00000231A4604A9284603F0F8FD012801D0A7
:1029B00011B0F0BD9DF81030D12B52D011D8C32BDF
:1029C0002CD0C42B30D0C02BEAD19DF81830002B6E
:1029D000E6D0059B002BE3D007A99DF81900984786
:1029E000DEE7DA2B32D0DB2B22D0D72BD8D1294B04
:1029F0001B78002BD4D09DF818308DF804309DF84A
:102A000019308DF805309DF81A308DF80C3001A87A
:102A10000DF11B030293FFF771FFC1E79DF814103E
:102A20001D4806F0B3FFBBE71C4806F0A0FFB7E760
:102A30001B4B1B78002BB3D09DF8142013496270F8
:102A4000237002226320FFF797FEA9E73B78002B53
:102A5000A6D09DF814206270237002220B496120D9
:102A6000F1E73378002B9BD09DF818009DF81910E2
:102A70009DF81A206070A170E2702370042203494F
:102A8000A420E0E7E8690020BF6900206B5E002019
:102A9000E7690020C1690020FC050020080600202D
:102AA000C4690020034B04491B780B7001224220AB
:102AB000FFF762BEE36900206B5E00200C4A0D4BFD
:102AC00012781A700C4A587012787AB171B10233C8
:102AD00001F1180251F8040B43F8040B9142F9D1AB
:102AE0001A22064B03491878FFF746BE0222F8E780
:102AF000C36900206B5E0020135F0020C5690020C1
:102B00000449054B48701B780B700222AB20FFF77D
:102B100033BE00BF6B5E0020986A002010B41E4CCC
:102B200062701E4A21701278002A33D0002B31D0F7
:102B30001A680A21B2FBF1F2120AA2701A68B2FBFB
:102B4000F1F2E2701A7922715A7962719A79A2715E
:102B5000DA79E2711A7A22725A7A62729A7AA272D7
:102B6000DA7AE2721A7B22735A7B62739A7BA273BF
:102B7000DA7BE2731A7C22745A7C62749A7CA274A7
:102B8000DA7C1B7DE2742375152203495DF8044B42
:102B9000FFF7F2BD0222F8E76B5E0020135F002012
:102BA0000B46034902460978A920FFF7B7BF00BFCB
:102BB000966A00200B460349024609781320FFF766
:102BC000ADBF00BF966A00200449054B48701B78D2
:102BD0000B7002221420FFF7CFBD00BF6B5E0020F8
:102BE000986A00200449054B48701B780B7002223C
:102BF0001220FFF7C1BD00BF6B5E0020BD69002041
:102C00000449054B48701B780B7002224820FFF7DF
:102C1000B3BD00BF6B5E0020C06900202DE9F84302
:102C2000184C81468846154604F00CFEA3780F2BFD
:102C300024D80133A3706378AA2606FB0347A82D86
:102C40002A46384628BFA8223A71414687F80390A1
:102C50000530FEF7A5FC63780133DBB20F2B88BF8C
:102C60000023637004F0FEFD0748002301220421C5
:102C7000006804F031FA0120BDE8F88304F0F2FDA9
:102C80000020F9E7175F0020A006002030B4A52B34
:102C90000A4C28BFA52361702070A3700021C8B220
:102CA000834206D80333DAB20449492030BCFFF727
:102CB000B5BF6018555CC5700131F0E76B5E002050
:102CC00028B100231A4619468120FFF7DFBF70475D
:102CD0002DE9F047324B334D1B682E1D5F68B4B0B1
:102CE000B04600231A466946384603F057FC0128CF
:102CF00002D034B0BDE8F0879DF80030812B0CD0B5
:102D0000822BEED19DF806309DF805109DF8040049
:102D10000DF10702FFF7BAFFE3E79DF8C1909DF8B8
:102D2000C4A09DF8CD306B70B9F1A30F28BF4FF050
:102D3000A3099DF8CC3085F800A05FFA89F44A46D3
:102D40000DF121013046AB70EC70FEF729FC1AF052
:102D5000080A09F104031FD0C9F1A4021D2A9ABF71
:102D6000C4F1A40A5FFA8AFA4FF01E0A09F10500BD
:102D70000AF1FF3201A928445A55FEF711FC5444C8
:102D8000E4B29DF8CE3004F808300534E2B20549CB
:102D9000A820FFF743FFA4E703F805A00134EFE7FD
:102DA000E86900206B5E002010B540F2FF74134606
:102DB000002A14BF0A462246012101F063FB0220CB
:102DC000BDE81040FFF782BC034B18780238022898
:102DD0008CBF0020012070479C060020024B034955
:102DE00098780122FFF7E0BF9B6A0020BB690020B2
:102DF000024B034902469878FFF7D6BF9B6A002032
:102E00006B5E002008B5074B074A997811700333B1
:102E10001A5C064B01201A70FFF758FC044B002285
:102E20001A7008BD9B6A0020C2690020C169002099
:102E30009C060020094B9A7872B1013A9A701A7870
:102E40000132D2B2072A88BF00221A70044B002236
:102E500001201A70FFF73ABC5A78F6E7185900209B
:102E6000E0060020094B9A7872B1013A9A701A78FC
:102E70000132D2B20F2A88BF00221A70044B0022FE
:102E800001201A70FFF722BC5A78F6E7175F00207E
:102E9000E006002030B5364B364C187085B001F096
:102EA00031FD354D002847D0A21C611C204601F0A1
:102EB000CFFDA369019304F114030093A168236972
:102EC00004F10C02201D01F02BFEE81C01F090FE25
:102ED000A91C681C01F0C2FE0121284807F052FA23
:102EE000E87802F0DFFB02F02BFC254BA02283F8F0
:102EF000122383F80A230123184603220D2108F028
:102F000053FB20490D2002F029FC01240D22234609
:102F100011462046CDE9004408F0FAFA4FF000715E
:102F2000084608F083FB184B18482246002102F09F
:102F300061FE002005B030BD0DF10F0003F072F905
:102F40009DF80F30082B03D9A3F12002012A00D8E5
:102F5000EB70E87801F032FE95F9021095F9010066
:102F600001F05EFEA2786178207801F051FDB3E7B0
:102F7000BA690020D40100200002002000350A00B8
:102F800000E100E09D260000F0010020F526000091
:102F900000B58BB00AA9422301F8243D044B1B68FD
:102FA0000022986806F0B6FF0BB05DF804FB00BF86
:102FB000E869002000B5B7B009238DF80D1036A9D7
:102FC0008DF80C0001F8D43D064B02921B680022DC
:102FD000186806F09FFFB0FA80F0400937B05DF83E
:102FE00004FB00BFE86900202DE9F04F7C4CA3787A
:102FF000023BC1B0EF2B00F2AE83DFE813F0C50750
:10300000EC06AC03D307E007FF07EC07E506AC03CB
:10301000F407AC03AC03AC03AC038201AC0388013E
:103020009401C901CB060D02AC03AC03AC03AC03A5
:10303000AC03A608AC03AC03AC03B702C702DA02C8
:10304000ED02FF02AC03AC03DC08670318034D0379
:10305000AC033E03AC032F03AC03AC03AC03AC03E3
:10306000AC03AC03AC03AC03F30002013F01440129
:103070002001DF08AC03AC034904AC03B003D50363
:10308000AC03C304CE04F6041A058303AC03EB03BC
:103090002A04AC035904AC03020571045905AC03BE
:1030A0007303C7059905E405B7057105AC03AC03C7
:1030B000AC03AC03AC03B804C004D707EA050506AB
:1030C0001906AC031B08AC03AC03AC03AC03AC03A4
:1030D000AC03AC03AC03AC03AC03AC03AC03AC0378
:1030E000AC03AC03AC03AC03AC03AC03AC03AC0368
:1030F000AC03AC03AC03AC03AC032E06AC03AC03D3
:10310000AC03AC03AC03AC03AC03AC03AC03AC0347
:10311000AC03AC03AC03AC03AC036706AC037806AA
:10312000A206AC03AC03AC03AC036908AC03AC036C
:10313000AC03AC03AC03AC03AC036E07AC032C07CD
:10314000AC034207A1078C07AC03AC031702AC0326
:103150006302AC03AC03AC03AC03AC03AC03AC0341
:10316000AC03AC03AC03AC03AC03AC03AC03AC03E7
:10317000AC03AC0306085D07D602AC03AC03AC039A
:10318000AC03AC03AC03AC03AC03AC03AC03AC03C7
:10319000AC03AC03AC03AC03AC03AC03AC030B0853
:1031A00014081B08AC03EA080B092609AC03AC039E
:1031B000AC03AC03AC03AC03AC03AC03AC03AC0397
:1031C000AC03AC032A083408AC03AC03AC03AC0377
:1031D000AC03AC03AC03AC03AC03AC03E70300BF2C
:1031E0009B6A002040A9682301F8D43DA64B1B68C8
:1031F0004FF4FA72986806F08DFEA44B01221A7003
:1032000015E2A14B1B681B69D3E906011A6AA04BA2
:10321000040E1C70040C5C70D870040A080E18713F
:10322000080C5871D971080A110E1972110C5972D3
:10323000110A9C7098719972DA720C201BE024229A
:10324000002102A8FCF7ECFF5C238DF808308E4BC0
:103250001B6802A90022986806F05CFED8210BA822
:1032600001F08AFE30B140AB894A33F8D01D11809D
:103270009B7893700320FFF7BBFDD8E1FFF788FE32
:10328000844B012293E1804B1B681B69D3E90076D4
:10329000D3E90254D3E904017D4B4FF0FF321A60A9
:1032A0005A609A604FF6FE7297429EBF4FEA172C03
:1032B00083F800C05F7096429CBF320A9A704FF646
:1032C000FE7298BFDE7095429CBF2A0A1A714FF6B3
:1032D000FE7298BF5D7194429CBF220A9A714FF6AC
:1032E000FE7298BFDC7190429CBF020A1A724FF6C0
:1032F000FE7298BF587291429EBF0A0A9A72D972A2
:103300009BE7E078FFF760F9624B187061E1637941
:10331000614A21791370002B604AE07808BF0022CF
:10332000FFF748FEF0E725795D49A82D28BFA825BD
:103330000023DAB2AA4226D35A4B5B49EA5C0A70F0
:10334000013B002A4FF000014FF0AA020DF13600B8
:10335000EE5CE778554C08BF0024FCF761FF2A4675
:103360004F498DF8E0700DF136008DF83460FEF7AE
:1033700017F9454B0C9400221B688DF82C208DF812
:1033800035500BA9E5E0E21852795A540133D0E7E1
:1033900094F80390464B474E19F80370591C09EBFB
:1033A0000702023312F80180D35C434A002B1370EA
:1033B0004FF000014FF0AA020DF1360008BF0026C1
:1033C000FCF72EFF1D22002138A8FCF729FF09F188
:1033D000050AA2440025EBB24B4502D20135412D2E
:1033E00014D1A82F28BFA8273A4651460DF1360020
:1033F0008DF83480FEF7D4F803230C968DF82C302A
:103400008DF83570204B00221B68BAE7631938A885
:10341000D97806F029FDDEE740A9452301F8D43D1F
:10342000194B1B684FF4FA729868B3E26579234E22
:103430001D4AAB5D1370053E002B4FF0AA024FF002
:1034400000010DF13600E77894F8049015F8068035
:103450001B4C08BF0024FCF7E3FEA82D2A464FF0C2
:10346000020328BFA82231460DF136000C948DF8D6
:1034700034808DF835208DF8E0908DF8E1708DF86E
:103480002C30FEF78DF8BDE7E8690020140200201B
:103490006B5E0020BB690020BD690020E52B0000A9
:1034A000EE690020A16A0020966A0020B52B00007A
:1034B0009F6A0020C92B0000986A0020A66A00209D
:1034C000A12B000094F804B0A84B94F803A01BF8BB
:1034D0000350591C0BEB0502023312F80190D35C28
:1034E000A34A002B1370A34B4FF0AA024FF0000128
:1034F0000DF1360014BF98464FF00008FCF790FE1F
:103500001D22002138A8FCF78BFE0BF1060727448B
:103510000026F3B29B4502D90136412E20D1A82DB9
:1035200040AC2A464FF0050328BFA82239460DF1CA
:1035300036008DF83520CDF830808DF834908DF838
:10354000FDA004F8D43DFEF72BF88B4B1B6800223E
:103550002146186806F0DEFCB0FA80F04009D3E698
:10356000A31938A8197906F07FFCD2E7824B1B68B3
:103570009969824B4A68DA70100E1870100C5870F6
:10358000100A9870CA781A71052074E67C490023E5
:103590000B702378052B1CD9E378207900EB0320EE
:1035A000012280B201F0EAF998B9754B00221A7035
:1035B0000FE0734D00232B702378062B09D9E37895
:1035C00020796A4900EB0320012280B201F0FAF968
:1035D0002870FFF703FC2AE06579E37820796749D2
:1035E000A82D28BFA82500EB03202A4680B201F0B1
:1035F000C5F9002814BF284600203CE66279A57969
:103600005F4E05EB0225ADB20023A72D337023D901
:10361000FFF7E4FB5B4B5C4AEB5C1370327832B132
:103620002BB15649012224200B70FFF7A5F841B0B9
:10363000BDE8F08FE218D2795A5401339AB2AA4207
:10364000F8D3E3782079514900EB03202A4680B271
:1036500001F0B8F93070DBE74C49EFE74C4911F85D
:10366000030C40AB0022033803F8D42DC0B2434A08
:1036700001F07AFB9DF82C00FDE5414900230B7019
:103680002378052BA5D9E078637903EB00432079F3
:10369000012203EB002085E72378072B13D9A379B8
:1036A000E579E078354905EB03256379ADB2A82DBE
:1036B00003EB0043207928BFA8252A4603EB00200E
:1036C00001F05CF900B90025E8B2D4E523780020C8
:1036D000042B8DF82C00CDD90BAB284A2C4901F0D6
:1036E000D5FEC7E72B4AE37813702B4A5321002BF2
:1036F00011704FF00802294B8DF82C2008BF0023D1
:103700000C937FE62379264AE5781370002B4FF05F
:1037100024024FF0000102A8224C08BF0024FCF74D
:103720007FFD74238DF80830134B03941B688DF8CC
:103730001050002202A9986806F0ECFB38B9E1218C
:103740000BA801F019FC10B19DF830301BB9002115
:103750002320FFF755FA0120FEF7B8FF67E7E0786E
:10376000064901F08EFC062085E500BFA06A002016
:10377000986A0020012B0000E86900206B5E0020A1
:10378000BB690020A26A0020BC690020EE6900200D
:103790009E6A0020C3690020C5690020BD2A000080
:1037A000C0690020012C0000E378AC4AAC4CAD4865
:1037B0001370002B08BF002406F0D1F81CB121467D
:1037C000A84806F0D0F840A9442327E6A64B0022DB
:1037D0001A70C0E7FFF7F8FA05460028BBD10120B0
:1037E000FFF710FBE778A14E07F00F03082BA04B63
:1037F0001B781DD1002B4FF0240229460BA89D4CAD
:1038000008BF0024FCF70CFD9B4A0C9464238DF840
:103810002C301368CDF8353053688DF83470CDF8FE
:10382000393033682A460BA9986806F073FBFEE628
:10383000002B4FF0240229460BA88E4C08BF002411
:10384000FCF7EEFC59238DF82C300C948DF8347075
:10385000E7E7FFF7B9FA054600287FF47CAF0120BF
:10386000FFF7D0FA824BE6781B78824C002B4FF0A2
:10387000240229460BA808BF0024FCF7D1FC5A23D8
:103880008DF82C30794B0C948DF834601B68C9E7A7
:10389000FFF79AFA044600287FF45DAF0220FFF795
:1038A000B1FA234622467549032001F049FEBEE6DF
:1038B000FFF78AFA054600287FF44DAF0120FFF795
:1038C000A1FA6B4BE6781B786A4C002B4FF0240270
:1038D00029460BA808BF0024FCF7A2FC6723CFE70A
:1038E000674E624F01203070FFF78CFAE57815F0D3
:1038F000800F1BD1634806F041F823791BB1624960
:10390000604806F03FF843238DF82C30E3788DF8BB
:1039100030302379003318BF01238DF831303B68F4
:1039200000220BA9986806F0F5FA52E6574B2422BC
:10393000002102A81C78FCF773FC65238DF8083081
:103940003B688DF80D40803D002202A998688DF8F3
:103950000C5006F0DFFA40B9DC210BA801F00CFB9B
:1039600008B19DF83400307033E60020FBE740A931
:10397000062301F8D43D3D4B00221B68E9E540A930
:103980000723F6E740A9112301F8D43D374B1B6804
:103990001868002206F0BEFADDE6374E94F8038080
:1039A00024793B4AA75D3B4D731C0021E35C1370F7
:1039B000002B4FF0AA020DF1360008BF0025FCF7DE
:1039C0002FFCA82C28BFA824224631460DF1360032
:1039D000FDF7E6FD10238DF8E0808DF834700C952E
:1039E0008DF82C308DF835400CE563792A4A217921
:1039F0001370002B294AE07808BF0022FEF730FE42
:103A000082E4274AA37A137022798DF83520002B9F
:103A1000D4F80520234BE178CDF8362008BF0023E9
:103A2000627A8DF834100C938DF83A2040A90E2359
:103A30009FE71D4A237913700022E1788DF8341036
:103A4000934240A9194B8DF8352008BF13460C93BB
:103A50000F2301F8D43D054B1B687AE5E36900208C
:103A6000A52A0000080600209C060020E869002026
:103A7000C1690020FD280000A06A00209E6A002085
:103A8000BB690020FC05002061290000BA69002004
:103A9000145F0020E1280000976A0020A1280000A0
:103AA000E569002061280000EC6900202128000061
:103AB000AB4D00232B70AB4B1B689B6959780029D9
:103AC0003FF487AD2379A84AE0781370002BA74A0A
:103AD00008BF0022FEF7C4FD2870A278A44B66E55B
:103AE000A04B9F4D18688369597800222A700029DD
:103AF0003FF46FAD637A9C4E8DF835109342616848
:103B00003370CDF83610994BE778267A8DF83470FB
:103B100008BF134640A98DF83A600C930E2301F8B4
:103B2000D43D006806F0F6F9B0FA80F04009D3E71A
:103B300023798D4A002B137040A9E2788B4B8DF8C6
:103B4000342008BF00230C9301220F238DF8352069
:103B500001F8D43D834B1B680022186806F0DAF99F
:103B60007F4BB0FA80F040091870B6E76279814B5C
:103B7000E1781A70002A804B8DF8341008BF0023BA
:103B80000C938DF8352040A90D23F2E6E3797B4AAA
:103B900021791370002B6279794BE578A0798DF843
:103BA000345008BF0023003118BF0121003218BF74
:103BB00001228DF835100C938DF836208DF83700E2
:103BC00040A90C23D5E6674B1B689B695A78644B68
:103BD000EDE46C4B22791A70E3788DF80C30614B70
:103BE0001B685D228DF8082002A90022986806F063
:103BF00091F9DA210BA801F0BFF900283FF484AB5A
:103C00009DF83000FFF780BB2422002102A8E47851
:103C1000FCF706FB4B238DF80830524B8DF8114012
:103C20001B6802A90022986806F074F9CB21E1E72D
:103C3000554B22791A70E3788DF80C3001238DF8FA
:103C40000D30484B1B685E228DF8082002A9002227
:103C5000986806F05FF9DB21CCE72379E678002B42
:103C600063790CBF00256FF07F052422002B4FF0F5
:103C7000000102A80CBF00244024FCF7D1FA4C2319
:103C80008DF80830374B8DF80C601B6802A925436E
:103C9000002298688DF80D5006F03CF9CC210BA855
:103CA00001F06AF978B1394B0CAA12AD144603CC75
:103CB000AC4218605960224603F10803F6D110683F
:103CC000186012791A711D20FFF7D5BA242200213D
:103CD0000BA8E478FCF7A4FA50238DF82C30214B84
:103CE0008DF830401B6800220BA9FFF79DBBE678DA
:103CF000264C25462422002102A805F8026BFCF779
:103D00008FFA51238DF80830164B03951B688DF8F8
:103D100010609868002202A906F0FCF8CF210BA8D9
:103D200001F02AF9234640B1DDF83120C4F8022021
:103D30009DF830009DF83520A27158700720FFF7DC
:103D40009ABA2378114DE0782870082B8CBF10495F
:103D50000021FEF759FC68700220FFF78CBA00BF03
:103D6000BB690020E8690020C3690020BD2A00006B
:103D7000C5690020155F002005280000E4690020C7
:103D8000E9270000E7690020C46900206B5E00207D
:103D90009F6A0020B94CBA4E23685B691D7900F018
:103DA000DDFF2368B74A5B69FF2808BF6325DB781E
:103DB00000950C21304605F0ADFF23685B69DB7987
:103DC00033730D20FFF757BA00210BABAC4A0846FE
:103DD00001F082FB4EE4AC4B94F806B093E8070088
:103DE0000DF12C0888E8070042F22333ADF80830C3
:103DF000002523238DF80A30A9460DF1080A58F84A
:103E0000257087F8009015F80A607868324600211E
:103E1000FCF706FA5E4528BF5E4632469B49786845
:103E20000135FDF7BDFB032D3E70E8D1984D21799A
:103E30006279E0786970AA70287000F0E9FD28794D
:103E4000CDE9009900231A46A96800F021FE01205F
:103E500001F097FD7FE48F4BA2791A700021D422E4
:103E60000BA8E67825796479FCF7DAF913238DF845
:103E70002C308DF834608DF835508DF83640FFF7D2
:103E8000C1BA854B62791A700021242202A8E57814
:103E90002479FCF7C5F953238DF80830774B8DF85A
:103EA00010401B688DF8115002A94FF4FA729868FF
:103EB00006F030F8D2219DE66279784BE1781A70ED
:103EC000002A4FF00B00764B8DF82C0008BF002322
:103ED0008DF834108DF8352012E4724DE3782B7094
:103EE00023797148003318BF01236B706379AB707D
:103EF000A379E479EB70232C28BF2324232200210B
:103F00002C71FCF78DF9224668496748FDF748FB9C
:103F1000674B1D601FE42422002102A8E478FCF70F
:103F20007FF954238DF80830544B8DF80C401B68F2
:103F300002A94FF4FA72986805F0ECFFD32159E614
:103F40002422002102A8FCF76BF955238DF80830D4
:103F50004A4B1B6802A94FF4FA72986805F0DAFF21
:103F6000D4210BA801F008F800283FF4ACAE444B74
:103F70000CAA12AD144603CCAC421860596022461C
:103F800003F10803F6D19AE64A4911F8030C40AB55
:103F90000022033803F8D42DC0B2394A01F0C2F927
:103FA000FFF768BB01F046F8FFF7AEB9E3788DF88C
:103FB00034300A228DF82C203F4BFFF7A1BB3F4A3B
:103FC0002F4913680B703E4B18684870E1781160F8
:103FD00022791A60C0E640A9702301F8D43D274B2E
:103FE00000221B6820E43349254A11F8030C0338EA
:103FF0000BABC0B201F0D6F9FFF73CBB2822314928
:104000000720FEF7D1FEFFF712BB1C4B1B685B6954
:10401000DA79DCE501242C4B2C481C70214605F094
:1040200086FEFFF798BB0021284805F080FE264B4E
:10403000FFF7CDBB57238DF82C30E3788DF8303067
:104040000E4B1B6800220BA9986805F063FFFFF771
:1040500017B940AA002302F8D43D0949154800F0D9
:10406000DBFBFFF7CAB840AA002302F8D43D04499D
:10407000104800F0DBFBFFF76EBB00BFE8690020D3
:104080006B5E0020CC53020098530200A26A00200D
:10409000D4010020BE690020BF690020E66900202D
:1040A000CD2700000402002079060020A36A00202A
:1040B000100200209E6A0020C12C0000180200207F
:1040C0001C020020A4530200165F002000200540BF
:1040D0002278032A7FF6ABAAE378CBB1012B7FF4D9
:1040E00064AA052A2ED921796379062A03EB0123D4
:1040F0009BB228D0A079A72828BFA720594C00221E
:10410000904212D9991889B201320978A154F7E77F
:10411000042A0FD0052A23790CD06079A72828BF5C
:10412000A720504C0022904206D820700130C0B227
:10413000FFF7A1B84020F4E79918C9B20132097815
:10414000A154F0E700234020D8E72278E378032A3F
:104150002AD94BB3202B28BF20231C460026414DD3
:104160002422314602A82E706E70FCF759F84023C5
:104170008DF808303C4B8DF80C401B68324602A984
:10418000986805F0C7FE68B9C1210BA800F0F4FEDD
:1041900040B19DF830400DF131012246A81CFDF7D9
:1041A000FFF91CB90220C2E70224D7E701232B70D4
:1041B0006C70A01CBBE740A971230EE72B49294A6C
:1041C00011F8030C03380BABC0B201F0D6F9FFF7BE
:1041D00051BA2422002102A8E478FCF721F86923CF
:1041E0008DF80830204B03941B68002202A99868C0
:1041F00005F090FE60B9DD210BA800F0BDFE38B1DE
:104200009DF8343023B10123194A1370FFF7E1B947
:104210000023F9E76568A668E3782DBA36BA7BB95A
:104220001448294601F08CFB002D3FF494AA002E7F
:104230003FF491AA31460BA800F082FDFFF78BBA3C
:10424000012BF1D129460C48ECE7E37823B9094862
:1042500001F087FBFFF77FBA012B7FF47CAA0648A9
:10426000F6E700BF6B5E0020E86900209E6A002030
:10427000BB690020C8060020B006002070B5544B72
:104280001B78062B2BD8DFE803F00431605C798BB8
:104290009D004FF4E13000F083FA4E4B4E4901226D
:1042A0001A704E4A4E4B12781A704E4A12785A7053
:1042B0000A789A704A78DA708A781A710A792AB17B
:1042C0008C685A710021C8B290420AD30632D2B229
:1042D00043490A20FEF750FA0120FEF775F9012044
:1042E00013E05818655C85710131ECE73E4B997815
:1042F00079B11A78AA2101FB023002460379C0780D
:104300000532002100F0BEF80420BDE87040FEF741
:10431000DDB9364883786BB10278AA2303FB020526
:10432000052413FB024202442B79E87800F0AAF836
:104330002046EAE7012000F01BF9012846D10320BE
:10434000E3E7BDE87040FEF74FBE002000F010F933
:10435000022803D1264B00221A70C0E7052835D168
:10436000234A1378591C022B1170F3D800231A46E4
:1043700019461846BDE8704000F084B8002000F0EF
:10438000F7F8022803D1BDE87040FEF753BD0528B9
:104390001CD1174A1378591C022B1170E6D9F2E789
:1043A000002000F0E5F8022803D1BDE87040FEF7D8
:1043B00059BD05280AD10E4A1378591C022B1170D9
:1043C000D4D9F2E7BDE8704006F0E0BD70BD00BF93
:1043D00014020020135F0020D4010020BA690020DD
:1043E0006B5E0020165F002018590020175F002028
:1043F000E0060020032000F095BE0000024B0122E1
:1044000004201A7000F08EBE59070020024B0122D2
:1044100004201A7000F086BE1C07002008B500F0CA
:10442000EBFE20B10320BDE8084000F07BBE08BDD4
:1044300038B50E4B04460E481D6805F0F3FD80B1FB
:104440000B4805F0BFFD0B4B0B4900221A700B4ABD
:104450001378CC5401331370094B1A7854401C70F4
:1044600038BD2946024805F078FDECE71C02002023
:104470005C070020590700209B6A00204F6B00203A
:10448000996A00202DE9F84F82462D482D4E2E4D79
:10449000DFF8D8802D4F14469B46894605F0A8FDCD
:1044A0002B4805F0A5FD2B4805F0A2FD2A4B002264
:1044B0001A702A4B1A7034B1346085F800B088F84D
:1044C00000A087F80090012000F0FAFE2878033061
:1044D000C0B200F0F5FE38782C7800F0F1FE98F8C4
:1044E00000003F78033400F0EBFE98F800303068AD
:1044F000E443E4B25F407C4048B1297800F0E6FE36
:10450000336828781A4613B1D11A884214D814494E
:10451000012000F0E9FE204600F0D2FE114B0C48CD
:1045200001221A70104B196805F017FDFA2109488D
:10453000BDE8F84F05F011BD12F8011B4C40E2E751
:104540005C07002094070020990700209A070020AC
:1045500020070020E4060020590700201C07002047
:10456000F5430000E1060020180200209807002013
:104570002DE9F3417C4D7D4E074600F03DFEC0B96C
:104580007B4B1C7834B17B4A14781CB110702870B6
:1045900018700424754A1378002B00F0A98076491E
:1045A0000B78002B00F0A48000230B702B7013708D
:1045B00040E00DF1070000F094FE2B78052B00F28F
:1045C000A880DFE803F00342575D6F819DF8074044
:1045D000012C13D1674B69484FF0000883F8008025
:1045E000674B196805F0B9FC664B2C70FF221A70F6
:1045F000654B83F800805E4B1C70BEE73378DBB1FF
:10460000062C01D0152C0ED15B4A60480023137094
:10461000584A3370137005F0EBFC584805F0E8FC7D
:104620005B4805F0E5FC9DF80730062B00F0818023
:10463000152BA2D105245BE04F4A5448137005F0B6
:10464000D7FC534805F0D4FC97E79DF80700C31E3C
:10465000DBB2B12B09D9464B484800241C702C70A2
:1046600005F0C6FC434B1C7087E702232B70FFF755
:10467000DFFE82E79DF807000128ECD80323F5E769
:104680009DF80700FFF7D4FE424B434A1B78032BEB
:1046900004D9033B137004232B706EE701231370BE
:1046A0000523F9E73C4A9DF807001378013B137096
:1046B000FFF7BEFE344B1B78B32BF1D8354A127886
:1046C0009A423FF65AAFEBE72C4805F091FC294A95
:1046D00000231370264A2B701370B7B1294B9DF835
:1046E00007201B789A420BD1062000F0E9FD012437
:1046F0002B78052B28D8DFE803F01E2B2E31333121
:10470000152000F0DDFD0324F2E7182000F0D8FDAD
:1047100033E7174A1D4800231370174A2B70137094
:10472000144A137005F064FC194805F061FC134845
:1047300088E70224DCE70D4B18491B780BB10120F8
:1047400000E0042000F0D0FD204602B0BDE8F0817A
:1047500012490320F6E711490220F3E70F49EEE77B
:104760000D4B0E491878EDE79A6A0020E10600200B
:1047700058070020590700201C0700205C07002074
:104780001C020020996A00204F6B002020070020A7
:10479000E40600209B6A002015020020F54300007B
:1047A00010B5144C00F0D6FC134A0021204600F04E
:1047B0007FFA2046114C05F01BFC114A00212046CF
:1047C00000F076FA20460F4C05F012FC0E4A01214B
:1047D000204600F06DFA204605F00AFC0B4A0C4911
:1047E000002313700B4A13700420BDE8104000F042
:1047F0007BBD00BF200700200D4400005C070020A7
:10480000FD430000E40600201D4400004F6B002023
:10481000F54300009A6A002003785A1E5342534120
:10482000014A1370704700BF9B0700200B4A1278A3
:1048300003468AB11A7840789978012A02D0052A6D
:1048400006D07047DB780BB900F006BF00F00EBF52
:104850000023042200F0FEBE704700BF9B0700202B
:1048600070B51E4DADF51E7D002403236A466C26EF
:1048700066212846ADF800408DF8024004F04CFC5B
:104880003246214603A8FBF7CBFC334603AA4FF47C
:1048900000766721284604F03FFC324621461EA8D8
:1048A000FBF7BEFC33461EAAC821284604F034FCA0
:1048B00001AA032368212846ADF804408DF806407C
:1048C00004F02AFC064B029302AA04234FF4A2210F
:1048D000284604F021FC0DF51E7D70BD506B0020B4
:1048E000030D070007B5014601AB6A46044804F012
:1048F000A1FCB0FA80F0400903B05DF804FB00BFF2
:10490000506B0020184A194B126813B5196802F150
:104910001C0052F8044B41F8044B8242F9D119684B
:10492000134B0B604FF440534B60124B8B600A22C9
:1049300040F26C730024C1E903234C610E4804F07B
:10494000FFFA04230DEB03024FF4A2210A4804F0FE
:104950002DFC20B900F0FCF9012002B010BDFFF7DA
:104960007FFF2046F9E700BF8402002020020020DC
:10497000004007009C070020506B002070B50646E1
:10498000ADF5007DC8200D461446FFF7ABFF18B902
:1049900000200DF5007D70BD4FF400736A46C821FC
:1049A000074804F003FC0028F2D10DEB060302E0F7
:1049B0001A5C2A540130A042FAD10120E9E700BF75
:1049C000506B002070B5ADF5007D04460D461646CF
:1049D0004FF400736A46C8210C4804F0E7FB90B915
:1049E000324629460DEB0400FCF7DAFD4FF4007364
:1049F0006A46C821054804F08FFBB0FA80F04009F0
:104A00000DF5007D70BD0020FAE700BF506B00205F
:104A100073B5032306460D461446662101AA0B48CA
:104A200004F0C4FB80B9032301AA662107488DF86E
:104A300004608DF805508DF8064004F06DFBB0FA67
:104A400080F0400902B070BD0020FBE7506B0020F1
:104A500073B5064666200D461446FFF743FF10B9AE
:104A6000002002B070BD032301AA6621074804F0AC
:104A70009DFB0028F4D19DF8043033709DF805307B
:104A80002B709DF8063023700120EAE7506B002060
:104A90002DE9F0439DB0044688461646994601AA82
:104AA0006C2367211D489DF89070259D04F07EFBC6
:104AB00090BB8DF804408DF828608DF84C700DF196
:104AC00005030246C1B28C4286BF18F800C083F8C5
:104AD00000C01A708E4286BF19F800C083F824C047
:104AE00083F824208F4284BF295C83F8481000F1AA
:104AF000010098BF83F84820232803F10103E1D186
:104B00006C2301AA6721054804F006FBB0FA80F087
:104B100040091DB0BDE8F0830020FAE7506B00208B
:104B20002DE9F04304469DB067200D4616461F460A
:104B3000DDE92489FFF7D6FE00283AD06C2301AACC
:104B400067211D4804F032FB002832D19DF8043063
:104B500023709DF8283033709DF84C3088F8003071
:104B600002462178C3B2994285BF01A909182A5487
:104B7000497888BF29543178994285BF01A909181D
:104B80003A5491F8251088BF395498F8001099428A
:104B900085BF01AB1B1809F8002093F8493088BF86
:104BA00009F8003001302328DBD101201DB0BDE819
:104BB000F0830020FAE700BF506B002013B50323F9
:104BC000044601AA6821094804F0F0FA60B90323F9
:104BD00001AA682105488DF8044004F09DFAB0FA56
:104BE00080F0400902B010BD0020FBE7506B0020B0
:104BF00013B504466820FFF775FE10B9002002B017
:104C000010BD032301AA6821044804F0CFFA00284C
:104C1000F4D19DF8043023700120F0E7506B0020A0
:104C200037B5032305460C4601AA68210A4804F05B
:104C3000BDFA70B9032301AA682107488DF8055011
:104C40008DF8064004F068FAB0FA80F0400903B02D
:104C500030BD0020FBE700BF506B002037B5054694
:104C600068200C46FFF73EFE10B9002003B030BDAF
:104C7000032301AA6821064804F098FA0028F4D119
:104C80009DF805302B709DF8063023700120EDE76C
:104C9000506B002013B5054C0091034604F1280227
:104CA0000C21204605F0F7F902B010BDEC070020FA
:104CB00038B50B4C134605460A460146204605F01A
:104CC00025FA022808D048B995F83030E21804EBEC
:104CD000830482F858006066012038BD0020FCE79C
:104CE000EC070020014805F0E4B900BFEC07002004
:104CF0002DE9F34101F0A2FE01460646112005F020
:104D0000ADF80E4F002412254FF0FF383B1993F8F1
:104D100058306BB107EB840301AA986ACDF8048080
:104D2000314605F08EF92846019905F097F80135CE
:104D300001340C2CEAD102B0BDE8F081EC07002070
:104D400010B505F00AF90446FFF7D2FF204610BD62
:104D5000014B186A704700BFF4540200014B93F8EE
:104D600022007047F45402002DE9F0471F4600234B
:104D7000137053709370D3700B78A6B00E4615461F
:104D8000032B4ED8DFE813F004004F009000D7004B
:104D9000DFF8DC9199F80030032B42D1714EDFF837
:104DA000D4813368D8F80020D3F800A054685B6839
:104DB00024221C4400210AA8FBF732FAA4B26A2379
:104DC000002169488DF82830CDE90BA404F0AFFF2D
:104DD0000AA800F04BF9044608BBDE2116A800F033
:104DE000CBF8E0B19DF85C30CBB1604804F07EF9BF
:104DF000D8F8003032685B68526889F80040134484
:104E0000C3F30723AB70D8F8003032685B68526890
:104E10001344EB7004343C7026B0BDE8F0870123E6
:104E20002B700024F6E7524B1A78012A01D902238D
:104E3000F6E701221A704B4B4C78196896F80380FC
:104E40000B68B2784968984408EB0228494A12680E
:104E50005268402C0A4428BF4024511E04EB08002D
:104E60001944884205D39C18A4EB0804FF23E4B23C
:104E70002B706C70B378AB70F378EB702422002148
:104E80000AA8FBF7CDF904356B230AA88DF8283062
:104E9000CDE90B840D9500F0E9F80028BAD1DE21A8
:104EA00016A800F069F8B5E7314B1A7812F0FD0F3B
:104EB000BDD191F801800222B8F1400F1A70AED82E
:104EC000B278F478274B04EB02242A4A1968126856
:104ED0000B68526849680A441C44511E08EB0400E0
:104EE0001944884205D313441B1B5FFA83F8FF2340
:104EF0002B700DF158094246311D4846FCF750FB16
:104F00002422002101A8FBF78BF96C2301A88DF85E
:104F10000430CDE90248CDF8109000F0A7F818B998
:104F2000DE210AA800F028F885F80180B378AB707C
:104F3000F378EB7075E70E4E3378032B3FF471AFC7
:104F40002422002116A8FBF76BF96D2316A88DF813
:104F5000583000F08BF8044600287FF460AF03233C
:104F6000337057E72002002000200540506B0020DE
:104F700024020020840200202DE9F84389460746D8
:104F800000F024FD054600F01BFDEE680446642594
:104F9000304601F09BFB8046B8F1000F10D10A208B
:104FA00001F054FE681E10F0FF05F1D124B32B462A
:104FB00001220221204602F08FF82846BDE8F8833E
:104FC00000231A463946304601F0E8FA88B13B78AA
:104FD0004B4508D12CB1002301220221204602F0CA
:104FE0007BF80120EAE700231A463946304601F0F3
:104FF00023FA08F1FF38CFE72046DFE710B596B077
:1050000000F0E4FC04462422002101A8FBF708F983
:10501000582301A94FF4FA72A0688DF8043004F007
:1050200079FFD6210AA8FFF7A7FF08B19DF82C0049
:1050300016B010BD10B596B000F0C8FC044624228E
:10504000002101A8FBF7ECF8562301A94FF4FA72EE
:10505000A0688DF8043004F05DFFD5210AA8FFF7A1
:105060008BFF08B19DF82C0016B010BD10B504469A
:1050700000F0ACFC214600228068BDE8104004F03E
:1050800049BF70B596B005460C4600F09FFC064639
:105090002422002101A8FBF7C3F8412301A9002223
:1050A000B0688DF804308DF8085004F033FFC22149
:1050B0000AA8FFF761FF48B19DF82C30AB4205D13B
:1050C00016AB53F82B2D22609B88A38016B070BDC1
:1050D00030B597B0044600F079FC05462422002143
:1050E00001A8FBF79DF8732301A90022A8688DF899
:1050F000043004F00FFFE0210AA8FFF73DFF78B16C
:105100000BAA234611AD144603CCAC42186059607B
:10511000224603F10803F6D12068186022791A713B
:1051200017B030BD13B5044600F04AFC30B100237F
:105130000122009302FA04F102F022F802B010BD3D
:1051400007207047024B4FF0FF329A66704700BF4E
:1051500000200E4038B501211E481F4C05F012F901
:1051600001211E4805F00EF901214FF4AA4005F077
:1051700009F9002108460123042206F015FA01234B
:105180001A461946002006F00FFA012304220521D1
:10519000002006F009FA1249204606F04DFB0025D2
:1051A0000323A5676367E36C0E4843F00403E364DD
:1051B0000D4B802283F80C234FF480521A600B4B66
:1051C0001D6006F077FB2846094A0A49BDE83840C9
:1051D00006F09ABB00350A000000014000320400CE
:1051E0004C0200203802002000E100E0880A002084
:1051F000280200203C020020084BD3F89400084B02
:10520000C01A084B1B68834205D0A0EB030003D3F0
:1052100000F5007070470020704700BF00200E406E
:1052200088080020880A002038B50B4B0B4C04225C
:105230009A6405F0A9FC0546FFF7DEFF2368834268
:1052400005D8074B1B6813B19847002323602846F5
:10525000BDE8384005F09CBC0000014080080020FB
:1052600084080020134AF8B50446FFF7C5FF8842BA
:105270000AD3114B114F1A6866180020B4420DD1A1
:1052800000B11A600846F8BDBFF34F8F136923F0D1
:105290000403136130BFBFF36F8FE6E7551CB5F50C
:1052A000007FBA5C04F8012B4FF0010014BF2A46BE
:1052B0000022E3E700ED00E0880A002088080020D3
:1052C0000146014806F0F0BA0000014038B5044636
:1052D0004518AC4200D138BD14F8010BFFF7F0FFC0
:1052E000F7E70121FFF7BEBFF8B50C46064605F00B
:1052F0004BFC0A4B0A4D1C600746FFF77DFF50B17F
:10530000B04208D83CB1A04700232B603846BDE826
:10531000F84005F03DBC2E60F8E700BF840800208F
:105320008008002070B51E46052333700025082331
:10533000137055701446FFF703FF072825D1FFF7B8
:105340005DFE18B9637843F004036370FFF772FEE3
:10535000C30642BF637843F00803637023461D22EF
:1053600003F8022F002504F11F0203F8015F9342A6
:10537000FBD1E01CFFF7ACFE072384F8203084F853
:10538000215033781D33337070BDFFF7D9FE0328E9
:10539000FAD16378A57043F0010363700723E370CB
:1053A0002571F1E737B514461D4620B91070012369
:1053B0002B7003B030BD0B7813700B78082B50D0D6
:1053C00008D8022B11D0042B38D0012B57D17E23C3
:1053D000637031E0202B14D0402B1DD0102B4ED108
:1053E00000F0F4FA83691B89F2E7012807D94B78AA
:1053F000254A003318BF012313700123E8E7002377
:10540000E6E70DF10500FFF7F3FB10B9FE238DF879
:1054100005309DF80530DBE7012801D800200AE0BF
:1054200048788DF80500082803D9A0F12003012B46
:10543000F4D8FFF7C3FB60700223B9E70228EDD967
:10544000487800F16303DBB2C62BE7D8897801F115
:105450006303DBB2C62BE1D849B240B2FFF7E0FBF1
:10546000E9E70DF107010DF10600FFF7F7FB9DF8E5
:10547000063063709DF80730A370032398E700237C
:1054800023700B78A4E700BF135F002038B51D46DA
:105490000B784C78232B104609D1202C28BF2024D0
:1054A000224642F2CC3100F0A5FE2C7038BD432BD1
:1054B00006D1202C28BF2024224642F2AC31F2E74C
:1054C000702B06D1012C4FF0FF0328BF012413706D
:1054D000EBE70024E9E700002DE9FF411446174AF5
:1054E0006D461F46A84602F11003106851682E460B
:1054F00003C608329A423546F7D100F067FA43698D
:105500009B7923704369DB78637043691B79A370CF
:1055100043695B79E37001232371042304F8053F99
:10552000002218F8023004F8013F0132102AF8D1A5
:1055300016233B7004B0BDE8F08100BFFC530200AD
:1055400030B58BB00C4600F041FA2422054600210C
:1055500001A8FAF765FE72238DF80430A378029350
:1055600023788DF80C3000226378A8688DF80D3010
:1055700001A904F0CFFC0BB030BD70B58AB00C4669
:1055800016460021242201A81D46FAF749FE63238E
:105590008DF8043023788DF8083001A863788DF8F1
:1055A0000930FFF763FDB0FA80F040090123307045
:1055B0002B700AB070BD000006289FBF1823584307
:1055C000034B185C88BF002000F00100704700BF4B
:1055D0001054020008B50246FFF7EEFF28B1044B55
:1055E000182101FB0232106908BD0120FCE700BF51
:1055F00010540200062870B502460E4616D818232D
:10560000114C4343E118E35C83B1FFF7D5FF70B160
:105610000C7ACD681046FFF7DDFF5EB901280DD189
:1056200001223020094BAA4044431A5170BD044660
:105630000546EFE7012E01D10028F1D001223020EC
:10564000AA404443024BF0E7105402000CA000466D
:105650000CA0004405F0A8BF012303FA01F1302398
:105660005843014B195070470CA00044012303FA22
:1056700001F130235843014B195070470CA00046EC
:1056800008B501210846FFF7B5FF00210220FFF70A
:10569000B1FF00210120FFF7ADFF01210220FFF73C
:1056A000A9FFEEE7212810B515D8202830D203280D
:1056B00006D802282CD240B1012814D0002020E0C6
:1056C000062810D004D80528F8D1002401230CE0C6
:1056D0000828FAD9F2E7462814D84428F5D24028F9
:1056E000ECD34128F1D90124002304220E2101200A
:1056F00005F05AFF0120234604220F2105F054FF34
:10570000012010BD6028D9D3612801D96428E0E7C1
:105710000024E9E770B5094E0446012504B970BDBF
:1057200094FAA4F0B0FA80F005FA00F324EA030436
:1057300056F82030002BF1D09847EFE78C0A002074
:10574000054B4FF48022C3F880211A604FF4806229
:10575000C3F880211A60704700E100E038B50446C4
:105760000D4605F018FA034B43F82450BDE83840C5
:1057700005F015BA8C0A0020074BD3F82804D3F89B
:105780001C24104020F42A5020F02A004004400C31
:10579000C3F82404FFF7BEBF00A00040074BD3F8B6
:1057A0002804D3F81C24104020F4AA4020F055000F
:1057B0000004000CC3F82404FFF7ACBF00A00040B5
:1057C0000B4A536911699B0003F03C03C1F381113B
:1057D0000B438370136903F03F0343709369D269ED
:1057E00003F0F003C2F3031213430370704700BFCA
:1057F000D0FF0FE000487047C0175302104AD2F89C
:10580000943003F00703023B032B13D8DFE803F0C7
:105810000C14020E0B4B1B68D2F80001C0F30420DD
:105820000130B3FBF0F07047074BF4E7074B1B6800
:105830005B08F1E7054BEEE74FF40043ECE700BFF0
:1058400000400E40740200206C0200207002002014
:1058500008B5FFF7D3FF054BD3F80831C3F308238E
:105860000133B0FBF3F0024B186008BD00400E405E
:1058700068020020014B1868704700BF6C020020CE
:10588000054B1860054BD3F8943003F00703022B47
:1058900001D1FFF7DDBF70476C02002000400E40D1
:1058A000044B054A9A60D3F8882042F47002C3F88A
:1058B0008820704700ED00E0000000004FF4004039
:1058C00070474FF47A707047014B1868704700BFFB
:1058D000740200200A4880470A490B4A0B4B9A423F
:1058E000BEBF51F8040B42F8040BF8E70849094A17
:1058F00000209142BCBF41F8040BFAE7FAF71EFC06
:10590000A15800007485020004000020D805002082
:10591000D805002044790020FEE700BF00B58BB019
:1059200061238DF804308DF80C10029000F04EF8D1
:10593000002201A9806804F0EDFA0BB05DF804FBC9
:1059400000B58BB05F238DF80430CDE9020100F083
:105950003DF8002201A9806804F0DCFA0BB05DF884
:1059600004FB00B58BB060238DF80430029000F08A
:105970002DF8002201A9806804F0CCFA0BB05DF884
:1059800004FB00B58BB062238DF804308DF808005D
:1059900000F01CF8002201A9806804F0BBFA0BB0EB
:1059A0005DF804FB034B1860034B1960034B1A604E
:1059B000704700BFCC0A0020D00A0020D40A002083
:1059C000014B1868704700BFCC0A0020014B1868D3
:1059D000704700BFD00A0020024B01229A61BFF33A
:1059E0004F8F704700E0014070B5064606F0C8F8DA
:1059F000154C164D20701648036813F0010303D0B0
:105A0000002104F094F9012320782B70022808D992
:105A1000B6F57A6F0ED906F0E9FB00F0E3F906F06F
:105A200093F8207801280DD906F0E0FBBDE870401E
:105A300000F0D2B9074B012502201D7006F088F84E
:105A40002570EEE770BD00BF70250020AC2D002052
:105A500000200540A825002010B50F4C237823B165
:105A6000022006F081F8002323700C4B1B781BB139
:105A700001210B4804F05BF90A4C2278012A01D974
:105A800000F0ADF9247801F08BFD01462046BDE819
:105A9000104006F07BBA00BFA8250020AC2D0020E6
:105AA000002005407025002070B5444A8AB0516836
:105AB0000546106807AB03C39068186000210846CC
:105AC00006F022F80023059301248DF810308DF89C
:105AD00011300226202305A88DF818308DF81740C4
