:1000000000000120F93100003D3200003D320000C7
:10001000C5DE00003D3200003D320000AD2C000086
:10002000AD2C0000AD2C0000AD2C0000D1960000DE
:100030003D320000287102003197000095970000C2
:10004000E57C0000253902003D3200003D32000011
:100050004D30020091390200313902004939020065
:10006000293902003D320000F52F00003D3200002A
:100070003D3200003D3200003D3200003D320000C4
:100080003D3200003D320000193000003D320000DA
:100090003D3200003D3200003D3200003D320000A4
:1000A0003D3200003D3200003D320000552F00007F
:1000B000953902002D390200556302000D960000AB
:1000C000D5390200017A0000512102003D320000C2
:1000D0003D3200003D3200003D3200003D32000064
:1000E0003D3200003D3200003D3200003D32000054
:1000F0003D3200003D320000AD2C000010B5054C33
:10010000237833B9044B13B10448AFF300800123C3
:10011000237010BD080700200000000050AA020054
:1001200008B5034B1BB103490348AFF3008008BD7A
:10013000000000000C07002050AA0200154B002B05
:1001400008BF134B9D46A3F5803A00218B460F460E
:100150001348144A121A00F063F80F4B002B00D01A
:1001600098470E4B002B00D0984700200021040038
:100170000D000D48002802D00C48AFF3008000F0BD
:100180002BF8200029000CF04BF800F011F800BF0C
:100190000000080000000120000000000000000036
:1001A0000807002038780020000000000000000050
:1001B00008B5074B044613B10021AFF30080054B8F
:1001C0001868836A03B1984720460DF0FFFC00BF12
:1001D00000000000046D020070B50D4E0D4CA41B14
:1001E000A4100025A54209D10B4E0C4C26F07EFD33
:1001F000A41BA4100025A54205D170BD56F82530DA
:1002000098470135EEE756F8253098470135F2E773
:10021000000700200007002000070020040700203E
:1002200002440346934200D1704703F8011BF9E7EB
:100230002DE9F04788B0002B149F109EDDE9121ABB
:100240001D4627F02007BBBF03F100431D460023D6
:100250002D231446B8BF1446462F0B7004D0452FEB
:1002600000D10136022300E0032307AA049206AA64
:10027000CDE902A2CDE9003622462B4600F0BCFBB8
:10028000472F804602D1119BDB0726D5462F08EB6E
:10029000060911D198F80030302B0AD10022002332
:1002A0002046294602F070F918B9C6F10106CAF8CD
:1002B0000060DAF8003099440022002320462946E5
:1002C00002F062F938B93022079B4B4505D2591C20
:1002D00007911A70F8E7CDF81C90079B159AA3EBCD
:1002E00008034046136008B0BDE8F087F7B5002961
:1002F0000446BABF49422D232B23092904F8022BB7
:10030000437020DD0DF107031F460A2691FBF6F529
:1003100006FB15113031092D03F8011C03F1FF32E2
:10032000294609DC3031023B02F8011CBB4222465F
:1003300004D3101A03B0F0BD1346E7E713F8012BFE
:1003400004F8012BF2E7302319448370021DC170B9
:10035000EFE700002DE9F04F91B00C46DDF8688022
:1003600016461F46054601F005F90368089318462E
:1003700000F0ABFA00230E93D8F800300990073351
:1003800023F0070303F1080294F818A0D4F800B092
:10039000C8F80020D3E90023C4E91223D4E9128964
:1003A00029F000430B93CDF828804FF0FF32A94B82
:1003B000DDE90A0102F01AF970BB4FF0FF32A54BDC
:1003C000DDE90A0102F0F4F830BB002200234046C8
:1003D000494602F0E3F810B12D2384F843309E4AD9
:1003E0009E4BBAF1470F8CBF90469846032323617A
:1003F0002BF0040323604FF00009009733460FAA47
:100400002146284600F0ECF9013040F090804FF092
:10041000FF3011B0BDE8F08F42464B46404649469A
:1004200002F0E4F810B18E4A8E4BDAE76368591C8B
:100430004BF480620EA90DA840D1062363600DF134
:100440003303CDE901234FF0000C63682260CDE94E
:10045000030A009342464B46CDE9051C2846FFF7A8
:10046000E7FE0AF0DF03472B804609D10D9BD81C1D
:1004700002DB6268934247DDAAF1020A5FFA8AFA58
:10048000BAF1650F0D9924D80139524604F1500094
:100490000D91FFF72BFF0E9A1318012A8146236155
:1004A00002DC2268D10701D5013323619DF8333086
:1004B000002BA2D02D2384F843309EE7BAF1670FBA
:1004C00000F07881BAF1470FB9D1002BB7D10123E1
:1004D000B4E7BAF1660F19D1002963680CDD216118
:1004E00013B92268D20702D501330B4423610D9B57
:1004F000A3654FF00009D9E713B92268D00701D5E9
:100500000233F3E70123F1E74FF0670ADDE90D322B
:10051000934205DB22682361D107E8D50133E5E783
:10052000002BD4BFC3F1020301231344DEE7236889
:100530005A0507D42369424631462846B847013058
:100540002BD164E7BAF1650F40F2DD800022002371
:10055000D4E9120102F018F8002833D00123424AEE
:1005600031462846B84701303FF451AFDDE90D234D
:100570009A4202DB2368D8070FD5DDE9082331460C
:100580002846B84701303FF442AF4FF0000804F16D
:100590001A090E9B013B434509DC23689B0700F1C8
:1005A0000481E0680F9B9842B8BF184631E70123E9
:1005B0004A4631462846B84701303FF428AF08F193
:1005C0000108E6E70D9B002B2BDC0123264A314670
:1005D0002846B84701303FF41AAF0D9B23B90E9B54
:1005E00013B92368D907D8D5DDE908233146284651
:1005F000B84701303FF40BAF4FF0000904F11A0A7D
:100600000D9B5B424B4501DC0E9B94E70123524658
:1006100031462846B84701303FF4F9AE09F10109E7
:10062000EEE70E9AA36D9A42A8BF1A46002A914699
:1006300007DD1346314642462846B84701303FF4AD
:10064000E6AE04F11A034FF0000B29EAE9790A93A8
:1006500016E000BFFFFFEF7F0C6D0200086D020087
:10066000146D0200106D0200B870020001230A9A96
:1006700031462846B84701303FF4C9AE0BF1010BB3
:10068000D4F858A0AAEB09035B45EFDCDDE90D23A4
:100690009A42D04415DB2368DA0712D40E9B0D99D9
:1006A000A3EB0A02A3EB010A9245A8BF9246BAF156
:1006B000000F0EDC4FF000082AEAEA7A04F11A096A
:1006C00019E0DDE9082331462846B8470130E5D175
:1006D0009DE65346424631462846B8470130E9D1A7
:1006E00095E601234A4631462846B84701303FF493
:1006F0008EAE08F10108DDE90D239B1AA3EB0A0376
:100700004345EEDC49E70E9A012A01DCDB073AD5C6
:100710000123424631462846B84701303FF477AEC0
:10072000DDE9082331462846B847013008F10108C1
:100730003FF46DAE0E9B002203F1FF3AD4E91201A3
:10074000002301F021FFC8B95346424631462846EE
:10075000B84701300ED15AE60123524631462846A9
:10076000B84701303FF453AE08F101080E9B013B3E
:100770004345F1DC4B4604F15002DDE64FF0000842
:1007800004F11A0AF2E70123DFE701234A46314662
:100790002846B84701303FF43AAE08F10108E36853
:1007A0000F9A9B1A4345F0DCFBE64FF0000804F17A
:1007B0001909F4E7002B3FF48AAE4FF0000CCDE9A5
:1007C000051C0DF133012260CDE9030ACDE90121B9
:1007D000009342464B462846FFF72AFD804645E6F1
:1007E0002DE9F04791461F468A680B69DDF82080A5
:1007F0009342B8BF1346C9F8003091F8432006462B
:100800000C4612B10133C9F800302368990642BF83
:10081000D9F800300233C9F80030256815F0060514
:1008200007D104F1190AE368D9F800209B1AAB42FA
:1008300028DC94F843302268003318BF0123920665
:100840002DD404F1430239463046C047013020D050
:100850002368E568D9F8002003F00603042B08BFDD
:10086000AD1AA36822690CBF25EAE57500259342FD
:10087000C4BF9B1AED184FF000091A344D451AD128
:10088000002008E00123524639463046C047013077
:1008900003D14FF0FF30BDE8F0870135C3E7E11821
:1008A0005A1C302081F84300224494F8451082F805
:1008B00043100233C5E70123224639463046C0477C
:1008C0000130E6D009F10109D8E7034613F8012BFE
:1008D000002AFBD1181A013870472DE9F74F036938
:1008E0000C69A3428046C0F28280013C01F11407EA
:1008F0004FEA840C00F1140657F8245056F82400EF
:1009000006EB0C03013507EB0C090193B0FBF5F581
:1009100095B34FF0000A3846B646D34650F8042B3C
:1009200093B205FB03A34FEA134A9BB2ABEB03035D
:10093000120CDEF800B005FB02A213FA8BF34FEAAB
:10094000124A1FFA82FBDEF80020CBEB124202EBC8
:1009500023429BB243EA024381454FEA224B4EF8C1
:10096000043BDBD256F80C3033B9019B043B9E426A
:100970001A4630D3C8F81040404601F081F80028EC
:1009800025DB013530464FF0000C57F8042BD0F82A
:1009900000E093B2ACEB0303120C13FA8EF3C2EB3C
:1009A0001E4202EB23429BB243EA0243B9454FEA9F
:1009B000224C40F8043BE8D256F8242006EB84038E
:1009C0002AB9043B9E421A460BD3C8F81040284669
:1009D00003B0BDE8F08F1268043B002ACAD1013C85
:1009E000C5E71268043B002AEFD1013CEAE700208A
:1009F000EEE70000000000002DE9F04F456A97B0D7
:100A000016461F460446DDF88C80CDE902673DB9E5
:100A1000102000F0BDFD6062C0E901550560C560B1
:100A2000636A196851B15A684A60012393408B6028
:100A3000204600F044FE636A00221A603B1EBBBFE2
:100A400023F00043039300230122ACBFC8F8003019
:100A5000C8F80020B24BDDF80C8033EA08031BD144
:100A6000229A42F20F731360029B23B9C8F313005A
:100A7000002800F04F85249B53B9AA4B21E0AA4BD4
:100A800005930833249A1360059817B0BDE8F08FDA
:100A9000A44B05930333F5E7DDE902670022002349
:100AA0003046394601F070FD824660B1229A01233A
:100AB0001360249B002B00F02A859C4B249A136022
:100AC000013B0593E0E714AB019315AB009332466D
:100AD0003B46204601F04BF8C8F30A558346002DEB
:100AE0007CD0C7F3130343F07F59B04649F4401953
:100AF000A5F2FF35CDF84CA000228D4B404649466B
:100B000001F022F980A3D3E9002301F0D5FA80A3F4
:100B1000D3E9002301F01AF9064628460F4601F0F2
:100B200061FA7DA3D3E9002301F0C6FA02460B4621
:100B30003046394601F00AF906460F4601F06CFDD1
:100B40000022824600233046394601F027FD48B195
:100B5000504601F047FA32463B4601F015FD08B910
:100B60000AF1FF3ABAF1160F59D8724901EBCA01DE
:100B7000DDE90223D1E9000101F02EFD002850D06B
:100B80000AF1FF3A00231293149B5D1BB5F1010893
:100B900049BFC5F10103002308934FF0000858BF77
:100BA0000893BAF1000F3EDB0023D044CDF834A007
:100BB0000993209B092B00F29080052BC4BF043BB6
:100BC0002093209BA3F10203CCBF00250125032B1A
:100BD00000F28F80DFE803F07D7F3171DDE914538F
:100BE0001D4405F23240202813DDC0F14000029B75
:100BF00008FA00F805F2124023FA00F048EA000073
:100C000001F0E0F901238046A1F1F879013D139349
:100C100072E7029BC0F1200003FA00F0F0E7012325
:100C2000B1E71290B0E7089BA3EB0A030893CAF15F
:100C30000003099300230D93BBE701230C93219B31
:100C4000002B59DD06939946666A002272600422E1
:100C500002F114009842716870D9204600F0FBFC44
:100C6000636A30601B680593B9F10E0F00F2EB80E8
:100C7000002D00F0E8809DED027BBAF1000F8DEDB4
:100C8000107B79DD2B4A0AF00F0302EBC30393EDCF
:100C9000007B4FEA2A16F0068DED0A7B6AD5264BBB
:100CA000DDE91001D3E9082301F030FBCDE90201B1
:100CB00006F00F060325204F51E001230C93219BE2
:100CC000534403F1010906934B46012BB8BF01239E
:100CD000BAE70023B2E70023F0E7012500232093C1
:100CE0000C954FF0FF330693994600221223219270
:100CF000AAE701230C93F4E70123069399461A46C9
:100D0000F5E700BFAFF3008061436F63A787D23F71
:100D1000B3C8608B288AC63FFB799F501344D33FEA
:100D20000000F07F216D0200186D0200B970020012
:100D30000000F83F506D0200286D02000131716023
:100D4000520085E7F10708D5DDE90A01D7E900235C
:100D500001F0B2F9CDE90A01013576100837002E0D
:100D6000F0D1DDE90A23DDE9020101F0CFFACDE996
:100D700002011AE002259EE700F0A080CAF10006F9
:100D80009F4BA04F06F00F0203EBC203D3E90023F1
:100D9000DDE9100101F090F9CDE9020136110023DF
:100DA0000225002E7FD1002BE1D1129B002B00F0F9
:100DB0008780DDE902670022934B3046394601F017
:100DC000EDFB00287CD0B9F1000F79D0069B002BF9
:100DD00035DD0AF1FF330A93394600228B4B30464A
:100DE00001F06AF9CDE90201069F0135284601F0BC
:100DF000F9F8DDE9022301F05FF90022844B00F0ED
:100E0000A5FF0546A1F15076002F5DD10022814B50
:100E1000DDE9020100F098FF2A463346CDE90201E0
:100E200001F0DAFB002840F088822A4606F10043F0
:100E3000DDE9020101F0B2FB002840F07C82DDE92F
:100E40001023CDE90223159B002BC0F25081BAF18B
:100E50000E0F00F34C816A4B03EBCA0393ED007B4A
:100E6000219B002B8DED067B80F2D880B9F1000F1D
:100E700000F3D48040F05E820022664B51EC170BE9
:100E800001F01AF9DDE9022301F09CFB4F464E46C2
:100E9000002840F03482059B059A5D1C31231370B5
:100EA0000AF1010A2FE2F20705D5D7E9002301F084
:100EB00003F9013501237610083772E7022574E73C
:100EC000CDF828A04F4691E74D4B03EBC70353E9FC
:100ED00002010C9B002B47D002460B4600204E49D6
:100EE00001F014FA2A46334600F02EFFCDE90E0138
:100EF000059DDDE9020101F08FFB064601F072F865
:100F000002460B46DDE9020100F01EFF303605F80F
:100F1000016BDDE90E23CDE9020101F03FFB002862
:100F200063D1DDE902230020374900F00DFFDDE940
:100F30000E2301F033FB002840F0B780059BEB1A2D
:100F40009F427FF77CAF0022304BDDE90E0101F0BC
:100F5000B3F80022CDE90E012C4BDDE9020101F0CE
:100F6000ABF8CDE90201C4E733462A4601F0A4F804
:100F7000059BCDE90E01DD191E46DDE9020101F0F8
:100F80004BFB074601F02EF8303702460B46DDE9F1
:100F9000020100F0D9FE06F8017BAE42CDE9020164
:100FA0004FF0000226D11C4BDDE90E0100F0CEFE11
:100FB00002460B46DDE9020101F00EFB002874D168
:100FC000DDE90E230020144900F0BEFE02460B4668
:100FD000DDE9020101F0E2FA00283FF430AF15F834
:100FE000013C302B05F1FF3202D0DDF828A04AE0A9
:100FF0001546F4E7054B01F05FF8CDE90201BCE7C7
:10100000506D0200286D02000000F03F00002440F7
:1010100000001C40000014400000E03FDDE90267D2
:10102000059DDDE906233046394601F06FF901F0F0
:10103000F3FA804600F0D6FFDDE9062301F03CF824
:1010400002460B463046394608F1300600F07CFE79
:1010500005F8016B059EAE1BB14502460B4639D122
:1010600000F074FEDDE9062306460F4601F0B4FAEF
:10107000C8B9DDE906233046394601F085FA10B1DA
:1010800018F0010F0FD15946204600F018FB00233D
:10109000229A2B700AF101031360249B002B3FF46A
:1010A000F3AC1D60F0E4CDF828A015F8012C392A26
:1010B00005F1FF3308D1059A9A4209D10A9B013301
:1010C0000A933023137013461A7801321A708CE792
:1010D0001D46EAE700229B4B00F0EEFF00220023B2
:1010E00006460F4601F050FA00289AD0CBE70C9A3A
:1010F000002A00F08B80209A012A6EDC139A002AC5
:1011000067D003F23343DDE90857089A01211A44F6
:1011100020460892984400F072FB0646002D0CDD34
:10112000B8F1000F09DD4545089A2B46A8BF434694
:10113000D21A0892ED1AA8EB0308099BEBB10C9B9D
:10114000002B67D08FB131463A46204600F0F6FBBF
:101150005A4601460646204600F05AFB59460A9078
:10116000204600F0ACFA0A9B9B46099BDA1B04D090
:101170005946204600F0E2FB83460121204600F05C
:101180003EFB0D9B0746002B00F0CB811A46014623
:10119000204600F0D3FB209B012B074640DC029B3E
:1011A000002B39D1039BC3F31303002B36D1039BD0
:1011B00023F000431B0D1B052BB1089B0133089343
:1011C00008F10108012309930D9B002B2AD101206E
:1011D00030E0149BC3F1360395E7099B09F1FF3713
:1011E000BB42BFBF099B0997FA1A0D9BBBBF9B1857
:1011F0000D93DF1B0027B9F1000FB5BF089B089DB9
:10120000A3EB09054B46B8BF00237EE7DDE908578D
:101210000C9E83E7099AABE70023D4E7029BD2E751
:10122000002309933B6907EB8303186900F099FADF
:10123000C0F12000404410F01F0047D0C0F120034F
:10124000042B3BDD089BC0F11C00034408930544BC
:101250008044089B002B05DD59461A46204600F0C5
:10126000BBFB8346B8F1000F05DD394642462046F8
:1012700000F0B2FB0746129B53B33946584600F0C4
:10128000FFFB002824DA002359460A22204600F0FA
:101290002DFA0C9B0AF1FF3A8346002B00F048819F
:1012A000002331460A22204600F020FA069B002B3C
:1012B00006464FDC209B022B4CDD11E0C9D0089A7A
:1012C0001C331A4408921D449844C2E70346F6E7CB
:1012D000B9F1000F38DC209B022B35DDCDF81890DA
:1012E000069B63B939460522204600F0FFF9014606
:1012F0000746584600F0C4FB00283FF7CCAD219BC1
:10130000059D6FEA030A4FF000093946204600F0B8
:10131000D6F9002E3FF4B7AEB9F1000F05D0B145B4
:1013200003D04946204600F0CAF93146204600F075
:10133000C6F9A8E600273E46E1E7DDF828A03E46CC
:10134000A9E500BF000024400C9BCDF81890002BAD
:1013500000F0F580002D05DD31462A46204600F0DC
:101360003BFB0646099B002B4CD07168204600F0E1
:1013700072F9326902320546920006F10C010C3016
:1013800000F05EF901222946204600F025FB059B6E
:101390000893029B03F00103B146099306463946C0
:1013A0005846FFF79AFA4946054600F13008584674
:1013B00000F066FB324602903946204600F07AFB88
:1013C000C368024603BB01460A90584600F058FB2A
:1013D0000A9A0346114620460A9300F070F90A9BC8
:1013E000A3B9209A92B9099A82B9B8F1390F29D0D4
:1013F000029B002B01DD05F13108089B5D1C83F881
:10140000008082E73046C2E70123E3E7029A002A20
:1014100004DB24D1209A12BB099A02BB002BECDD1D
:1014200059460122204600F0D7FA3946834600F09B
:1014300027FB002803DCE0D118F0010FDDD0B8F164
:10144000390FD8D1089B089A5D1C3923137015F801
:10145000013C392B05F1FF324ED0013353E0089A9D
:10146000002B02F1010506DDB8F1390FEAD008F1D1
:101470000108089BC3E7059B069A05F8018CEB1A47
:10148000934221D0594600230A22204600F02EF92B
:10149000B14583464FF000034FF00A02494620460B
:1014A00005D100F023F981460646089577E700F05C
:1014B0001DF93146814600230A22204600F016F924
:1014C0000646F2E74FF0000959460122204600F097
:1014D00083FA3946834600F0D3FA0028B7DC02D1FC
:1014E00018F0010FB3D115F8013C302B05F1FF3294
:1014F0007FF40BAF1546F6E7059B934205D1059A9D
:101500000AF1010A31231370FFE615469FE7174BD6
:10151000FFF7D7BA249B002B7FF4B1AA144BFFF737
:10152000D0BA209B012B7FF73AAE0D9B09934EE674
:10153000069B002B03DC209B022B3FF7D1AE059DC1
:1015400039465846FFF7C9F900F1300805F8018B14
:10155000059B069AEB1A9A42B4DD594600230A22EB
:10156000204600F0C3F88346EAE700BFB8700200E7
:10157000186D0200044B1B68186A044B002808BF52
:101580001846F030704700BF0400002068000020BB
:10159000024B0146186800F047BB00BF0400002062
:1015A00001F0FF01102A2BDB10F0070F08D010F814
:1015B000013B013A8B422DD010F0070F42B3F6D118
:1015C000F0B441EA012141EA014122F007047FF031
:1015D00000070023F0E80256083C85EA010586EA88
:1015E000010685FA47F5A3FA87F586FA47F6A5FAC4
:1015F00087F68EB9EED1F0BC01F0FF0102F00702D0
:1016000032B110F8013B013A83EA010313B1F8D17A
:101610000020704701387047002D06BF354603385B
:10162000073815F0010F07D1013015F4807F02BF94
:10163000013015F4C03F0130F0BC0138704700BFE5
:1016400010B5431E0A44914200D110BD11F8014B60
:1016500003F8014FF7E770B5456A04460E463DB9F9
:101660001020FFF795FF6062C0E901550560C56075
:10167000656AEB6883B1636ADB6853F82600B8B922
:10168000012101FA06F56A1D9200204600F0BEFA1B
:1016900060B1C0E901650EE021220421204600F07E
:1016A000B5FA636AE860DB68002BE4D1002070BD06
:1016B000026843F826200023C0E90333F7E770B53A
:1016C000446A06460D463CB91020FFF761FF706280
:1016D000C0E901440460C4603DB1736A6A68DB68B4
:1016E00053F82210296043F8225070BD2DE9F041D3
:1016F0000D691F4606460C4601F1140C0023DCF868
:10170000000081B202FB01710F0C000C02FB0070A3
:1017100089B2013301EB00419D424FEA10474CF87A
:10172000041BECDCD7B1A368AB4212DC6168304625
:101730000131FFF790FF2269023204F10C0180466B
:1017400092000C30FFF77CFF21463046FFF7B7FFD1
:10175000444604EB850301355F6125612046BDE801
:10176000F081020C12040346B2B90304102013F0F6
:101770007F4F04BF1B02083013F0704F04BF1B01E2
:10178000043013F0404F04BF9B000230002B06DBF7
:101790005B0003D5013070470020E8E72020704748
:1017A000036813F0070201460BD0DA0723D4980729
:1017B00049BF5B089B0801200B605CBF0B600220E7
:1017C000704798B2A8B91B0C102013F0FF0F04BF8C
:1017D0001B0A08301A0704BF1B0904309A0704BF0C
:1017E0009B080230DA0702D45B0806D001300B6098
:1017F00070471046E9E7002070472020704710B579
:101800000C460121FFF727FF01224461026110BD50
:101810002DE9F74F14460A6923699A42B8BF0B466F
:101820008846BCBFA0461C46D8F81070D4F810906B
:10183000D8F80830D8F8041007EB0906B342B8BF4F
:101840000131FFF708FF00F1140505EB860E2B466A
:101850000022734516D304F1140208F1140102EBBF
:10186000890301EB87070093009B019293420CD8F8
:10187000002E03DD5EF8043D002B5DD0066103B051
:10188000BDE8F08F43F8042BE3E7B2F800B0BBF1FA
:10189000000F23D08946AC464FF0000859F8044B9E
:1018A000DCF800A0A3B21FFA8AFA0BFB03A34FEAED
:1018B000144ADCF8004043444FEA14480BFB0A8406
:1018C00004EB1344E2469BB243EA04434F454FEA1C
:1018D00014484AF8043B2BD8CCF80480019BB3F899
:1018E00002A00432BAF1000F20D02B688946A84626
:1018F0004FF0000BB9F800C0B8F802400AFB0C44E6
:101900005C44C4469BB243EA04434CF8043B59F898
:10191000043BB8F804B01B0C0AFB03B303EB1443FD
:101920004F454FEA134B05D8C8F8043004359BE700
:10193000D446B3E7E046DDE7013E99E72DE9F843F9
:10194000154612F0030206460F4607D0013A214C15
:10195000002354F82220FFF7C9FE0746AD1035D00A
:10196000746A3CB91020FFF713FE7062C0E90144AD
:101970000460C460D6F82480D8F808404CB940F21E
:1019800071213046FFF73BFF0023C8F808000446EA
:1019900003604FF00008EB070AD53946224630466F
:1019A000FFF736FF394681463046FFF788FE4F463F
:1019B0006D100BD0206838B9224621463046FFF71B
:1019C00027FF2060C0F800800446E4E73846BDE801
:1019D000F88300BF186E02002DE9F0470C464FEA6D
:1019E000621A236949680AEB0309A3680746164689
:1019F00009F10105AB4232DB3846FFF72CFE00232C
:101A0000804600F114011A4653452BDB20692AEA6F
:101A1000EA7A04F1140316F01F0201EB8A0103EBCA
:101A2000800C25D0C2F1200E00201E688A46964008
:101A300030434AF8040B53F8040B9C4520FA0EF08F
:101A400014D8486008B109F10205013D3846C8F8CC
:101A500010502146FFF733FE4046BDE8F0870131C4
:101A60005B00C7E741F823200133CDE75146DCE7AF
:101A7000043953F8042B41F8042F9C45F9D8E4E7C6
:101A800003690A699B1A30B50CD1920014301431E5
:101A90008418114454F8045D51F8042D954203D084
:101AA00005D30123184630BDA042F3D3FAE74FF027
:101AB000FF33F7E72DE9F0470D4607461146284664
:101AC0001446FFF7DDFF061E08D131463846FFF702
:101AD000C2FD0123C0E90436BDE8F087A4BF234658
:101AE0002C4638466168A6BF1D4600260126FFF732
:101AF000B2FD2B69C660266905F1140904F11402D0
:101B000002EB860709EB830800F114054FF0000E85
:101B100052F804AB59F8044B1EFA8AF1A3B2C91A61
:101B2000230CC3EB1A4303EB214389B24FEA234E44
:101B3000C84541EA0343944645F8043BE8D8BC4510
:101B400004D355F8043D83B10661C5E75CF8041B76
:101B50001EFA81F31A1402EB11429BB243EA0243CC
:101B60004FEA224E45F8043BE9E7013EE9E72DE95B
:101B7000F743012199469046DDE90A65FFF76BFDC1
:101B8000C9F30A540746C9F3130334BBB8F1000282
:101B9000019327D002A840F8082DFFF701FE009915
:101BA000F0B1019AC0F1200302FA03F30B43C240E3
:101BB0007B610192019BBB61002B14BF02210121BB
:101BC0003961C4B1A4F2334404443460C0F1350037
:101BD0002860384603B0BDE8F08343F48013D5E7AE
:101BE0007961E7E701A8FFF7DBFD019B7B6101213C
:101BF00039612030E5E707EB8103A0F23240306025
:101C00001869FFF7AEFDC0EB4110E1E738B502FB04
:101C100001F4214600F008F8054618B122460021DB
:101C2000FEF7FEFA284638BD70B5CD1C25F0030539
:101C300008350C2D38BF0C25002D064601DBA942C6
:101C400003D90C233360002070BD00F069F8214AED
:101C50001468214691B9204C23681BB9304600F026
:101C60003DF820602946304600F038F8431C24D166
:101C70000C233360304600F054F8E4E70B685B1B3C
:101C800018D40B2B0FD90B60CD50CC18304600F078
:101C900048F804F10B00231D20F00700C31AD3D02D
:101CA0005A42E250D0E78C424B6816BF6360136023
:101CB0000C46EBE70C464968CCE7C41C24F003044F
:101CC000A04205D0211A304600F008F80130CFD0EC
:101CD0002560DBE7240700202807002038B5064CE4
:101CE00000230546084623600BF072FF431C02D117
:101CF000236803B12B6038BDA45E002082B001B917
:101D000001A942B14BB113780B601278101C18BFB7
:101D1000012002B070471046FBE76FF00100F8E7C2
:101D20007047704749B1FF2A85BF8A2303600A7054
:101D30004FF0FF3098BF0120704708467047000001
:101D400081F0004102E000BF83F0004330B54FEA6C
:101D500041044FEA430594EA050F08BF90EA020FD9
:101D60001FBF54EA000C55EA020C7FEA645C7FEA6C
:101D7000655C00F0E2804FEA5454D4EB5555B8BF8F
:101D80006D420CDD2C4480EA020281EA030382EA00
:101D9000000083EA010180EA020281EA0303362D92
:101DA00088BF30BD11F0004F4FEA01314FF4801C65
:101DB0004CEA113102D0404261EB410113F0004F77
:101DC0004FEA03334CEA133302D0524263EB43032E
:101DD00094EA050F00F0A780A4F10104D5F1200ECC
:101DE0000DDB02FA0EFC22FA05F2801841F1000127
:101DF00003FA0EF2801843FA05F359410EE0A5F1FB
:101E000020050EF1200E012A03FA0EFC28BF4CF02B
:101E1000020C43FA05F3C01851EBE37101F00045E1
:101E200007D54FF0000EDCF1000C7EEB00006EEBEE
:101E30000101B1F5801F1BD3B1F5001F0CD3490878
:101E40005FEA30004FEA3C0C04F101044FEA4452CF
:101E500012F5800F80F09A80BCF1004F08BF5FEA56
:101E6000500C50F1000041EB045141EA050130BD36
:101E70005FEA4C0C404141EB010111F4801FA4F1D9
:101E80000104E9D191F0000F04BF01460020B1FA2E
:101E900081F308BF2033A3F10B03B3F120020CDA66
:101EA0000C3208DD02F1140CC2F10C0201FA0CF044
:101EB00021FA02F10CE002F11402D8BFC2F1200CA9
:101EC00001FA02F120FA0CFCDCBF41EA0C0190405F
:101ED000E41AA2BF01EB0451294330BD6FEA0404A8
:101EE0001F3C1CDA0C340EDC04F11404C4F1200293
:101EF00020FA04F001FA02F340EA030021FA04F3A5
:101F000045EA030130BDC4F10C04C4F1200220FAFB
:101F100002F001FA04F340EA0300294630BD21FA39
:101F200004F0294630BD94F0000F83F4801306BFFF
:101F300081F480110134013D4EE77FEA645C18BFF3
:101F40007FEA655C29D094EA050F08BF90EA020F8A
:101F500005D054EA000C04BF1946104630BD91EA82
:101F6000030F1EBF0021002030BD5FEA545C05D185
:101F70004000494128BF41F0004130BD14F58004C4
:101F80003CBF01F5801130BD01F0004545F0FE4138
:101F900041F470014FF0000030BD7FEA645C1ABF6D
:101FA000194610467FEA655C1CBF0B46024650EAA4
:101FB000013406BF52EA033591EA030F41F40021D0
:101FC00030BD00BF90F0000F04BF0021704730B556
:101FD0004FF4806404F132044FF000054FF000012B
:101FE00050E700BF90F0000F04BF0021704730B5EC
:101FF0004FF4806404F1320410F0004548BF4042C1
:102000004FF000013EE700BF42004FEAE2014FEA15
:1020100031014FEA02701FBF12F07F4393F07F4FF0
:1020200081F06051704732F07F4208BF704793F0F3
:102030007F4F04BF41F40021704730B54FF4607406
:1020400001F0004521F000411CE700BF50EA010209
:1020500008BF704730B54FF000050AE050EA0102B2
:1020600008BF704730B511F0004502D5404261EB22
:1020700041014FF4806404F132045FEA915C3FF463
:10208000D8AE4FF003025FEADC0C18BF03325FEA00
:10209000DC0C18BF033202EBDC02C2F1200300FAB1
:1020A00003FC20FA02F001FA03FE40EA0E0021FAD6
:1020B00002F11444BDE600BF70B54FF0FF0C4CF4C4
:1020C000E06C1CEA11541DBF1CEA135594EA0C0F76
:1020D00095EA0C0F00F0DEF82C4481EA030621EAB1
:1020E0004C5123EA4C5350EA013518BF52EA0335EC
:1020F00041F4801143F4801338D0A0FB02CE4FF09E
:102100000005E1FB02E506F00042E0FB03E54FF0CD
:102110000006E1FB03569CF0000F18BF4EF0010EC5
:10212000A4F1FF04B6F5007F64F5407404D25FEAC1
:102130004E0E6D4146EB060642EAC62141EA555174
:102140004FEAC52040EA5E504FEACE2EB4F1FD0CB6
:1021500088BFBCF5E06F1ED8BEF1004F08BF5FEA34
:10216000500E50F1000041EB045170BD06F00046E6
:1021700046EA010140EA020081EA0301B4EB5C0493
:10218000C2BFD4EB0C0541EA045170BD41F480118B
:102190004FF0000E013C00F3AB8014F1360FDEBFB0
:1021A000002001F0004170BDC4F10004203C35DA8C
:1021B0000C341BDC04F11404C4F1200500FA05F30F
:1021C00020FA04F001FA05F240EA020001F00042B0
:1021D00021F0004110EBD37021FA04F642EB060126
:1021E0005EEA430E08BF20EAD37070BDC4F10C0450
:1021F000C4F1200500FA04F320FA05F001FA04F214
:1022000040EA020001F0004110EBD37041F10001FF
:102210005EEA430E08BF20EAD37070BDC4F120050A
:1022200000FA05F24EEA020E20FA04F301FA05F272
:1022300043EA020321FA04F001F0004121FA04F21A
:1022400020EA020000EBD3705EEA430E08BF20EAEA
:10225000D37070BD94F0000F0FD101F00046400024
:1022600041EB010111F4801F08BF013CF7D041EAA6
:10227000060195F0000F18BF704703F000465200AA
:1022800043EB030313F4801F08BF013DF7D043EA7B
:102290000603704794EA0C0F0CEA135518BF95EA31
:1022A0000C0F0CD050EA410618BF52EA4306D1D1B8
:1022B00081EA030101F000414FF0000070BD50EAD7
:1022C000410606BF1046194652EA430619D094EA61
:1022D0000C0F02D150EA013613D195EA0C0F05D14B
:1022E00052EA03361CBF104619460AD181EA03019F
:1022F00001F0004141F0FE4141F470014FF0000057
:1023000070BD41F0FE4141F4780170BD70B54FF0F1
:10231000FF0C4CF4E06C1CEA11541DBF1CEA135571
:1023200094EA0C0F95EA0C0F00F0A7F8A4EB050453
:1023300081EA030E52EA03354FEA013100F088804A
:102340004FEA03334FF0805545EA131343EA126313
:102350004FEA022245EA111545EA10654FEA0026C8
:102360000EF000419D4208BF964244F1FD0404F581
:10237000407402D25B084FEA3202B61A65EB0305DD
:102380005B084FEA32024FF480104FF4002CB6EB9A
:10239000020E75EB030E22BFB61A754640EA0C001A
:1023A0005B084FEA3202B6EB020E75EB030E22BF5A
:1023B000B61A754640EA5C005B084FEA3202B6EB9B
:1023C000020E75EB030E22BFB61A754640EA9C005A
:1023D0005B084FEA3202B6EB020E75EB030E22BF2A
:1023E000B61A754640EADC0055EA060E18D04FEAE8
:1023F000051545EA16754FEA06164FEAC30343EA88
:1024000052734FEAC2025FEA1C1CC0D111F4801F54
:102410000BD141EA00014FF000004FF0004CB6E74D
:1024200011F4801F04BF01430020B4F1FD0C88BFEC
:10243000BCF5E06F3FF6AFAEB5EB030C04BFB6EBF7
:10244000020C5FEA500C50F1000041EB045170BDEA
:102450000EF0004E4EEA113114EB5C04C2BFD4EB17
:102460000C0541EA045170BD41F480114FF0000E9B
:10247000013C90E645EA060E8DE60CEA135594EA17
:102480000C0F08BF95EA0C0F3FF43BAF94EA0C0F1A
:102490000AD150EA01347FF434AF95EA0C0F7FF48F
:1024A00025AF104619462CE795EA0C0F06D152EAE3
:1024B00003353FF4FDAE1046194622E750EA4106C7
:1024C00018BF52EA43067FF4C5AE50EA41047FF4D8
:1024D0000DAF52EA43057FF4EBAE12E74FF0FF3C3D
:1024E00006E000BF4FF0010C02E000BF4FF0010C0E
:1024F0004DF804CD4FEA410C7FEA6C5C4FEA430C87
:1025000018BF7FEA6C5C1BD001B050EA410C0CBFD5
:1025100052EA430C91EA030F02BF90EA020F002037
:10252000704710F1000F91EA030F58BF994208BF9E
:1025300090422CBFD8176FEAE37040F0010070475B
:102540004FEA410C7FEA6C5C02D150EA013C07D1B2
:102550004FEA430C7FEA6C5CD6D152EA033CD3D0FD
:102560005DF8040B704700BF8446104662468C46F7
:102570001946634600E000BF01B5FFF7B7FF00282A
:1025800048BF10F1000F01BD4DF808EDFFF7F4FF53
:102590000CBF012000205DF808FB00BF4DF808EDDE
:1025A000FFF7EAFF34BF012000205DF808FB00BF01
:1025B0004DF808EDFFF7E0FF94BF012000205DF823
:1025C00008FB00BF4DF808EDFFF7CEFF94BF0120D8
:1025D00000205DF808FB00BF4DF808EDFFF7C4FFD1
:1025E00034BF012000205DF808FB00BF4FEA410C1A
:1025F0007FEA6C5C02D150EA013C0AD14FEA430CFD
:102600007FEA6C5C02D152EA033C02D14FF0000039
:1026100070474FF0010070474FEA410212F5001277
:1026200015D211D56FF47873B3EB625212D94FEA19
:10263000C12343F0004343EA505311F0004F23FA03
:1026400002F018BF404270474FF00000704750EA58
:10265000013005D111F0004008BF6FF00040704715
:102660004FF00000704700BF06289FBF1823584353
:10267000034B185C88BF002000F00100704700BFCA
:10268000306F0200FFF7F0BF08B50246FFF7FAFF10
:1026900020B1034B182101FB0232107A08BD00BFA4
:1026A000306F020008B50246FFF7ECFF20B1034B84
:1026B000182101FB0232D06808BD00BF306F020054
:1026C00008B50246FFF7DEFF20B1034B182101FBDE
:1026D0000232107D08BD00BF306F02000C4A135C4F
:1026E000012B10B410D10B4B0B4C1B6854F820403D
:1026F0001B1BB3F5967F07D302231354C81CC0B22B
:102700005DF8044B02F042BB5DF8044B704700BF1C
:1027100054070020940700203807002009B102F078
:1027200035BB02F021BB000010B5184C23684021D6
:102730000A3300202360FFF7D1FF45210120FFF776
:10274000CDFF4A210220FFF7C9FF4F210320FFF7E9
:10275000C5FF54210420FFF7C1FF59210520FFF7D1
:10276000BDFF0B4A0023995C49B90133062BFAD10E
:10277000084809F06AFB084B00221A7010BD226855
:1027800047F230539A42F3D8F8E700BF940700208D
:10279000540700205C0700202C07002006289FBF5C
:1027A00018235843034B185C88BF002000F0010039
:1027B000704700BFD86F020008B50246FFF7EEFF72
:1027C00028B1044B182101FB0232106908BD012019
:1027D000FCE700BFD86F020008B50246FFF7DEFF36
:1027E00020B1034B182101FB0232506908BD00BF24
:1027F000D86F0200062870B502460E461ED8182370
:102800000F4C4343E118E35CC3B1FFF7C7FF90B13E
:102810000C7ACD681046FFF7CFFF002E0CBF0122C7
:10282000042210F1FF332946204618BF0123BDE8DA
:1028300070400AF0E5BF04460546EBE770BD00BFF7
:10284000D86F0200062870B502460E4616D8182327
:10285000114C4343E118E35C83B1FFF79FFF70B174
:102860000C7ACD681046FFF7A7FF5EB901280DD19D
:1028700001223020094BAA4044431A5170BD04463E
:102880000546EFE7012E01D10028F1D001223020CA
:10289000AA404443024BF0E7D86F02000CA0004668
:1028A0000CA0004401280BD002284FF000031A4668
:1028B00007BF4FF4617164201946184600F0AABAA8
:1028C0007047000008B50246FFF7DCFE28B1044B54
:1028D000182101FB0232507D08BD4020FCE700BFFB
:1028E000306F0200F7B50546FFF7BEFE002863D043
:1028F000324C267886B9324A3248012101F044FA36
:1029000000F05CFB304BA02283F8122383F80A23EB
:102910002E4B1E70012323702846FFF7B5FE064696
:102920002846FFF7BFFE04462846FFF7ABFE78B106
:10293000274A182303FB05231F692846FFF7C0FE1B
:1029400040B3052E26D8DFE806F0050A0F14251936
:102950000127F2E7032C1DD14FF0807014E00D2CFD
:1029600018D14FF000700FE00A2C13D14FF08050B7
:102970000AE00E2C0ED14FF4801005E0022C18D086
:10298000072C07D14FF40030012F0CBF0146002166
:102990000AF078FF012321463046CDE90033224674
:1029A0000AF0E2FE0B49E0B203B0BDE8F04000F0EF
:1029B00013BB4FF48030E7E703B0F0BD34070020CD
:1029C000292700005C07002000E100E02C07002020
:1029D000306F02007D2B000038B50446FFF744FE3F
:1029E000D8B12046FFF750FE05462046FFF75AFEB5
:1029F00002462046FFF746FE80B1094B182101FB35
:102A000004342069074B302169430B4402EBC302B5
:102A100092001368C31A5842584138BD0120F1E7AB
:102A2000306F02001CA010422DE9F04104460D4613
:102A30001646FFF745FE18B1294B2A4AC3F824244D
:102A40002046FFF7C9FF0128074626D1264B1A5D0D
:102A500098469AB9254E9DB1254D2B7803F0FF027B
:102A60002BB90A212348326009F08EF92F70012317
:102A700008F80430204B326843F82420BDE8F08188
:102A80001C4809F0FFF90028F1D10A2119483560E6
:102A900009F045F9164B1F70E9E72046FFF712FFD2
:102AA0000EB102300FE0104B1A5D002AE6D01E5521
:102AB000114A0E4B52F824201B689B1A41F28832AF
:102AC000934206D904302946C0B2BDE8F041FFF771
:102AD00025BE142BD2D9B3F5967FE2D30130F2E7AD
:102AE00000A00040000013135407002094070020AA
:102AF0002C0700205C07002038070020002201215D
:102B0000FFF792BF2DE9F041064690460C4631B1E1
:102B1000FFF7D6FD18B1144B144AC3F824243046ED
:102B2000FFF75AFF01280746114D0AD12B7833B918
:102B30003046FFF7C7FE2146FFF7F0FD2F70BDE8D6
:102B4000F0813046FFF7BEFE0646B8F1000F02D016
:102B50002146FFF7E3FD701C2146C0B2FFF7DEFD02
:102B600000232B70EBE700BF00A000400000131310
:102B70002D07002000220121FFF7C4BF0A2813D02F
:102B800008D807280ED0092814D0062815D100200F
:102B9000FFF7B4BFCD2809D0CE2809D00B280CD11F
:102BA0000320F5E70120F3E70220F1E70420EFE737
:102BB0000520EDE70620FFF7DDBF70472DE9F8435C
:102BC00001212948DFF8BC80284F294E09F038FC44
:102BD000284B00241C60E5B22846FFF745FDB8B13C
:102BE0002846FFF751FD81462846FFF75BFD014669
:102BF0002846FFF747FDA8B3182303FB04831B698E
:102C000013F1FF3318BF0123032248460AF0F8FDF1
:102C10000023E35546F824300134072CDBD1164A53
:102C20001648012111611649D1F81C24120C120416
:102C300002601C46C1F82424E0B201210134FFF7F0
:102C4000D9FD072CF8D101230422052100200AF028
:102C5000D7FD002210460123114601F01FFA002083
:102C6000BDE8F8830123CBE700350A0054070020B4
:102C7000380700209407002000300E403007002065
:102C800000A00040306F0200BFF34F8F0549064B94
:102C9000CA6802F4E0621343CB60BFF34F8F00BFFA
:102CA000FDE700BF00ED00E00400FA0508B50121D2
:102CB0000846FFF7C7FD00210220FFF7C3FD0021F2
:102CC0000120FFF7BFFD01210220FFF7BBFDEEE76A
:102CD000212810B515D8202830D2032806D802287C
:102CE0002CD240B1012814D0002020E0062810D0BA
:102CF00004D80528F8D1002401230CE00828FAD9CB
:102D0000F2E7462814D84428F5D24028ECD34128CD
:102D1000F1D90124002304220E2101200AF070FDC4
:102D20000120234604220F210AF06AFD012010BD74
:102D30006028D9D3612801D96428E0E70024E9E7B5
:102D4000F0B52C4F3C7885B00646002C4FD10121C0
:102D5000FFF750FD01212848284D08F057FE0A21B1
:102D6000274809F017FF0421264809F013FC012128
:102D7000254809F065FB0121224809F061FBEB6A57
:102D800043F00803EB62214BE02283F81B234FF052
:102D900000621A603046FFF71FFD2B6C23F0010321
:102DA0002B646B6C23F01F03184368643046FFF7F5
:102DB00003FD174B8DF80040B0FA80F04009186011
:102DC0008DF804008DF80500694628468DF801400D
:102DD0008DF802408DF803408DF806408DF80740CD
:102DE0008DF80840039400F03BF901233B7005B0D7
:102DF000F0BD00BFB107002098070020006004402C
:102E000002001E008006160030253E0000E100E0B2
:102E1000B40700202DE9F04F9A46464B93F8008006
:102E200085B08B461746B8F1000F0FD0032811D894
:102E30004148036C23F001030364002100F007F90B
:102E40003E4B3F4800221A7008F003FE404605B092
:102E5000BDE8F08FFA25084468434FF47A75B0FB5B
:102E6000F5F5002A60D0B5F5803F02D2B2F5803F7B
:102E700002D34FF00008E9E74FF001092E4C2A4633
:102E800020460021FA2600F0D9F806FB0BF64FF495
:102E90007A73B6FBF3F6AE1B32462046012100F0F2
:102EA000CDF83A462046002100F012F901221146E1
:102EB000204600F00DF91C236360224B8DF808902A
:102EC00000271B788DF804308DF805300397032315
:102ED0008DF806308DF80730236C8DF800704FF0B8
:102EE000010B43EA0B038DF801708DF802B08DF8E9
:102EF000037069462364204600F0B2F82A4639463A
:102F0000204600F09BF832465946204600F096F8DD
:102F10005946204600F09BF8084B094883F800A06A
:102F2000394608F085FD91E7B5F5803FA1D201272C
:102F30009146A3E7B107002000600440B0070020DD
:102F400098070020B4070020014B1878704700BF95
:102F5000B00700200B4808B5036A1B0710D50823EB
:102F60008362036C23F001030364002100F06FF817
:102F7000054B064800221A70BDE8084008F079BDEC
:102F800008BD00BF00600440B00700209807002083
:102F900070B5094E0446012504B970BD94FAA4F039
:102FA000B0FA80F005FA00F324EA030456F8203062
:102FB000002BF1D09847EFE7B8070020054B4FF4FE
:102FC0008022C3F880211A604FF48062C3F8802108
:102FD0001A60704700E100E038B504460D4609F07C
:102FE0000EFF034B43F82450BDE8384009F00BBFF7
:102FF000B8070020074BD3F82804D3F81C2410404E
:1030000020F42A5020F02A004004400CC3F8240485
:10301000FFF7BEBF00A00040074BD3F82804D3F849
:103020001C24104020F4AA4020F055000004000C9D
:10303000C3F82404FFF7ACBF00A0004011B1012980
:1030400003D070471030026070471430FBE7436BC9
:103050009B07FCD411B10123436070470223FBE7B7
:1030600030B50C783CB98368DB0704D5436B9D070A
:10307000FCD4022343604B788D78002B14BF4FF4AF
:1030800080520022CB6805B91BB142F4007203B133
:103090000361CB780BB142F480720B790BB142F033
:1030A00040024B790BB142F08002CB798D79097ADD
:1030B0001B0143EA85030B43134303603CB1836860
:1030C000DA0704D4436B9B07FCD40123436030BD73
:1030D00011B1012903D070471830026070471C30CD
:1030E000FBE700000B4A536911699B0003F03C03A6
:1030F000C1F381110B438370136903F03F034370E5
:103100009369D26903F0F003C2F30312134303700F
:10311000704700BFD0FF0FE000487047C017530250
:10312000104AD2F8943003F00703023B032B13D864
:10313000DFE803F00C14020E0B4B1B68D2F8000101
:10314000C0F304200130B3FBF0F07047074BF4E705
:10315000074B1B685B08F1E7054BEEE74FF40043B4
:10316000ECE700BF00400E40E0010020D801002045
:10317000DC01002008B5FFF7D3FF054BD3F8083179
:10318000C3F308230133B0FBF3F0024B186008BD12
:1031900000400E40D4010020014B1868704700BF6A
:1031A000D8010020054B1860054BD3F8943003F08C
:1031B0000703022B01D1FFF7DDBF7047D8010020C4
:1031C00000400E40044B054A9A60D3F8882042F430
:1031D0007002C3F88820704700ED00E00000000096
:1031E0004FF4004070474FF47A707047014B1868F5
:1031F000704700BFE00100200A4880470A490B4A97
:103200000B4B9A42BEBF51F8040B42F8040BF8E78F
:103210000849094A00209142BCBF41F8040BFAE773
:10322000FCF78CFFC5310000BCAA0200040000209E
:10323000080700200807002038780020FEE700BFBC
:10324000024B1870732001F08FBD00BF39080020B9
:103250008378012B02D1752001F086BD70470000F4
:1032600037B5044601212948294D08F038FB05F0FF
:1032700093FD284B28601C6000F0A6FD264A2748D5
:10328000012100F081FD214600230024244A286802
:1032900008F052FC0094234B234A0121052005F03D
:1032A00015F8224B2A68186001460323204808F0CD
:1032B000F7FC1F4801F052FD01F07AFD712001F08A
:1032C00053FD0120FFF70EFB2046FFF70BFB02200A
:1032D000FFF708FB0320FFF705FB0120FFF730FD98
:1032E0002046FFF7DFFA22462146204603F0EEF99A
:1032F0002346104A1048104C042104F0F3FE00222B
:103300000A21204604F0F6FEF9E700BF0020054040
:1033100040080020AC5E002075330000FC07002050
:10332000E4700200640800203A08002060080020D1
:1033300054080020FC7002004408002010B50C4B1B
:103340001B685C68B4B000231A466946204605F045
:103350007FF8012801D034B010BD9DF80030802BDB
:10336000F1D108F0D7FB694603F06AFDEBE700BF37
:10337000AC5E002008B57A2001F02EFD064B1B78CC
:10338000082B07D0752001F0EFFC0820BDE80840AD
:10339000FFF756BF08BD00BF3908002038B5144BF1
:1033A000144D587020221A70134B29701C7864B980
:1033B000782001F011FD2B78104AD15CFF2901D152
:1033C000D45438BDFF21D154FBE7012C09D1792019
:1033D00001F002FD2B780A4AD15C0029F0D00021CF
:1033E000F1E7022CEDD17920BDE8384001F0F4BCC2
:1033F000A85E0020AC0800205008002034080020FF
:103400005003002010B58378012B8AB00FD10AAC8D
:1034100044230021074804F8243D08F060FA064BD5
:103420001B684FF4FA722146986808F03DFC0AB018
:1034300010BD00BF00200540AC5E0020002170B52B
:103440000446084600F092FC114B1C70FFF7B6FBD7
:103450002020FFF73DFC0F4B0F4801241C7003F0A8
:10346000A7FA00F05BFC054600F05EFC064600F0A3
:1034700061FC314602464FF48273284608F0A4FEF0
:10348000064B07480222214604F0C8FB002070BD0D
:10349000AA5E002039080020D8700200E470020003
:1034A000613200000B787A2B70B405460C46164644
:1034B00041D012D85E2B32D006D8592B20D05B2BAE
:1034C00030D0002070BC7047722B25D0732B20D0D9
:1034D0006C2BF6D170BC03F031B9872B16D006D80F
:1034E000852B10D0862BECD170BC08F063BD982BD7
:1034F0001BD09F2B19D08E2BE3D170BC01F00ABEDC
:1035000070BC01F069BD70BC01F086BC70BC03F0FA
:103510000BBB70BC02F000BF70BC02F087BE70BC79
:1035200003F0EEB970BC02F00BBD324621462846CE
:1035300070BC03F055B870BC03F090BD024B1B6823
:103540009B69D878704700BFAC5E002007B502A821
:103550004FF4807320F8043D024902F0A5FD03B04A
:103560005DF804FB053400000120704710B50C46DF
:1035700030B900F0D3FB207000F0D6FB607010BDB6
:1035800000230B704B70FAE703238370C37007238B
:10359000037101207047000007B50648012301AA06
:1035A0000021006807F0C2FD9DF8040003B05DF83B
:1035B00004FB00BFB008002010B50446FFF7ECFF85
:1035C000207010BD0246034801230021006807F067
:1035D00063BD00BFB008002013B50B4C012021686B
:1035E00002F01AF9094801230370FFF7EBFF00F01E
:1035F0008FFB02AA042342F8040D4FF4A221206895
:1036000007F04AFD02B010BDB0080020F807002006
:10361000F0B5264D264F2A68D6688DB000231A468D
:103620006946304604F014FF012801D00DB0F0BD0A
:103630009DF80030C32B15D0C42B35D0C02BEDD155
:103640009DF80830002BE9D0019BBB4203D100203C
:1036500001F00AFBE2E7002BE0D003A99DF8090086
:103660009847DBE79DF8043063B92B689B69DC78E9
:103670000CB9FFF7B1FF322001F076FB204601F0D4
:1036800083F9CBE7052B03D17B2001F06DFBC5E768
:10369000062B01D17C20F8E7072B01D13220F4E77B
:1036A000082BBBD13020F0E77420EEE7AC5E0020A1
:1036B000694C000008B5054B186807F0FFFD01F0E4
:1036C00057F9BDE80840FFF787BF00BFB0080020EA
:1036D00037B5104C204600F033FB04230DEB0302FA
:1036E0004FF4A221206807F021FD054660B900F0E3
:1036F0000FFBFFF751FF084B21681870284602F0B6
:103700008BF8012003B030BD02F050FFFFF7D2FF6D
:103710000020F7E7B0080020F807002070B5044645
:1037200088B00120FFF7CEF80430A04201D0302C41
:1037300004D10720FFF784FDFFF708FFB94B1B7882
:10374000082B32D8DFE813F0330009003100800184
:10375000310031003100BD01C501742C09D1FFF7E2
:10376000A9FF002201231146104603F053FD00205B
:103770003CE0712CF5D1FFF7ABFF02F05FFA0022BD
:103780000421A94802F07CFA00220621A74802F091
:103790007FFA0021A64801F067F8A64B04201978AB
:1037A00000F066FB702001F0DFFA08B070BD732CEA
:1037B00003D10020FFF776F8F7E7742C19D1FFF753
:1037C00079FFFFF785FF0120FFF77CF80230844284
:1037D00001D0312C15D1974B1978974B1B689B69F9
:1037E0001B7863B1032000F043FB0320FFF728FDA3
:1037F000DBE77B2CE7D10320FFF722FDE3E7012085
:10380000F1E70020FFF75EF80230844214D18B4BC1
:1038100000251D708A4B01261E708A4B7A201D7070
:1038200001F0DAFA29463046FFF7B8FD752001F0BD
:103830009BFA0820FFF704FD0020FFF743F8033050
:10384000844214D17D4B01251D707D4B1D707D4B35
:1038500002227A201A7001F0BFFA00212846FFF7F1
:103860009DFD752001F080FA0820FFF7E9FC00209B
:10387000FFF728F80130844217D1704B1D78012DD5
:1038800019D102221A706E4B1D706E4B7A201D707A
:1038900001F0A2FA00212846FFF780FD752001F013
:1038A00063FA0820FFF7CCFC05E00020FFF70AF8D8
:1038B00004308442E1D00220FFF704F80230844251
:1038C00014D15E4A002313705D4A022515705D4ACB
:1038D0007A20137001F080FA01212846FFF75EFD7F
:1038E000752001F041FA0820FFF7AAFC0220FEF73C
:1038F000E9FF0330844214D1504B01261E70504B17
:1039000002251D704F4B7A201D7001F065FA31467B
:103910002846FFF743FD752001F026FA0820FFF73F
:103920008FFC0220FEF7CEFF0130844217D1434BBB
:103930001E78012E19D102251D70414B1D70414B7F
:103940007A201E7001F048FA31462846FFF726FD1E
:10395000752001F009FA0820FFF772FC05E002204B
:10396000FEF7B0FF04308442E1D00320FEF7AAFF47
:103970000230844214D1314A00231370304A0325A7
:103980001570304A7A20137001F026FA0221284679
:10399000FFF704FD752001F0E7F90820FFF750FC60
:1039A0000320FEF78FFF0330844215D1234B012201
:1039B0001A70234B03251D70224B02267A201E709D
:1039C00001F00AFA31462846FFF7E8FC752001F0BD
:1039D000CBF90820FFF734FC0320FEF773FF01301A
:1039E000844217D1154A1378012B7FF4DEAE0225ED
:1039F0001570134A03241470124A7A20137001F0D0
:103A0000EBF929462046FFF7C9FC752001F0ACF917
:103A10000820EBE60320FEF755FF043084427FF4D4
:103A2000C4AEDFE739080020EB010020F3010020DD
:103A300038030020AA5E0020AC5E00205008002061
:103A40003808002037080020732C33D10220FEF7FD
:103A500029FF0120FEF736FF0230844201D0332CCB
:103A600015D1734D0020297800F002FA297804203E
:103A700000F0FEF90020FEF715FF0020FFF7E0FB45
:103A800003F040F801226B496B4801F073F8322CC7
:103A90007FF48BAE664B0420197800F0E9F9002022
:103AA000FFF7CEFB03F02EF801226249624801F0D5
:103AB00061F87AE6742CCCD1FFF7FCFDFFF708FE25
:103AC000C7E7742C7FF471AEFFF7F4FDFFF7DCF865
:103AD0006BE6742C15D1FFF7EDFDFFF7F9FD002023
:103AE000FEF7F0FE0130844277D1544B762C1C70E7
:103AF0007FF45BAE204601F037F9504BFF221A707D
:103B000035E6752C0AD107A801F078F920B19DF8A7
:103B10001C0001F029F9E2E77620FAE77A2C2FD190
:103B2000474B1B78012B1FD1464D2B78012B0AD117
:103B3000454B46481B78002B4DF2D86108BFC82181
:103B400008F0EDF82870424B08A81A78414B4FF462
:103B5000807120F8041D40491B780091002102F07B
:103B600063FA0028BBD030E0022BECD1354D2B7826
:103B7000012BE8D0354808F053F901232B70E2E718
:103B8000782C09D1354B36491A7836488A5C324B45
:103B9000002102F0ABF9E4E7792CA0D1284B1A7888
:103BA000012A10D12D4B30491B780220CB5C00211B
:103BB000CDE903010320CDE900200291264A2948DE
:103BC00002F0E4FACDE7022A01D07520A1E7224AEB
:103BD0002448002102F018FBC3E70020FEF772FE24
:103BE0000430844281D00220FEF76CFE0130844212
:103BF0003FF47BAF0220FEF765FE043084423FF4C1
:103C000074AF0320FEF75EFE013084423FF46DAFD7
:103C10000320FEF757FE043084423FF466AF762C53
:103C20007FF4C3AD054B1C78FF2C3FF4A0AD61E7DA
:103C3000AA5E0020E40100206D6A0000530300200A
:103C40005008002019030020F8070020FC0700207E
:103C5000370800203808002051320000AC0800204E
:103C600034080020A85E00205003002013B5084C43
:103C7000206800231A460DF1070104F0E9FB012832
:103C800001D002B010BD9DF80700FFF747FDEFE738
:103C90006008002008B5044B02781A701846FFF738
:103CA00091FC012008BD00BFF8070020002840F269
:103CB000064018BF00207047012070470023038092
:103CC00006230B80704700002DE910481C46012395
:103CD00003700B70082313700C4B196C586CE07058
:103CE000002242EA010B4FEA1B63010E217023718F
:103CF000010C4FEA1B4361706371010A4FEA1B23F9
:103D0000A170A37184F807B0BDE81088B081E00FFE
:103D1000014B186A704700BF28710200014B93F8ED
:103D20002200704728710200014B93F82100704770
:103D300028710200014B93F820007047287102009F
:103D400038B5064C06490546204607F0CFF810B9AD
:103D50002C60012038BD0020FCE700BF08090020CE
:103D600054030020004870470809002013B5054C93
:103D70000091034604F128020C21204608F0A7F820
:103D800002B010BD6009002038B50B4C1346054643
:103D90000A460146204608F0E1F8022808D048B952
:103DA00095F83030E21804EB830482F8580060661E
:103DB000012038BD0020FCE760090020014808F020
:103DC00094B800BF600900200146014808F0F0B82F
:103DD000600900202DE9F047DDF824800D4691466A
:103DE0001C46074607F08EFE00F016FD064607F05B
:103DF0007DFE8246B8F1000F06D09DF828202946A6
:103E00004046FDF7CDFBC0B9DAF804301B785A07FD
:103E100006D5032E24D0042E24D1042F17D102E07E
:103E20006EB1BE4211D184B19DF8202029462046B2
:103E3000FDF7B6FB08B9202D07D1012003E0A5F15D
:103E4000200358425841BDE8F087042E0AD1722D54
:103E500008D1B9F1040F05D1B7FA87F04009F2E7AC
:103E6000032F01D00020EEE7002CDDD12046EAE749
:103E700030B58BB00C46054607F026FE65230022C0
:103E800001A980688DF804308DF808508DF809403C
:103E900007F00AFF0BB030BD05284CD8DFE800F072
:103EA000031321314B3B002945D0012945D002297C
:103EB00046D0032947D0042948D0052914BF002043
:103EC0004FF4A06070470B2943D00C2944D00D2932
:103ED00045D00E2946D00F2914BF00204FF4206092
:103EE0007047062941D0072942D0082943D0092923
:103EF00044D00A2945D00B2914BF00204FF480502C
:103F000070470D2940D00E2941D00F2914BF002041
:103F10004FF4B850704700293CD001293DD0022908
:103F20003ED003293FD0042940D0052914BF0020EA
:103F30004FF4E8507047002070474FF4807070478E
:103F40004FF4007070474FF4407070474FF480603A
:103F500070474FF4C06070474FF4E06070474FF413
:103F6000006070474FF4106070474FF43060704746
:103F70004FF4406070474FF4506070474FF46060FA
:103F800070474FF4706070474FF4A85070474FF47B
:103F9000B05070474FF4C05070474FF4C85070474E
:103FA0004FF4D05070474FF4D85070474FF4E05062
:103FB0007047052849D8DFE800F003121F2E483764
:103FC000002940D0012940D0022940D0032940D007
:103FD000042940D0052914BF0020042070470B2974
:103FE0003BD00C293BD00D293BD00E293BD00F29CB
:103FF00014BF002009207047062936D0072936D083
:10400000082936D0092936D00A2936D00B2914BF01
:1040100000200F2070470D2931D00E2931D00F29F3
:1040200014BF00201620704700292CD001292CD065
:1040300002292CD003292CD004292CD0052914BF07
:1040400000201C2070471F2070470020704701206F
:1040500070470220704703207047052070470620F4
:10406000704707207047082070470A2070470B20D0
:1040700070470C2070470D2070470E2070471420A9
:104080007047152070471720704718207047192077
:1040900070471A2070471B20704700002DE9F84F29
:1040A0001D4E1E4CDFF878B081468A46002530460A
:1040B0000121174698468BF8005008F0C1F959467F
:1040C000204609F0E5FC042251464846012309F048
:1040D00097FBA36F23F4F853A36751464846FFF7B5
:1040E000DBFEA36F1843A0672B46414638460122EA
:1040F00009F086FBA36F23F01F03A36741463846F0
:10410000FFF757FFA36F1843A06729463046BDE865
:10411000F84F08F095B900BF0032040000000140DC
:104120007003002013B50023114C8DF804300123D7
:104130008DF8063063788DF8050093B12378C3F3CA
:10414000C20304EB83035B680BB101A89847237893
:10415000C3F3C202013262F3C50323706378013BEB
:104160006370044B1B6803B1984702B010BD00BFD9
:10417000D45E0020F809002010B50E4C63788BB196
:104180002378C3F3C20304EB83035B6803B198474E
:104190002378C3F3C202013262F3C503237063784C
:1041A000013B6370044B1B6813B1BDE81040184716
:1041B00010BD00BFB05E0020F80900200A4B0B4A7A
:1041C00018600B4B1960137803F0F80300216FF3AC
:1041D000C50313705170074A1378517003F0F80348
:1041E00061F3C50313707047FC090020D45E002002
:1041F000F8090020B05E002070B5124D2B7A8B427A
:1042000006460C4618D3B9B107F07CFC00F004FB5D
:1042100030B99EB9E8681C2101FB0400183870BD54
:104220001C206FF01B0110FB0414E86820440EB939
:104230000C30F4E71430F2E70020F0E705F1180045
:10424000EDE700BF000A0020F0B5B9B0154652688E
:10425000019092788DF8031002B9AA70224C62780E
:10426000072A3ED8227802F0070204EB82020DF101
:104270000301536001A82A4601F067FF6E689DF8AC
:10428000037033788DF8C030184B04933A462B787E
:1042900001998DF814300DF11600FDF7D1F96B7806
:1042A0008DF8157043F001038DF8C230F3788DF866
:1042B000C43001238DF80C300D4B002203A918687F
:1042C0008DF8C1208DF8C32007F0EEFC38B92378B3
:1042D0005A1C62F30203237063780133637039B0B0
:1042E000F0BD0120FBE700BFD45E002025410000A7
:1042F000FC090020F0B5254CB9B015468DF8031027
:1043000061780190072902D9012039B0F0BD2178E8
:1043100001F0070104EB81014B60002AF4D00DF19C
:10432000030101A801F011FF6E689DF80370337856
:104330008DF8C030164B04933A462B7801998DF8CE
:1043400014300DF11600FDF77BF96B788DF8C23053
:10435000F3788DF8C43001238DF80C300D4B8DF8B7
:104360001570002203A918688DF8C1208DF8C320AC
:1043700007F09AFC0028C8D123785A1C62F3020384
:104380002370637801336370BFE700BFB05E002025
:1043900079410000FC09002007B513788DF8003042
:1043A000D37A8DF80130137A8DF802309DF80330FE
:1043B0006FF306038DF803300A4600230146684672
:1043C0008DF80530FFF76EF803B05DF804FB0000D0
:1043D000114B30B5114C5C600B6082782270C27852
:1043E0006178C2F3060512F07F0218BF0122A270A5
:1043F0004278E27065F3060125221A706170027836
:10440000920744BF27221A704279C2F306029A70BB
:1044100000225A7030BD00BF200A0020F40900209D
:10442000037813F00C0F14BF012000207047000028
:1044300008B50246FFF7F4FF074B38B992F905209B
:10444000002A06DB1878421E5042504100221A70A2
:1044500008BD0120FAE700BF000A0020014B1870D8
:10446000704700BF000A0020F7B5314D314C297864
:1044700081B12268304B561A724272419A700028FC
:1044800044D002781A7042785A702C4B1B680BB1DA
:104490002948984729782368994235D2284B1A68C9
:1044A00053788DF80030274B1B788DF8013029B9EF
:1044B000990744BF43F004038DF8013093788DF8D9
:1044C000023001F031FB1C4C0190037823701E4B2D
:1044D0001A7812F0070206D01C4B1A781AB190F91C
:1044E0000120D243D20F1A4F1A4E3946304600F0FF
:1044F000C1FA70B92070022363700123A3700F4BBF
:104500001B680BB10C48984703B0F0BD1870587089
:10451000BBE7114B397830686A46FFF795FE10B15A
:1045200000232370E7E72B7801332B70ECE700BF03
:10453000410A00203C0A0020420A0020F85E0020C8
:10454000380A0020450A0020400A0020290A0020DD
:10455000280A0020340A0020694400000020FFF7E8
:1045600083BF0000F0B5002585B0164E01AC2F4684
:104570003068276000F108012246043001F000FB9A
:10458000114B18709DF90530002B16DA33680F496E
:104590000F485A789B788DF808208DF80A3002AAC7
:1045A0000C4B097800688DF809500394FFF74CFE16
:1045B000003018BF012005B0F0BD0028D8D102207E
:1045C000F9E700BF380A0020300A0020280A00203E
:1045D000340A0020E14600002DE9F043BFB01D2160
:1045E00001A807F0E9FA0025354BDFF8EC901D70C3
:1045F000AA2229460DF12E0089F80050FBF710FE83
:10460000304B314E1C78314B224619680DF12E008B
:10461000FDF716F82E4B0A938DF82D408DF82C508F
:1046200001F09AFA0128306047D9DFF8B080D8F855
:1046300000309B69987810F00704474625D0254B39
:104640001B681B788DF8D930FF238DF8D83000F027
:10465000E3F8022389F8003004238DF82430D8F8D9
:1046600000308DF8DA002A4609A9186807F01CFB0B
:10467000401B18BF01203FB0BDE8F08301F054FAA1
:10468000017801A807F08CFA013433689C42F5D315
:10469000032301AC8DF824300FCC36AD0FC594E860
:1046A0000F0007C52B703B68002209A9186807F0A6
:1046B000FBFA003018BF0120DDE70220DBE700BF76
:1046C000410A0020280A00203C0A0020340A002069
:1046D0005D450000380A0020450A00202C0A002011
:1046E00070B5437804463BB101238370164B1B68B9
:1046F0004BB3BDE870401847144A157845B1837034
:10470000114B1B6803B19847BDE87040FFF72ABF03
:1047100001F022FA0E4B186030B90123A3700A4B46
:104720001B6883B12046E4E7FFF756FF012803D159
:1047300002236370A070F2E70228F0D12846BDE89A
:104740007040FFF791BE70BDF85E0020300A002077
:104750003C0A0020014B1860704700BF2C0A002063
:10476000F8B515460BB90020F8BD1A7A002AFAD020
:104770000028F8D00029F6D01B4A069C14601B4C78
:1047800023601B4B18601B4B197000F065F9002863
:10479000E9D0194B194A1D70194B1B689B699B780E
:1047A000137013F0070311D02A1C18BF01221149FE
:1047B0000F4800F05FF90028D5D02368586801F051
:1047C00099F9FFF7CFFE18B90120CDE71A46EEE7B9
:1047D0000128C8D0FFF700FF0028F5D00128C2D07B
:1047E0000020FFF741FEEFE7F85E0020380A0020C6
:1047F000340A0020280A0020290A0020400A00204C
:104800002C0A00200020FFF72FBE0000014B19608A
:10481000704700BF840A0020410709D4820709D4E9
:10482000C30709D410F0800F14BF04200020704784
:1048300003207047022070470120704738B5094DAA
:104840002C1D28B92B6893E8030084E8030038BDC9
:1048500007F058F9FFF7E0FF0028F3D02B68083382
:10486000F1E700BF780A002008B5074B1860074B36
:104870001960074B1B681878064B1870FFF7DEFFAE
:1048800000F0D0F8012008BD780A0020480A002076
:10489000840A0020FC5E0020F8B50D461646304C18
:1048A000002852D029BB07F02DF9A6B92D4B1B6863
:1048B00078B923602C4A2D492568116000231371B3
:1048C00028795E1CDBB298420BD8274B2360206806
:1048D000F8BD0833EDE731462846FFF78DFC206030
:1048E000E8E72F681079FB5C0B54013010713346F8
:1048F000E6E707F007F9FFF78FFFA84220D1CEB90E
:10490000184B1B6810332360013D022DDFD8164B76
:1049100016492068196000221A711A461379056831
:10492000ED5CEF2DD1D006799E42CED9CD54013326
:104930001371F3E731460120FFF75EFC2060E3E7E7
:10494000094B00221A601A71C0E722B90029F7D179
:10495000044B1B68BAE71146FFF74EFC2060B6E730
:10496000880A0020780A0020700A00204C0A0020E3
:10497000014B00221A707047FC5E0020014B187832
:10498000704700BFFC5E002008B5054B1870FFF7AC
:1049900055FF044B1B6803B19847012008BD00BFB9
:1049A000FC5E0020480A0020F0B5114B91F8A4608D
:1049B0001F7A1D684A7985B00C46097902975B68B1
:1049C00001932B7D009394F8B3002B69FFF702FA53
:1049D00060B104F1A8023146201DFFF7DDFC054B54
:1049E0001B681BB105B0BDE8F040184705B0F0BD2D
:1049F000780A0020480A002030B5094B85B01D7A9E
:104A000014461A6802955B680193137D009313693D
:104A10000A4601462046FFF7DDF905B030BD00BF6C
:104A2000780A0020602200210148FBF7F9BB00BF93
:104A30008C0A002010B5074C23784BB90123606025
:104A400004F10C00237001F03FFF04F1100010BDD1
:104A50000020FCE78C0A002008B5054B984204D1E1
:104A6000043801F045FF012008BD0020FCE700BF2D
:104A70009C0A00202DE9F843104C94F80080B8F10E
:104A8000010F81460E46154616D104F10C07384633
:104A900001F002FF384601F031FF30703DB1C9F836
:104AA00000703378043333702846BDE8F88310343F
:104AB000C9F800404546F7E70025F5E78C0A0020D5
:104AC000024B00225A601A70704700BF8C0A002007
:104AD000064B5B6810B5044603B19847A378012BD9
:104AE00003D1BDE81040FFF7EBBF10BD8C0A0020DA
:104AF000124B17B41B685A689C681078517901945E
:104B00001C68C1F3060110F0020F4FF000008DF891
:104B100002108DF801000CBF252127214CB102ABFA
:104B200003F8081D93E80300234603B05DF8044B27
:104B3000184703B05DF8044B704700BF1C0B002002
:104B400008B5084A08480021FFF71EF948B1074A8E
:104B50000023C2E90033C2E90433C2E90833044A3E
:104B6000136008BD214D0000005F0020EC0A00200A
:104B70001C0B0020F0B50E4687B01546074618B945
:104B80000025284607B0F0BD0029F9D008688B88B9
:104B9000029002A8ADF80C30FFF742FC014608B1C4
:104BA0000125EEE706AB019003F8150D01AA0120DF
:104BB00000F0BAFC9DF80330002BF1D0012B0ED190
:104BC000019B9DF80A101A78914208D19DF80B209C
:104BD0005B7802F07F0203F07F039A42E0D01F4C23
:104BE000EDB11F4807F04EF90546C0B10023E25869
:104BF000BA4211D1E2189DF80D10526810689288DF
:104C0000ADF814209DF8152004904A40520603D1B7
:104C1000134807F0EFF8B4E71033302BE7D12368DF
:104C20002BB12369C3B1236A002BA9D10223190137
:104C300062186750019991609DF8031011735660D6
:104C4000084A11680029ABD104EB0314FA21044887
:104C5000146007F064F8A3E70123E8E7EC0A0020FA
:104C6000005F00201C0B00202B482DE9F0412B4C4D
:104C700002680021032504F1100604F12007137BCC
:104C8000013BDBB21373DBBBA242C2E9003393608A
:104C900029D0B2422AD0BA422AD003210133B3FB31
:104CA000F5F202EB42029B1A4FEA031C04EB0C02E2
:104CB00054F80CC0BCF1000F1CD0EAB10121D2F8AD
:104CC00004E0D2F808C09EF803309EF802809CF8F9
:104CD00000E0F04503F07F0316D001B10260BDE8AB
:104CE000F041FFF705BF19460B46D7E70121FBE767
:104CF0000221F9E79942D1D100230360BDE8F08198
:104D0000936804339360DAE79CF801C00CF07F0CE1
:104D10009C45B4D0E1E700BF1C0B0020EC0A00204A
:104D20000C4B834214D10C4B1B68D3E901239078C0
:104D30001978884207D1D2785B7802F07F0203F0BD
:104D40007F039A4201D0FFF7D3BE0020FFF78CBF4C
:104D5000704700BF005F00201C0B0020014B186053
:104D6000704700BF200B002007B5074B02A90022A7
:104D700001F8010D186806F097FFB0FA80F04009BD
:104D800003B05DF804FB00BF200B002007B5074B04
:104D900002A9002201F8010D186806F0A6FFB0FA7A
:104DA00080F0400903B05DF804FB00BF200B002039
:104DB00007B500230093054A054B0121042003F0A9
:104DC00085FA044B186003B05DF804FB6C0B0020FF
:104DD000240B0020700B002007B502A9002301F866
:104DE000010D05481A46006803F080FA431E584238
:104DF000584103B05DF804FB700B002001460548E4
:104E000008B500231A46006803F022FB431E5842EF
:104E1000584108BD700B002070B50D464978013926
:104E200098B004460A2974D8DFE801F02A067333E3
:104E30003E73737373735E00FFF7FAFA064610B1A0
:104E4000022018B070BD01464D2204A8FBF7E8F916
:104E500060790DF1030304AA294600F07F0000F0F9
:104E6000B7FD01A92046FFF7B3FA3346019A9DF832
:104E7000031004A8FFF73EFA0028E1D1FF20E0E785
:104E80004079294600F07F0000F03EFD0028F5D172
:104E9000D6E7022AD4D94179A878134601F07F01D8
:104EA0002A4600F031FCF1E7FFF7C2FA0546002878
:104EB000C6D101464D2204A8FBF7B2F9204601A94C
:104EC000FFF786FA607940F2856300F07F00ADF865
:104ED000103000F06DFB8DF812002B46019A032173
:104EE00004A8FFF707FAC9E7FFF7A2FA054600286A
:104EF000A6D14D22014604A8FBF792F901A920464C
:104F0000FFF766FA40F68543ADF8103000F046FF33
:104F1000E1E7002095E7000000B599B04D2200219F
:104F200004A8FBF77DF901A91248FFF751FA40F2F6
:104F30005943ADF81030104B1B78022B14BF0123DE
:104F400081238DF812300B4B59790C4B0DF1130264
:104F5000187801F07F0100F0A5FF094B019A0A21A2
:104F600004A8FFF7C7F9B0FA80F0400919B05DF85E
:104F700004FB00BFAF0B0020AE0B0020AD0B0020E8
:104F8000894F0000FFF7C8BF38B50E4C2278022ABF
:104F900014D10D4B1D786A1C1A700C4B187800F058
:104FA000BFFE85420AD20021094A0A48FEF7ECFEFC
:104FB0000A210848BDE8384006F0B1BE002323703E
:104FC00038BD00BFAE0B0020AD0B0020AC0B0020A5
:104FD000854F0000740B0020F0B599B005460E46D1
:104FE0001746FFF725FA044668B97378032B2CD0CF
:104FF000052B4FD0012B26D101464D2204A8FBF7EB
:105000000FF9032F01D002201DE06A79B1788DF8E5
:10501000031040F2592302F07F0205A8ADF81030CA
:105020008DF8121000F040FE01A906468DF813001D
:105030002846FFF7CDF9311D2346019AC9B204A8CD
:10504000FFF758F9FF2019B0F0BD2E4C2378002B44
:10505000D9D1B2786B792C4912F0400F4FF0010092
:105060002A4A0CBF20700226C3F3060318BF26701D
:105070001370237808BFF0780870002BC3D0244B3E
:105080002A681A60AA889A80FFF746FF0028D9D1BB
:105090002070B8E74D22014604A8FBF7C1F818A913
:1050A0006879F37801F85D3D00F07F0000F0EAFEDA
:1050B00069799DF8030001F07F0100F05BFE064670
:1050C0000028A0D001A92846FFF782F96A799DF847
:1050D00003108DF8121040F2596302F07F0205A808
:1050E000ADF810308DF8136000F026FE00288AD04D
:1050F000311D2346019AC9B204A8FFF7FBF8002826
:1051000081D19FE7AE0B0020AD0B0020AC0B00203F
:10511000AF0B002070B50D464978013998B00446B0
:1051200004295CD8DFE801F024035B2E3E00FFF782
:105130007FF9064610B1022018B070BD01464D221D
:1051400004A8FBF76DF860790DF1030304AA294662
:1051500000F07F0000F03CFC01A92046FFF738F981
:10516000019A9DF80310334604A8FFF7C3F807E03F
:105170004079294600F07F0000F0C6FB0128DAD113
:10518000FF20D9E7022A08BF0023417908BFAB708E
:1051900001F07F011346A8782A4600F0B5FA0028EE
:1051A000C9D0EDE7FFF744F905460028C3D14D22E9
:1051B000014604A8FBF734F801A92046FFF708F9D7
:1051C000607940F28E6300F07F00ADF8103000F09F
:1051D000EFF92B468DF81200019A0321C4E7002055
:1051E000AAE70000431CDBB2F0B5013B01EB8104F0
:1051F00002F1010EC4EBC40703EB830CC2EB827413
:105200005FFA8EFE0CEB040574443D443C448C274D
:10521000134E644411FB07F74FF0140C75440CFB5C
:10522000037306EB850506EB84043344D7B2042FE1
:1052300009D1232300EB800003FB01013944FF2344
:1052400006F82130F0BD15F822E0BEF1FF0F4FEA5D
:10525000820CEED054F80C7043F822700132E5E76E
:10526000B50B00202DE9F04F87B0551E93F8048050
:1052700002921C46232205EB850312FB01330E46E6
:105280005449009301EB830312330393142303FB6C
:1052900005F28C2313FB0623CB18B8F1000F019302
:1052A000EBB2834608BF4FF001084FF000090493AA
:1052B0005FFA89F3984513D8BBF1850F0DD0277B92
:1052C000DFF81091002F08BF01274FF000084FF0C2
:1052D000FF0A5FFA88F39F4229D807B0BDE8F08F34
:1052E000DDF80CA00427FF231AF8021CFF29FAB2EC
:1052F00015D09AF80000012811D0207908B9207B38
:1053000020B1206810F80900884208D1019904985A
:1053100001F8273031460593FFF764FF059B013FF5
:105320007A1CAAF1040ADFD109F10109C0E705EBF3
:10533000850123224FEA4800042302FB0611DAB25A
:105340000392009A02EB030C4FEA8C0E19F82CC062
:10535000BCF1FF0F39D0CE449EF802E0BEF1010F40
:1053600033D194F804E0BEF1000F04D194F80CE0BE
:10537000BEF1000F17D0D4F808E00EEB000B1EF8BA
:1053800000E0E64521D101EB030C09EB8C0C9BF806
:1053900001E09CF801C08CEA0E0C1CF07F0F14D1C8
:1053A0001CF0800F11D1019A02F823A094F80CC0D0
:1053B000BCF1000F09D0029B039A581E3146C0B2BF
:1053C000FFF710FF08F1010883E713F1FF33B6D2AE
:1053D000F8E700BFB50B002003310160032A4FF04E
:1053E0000001F0B501718160017301D80160F0BD69
:1053F000033AD2B20226012704686518645C9CB99E
:105400006C78002CF3D04C1C141B94FBF6F4E4B223
:10541000047324B103B11F70013585601146013159
:10542000C9B28A42E8D8E2E74C1C0471F7E70000F1
:10543000F0B502785AB90E78012E08D00F4D2B68BE
:10544000D3B10F4C247804EB4404944201D10020E2
:105450000FE013F802E0B64503EB020C02F103077C
:1054600008D19CF801300370286802440120937829
:105470000B70F0BD3A46E8E71846FAE7500C0020FA
:105480004C0C00202DE9F04F244E9DB001AD0021C1
:105490002A464FF0140EB0460EFB01640020C1EB0B
:1054A000011C01EB810700EB400394F8009005F824
:1054B00003900DF1700963444B4407EB000908EBBE
:1054C0008909013099F801A013F86B9CCAF3060B07
:1054D0006BF306094FEADA1A6AF3C71903F86B9CF3
:1054E00094F802A013F86A9C6AF3451994F803A093
:1054F00005286AF3030903F86A9C04F10404D2D175
:105500000131072905F10F05C6D105480549006895
:10551000692305F0C1FD1DB0BDE8F08FB50B00207B
:10552000385F00200110050073B501298DF80700D0
:1055300015461C468DF80610084633D8A2B39BB317
:105540009DF8076016B9072002B070BD00F0E8FBB7
:105550008642F8D80DF107010DF10600FFF768FF4C
:105560009DF807109DF806308C2213FB02F30139D9
:10557000142202FB01310D4B1944052329602370CD
:105580002B68002213F82200FF28D1B206D1217027
:105590002378002B0CBF02200020D5E70132052A1A
:1055A000F0D1F5E70620CFE70320CDE7B50B0020CB
:1055B00000F0B6BB2DE9F04F85B091468DF807009D
:1055C0008DF806100DF106000DF107010093FFF7AD
:1055D0002FFF9DF807309DF80620012B3CD1002AB3
:1055E00014BF00240524013B03EB83034FF0230881
:1055F00018FB0233621E434E53FA82F316F823302F
:10560000FF2B7CD1023C6FF00041B2469DF8075061
:105610009DF80670013DA8004319002C18FB0732C5
:1056200001DB00291ADC0134E4B22244B9F800306D
:1056300026F822300544232303FB07573C4406EB9E
:105640008406009BB37006F05DFAFFF7E5F8F07092
:10565000012005B0BDE8F08F0524C4E722440AEB21
:1056600082001AF822C0BCF1FF0F46D099F8011051
:105670009DF80D2099F800E08DF80CE0C1F3060BC1
:105680006BF30602C90961F3C712E6458DF80D20D8
:105690000DD208FB073323440AEB83035B785B06D8
:1056A00005D0D3B2590612D14FF0FF3116E0E645CE
:1056B0000DD99DF80D305A0609D005EB850308FB7E
:1056C0000733234406EB83035B785B0608D003A90A
:1056D000022221F089FA011E03DC0ED001340CE015
:1056E000012105EB850508FB0757631C57FA83F377
:1056F000274456F8272046F82320013C86E700205F
:10570000A7E700BFB50B00202DE9F04186B00129C5
:105710008DF8070015461C468DF80610084603D97B
:10572000002006B0BDE8F0819DF80730012B01D1C3
:105730000029F5D100F0F4FA9DF80760002E49D059
:105740008642EDD80DF107010DF10600FFF770FE5E
:10575000032C2ED0042C2ED1EB7863BB2D4E2327A7
:105760004FF0FF082B789DF807009DF806100138D0
:10577000852BE2B24FEA80030BD103EB000C17FB41
:1057800001CCA44406EB8C0C9CF802C0BCF1010FC8
:1057900008D0034407FB01332344C0B206F823803A
:1057A000FFF720FD14F1FF34DCD2FFF76BFE012080
:1057B000B7E70424D2E72246294602A80023FFF7D0
:1057C0000BFE02AB9DF807209DF806102878FFF726
:1057D00049FDEAE733462246294602A8FFF7FCFDC9
:1057E0008DF806609DF806000028DED100F098FADA
:1057F00001240646B4429DF8061003D901318DF804
:105800000610EFE7224602AB28780134FFF72AFDA5
:10581000E4B2EFE7B50B00202DE9F04F9FB005464D
:10582000FEF7A0FA354C002320600293002D46D0ED
:10583000029B692B4AD1002D48D1314E3149206855
:10584000692303AA05F072FCB04603AB00214FF0B8
:10585000140E0EFB0164002001EB810CC1EB01175B
:1058600000EB40020DF178099D5C25703A440CEB89
:1058700000054A4408EB850A12F86B9C9AF801501F
:10588000C9F3060B6BF306054FEAD91969F3C7157F
:105890006C3A8AF8015092780130C2F3401505281D
:1058A000C2F30302A570E27004F10404D8D10131FF
:1058B000072903F10F03CCD11FB0BDE8F08F02AB75
:1058C00001AA104905F076FC0028B1D06922002118
:1058D00003A8FAF7A5FC03AB0DF17501FF221A70BE
:1058E000DA709A715A721A730F338B42F7D16923A7
:1058F00003AA0449206805F0CFFB9EE7385F00202B
:10590000B50B002001100500F0B587B00023012879
:1059100004460D4616468DF8033002D9002007B024
:10592000F0BD8B78012B2DD10028F7D1204600F057
:10593000F7F9AB788342F1D80DF1030332462946DB
:1059400002A8FFF749FD9DF814209DF80C30134480
:10595000AA78012A19D1002C14BF002205229342F3
:10596000DCDC002637469DF80C20F3B29A420ED8B4
:1059700000269DF81430F2B2934218D8FFF782FD4A
:105980000120CCE7002BC9D0D0E70522E7E7029A37
:10599000A878D35C8DF8043001AA002321468DF845
:1059A0000570FFF707FE01360028DCD1B7E79DF848
:1059B00003300499A878003301EB420218BF012399
:1059C0002146FFF7F7FD01360028D2D1A6E70000F7
:1059D0002DE9F347074691F802800E4614461D460E
:1059E00000F09EF9804501D8B3780BB90123B3705C
:1059F000B3788DF806708DF807302FB90DF10701D7
:105A00000DF10600FFF714FDB378012B24D1002F10
:105A10000CBF0520002033782370B378A3709DF865
:105A200007209DF80630DFF8C8E0E070013A03EB8C
:105A300083030021C3EBC30302EB82021A442171EA
:105A40000B46CFB2B84209D8317885291AD08E29B1
:105A50001BD005332B702BE00520DCE702EB010C9B
:105A60004FEA8C071EF82CC0BCF1FF0FECD0774436
:105A70000131BF78012F1FBFE718013387F805C038
:105A8000DBB2DEE703226270E3E703210027DFF8E1
:105A900060E0617003F106083946FEB2B0420AD8F0
:105AA0000029D6D0E218063300201944507129701D
:105AB00002B0BDE8F087D6194FEA860C1EF8269092
:105AC000B9F1FF0FECD0F4449CF80260012E0CD128
:105AD00004EB010A4E1C0AF8089054FA86F69CF86A
