S01200005A33537769746368536F632E733337BE
S31500000000B0D5032015CB02000975010061C50200B9
S31500000010A70A02020002000004180FAC30670401B0
S3150000002000000000000000000000000000000000CA
S3150000003000000000EC0103000000000000000000CA
S315000000400000000000000000FFFFFFFFFFFFFFFFB2
S31500000050FFFFFFFFFFFFFFFFFFFFFFFFFFFFFFFFAA
S3150000006000700F000000000000000000FFFFFFFF0F
S31500000070FFFFFFFF1C000000000000000000000062
S315000000800000000000000000CCFD0320CCFD032092
S31500000090B0D503205E5903002ECB020050CC0320BE
S311000000A0240F00200000100000000000EB
S31500000200B0D5032015CB02000975010061C50200B7
S31500000210FDFE010065C5020069C502000000000080
S31500000220000000000000000000000000DB180000D5
S315000002306DC502003B0D00003B1D00008B22000037
S3150000024005000200E37702004967000075C5020059
S31500000250A57202001F780200E9770200EB77020020
S31500000260E5770200D7980200459B02005718020066
S315000002703DD9010075C5020075C50200E3C702003D
S3150000028075C5020075C50200539B020075C50200C4
S3150000029075C5020075C5020075C5020075C5020068
S315000002A075C5020075C5020075C5020075C5020058
S315000002B021780200E7770200DD6302005178020030
S315000002C075C502003DC9020075C5020075C502006C
S315000002D075C5020075C5020075C5020075C5020028
S315000002E075C5020075C5020075C5020075C5020018
S315000002F075C5020075C5020075C5020075C5020008
S3150000030075C5020075C502000000000080B500201A
S3150000031000F06EFB012002BD1E482DE9F041006889
S315000003208189007D091A14469846CE1E00270025AD
S3150000033006E0B2B2B9B2404600F052FDFF1C6D1C99
S31500000340E8B2A042F5D3002000F052FB0120BDE840
S31500000350F0812DE9F8430F4E30688189007D091A36
S3150000036090469946CF1E0024002509E000F014F8B7
S31500000370E41C00F011F8A41C00F00EF8E41C6D1C3F
S31500000380E8B24045F2D33068002100F073FB01204B
S31500000390BDE8F283B0E00320BAB2A1B2484600F04D
S315000003A01FBD704780B501F0BAF8FF2805D00228B6
S315000003B003D2DFF89418085C02BD002002BD10B518
S315000003C00268DFF8881813880B8054884C805279AD
S315000003D00A7103681A794A714FF48A53CB8002680E
S315000003E093799A06DFF8682844BF4FF48B53CB8085
S315000003F01378816939B9C088DFF85818088003F086
S31500000400FD03137010BD43F00203137016228169B9
S31500000410DFF84448204601F001FA0022227010BDA0
S3150000042080B5002001F05FFAFF2001F0D1F801F05D
S3150000043068FA00F05EFD02460121DFF80C0801F0C3
S3150000044034FADFF80838DFF81428DFF814085221E8
S3150000045001F036FB01F0E0FB01F070FC01F095FDC8
S3150000046001F0D1FE01F010FF01F010FFBDE80140E0
S3150000047000F016BE704780B501F0E7FF20B903F023
S3150000048069FA08B903F005FB03F065FBBDE8014016
S3150000049003F070BB70B5034600204FF6FF72DFF81D
S315000004A0C44734F8305095420ED09D4209D1B3F579
S315000004B07C4F0ADB04EBC0056E888E4205D00D002A
S315000004C003D0401C80B2ECE7104670BD10B5044660
S315000004D0FFF7E0FFDFF890170B884FF6FF729042A8
S315000004E003D12246DFF8841706E0DFF8781701EB20
S315000004F0C000DFF87C174268BDE81040184603F0DC
S3150000050084BBDFF87007006800B1008A70471CB52D
S31500000510DFF864170446087800283CD003F04EFC48
S315000005200246DFF85817042003F06FFB2068418865
S3150000053000914379A289DFF84817042003F065FB90
S31500000540042003F01DFB20B12068218A4088FFF7B4
S31500000550BDFFE07B28B1228ADFF82817042003F0CC
S3150000056054FBE07CDFF820170090A0680278A37C9B
S31500000570042003F04AFB217DA289A468521A0123B4
S3150000058092B22144042003F031FCBDE81C40C0A116
S31500000590042003F034BB13BDF8B50446DFF8EC566F
S315000005A02168487900F0BBFF2268FF280BD100F0D4
S315000005B065F8DFF8DC16022003F027FB2068DFF879
S315000005C0D416427944E00001DFF8CC16DFF8CC6699
S315000005D00B181F7B237F9F4209D000F04FF820683D
S315000005E0DFF8BC3600F045F8227FACA130E0891C6C
S315000005F0DFF8B076085A1188884210D04FF6FF739C
S31500000600994202D1B0F5004F09DB00F037F82068B7
S31500000610DFF8943600F02DF82068028817E020797C
S31500000620022818BF032818D11189507903F043FA1C
S3150000063098B920684288E37C2946022003F0E5FA4F
S315000006402068DFF8683600F014F820680289394619
S31500000650022003F0D4FA0020F2BDA07B0028204639
S3150000066002D003F051FC01E003F07EFC00B1012052
S31500000670F2BD42793146022003F0C7BAE37C5288C4
S315000006802946022003F0C1BA7CB5144622785507E4
S315000006904CBF052203229342DFF8145604D200927F
S315000006A02A46DFF8101633E0089E069A306031714C
S315000006B0F280B460B381207800F00100B073217835
S315000006C0890801F00101F173012120783175C00814
S315000006D000F001007075F07B30B11A46204600F03C
S315000006E07FFB317D891C31753082307DB389411C99
S315000006F03175205CB074481CC9B23075615CF17408
S31500000700C4B2A34209D2C0B200902A46DFF8A815A7
S31500000710042003F074FA002076BD0798B06103F058
S315000007204CFF3077012076BD2DE9F14F84B00F469E
S3150000073092460E9EDDF83C80DFF88055DFF8801586
S315000007409B462846202204F037F80295CDF804800F
S3150000075000965B46049852463946FFF795FF0024FB
S315000007600028DFF810957AD0C9F80050A87CDFF889
S31500000770541508702846FFF7CAFE2846FFF71FFEE5
S31500000780284604F071F8002836D1B8F1000F35D1AB
S31500000790042F18BF052F03D0022F18BF032F01D136
S315000007A0012200E000222868E9880191012143889E
S315000007B000930388E87C00F05FF918B32868817914
S315000007C08A061FD44288DFF80015DFF800450220AC
S315000007D003F015FA0120207000227E21284600F041
S315000007E00BF938B10346DFF8E824DFF8E8140220F5
S315000007F003F005FA00202070012430E098F8140078
S3150000080081072CD528684179FF2924D10026DFF8F5
S315000008103C8400F06EFBF1B2814220D2F0B200F0CF
S3150000082080FE0746F0B200F068FB90B12868418868
S315000008302A8A384600F0B7FD58B12846FFF7BFFDB3
S315000008402868477188F804702846FFF7A5FE00B1AE
S315000008500124761CDDE72846FFF79EFE044600F0DD
S315000008606DFA16220021DFF8F00301F01EF80020D1
S31500000870C9F8000005B02046BDE8F08FDFF858142F
S315000008800878401C0870FFE700F07F007047000002
S315000008905D000000DFF8441408707047256400000E
S315000008A080B1DFF838140978012904D1018841F0B4
S315000008B0400101807047022904D102884FF6BF71BA
S315000008C00A400280704778B1DFF814140A78012ACA
S315000008D004D1DFF8102413780B7001E0022A03D14B
S315000008E0017841F01001017070472DE9FE43DFF8F1
S315000008F060432278D30706D5DFF8EC13022003F015
S315000009007EF9002070E0DFF86C13DFF840530968C9
S3150000091071B109688B799E0603D5EB8843F02003F5
S31500000920EB8089794B0603D5E98841F04001E980DF
S31500000930DFF82C6331784B07DFF8881347BF0F7851
S31500000940F7700B7873709107DFF810730CD5398840
S31500000950C148324604F0F8F98146207800F0FD00DF
S315000009604FF0490820701AE0BA490C884FF6FC731C
S315000009709C420ADA019000962A463B8821460020CE
S3150000098004F0B0FB4FF0550808E0009033463A8873
S315000009902946204604F08BFB4FF042088146A87991
S315000009A081064CBFDFF8444344A403F007FA02462D
S315000009B00294CDF80490CDF800800220DFF83033A1
S315000009C0DFF8301303F01BF9DFF82C13022003F0D5
S315000009D01CF93A8801233146022003F007FA38A1B0
S315000009E0022003F00CF94846BDE8FE8300207CE7B0
S315000009F00146A0480068002270B504460E462079DC
S31500000A00002818BF012815460BD1A0680178CA0630
S31500000A1001D5300005D0A07B002804BFE07C0B2860
S31500000A2001D1002070BD8D4A00211180607DE17BDF
S31500000A3000280CBF0820002011B900F096F906E046
S31500000A4040F0040000F091F9208A00F09DF9A07CA6
S31500000A5000F08BF90B2000F088F9E07C00F085F9B6
S31500000A60304600F082F92046FFF7A9FC2846BDE88B
S31500000A7070403AE70022BFE770B51D469F4B934E84
S31500000A801C78012C01D0337813B10020307070BD72
S31500000A900B0002D10AB1002070BD002C1EBF049CC1
S31500000AA04FF657439C4206D003460A46214628463F
S31500000AB002F0F3FF00B1012070BD0000000000004D
S31500000AC05D00000038B5D2885224950648BF4924F7
S31500000AD0550548BF083C150548BF083C12040346A7
S31500000AE048BFA41E0846032B4FF6FD710ED8DFE85B
S31500000AF003F00902060BC0B204F0F7FE02E0C0B232
S31500000B0005F036F9014601E0641EE4B2084602F03B
S31500000B10E3FF241AE0B232BD70B505460C00164656
S31500000B2008BF002003D02178FF2902D1FF202870BA
S31500000B3070BD204600F074F9864288BF06463246EC
S31500000B40611C681C00F06AFE2E7070BD70B50C004A
S31500000B500546164603D100206870297070BD2078BE
S31500000B60FF2804BF6078FF2802D12870687070BD26
S31500000B70204600F05AF9864288BF06463246A11C36
S31500000B80A81C00F04BFE2E70360A6E7070BD2DE963
S31500000B90F041541E0BB3042A46DC00230026984677
S31500000BA05FFA88F5954225D2651B002814BF10F818
S31500000BB005C04FF0000C571EA7EB08074D5DFF0060
S31500000BC00CFA07FC05FA07F74CEA03033E4308F163
S31500000BD00108E5E7AE4224DB5B1CDDB2954223D279
S31500000BE0651B00280CBF0026465D4D5DB542F1DA57
S31500000BF001201AE0042A10DAD5000120D2006D1E69
S31500000C0000FA02F2524243FA05F1CC0748BF1343F9
S31500000C1046FA05F0C00748BF16439E42E8DBB342DA
S31500000C2002DA4FF0FF3000E00020BDE8F08100213D
S31500000C30334A01E0891CC9B2535C8342FAD3501887
S31500000C4040787047000000004CFD0320CCDF0320F5
S31500000C5076FD032044FD0320B4E0032046FD032077
S31500000C60D8DF0320CCEF02004AFD0320C8ED0200C6
S31500000C70E0ED0200B0E00320B6DB0320E8ED020061
S31500000C80F0ED020010EE02001CEE02003CEE020047
S31500000C905CEE020078EE0200C4DE032080EE020065
S31500000CA0A8EE0200B8EE0200B0EE0200C0EE0200AE
S31500000CB0E4EE0200C8EE0200ECEE020090E0032033
S31500000CC00CF00200BADB032008EF020072FD0320DD
S31500000CD058EF020030EF0200BBDB032073FD032058
S31500000CE074FD032075FD032060EF0200ACEF0200E7
S31500000CF0A4EF020088EF0200BCEF0200B9DB03207C
S31500000D002CF00200283808288041C00F704740B1F7
S31500000D101C280BD01D280CD01E2818BF1F2805D054
S31500000D2009E00B39102906D2002070471B29FBDB8E
S31500000D3001E00929F8DB8A207047704780B54049F1
S31500000D400020087005F074FA3E4A108052220021F5
S31500000D503D4800F0AAFD3D49002008800C22BDE870
S31500000D60084000213A4800F0A0BD10B537490A886E
S31500000D70522A07DA344CA054521C0A8092B2A018A8
S31500000D80401E10BD002010BD38B50546C0B2FFF7A5
S31500000D90ECFF0446280AFFF7E8FF002C18BF0028DE
S31500000DA001D0204632BD002032BD70B500245E1849
S31500000DB0B2421D460DDA1A46264900F02EF80020EA
S31500000DC070BD51FA85F202446D1E12F8013C03EB28
S31500000DD00424EAB2002AF4D1204670BD0423E4E7D5
S31500000DE080B50223FFF7E1FF80B202BD38B50B469E
S31500000DF09342194C194928BF194A08D2C55CFF2DE0
S31500000E0008BF00255D196D1CAA4204DA154A00F0D8
S31500000E1004F8204632BD184432BD022002F0EFBE6F
S31500000E200078FF2808BF0020704780B50222002105
S31500000E30FFF7D6FF4FF6FF72904208BF002002BDB3
S31500000E4076FD032044FD0320D8DF032046FD032062
S31500000E50CCDF032094E5020048FD0320ACE5020048
S31500000E60BCE50200D0E502007FB5DFF86829DFF8AF
S31500000E70680913680088ADF8060003A9DFF85C0965
S31500000E800568DFF85C0900880B60ADF8020002AC6B
S31500000E90DFF85019DFF850090988ADF8041002226E
S31500000EA0002102702560ADF8001003AEDFF83C09A2
S31500000EB00DF10604DFF83829655C02EB011202AC7D
S31500000EC0157036F81130538034F81130938001AC28
S31500000ED00DF10203655C95715C5C00EBC4059560E1
S31500000EE001251DF801401473491C02295573DFDBE7
S31500000EF07FBDDFF8F40800787047DFF8F41801EBDF
S31500000F000010407B00F001007047412818BF4228BE
S31500000F1003D0432818BF442801D101207047002080
S31500000F207047412818BF422801D101207047002090
S31500000F307047432818BF442801D10120704700207C
S31500000F407047F8B515461E46069A079B044600F0FC
S31500000F5043FA60B1042100F0C9FB070007D0204620
S31500000F6000F0C6FC324629462046B84794E0F1BD5B
S31500000F702DE9FC4714001CBF0A9D002D81468846BA
S31500000F801F461FD0F7B128780C9B0107618820798E
S31500000F904CBF4022802200F01FFA98B1082100F0D1
S31500000FA0A5FB824670B10B9E207900F0A1FC01964C
S31500000FB000953B46224641464846D047BDE8F347A2
S31500000FC000F09FBCBDE8F387F8B51646069C1A46A6
S31500000FD00546234600F000FAD0B121000BD10221CC
S31500000FE000F084FB040013D0284600F081FC314653
S31500000FF02846A0470BE0102100F078FB070007D039
S31500001000284600F075FC224631462846B84743E09C
S31500001010F1BD2DE9F8439046089C1A46064623463C
S3150000102000F0DAF908B9862016E000259CB92021DF
S3150000103000F05CFB814670B10B9F0A9C099D30460F
S3150000104000F056FC009723462A4641463046C847DC
S31500001050054600F056FC2846BDE8F283F8B504467E
S31500001060A568207800F044FC002611E02868F1B25B
S315000010701422514347182078398802F00DFD0121CA
S31500001080384600F033FB01001CBF20788847761CE9
S315000010902979F0B28842E9D3BDE8F14000F031BCCD
S315000010A038B50024DFF840570AE0DFF84407210688
S315000010B000EB1150427BD10748BFFFF7CFFF641CFE
S315000010C02978E0B28842F0D331BD7CB5069D96788A
S315000010D01C462B0008BFD378412E18BF422E06D0DF
S315000010E0432E09D19A1E92B2FFF730FD16E05A1E22
S315000010F0D2B2FFF711FD11E0442EF3D034B92C0023
S3150000110004D0D278954201D2892076BD00291A46AC
S3150000111002D100F0CAFB01E000F080FB002076BDA2
S3150000112010B5002301E0001D5B1C9CB28C4204D26A
S3150000113004889442F7D1408810BD002010BDDFF826
S31500001140B416401A0C2290FBF2F292B20021DFF89C
S31500001150A806E5E70288B2F57C4FA8BF00F002B802
S315000011600846ECE7DFF89416401A142290FBF2F2D8
S3150000117092B20021DFF88806D2E710B50C46018846
S31500001180628891420DD1037B2279134209D0B1F5D1
S315000011907C4F04DBFFF7E6FF2189884201D101205D
S315000011A010BD002010BD10B514460A88E3889A4287
S315000011B00AD10288B2F57C4F04DAFFF7CBFF21890A
S315000011C0884201D1012010BD002010BD2DE9F74F46
S315000011D082B004469A460025002704E08068C1884C
S315000011E06D187F1CFFB2DFF800160A78974280F070
S315000011F0A480DFF8FC05237800EB071002789A42FA
S31500001200ECD181680091407BC107EAD54FF0000818
S3150000121004E0B9F80A002D1808F1010800990A79C6
S315000012205FFA88F09042DCD20A685FFA88FC1420E4
S3150000123010FB0CFC02EB0C0921464846FFF79DFF0C
S315000012400028E6D04FF0000B07E0307910F0300FA1
S3150000125004BFF0782D180BF1010BB9F808101FFA2E
S315000012608BF08842D8D2D9F804001FFA8BF20C21F1
S315000012704A438618224631464846FFF794FF00281F
S31500001280E3D027460398344600B1046020798106EE
S3150000129010D5DFF86005002105E00279930644BF0A
S315000012A0C27889180C30A042F7D3DFF8580589B206
S315000012B0461803E0DFF85015ADB24E19DDF8388058
S315000012C0049DB8F1000F40461BD0019521464846C3
S315000012D0FFF740FF0246238879883878DFF82CB577
S315000012E002F0D4FBF0B12079C1061DD5214648464F
S315000012F0FFF730FF00950346798838782246D847AD
S315000013001CE0DDB1214648460196FFF723FF024661
S31500001310238879883878DFF8F8B402F0B5FB00281E
S315000013202E46E0D17E2009E00199CDF800A0434683
S3150000133022463046FFF7C9FE00E0862005B0BDE82C
S31500001340F08F2DE9F843044688461646994600254F
S315000013502179E8B2884221D22068EAB214235A439E
S3150000136087183888404517D131000AD0802E03D11E
S31500001370397B0A0605D40FE0402E0DD1397B4A068B
S315000013800AD5B0F57C4F0CDB3846FFF7EBFE484537
S3150000139018BF5FEA090004D06D1CD9E70020BDE83C
S315000013A0F2833846FBE780B5134607E080B513465F
S315000013B0402204E080B51346802200E0002200F0BF
S315000013C00BF800B1012002BD80B500234022F6E7EC
S315000013D080B500238022F2E770B50C4615461E46FE
S315000013E000F09DF8FF2801D1002070BD2146DFF8EE
S315000013F0004404EB0010334680682A46BDE870407E
S315000014009FE770B50C4615461E46002100F02FF8E2
S31500001410022800DAEAE7002070BD1346402201E008
S315000014200022FAE72DE9F84F82468B469046994608
S31500001430FFF7D2FF002608B9FF2016E00027DFF8E5
S31500001440B043DFF8A4532978F8B288420CD20001E1
S31500001450205C504508D04B4642465946FFF7D1FF1F
S3150000146000B1761C7F1CEEE7F0B2BDE8F28F70B5D6
S315000014700022DFF87C33DFF870532E78D4B2B44202
S315000014800BD224011D5D854205D10D0007D01C44F9
S31500001490647BE50703D4521CEDE7FF2070BDD0B294
S315000014A070BD80B50021FFF7E2FFFF2801D10020C3
S315000014B002BD00F061F8407B00F0010002BD70B58E
S315000014C00E4604460021FFF7D2FFFF2801D1002077
S315000014D070BDDFF81C1301EB00153200687B00F0CD
S315000014E0010114BF40F001000020B142687314D01E
S315000014F076B12846FFF7B2FD0FE00068142251438B
S315000015000844027B0188D209204600F009FC761CBB
S31500001510A8680279F1B29142EFD3012070BD012192
S31500001520A5E7DFF8CC120001085C7047F8B50C4659
S31500001530FFF7F5FF01460020FF291FBFDFF8B022A5
S3150000154002EB01118968002915D0002214270D79B4
S31500001550D3B2AB420ED20B68D6B27E433344451C9F
S315000015601B7B260001D11B0600E05E0648BF28460D
S31500001570521CECE7C0B2F2BD9D4901EB001070476A
S31500001580F8B50C461546FFF7CAFF01460022FF29AB
S315000015901CD000234FF0140C01E0521C5B1C944835
S315000015A000EB0116DFB2B0680679B7420ED20068CA
S315000015B01CFB07F73844067B15B1760602D4EDE727
S315000015C03706EBD5D6B2A642E7D1F2BD0020F2BD72
S315000015D0002109E010B50446012100F005F8204677
S315000015E0BDE8104003F03FB92DE9F84F86B08146BB
S315000015F002F0E3FF7C49DFF8F8A10A78059004922F
S315000016004FF0000B07E00AEB0010017B05988142C2
S315000016100FD00BF1010B04995FFA8BF0884246DA82
S31500001620B9F1FF0FEFD04846FFF779FFFF28834651
S315000016303DD000273FE00328ACBFA26804F10802B2
S31500001640012000900023002101A8FFF7BFFD761CB2
S315000016502989B0B288422DD26868B2B20C214A43B9
S3150000166084182379D906F2D41AF808208DF80420B4
S315000016702988ADF80610207941064CBF802140210B
S315000016808DF8081028462188ADF80A102146FFF784
S3150000169061FDADF80C002179E0784A07CBD5A26848
S315000016A00328CDDB1268CBE7B9F1FF0FB1D007B045
S315000016B0BDE8F08F7F1C4FEA0B604FEA10580AF125
S315000016C00800F9B250F8080002799142ECD201689C
S315000016D0FBB214204343CD1840F22D112A898A42C9
S315000016E0A8BF05F063F80026B2E7704730B5047B63
S315000016F0012200230C4205D1002030BD144218BF40
S315000017005B1C5200D5B28D42F8D30069DBB250F8AB
S31500001710230030BD3F49401A8003020C00213E4899
S31500001720FEE42DE9FE4F00270028487D4FF0010812
S3150000173006D008B9022407E0012804D1012403E0F9
S3150000174008B9082400E004240C9D0E980D9EDDF8CF
S315000017503CB0ADF80020B9468A460193ADF830504A
S315000017608DF838002B4800EB8905BDF80000298864
S31500001770814224D1E978214221D0A9789DF8380008
S3150000178081421CD3E9789AF80F00CA0608D5B0B191
S315000017902846FFF7BFFFBAF81010814201D00EE0CD
S315000017A068B9BB4513D0BDF8300087420FDA0198FF
S315000017B0A978C1557F1C3288521C3280BFB209F10C
S315000017C00109B9F12F0FCDDB4046BDE8FE8F4FF082
S315000017D00008F9E700DF02000E3B030004DF020009
S315000017E036560300345603006DFD0320DCE102008B
S315000017F0C4DE0320D0DF0200F0E10200D8E00200E0
S31500001800ECE1020000DF0320E4DE0320BF3A000023
S31500001810BB3A000010DF0200CCDF020070B5814247
S3150000182024D210441144401E491E10E011F801391B
S3150000183000F80139121F11F8014900F8014911F8A1
S31500001840015900F8015911F8016900F8016993B2CC
S31500001850042BEBDA93B2002B1EBF11F8013900F806
S315000018600139521EF6D170BD00F00DF893B2042B6B
S31500001870FADA93B2002B1EBF11F8013B00F8013BC8
S31500001880521EF6D170BD11F8013B00F8013B121F44
S3150000189011F8014B00F8014B11F8015B00F8015BF0
S315000018A011F8016B00F8016B7047130003D00A466C
S315000018B0194604F09BBF704710B5034600E0521E60
S315000018C090B218B100F003F8F9D0001B10BD13F860
S315000018D0010B11F8014BA0427047FEE70C490D4879
S315000018E008600020704700B17020704700207047E4
S315000018F080B500F013F8FF2801D1A32002BD002017
S3150000190002BD00207047704700BF0348007870474B
S315000019102CE0032038560300C4DE032080B5FFF711
S31500001920FEFDFF2818BF002002BD00210170704790
S31500001930007800B10120704700F09EB900F0AAB906
S315000019402DE9F34F022981B005DD19000AD0BDF853
S315000019500840052C04DA9249022002F050F9AAE068
S3150000196042F00402012700901900027005D0009889
S3150000197043701B0A0098837003270C9CFEF77EFFBA
S315000019800099C8557F1C0098BBB27F1CC4544FF009
S315000019900009DDF8388007E0009B21461844FFF770
S315000019A03DFF5F4409F101090D985FFA89F1405C3A
S315000019B0002800F08280002600240546732D4FF093
S315000019C0000A39DC4C2D58F8044B1CBF532D622DF0
S315000019D014D158F804BB4C2D07D11FFA8BFA4FF6D9
S315000019E0FF7082453ED002263CE0532D3AD15FFA85
S315000019F08BFABAF1FF0F35D0012633E06C2D05D1F5
S31500001A002046FFF712FA00F1020B2BE0732D05D1E9
S31500001A102046FFF705FA00F1010B23E0A5F130009F
S31500001A200A2838BFA5F1300B1CD3A5F141000728C1
S31500001A3023D2A5F1370B15E0752DA34608BF012665
S31500001A400ED0762D08BF02260AD0782D05D10326A2
S31500001A5006E02B46B21853492AE0772D0DD104260D
S31500001A6058F804AB1FFA8BF2BDF8081012FA87F388
S31500001A70F3189942EDDB00990BE02A464A49022009
S31500001A8002F0BDF817E001F800A07F1C4FEA1A2A01
S31500001A90761EF3B2002BB8B2F5D100911FFA8BF186
S31500001AA000293FF47FAF002C7FF476AF2B463F49E9
S31500001AB0022002F0A4F8002000E0B8B2BDE8FE8FD4
S31500001AC010B53B4C20603B4801803B490A603B4ACD
S31500001AD0136010BD7FB50C4608A900920291354DE2
S31500001AE0334E01930246298830680023FFF728FF0A
S31500001AF03149324B0A6810804FF48A5219684C807B
S31500001B00CA8004B070BD38B52B4C256829880346B9
S31500001B10274802682948006801B0BDE8304003F054
S31500001B200DBB0020EFE77CB50192234D204A2E68BD
S31500001B3014680094214C3388226803F0D3FA76BDEA
S31500001B400022F0E738B500F003F803F0B0FA32BD32
S31500001B500091194C16490B68256818492A880968A6
S31500001B6070470021EEE7F8B5114D134F2E6884B08B
S31500001B700A9C03963E683588019402950F4C2668A8
S31500001B807588009503F00EFB05B0F0BD0B480068A4
S31500001B9070470A4A1368187110684171704700004F
S31500001BA0F4E1020038E202001CE202006CE20200EC
S31500001BB0C0DF03203EF90320C4DF0320C8DF032073
S31500001BC038B504460D461046FFF78DFE00202070FE
S31500001BD0A847BDE83140FFF794BE00224549464874
S31500001BE0EEE7002245494648EAE770B50446164640
S31500001BF00D463046FFF77CFE002020703046A84791
S31500001C00BDE87040FFF77DBE01223E493E48ECE745
S31500001C1002223C493D48E8E780B5012004F02CFF4C
S31500001C203B4804F0BDFE3B49087001BD80B504F099
S31500001C3037FF012805D037480078BDE8024004F098
S31500001C409ABE01BDF0B5002400E0641C324D2E881A
S31500001C50E3B2B3420ED2E7B20C25304B6F433B449E
S31500001C601E78864201BF5D888D421E799642ECD170
S31500001C701846F0BD0020F0BD80B519B904F0FCFD92
S31500001C80002002BDB1F1004F02D204F0FFFDF7E7DC
S31500001C90022002BDB1F5000F3CBF0902FFF7ECBF01
S31500001CA00220704770B505461E46FFF7CBFF0400BD
S31500001CB00ED02846FFF7F5FB50B1A0683146FFF776
S31500001CC0DBFF28B905980499A0716171002070BDE9
S31500001CD0022070BD1CB500931346049C019400229B
S31500001CE0FFF7E0FF16BD80B500230093FFF7F2FF74
S31500001CF002BD00007740010064DE03206D3601005E
S31500001D006CDE03203FDE010054DE03205CDE032090
S31500001D10DCD902006BFD032086DB0320C4D503203B
S31500001D2080B5FFF78FFF20B1806800210170002089
S31500001D3002BD022002BD0022F2E7FEE736E0DFF830
S31500001D4018010178022901DB012070470020704745
S31500001D5038B5DFF8045104462878A04203D021465E
S31500001D6001F0C9FE2C7031BD10B5DFF8F0402078C7
S31500001D7060B900F01BF804F0AFFE0121217028B114
S31500001D800288B2F5817F24BF007D2070207810BDC7
S31500001D90DFF8C4100978012803D10129D8BF022031
S31500001DA002DD10B9012900DDD2E770472A48017823
S31500001DB0022900DB704710B504F07AFE0246284976
S31500001DC0284C012001F01BFF0120FFF7E1FF2078DE
S31500001DD0FF281BD104F080FEB8B140880006400EF3
S31500001DE000F0010020701822FF211F48FFF75DFD5B
S31500001DF0207801280AD1FFF7B7FF052806DBBDE8E2
S31500001E001040D921194804F0BDBE207010BD80B520
S31500001E10FFF7CCFFBDE8014004F05EBE70B5044696
S31500001E200D461646FFF7C2FF0420FFF791FF324624
S31500001E302946204604F082FE044600F003F82046B8
S31500001E4070BD8146022083E780B5FFF7AFFFBDE88E
S31500001E50014004F082BE000099FD03209AFD032094
S31500001E6050170300BFDB03204CF303204417030085
S31500001E7080B5B349042001F0C2FEFF20FFF7AAFB9C
S31500001E80FF2001F005FEFF2001F005FE04F00EF92B
S31500001E9000F07BF801F04BFEAA490020088001BD46
S31500001EA0F8B500F0A0F8009800F0010005B000BDFC
S31500001EB018B587B001A9684604F086FBA24C9DF8C8
S31500001EC00F00A0700822BDF80C00208001A9201D7B
S31500001ED0FFF7A4FC9DF814009C496073204609781E
S31500001EE000290CBF00229A4A04F0EBFF9549002016
S31500001EF0088008B010BD80B5684604F06FFB9328D3
S31500001F0009D1944801680A788DF80020012A04BF97
S31500001F1002218DF800109DF8000002BD70B590B04A
S31500001F2004460D4616462C22002105A8FFF7BDFCE7
S31500001F308DF81640ADF8146006A801F0CCFD01A896
S31500001F4005F0E8FC0198ADF83A00FFF7D4FF8DF8EC
S31500001F503C0000F04BF8294605A805F052F8044667
S31500001F609DF83C007C4A7D4900902346012001F003
S31500001F7046FE200004D17348018841F48071018037
S31500001F80204610B070BD05F0E3BCF8B5012005F0A1
S31500001F90E2FC734805F0F5FC724805F0F5FC00F02C
S31500001FA022F80098C1071CD56F49042001F027FECE
S31500001FB0684801680878012808BF022005F06EF914
S31500001FC0022005F0CCFC00F00EF8009840F08000EE
S31500001FD00090684605F0A9FC00F008F8032001F01F
S31500001FE025FD05B000BD684605F094BC78B58FB0F8
S31500001FF005A85E49282202F0DFFB04F01DF908B1AE
S3150000200000201BE001A801F002FD0400584D594EC6
S3150000201003D000903246584B0BE005A801F086FD30
S3150000202005A901A805F006F9040006D0009032467D
S31500002030524B2946042001F0E2FD204610B070BD47
S3150000204010B5404C208840F40070208001F082FCDE
S31500002050034622884A49012001F0D1FD01F07AFCAD
S3150000206001280CBF0124002405F0DAFC28B1024641
S315000020704449042001F0C3FD00E024B105F01EFC34
S31500002080BDE81040F4E610BD38B52E4C324A238820
S315000020903D4984B00546009301202B4601F0AFFD73
S315000020A02088810504D5912D40D1FFF7E1FE3DE062
S315000020B010F08F0F26D0902D02D1FFF7F9FE35E0F4
S315000020C0912D33D0029001953048314B294A314940
S315000020D00090042001F093FD2078010626D404F038
S315000020E0ABF803280AD12C480178042906DA491CE2
S315000020F001700120002100F0B5FC17E0022006F077
S31500002100FAF813E0FFF76FFF902D0FD10098C10783
S315000021100CD5420852000092002101910291ADF8BF
S315000021200C10684605F001FC06F07DFB05B030BDDD
S315000021300448017811F08F0018BF01207047000095
S31500002140D0CE020066F7032054DD032017F90320E2
S315000021503CDE03202CE003207CD00200ECCE020003
S31500002160008810020070EF05A0CE020024CF020006
S315000021704CCF020060CF020068CF020080CF020081
S3150000218098CF0200D4CF020004D002006CD0020027
S3150000219054D0020034D00200CBFC032080B5FFF7F8
S315000021A0F2FEBDE8024000F0FE0005F0D4BB80B5AB
S315000021B0FFF7E9FEBDE8024040F0010005F0CBBBA9
S315000021C080B5A0B080787D22694604F04CF9010004
S315000021D01CBF694602F07AFC21B000BD38B50A463C
S315000021E00146104606F024FCFF28044601D11820BB
S315000021F032BD0122012107F045FB0546204606F0C7
S3150000220094FB284632BD80B502F060FBBDE8024073
S31500002210012010B5040014BF0848002007F004FC94
S3150000222050B1002CBDE8104014BF054A054A0346CC
S315000022300549042001F0E3BC10BD000098FE020031
S3150000224080FE02008CFE020054FE020038B507F044
S3150000225053FD07F058FD78B101F058FC60B1094C08
S31500002260207804F0C1FB0546207804F0FEFB3DB162
S31500002270BDE8314001F049BCBDE8314007F092BDF0
S3150000228031BD00006BFD03207047FEE780B552228A
S3150000229000214F48FFF709FBBDE808408FE0FEB577
S315000022A0054601F0EDFA0646284601F0F9FA9DF8D2
S315000022B000102A464FF6FF7416B3019B1B78212A9D
S315000022C01EDA4220022B434E09DA4343F01830F857
S315000022D01230A34214D05B1C20F8123010E00FD14C
S315000022E0002306EB420700FB03F637F806E0A64597
S315000022F01CBF0EF1010E27F806E05B1C022BF2DB79
S31500002300354F334E37F8123036F812C09C458041AF
S31500002310C043C00FA4451CBF0CF1010C26F812C027
S31500002320092D18BF0B2D0AD1B6F814C0BF8A01EBD0
S315000023300C0EBE45AEBFB7826144B1820CE01D2DC6
S315000023400AD1B6F83AC07F8F01EB0C0EBE45BDBF71
S31500002350491E61447187778736F81210994203D374
S3150000236010B9284601F0C6FB00201C49C6B28A5D9A
S31500002370AA4204D0401CC6B2112EF7DBF7BD112EBF
S3150000238015DA02F01CF90546154801788D4203DB83
S31500002390DD21144804F0F6FB222013494543481971
S315000023A030F81610A1421CBF491C20F81610F7BDC4
S315000023B0522200210648FFF778BA000000BF5222D9
S315000023C0FF210548FFF771BA034A22F8101070473B
S315000023D0C4F3032090F4032018F40320DC1A03004E
S315000023E0C6DB0320CC1A03006CF40320DFF89C1A2A
S315000023F0C873704710B5DFF8984A2068427B112AE7
S3150000240004D0B021DFF88C0A04F0BCFB206841211F
S31500002410417310BD80B5022002F0D7F802F0DEF855
S31500002420DFF86C1ADFF8640A0A68137B042B03D101
S31500002430017C491D017404E04FF47A71183004F0F0
S3150000244025FABDE8014002F0CAB8DFF8440A01687F
S31500002450487B33281CBF4328532801D101207047ED
S31500002460002070472DE9FF4107F0B0FC07F086FE1B
S31500002470002851D0DFF8144A00202076DFF8180A29
S3150000248001790C3001F056F8607D18B109F0EAFACE
S315000024900020607500212173002500F03FF80AF046
S315000024A02CFA07F0E5FCDFF8F489DFF8E469DFF8D9
S315000024B0547B3978E8B288422ED202F08FF8306821
S315000024C041884FF6FF72914218BF012007D10022C2
S315000024D00821001D01F08CFA401E8041C00F94F8BF
S315000024E0281001F00101014212D030684188ADF890
S315000024F008100822011D6846FFF790F90A230A22F0
S3150000250001F05EF802230B22414600200AF06AFB26
S3150000251002F065F86D1CCCE7BDE8FF8110B5DFF869
S3150000252070090068017B032918BF042906D1418878
S315000025304FF6FF72914208BF032008D001F0BFF9A1
S31500002540044601F0C0F9214603F0A1FB022001F088
S31500002550C2F90AF0F7FB00F0B9FEBDE810400AF038
S31500002560F7B938B5DFF82449DFF82459E0730021BC
S315000025704FF6FF7001F0FFF82968487B032818BF63
S3150000258000281ED0332818BF432814D101F096F82E
S315000025902868017B032918BF042906D1032141734A
S315000025A0E07BBDE8324002F07FB8E07B02F07CF8C9
S315000025B0BDE83140B2E721204873BDE8314005F05F
S315000025C08BBA31BD10B5DFF8C818DFF8C0480A6805
S315000025D0002050734FF6FE700AF08BFE4FF6FF7028
S315000025E00AF08FFE01F06AF8E07BBDE8104002F0C9
S315000025F05BB8000070B506463346182201F060F855
S31500002600DFF88808DFF88828002180F82010702578
S315000026101368197B032918BF042911D0002531003E
S3150000262008BF05750CD0FF2E02D10121017507E008
S315000026300122B4000275641C2102203004F026F940
S3150000264000F044FE284670BDDFF84018002081F8EF
S315000026502000CFE738B50D4688B004466869079074
S315000026601622297C0691E8890590297B0491E87A4F
S315000026700390032095F90A1002912B890BA101936F
S31500002680009523460AF0BDFE012009F03DFA287B9D
S3150000269000280CBF4FF6FE700AF027FE2B46224696
S315000026A009B0BDE830400146012092E04242387050
S315000026B057424242574244002DE9F041DFF8D057D5
S315000026C00E4629688046487B002814461F464BD193
S315000026D0200049D0042C47DCDFF82C0901780B29AF
S315000026E042D101F07DFF00283ED101F07BFF08B109
S315000026F0042C39DB387B032816D14FF6FE718E4247
S3150000270014D1012C08BF002610D0022C2CD10AF0BF
S31500002710ECFD4FF6FC71884202DA0AF0E6FD01E0B4
S315000027200AF0A7FE064601E0012C1DD0B8F1000F05
S315000027300CD0387B03280CBF012100212046012C38
S3150000274018BF00200BF0DCF8010026D139463046D0
S3150000275000F09EFE010020D101F03CFF01F021FFB8
S3150000276020B101F03FFF08B1702016E02868407BD9
S31500002770332818BF532803D0DFF8101700208873BA
S31500002780204600F05AFEDFF88418087820B101F0E0
S3150000279029FF08B90BF0FBFE0020BDE8F08138B533
S315000027A00446DFF8E85608222146281DFFF736F8CA
S315000027B0207B0328A8BF00209421E9732870DFF846
S315000027C0D01628780A6800280CBF012031205073E3
S315000027D031BD10B51C46FFF76FFF01002BD1207BE2
S315000027E00328204602D1BDE810408AE0FFF7D7FF54
S315000027F0DFF89806DFF89846002181814FF0010343
S315000028002068817B480905D1DFF8800C027803FA3D
S3150000281001F108E001F01F0140F0180003FA01F190
S31500002820052241EAC06105200BF0CBFE010002D073
S3150000283022680021517310BDF8B586B006460C46D5
S3150000284017461D46082204F10C016846FEF7E6FF0E
S315000028502189ADF808108DF80A70002221788DF8CC
S315000028600B108DF80C206B4632464FF6FE71012098
S31500002870FFF722FF01000AD16846FFF790FF2046C6
S3150000288000F007F8010004BFDFF800164D7507B029
S31500002890F0BD38B5DFF8F85504462868007B0328F4
S315000028A018BF042806D1E079C10744BF94F9050092
S315000028B00CF034FA28682178817301F04CFE2968FF
S315000028C0DFF8240C0A7B825C218960890CF019FCF4
S315000028D0040004D09420FFF744FE204632BDDFF802
S315000028E0AC459420E073022001F06EFE00F004F87F
S315000028F003202074002032BDC82104F1180003F023
S31500002900C5BF10B504460022082101F071F808B1D0
S31500002910012010BD0AF0E9FC00224FF6FF7100F01D
S31500002920E5FD217C204600F005FE6269E189207CF8
S315000029300AF038FADFF8580501680A7B012A08BF51
S315000029400BF078FDFFF7EAFD002010BD7CB5DFF83F
S31500002950405529680446487B002802BFDFF8A816C0
S3150000296008780B2801D0702076BD09F0D6F8DFF87C
S315000029701C652CB10222214606F12800FEF74EFF07
S31500002980684600F0D0FE08B1932076BD9DF8003071
S31500002990142200F095FE00F017FE010061D19DF8AB
S315000029A0000000F04AFD2868007B012818BF0228B5
S315000029B007D0032818BF042838D1002000F0FCFEF9
S315000029C0A0B300F018FE2868007B032814BF042873
S315000029D00CF059FCFFF7A2FD01200CF075FC01007C
S315000029E03FD12868007B032818BF04280ED196F82B
S315000029F028108A0708D50522DFF84C18012000F0B8
S31500002A0045F801002CD076BD032801D0042827D133
S31500002A10DFF8884402230B22214601200AF0E2F85F
S31500002A20207841071CD507F01BFB19E02968132005
S31500002A304873002272734FF001022868817B4809AF
S31500002A4008BF02FA01F107D001F01F0140F018009B
S31500002A5002FA01F141EAC061052207200BF0B1FD3F
S31500002A60002076BD10E0000038B504461046032865
S31500002A7018BF04280D4601D0022032BD00F0DDFC4F
S31500002A8029462046BDE83840FF2200BF2DE9FC411B
S31500002A908046DFF8FC0300680D46017B01291646D7
S31500002AA040D0477B022F07D0032F3BD15FEA0801B6
S31500002AB002D1007D810735D4332000F00CFF07F0EA
S31500002AC085F915F0784F12BF0522DFF8C0090278A4
S31500002AD0294605200BF075FD0446A8B9DFF8AC734E
S31500002AE03873012009F010F80AF007FC78805FEAD5
S31500002AF0080014BF022001203870381D00F02AFE9D
S31500002B0000207873BE7302E0384600F0E4FE5FEA08
S31500002B1008003146284602D00CF0F5FB03E00CF025
S31500002B20F1FB00E070240194009543465FF02C020F
S31500002B3003A103200AF065FC2046BDE8F6810000EB
S31500002B40424244420000000038B5044605F078FED3
S31500002B50054620460CF0FDFB2C1820460CF010FD17
S31500002B604FF6FF5101402046BDE834400CF00FBD42
S31500002B70FEB505460AF0B9FBC54C06462068007B43
S31500002B80032818BF042806D1E879C10744BF95F980
S31500002B9005000CF0C3F821682878887301F0DBFC87
S31500002BA06889002100F0E7FD00F034FF60B13000D5
S31500002BB003D04FF6F8718E4206DB0AF05AFC216804
S31500002BC04A8890420646F8D030460AF092FB288999
S31500002BD00AF097FB06208DF80800DFF80C1920682C
S31500002BE0027B8B5C8DF80930002101910091022354
S31500002BF0408802AA01210CF018FEFF28064604D1DF
S31500002C001820FFF7AEFC1820FEBD20689F4D4188B6
S31500002C1030460CF0D9FB287802281CBF3046FFF757
S31500002C2093FF00F063F80746304605F07EFECFB10D
S31500002C309420E873022001F0C7FC2068017B042978
S31500002C4008D1C82105F1180003F020FE03202874DE
S31500002C500020FEBD4FF4167105F1180003F016FEB4
S31500002C600020F4E79420FFF77CFC0120FEBD78B538
S31500002C7087B00C4616461D4630B920460CF0AEFF0E
S31500002C8003A90BF07AFC03A8019007230C998DF891
S31500002C90096001208DF808308DF80B100090360A77
S31500002CA08DF80A60042302AA012120460CF0BDFD1E
S31500002CB0FF28064618D021460CF086FB15B930468B
S31500002CC0FFF742FF0D9808B930460DE020460BF09D
S31500002CD056FC18B130460CF0A6FF01E000F006F8ED
S31500002CE0304605F022FEFF2008B070BD002200210C
S31500002CF030460DF013B82DE9F34F824685B01446E1
S31500002D009DF818001D4603A90CF0CAFD0027002CEB
S31500002D1014BF4FF0010BBB460026BBF1000F4FF668
S31500002D20FF79B84607D008B10DF10C086678760829
S31500002D3006F0010604E09DF818000CF0AEFB804694
S31500002D4000F0F5FB087B032818BF042800F09B80E1
S31500002D506D1C9DF81800E9B205F088FF054640088D
S31500002D6000F001008DF809008DF808A0280600F093
S31500002D70DEFB4A7B58BF45F08005022A04D1434A50
S31500002D80107D50EA0A0101D1022729E040460AF0E7
S31500002D905BFAADF8000003219DF818000CF0D3FA99
S31500002DA0814608B94FF0010930000CBF4FF0050A03
S31500002DB04FF0010ABBF1000F03D0201D0CF0E0FB21
S31500002DC001E0BDF800000146CDF8009053462A46C2
S31500002DD040460BF0CBFB00F0EBFC814608BF012719
S31500002DE0DCB19DF8080018B9484600F0E1FC02D1B4
S31500002DF0201D0CF0C5FB01210191009701463346C9
S31500002E004A464046FFF733FF9DF8090050B94FF692
S31500002E10FF7140460DF05FFA04E03A4649464046E7
S31500002E200CF048F97FBB9DF8090028B14146484699
S31500002E300DF075FA0DF0C2FA30001EBF48464FF687
S31500002E40FF7188420DD00CF0C9FEFF2809D0DFF8CB
S31500002E50D4190A6832F810304BF6FF710B4022F88D
S31500002E60103084B10AF041FA0EB1002405E09DF855
S31500002E700810002914BF03240124014643464A468C
S31500002E8020460DF023FC07B0BDE8F08F84F6032042
S31500002E9040F7032064380000BCF60320B6F8032090
S31500002EA02DE9FF4705460C46904602A920460CF040
S31500002EB0F7FC814601AA0020106020460CF053FA68
S31500002EC029000646DFF8607908D0B9F1000F18BF6F
S31500002ED00DF108090CF0D9FC824604E020460CF0FE
S31500002EE0DCFA8146BA460020009004234246214679
S31500002EF001A805F0B9FD0DF105000CF041FB804677
S31500002F009DF80740280006D0082239465046FEF7AD
S31500002F10D3FC002871D1DFF814793968C87E10B166
S31500002F207078820712D5280010D0487B022808BF87
S31500002F30002C0BD140460AF0DCF909F0DEFC99239F
S31500002F4000F0BDFB992001F0AFFB56E000F062FDFA
S31500002F50002818BF002C03D09420FFF702FB4CE09A
S31500002F6000F058FD002848D048460DF045F8FF28E7
S31500002F7001D0290004D13868408849460DF0CFF9C0
S31500002F800DF01CFA3868DFF8A84841884A464046E2
S31500002F9000F0ACFADFF89C0890F90210090261858E
S31500002FA03868417B012916BF31291121432141731C
S31500002FB0022001F009FBDFF880080168FFF79DFC9D
S31500002FC00CF061F9002020743968C87E20B904F13C
S31500002FD0180003F051FC0EE02DB17078820702D57F
S31500002FE0FFF740FA07E0087B042804D10521FFF724
S31500002FF084FC09202074AD21E17301F0ACFABDE830
S31500003000FF870000C6DB0320DEDB0320DBDB0320BB
S315000030102DE9F04F8DB081460CF0A5F907460CF06E
S31500003020E7F9019048460CF038FA824602AB0522D1
S3150000303005A948460DF05EFB0228804621D0484689
S315000030400CF087F901999DF80820DFF8E067081869
S315000030508518681C8DF8000000F0F8F8EC1C0128B3
S315000030604FF6FF7B0ED0022813D0042800F0C8804C
S3150000307006281CD0072876D0082829D07C2800F0FE
S315000030808980DDE0EBB2002249460020FFF733FEDF
S31500003090D6E03068417B012902BFDFF8942710781B
S315000030A0002803D1EAB24946FFF7FAFEC8E05046C7
S315000030B00BF05EFA014658451CBF50460BF0C6FFA2
S315000030C03068417B022902D150460CF00CF9B7E07A
S315000030D09DF80010484605F07DFE0746E1B24846D9
S315000030E005F078FE0446AD1DE9B2484605F072FECD
S315000030F058450546EBD00CF0C6F83068417B1329DD
S3150000310008D100F078FA48460CF0C7F90146204687
S315000031100DF005F93068407B022818BF13281CD132
S3150000312028460AF0E6F838460AF0EBF800210020B7
S3150000313000F000FA5146204600F01DFBDFF8F406C9
S31500003140DFF8F816C0780F28B4BF401C0F200870AF
S3150000315000F0BCF83068417B132971D123224273F9
S315000031600BF0F2FA6CE001980121384405F060FC9E
S31500003170044600230022214601200CF0BFF8002857
S3150000318020465BD005F0D1FB05AA4146484608F02B
S31500003190D1FC55E09DF8001000F059F80746AD1C2B
S315000031A000F054F8652F08BF6D2849D1DFF8901656
S315000031B00A6812F80970E0B2B84241D208225146B4
S315000031C003A8FEF72BFB6B460022E1B248460CF043
S315000031D007FAA8BB9DF80000FF2831D0DFF8644647
S315000031E00120207001F0F5F99DF8001003A80CF0FD
S315000031F06FF801F0F4F9002020709DF800001DE042
S3150000320048460CF068F904460FF268600088ADF88D
S315000032100A0000210191009102230DF10A02012109
S3150000322020460CF002FBFF28054609D021460CF08B
S31500003230CBF80021284606F03DF8284605F075FB38
S315000032400DB0BDE8F08F000000F8FF07E9B2484670
S3150000325005F00CBD38B5022001F0B7F901F0BEF952
S31500003260DFF8CC45DFF8C4550020207606F086FF4F
S3150000327028B12968C87E10B9FFF7F4F820E006F0F7
S315000032807DFF10B900F0C6FB48B1207C38B1FFF7CE
S3150000329033FB207C411E217406F0FBF810E0286801
S315000032A0417B132909D000F0B5FB30B92868407B73
S315000032B011281CBF4328412802D1E07BFFF751F9B2
S315000032C0F8E1DFF86C1500200874704710B501F0BE
S315000032D09DF9FF28DFF8584503D0207D10B1012065
S315000032E000E000200BF0A2FE002060800822201DD6
S315000032F0BDE810400021FEF7D8BA2DE9F84389460B
S31500003300DFF82C45DFF82C8501210546617384B072
S315000033101746404608F0B1FB04F052F900281ED1CA
S31500003320012D01D028001BD100974B46262297A1DC
S3150000333003200AF066F801F04CF9DFF80C05046882
S315000033403CB1012D08BF0BF0ABFB39464846A04700
S3150000335003E03946484603F098F901F040F95FE08A
S31500003360DFF8C8643068407B23280DD100F0A7FA47
S31500003370044600F0A8FA214602F089FC022000F07B
S31500003380AAFA06F075FD4BE0002F49D121281CBF93
S315000033900428532802D104F09FFB41E000F03AFBD9
S315000033A0F0B108F0ADFB28B9207B00280CBFAB209C
S315000033B094202AE00DF089FE404608F05EFB28B115
S315000033C040F2C1610FF29C4003F0DCFB207800283C
S315000033D0404602D1FFF75DFA22E0FFF7C9FB1FE086
S315000033E03068417B132916D100F0E6F8BDF80000DD
S315000033F009F087FF00F0FFF83068017B032918BF4A
S31500003400042905D1332141739620FFF7AAF807E076
S31500003410FFF784F804E0042D04BF48460EF056FC7E
S315000034204FF400600BF09DF810B90CF0D5FC08B114
S3150000343005F074FF05B0BDE8F08338B5DFF8EC534E
S3150000344004462868017BA14203D00473204601F09C
S3150000345024F903F0BCFF40B11CB9002003F0B3FF10
S315000034600EE0012003F0AFFF00E01CB12868017BED
S31500003470042905D101F07CF8FF2808BF012000D0FF
S315000034800020BDE8324006F031BA0000DCDB032044
S3150000349038B50C460546E07A0DF0A0FBFF2801D1B1
S315000034A08A2032BD94F90A0000F0C0FA08B18B20D8
S315000034B032BDDFF878030268E17A91730068A17A79
S315000034C0C173284609F015FF4FF6FE7085420CBF02
S315000034D04FF6FF70208909F014FF2089DFF850139A
S315000034E04880002032BD0000D43B030038B50C46AE
S315000034F0154609F0FEFE09F08BFF2946204600F02E
S315000035003AF908F0FDFA38B1DFF82803C0780F2839
S31500003510ACBF0F20401C06E000F009F80A7B012A28
S315000035200CBF00200120DFF81413087031BDBF481E
S31500003530016870477FB504460D4600F03DF8BB4E66
S3150000354094B1424A0021284609F02CFC30680178E3
S315000035508DF804100822007B8DF80500214602A88C
S31500003560FEF75CF90EF02FFD3068817B8DF80310B5
S31500003570C17B8DF8021009F0C0FEADF8000009F01D
S31500003580B4FEADF8060000F019F87FBD42424200D5
S315000035901FB5044600F010F81CB100208DF8050098
S315000035A007E009F0A2FEADF8060009F0A6FEADF8A8
S315000035B0000000F003F81FBD684649E0102307220B
S315000035C06946002009F00EBB80B58AB0FFF7F4FF0C
S315000035D0BDF80000ADF8180004A99DF803008DF8A9
S315000035E01B009DF802008DF81A00BDF80600FFF7D3
S315000035F04FFF0BB000BD70B586B0012000F0DCF8BF
S315000036000FF274210400D1E90023CDE900234FF61F
S31500003610FF752E4607D0854800684688011D08229A
S315000036206846FEF7FBF80EF0D9FC02A800F010F889
S31500003630002C0EBF00226A463546BDF80E0029460C
S31500003640FFF754FF0EF079FF06B070BD00F8FF07D4
S31500003650014610230722012009F0C4BA38B5082014
S3150000366000F0B3FF054600F0B9FF704C77482268BA
S315000036700178917300F0B0FFA84208BF00F040FF48
S3150000368000210020FFF756FF2068007B032818BFA3
S31500003690042802D10BF043FB01E00AF079FF9B23DB
S315000036A000F00DF89B2000F0FFFF2068002120F8B5
S315000036B0441F4180BDE8314000F091BFE37B1322F7
S315000036C057A1032009F09DBE10B504460DF086FAF9
S315000036D0FF2801D18A2010BDFFF729FF487B022869
S315000036E018BF032801D0702010BD58480470082068
S315000036F000F06AFF564801780B2901D03D2010BD25
S31500003700544805F08EFD08B9A12010BD002010BD5B
S315000037104F490A780B2A01D03D20704743490A6871
S31500003720907300F0EDBE1FB504466846FFF790FFA4
S315000037309DF8050040B1042806DC3C490A689DF85E
S31500003740041013788B4201D0932001E020700020F2
S3150000375004B010BD1FB504466846FFF779FF08227E
S3150000376002A92046FEF75AF81FBD30493A480A68B2
S31500003770137BC05C704710B52C4C2368588029B960
S31500003780BDE810400822181DFEF78FB80822181D44
S31500003790FEF744F8216848884FF6FF72904204D03D
S315000037A0BDE81040091D0BF0B1BD10BDBDF8080005
S315000037B04FF6FF71884270471FB504461C4890F8C3
S315000037C02810C80707D500F016F8FFF7EFFF02D05C
S315000037D000F00CF808B1002006E024B1BDF808009E
S315000037E06946FFF7C8FF012004B010BD0822FF217B
S315000037F0684600F0FDB80A230A226946012009F04E
S31500003800F1B9164A107000281EBF1549098800290B
S3150000381005D04FF47A704143101D03F037B8704756
S3150000382042420000B8D8032048F7032040F703209F
S3150000383084F60320BCF6032054D90320C3FD0320DD
S31500003840A4D80320F0F6032024F70320B2FD0320BA
S31500003850DEDB03205D360000D43B0300B0F6032018
S315000038609ADB03206173736F63696174696F6E2EEF
S315000038706300000004600000FFFFFFFFFFFFFFFF83
S3150000388020B500217BA2CBB2D35C834205D0491C74
S31500003890CDB2082DF7D3002020BD012020BD0000A9
S315000038A020B5002175A2CBB2D35C834205D0491C5A
S315000038B0CDB2082DF7D3002020BD012020BD6A48D7
S315000038C001684888704768480168081D704766485F
S315000038D00168C87E704738B5634C644D21684873EB
S315000038E00228634915D12068027B042A1CBF0846BA
S315000038F002F0C2FF2068007B03281EBF042828466A
S3150000390002F0BAFF20684169C80054BF9024BC2465
S3150000391010E00020087028700EF021FE2068007B61
S31500003920032818BF042802D10BF0F9F901E00AF0C8
S315000039302FFE9124204603F009FB50B9234613229B
S3150000394048A1032009F05DFD2046BDE8324000F0A5
S31500003950ABBE31BD44480168487B00F00F0070479C
S31500003960414801684A7B02F00F02022A01D1012078
S3150000397070470020704738B50446FFF7F1FF3A4D0F
S3150000398028B92868417B032901D0932032BD09F06C
S31500003990B4FC20812868C17BA1722868817BE17212
S315000039A02046FFF7D7FE0020207304F1140104F12E
S315000039B0100009F0CFF9E081002032BD70B52A4D24
S315000039C02E680C46FFF7CCFF20B9707B032801D088
S315000039D0932070BDF07B20702968887B0CF054FF23
S315000039E060702868817B01F01F01A170002070BD06
S315000039F010B5002300E05B1CDCB28C4205D210F847
S31500003A00014B9442F7D0002010BD012010BD0821C3
S31500003A100EF0A7BD14480168487B01281CBF312859
S31500003A20332801D1012070470020704710B50446A5
S31500003A300DF094F8010002D10B490A68D47310BD49
S31500003A400948016891F90F00704707480168887BAB
S31500003A50704701207047044801688A7B500918BFE7
S31500003A60012070474242000040F7032034FA032049
S31500003A702CFA03200001020304051D20020304059D
S31500003A8008090A0B01207047012070470120704782
S31500003A907047B52070477047704700207047002078
S31500003AA070470020704700207047002070470020B4
S31500003AB070470020704700207047012070470120A2
S31500003AC07047B520704700207047002070470020DF
S31500003AD070470020704770470020704770470020ED
S31500003AE07047704700207047842070477047002059
S31500003AF07047704770477047002070477047002036
S31500003B007047012070477047704770470120704723
S31500003B100020704700207047034801680878012894
S31500003B2008BF0220704700002CE003207047704752
S31500003B307047002070470020704700207047002023
S31500003B407047002070470020704700207047002013
S31500003B507047002070477047B520704700207047B7
S31500003B600020704700207047704770477047B520A7
S31500003B70704770477047704700207047704770471E
S31500003B804FF6FF729042014608D0000A01D000208D
S31500003B9070473A48027811EA020000D001207047C7
S31500003BA0020A07D1354A1378002914BF184323EABD
S31500003BB000001070704710B5830800EB5374C108FD
S31500003BC0E4080122A0EBC40002FA00F000EB012099
S31500003BD080B210BDF8B504460D4616461F46FFF7DF
S31500003BE0CFFF58B13A46314620200EF019FE1DB1DE
S31500003BF01FA120200EF00CFE21480480F1BD0CB45C
S31500003C0080B50A4602AB012104E00CB480B50A4631
S31500003C1002AB0021FFF7DEFF01BC5DF80CFB2DE9CE
S31500003C20FC410024174DDFF8608012A712A6A0B24F
S31500003C30FFF7C1FFFFF7A4FF002814BF3046384640
S31500003C400090224658F82430294620200EF0CDFD5B
S31500003C5020200EF030FE641C042CE8DBBDE8F38166
S31500003C600122FF2101E0012200210448FDF71DBECB
S31500003C700D0A00006E6F000059455300B8DB0320A3
S31500003C804AFD03205CEA020024D6032080B5FFF734
S31500003C9092FFBDE80440012182E780B5FFF78BFF64
S31500003CA0BDE8044000217BE7F0B50A463F4C3F499A
S31500003CB0B0FBF4F401FB14004FF46165B0FBF5F5BD
S31500003CC015714FF4616115794D43411B3C26B1FBDB
S31500003CD0F6F656713C21577911FB0755401B90713A
S31500003CE001234FF4FA6010809370D37000262E4D96
S31500003CF003E0002300E00123761CA64235D290782B
S31500003D00190003D0022808BF1D2102D0291811F876
S31500003D10011CD778B94203BF401C907001277F1C55
S31500003D209078D7700D28E7D113885B1C138001208B
S31500003D3090709BB25F0803EB97708008B3EB80012D
S31500003D40D7D1642093FBF0F0642101FB10300028EA
S31500003D50D1D14FF4C87093FBF0F04FF4C87101FB5A
S31500003D6010335B1E9B41DB0FC6E7F0BD18B587B06D
S31500003D70044605A9FFF798FF9DF81A009DF819104B
S31500003D809DF817309DF816200390029104949DF833
S31500003D901800BDF8141001900091054805490088E7
S31500003DA0FFF72DFF08B010BD64ED02008051010041
S31500003DB04AFD032040ED0200FFF7D8BEFFF783BEA1
S31500003DC02DE9F04104460D4616469846FFF7D8FE03
S31500003DD050B1002705E02A5C41462046FFF715FF53
S31500003DE07F1CB8B2B042F6D3BDE8F081002B14BFF9
S31500003DF03BA33CA3E4E738B504460D462846FDF749
S31500003E000FF80246691CFFE7204601B0BDE83040C6
S31500003E1035A3D5E718B587B001783A4C06914278B4
S31500003E20059281780491C2780392017902914279D0
S31500003E3001923E2281790091C37920883049FFF7AB
S31500003E40E4FE08B010BD014600220220FFE72DE97E
S31500003E50F84F88469246002625A726A40FF28C091D
S31500003E60284D8DF800009DF800B05E4515DA2888CB
S31500003E700123082208EBC601FFF7B8FF5FEA0A0034
S31500003E8004D1701C584518BF4A4600D122462888DE
S31500003E903946FFF7BAFE761CE5E7BDE8F18F2DE956
S31500003EA0F041184D04462888FFF76AFEB0B101209C
S31500003EB0002611A70FF24408E1070AD518B9288889
S31500003EC04146FFF7A2FE2888F2B23946FFF79DFE6B
S31500003ED00020761C6408F1B21B29EDDBBDE8F081F9
S31500003EE025782000257800002563000000000000EA
S31500003EF0202570000D0A0000256400002C2000001B
S31500003F000CEA02004AFD03201CB5044621684879E4
S31500003F10FCF748FA88B92068418803290DD0E27C6D
S31500003F200192009143790A4A0A490120FFF767FE88
S31500003F3001212046FCF79EFD07E020460EF0DEFC40
S31500003F4001001CBF2046FCF795FD012016BD00BFF1
S31500003F5098EA02006CEA02000098002100E0491C81
S31500003F608AB28242FBD370472DE9F04F044687B0F0
S31500003F702168E07CB1F802900490607DD4F8088056
S31500003F80A689277D002807BF40228DF80C208023B4
S31500003F908DF80C304879FCF705FAC8B90498002862
S31500003FA018BF022814D003281CBF0528B9F1030F37
S31500003FB00ED0DFF854140120FFF721FE049BDFF832
S31500003FC04C24DFF84C140220FFF719FE0121F5E11D
S31500003FD0E07B18B1218A002900F03681DFF83434FD
S31500003FE000221A80617D00290CBF0821002108B13A
S31500003FF041F004010846FCF7B8FEE07B10B1208AC8
S31500004000FCF7C2FEA07CDFF810B4FCF7AEFE049A03
S31500004010F51B791C162A88B208EB070A00F21081F4
S31500004020DFE812F017001A01830034004C01830008
S3150000403009015101140156015B016001D1007701AC
S315000040400E010E010E018801B1018801BE01D100E9
S3150000405077010120FCF789FE9DF80CA0DFF8B45328
S31500004060B8B2801C8642C0F2AB803246B9B2404636
S31500004070FCF7B6FE834600F0F3F900F0F9FB18B939
S3150000408000F0EEF90EF07BFFBF1CE9E70420FCF719
S315000040906CFE0025ADF80E902BE00598CDF808B023
S315000040A001904A46218A9DF80C3000912068BDF89F
S315000040B00E1040790EF07BFE010017D010E0584636
S315000040C00FF086F882465846FCF71FFF00285FFA75
S315000040D08AFAE2D0F01BA0EB0A00C01EDDD58020D4
S315000040E0FCF743FE4846FCF74FFE6D1C5744FF1C89
S315000040F0BFB2F81C8642C0F26C8100F0ACF9814672
S3150000410008F1020008F1030110F807B039440591DF
S315000041105846FCF7FAFE0028D1D00598FCF780FE39
S3150000412000F1010ACFE7BB4908800420FCF71DFE19
S315000041300025ADF80E90CDF81480AA46069620E02C
S31500004140FCF713FE4046FCF71FFE6D1C15E03046DB
S315000041500FF03EF881460296CDF804B04246208A1A
S315000041609DF80C30BDF80E100090206840790EF0D6
S31500004170CDFD0100E4D10AF1010A57FA89F7FF1CC7
S31500004180BFB20699F81C884280F22F818AB2059840
S315000041903946FCF725FE80460598811CCE5DC11C7C
S315000041A001EB070B3046FCF7B0FE0028CFD058468F
S315000041B0FCF736FE00F10109CDE70020FCF7D5FD3E
S315000041C0FCF714FCFDE00C2A0CBF0D201620FCF7B2
S315000041D0CCFD00F040F9054608F10200049910F8FC
S315000041E007800C2905D1B8F11A0F09DB4FF0190821
S315000041F006E0152904D1B8F1140FA8BF4FF0130833
S31500004200844801880BEB01070020FCF7AEFD0498FB
S315000042109DF80C30CDF8048015280CBF0120002035
S3150000422002902A46208A00904946246860790EF05A
S31500004230D9FD3870C4E72046FFF731FC0028C1D10C
S31500004240E07B002800F0C3808421B7E02046FFF71A
S315000042507EFC0028B6D1F3E7B9F10A0F29D1DFF8C1
S31500004260BCB19BF8000020B3E07B002804BFF01B24
S3150000427008281ED100F0EFF8002802BF08F102015D
S31500004280C85D002804BF9AF80300E22811D13F1D3B
S315000042903246B9B24046FCF7A1FDFFF78DFDFFF7A8
S315000042A08DFD02465E490220FFF7A9FC00208BF82F
S315000042B0000000F0CCF800F0E8FA7DE000F0C7F866
S315000042C0FFF75AFC78E000F0C2F8FFF7EAFB73E06C
S315000042D000F0BDF8FFF73DFC6EE000F0B8F800F026
S315000042E0D6FA69E089B29AF8007018F80150208A67
S315000042F09DF80C10019000912B46246860793A468F
S315000043004946FCF71EFE2A4639464846FFF7CBFBD0
S3150000431057E09AF8001001B10121162A0CBF0122BC
S3150000432000220092361A08EB0002B3B24846FFF7A5
S31500004330BCFB41E09AF800809AF80170112A04D17A
S315000043401220FCF712FD002003E01420FCF70DFDFF
S315000043500120304D298803970E46CDF80880C1F11B
S315000043605101019589B200914A460BEB06014B1C9F
S315000043702146FDF7D6F900B101200BF80600288882
S31500004380401C28801CE700F054F81EDB00F057F8AC
S315000043900020FFF7E1FD00F045F8FFF78AFB0BE090
S315000043A000F047F811DB00F04AF80120FFF7D4FDD2
S315000043B000F038F8FFF77BFB18B900212046FCF720
S315000043C059FB012007B0BDE8F08F0020FAE78221F3
S315000043D0F4E7EDB2BDF80E90002DD3D1E07B277D3A
S315000043E0002814BF042002209DE6049905292046D2
S315000043F0E7D0EDB2002DC5D15FFA8AF100297FF42E
S31500004400DCAE8021DBE70000A0EA0200C8EA020079
S31500004410ACEA020046FD0320D8DF032070FD03202E
S31500004420D0EA0200B6B200964346218A3A4648468A
S3150000443070479AF8007007B101278642704780449A
S31500004440361AB0B2009043463A4649467047AAB279
S31500004450514648467047324639464046FCF7C0BC8E
S315000044602888C0F1520080B201905346218A0091FB
S315000044705A46D4F800C09CF805004946704700200B
S315000044800021704738B57848784C00682060606035
S3150000449048220021FDF709FA754A2168107808704C
S315000044A04FF6FF71206800224180027323685A7319
S315000044B00B222068827314232268D3734FF6FE738F
S315000044C02068038241820EF0ABFE216808760EF06A
S315000044D0A7FE216848760EF0A3FE2168654B887614
S315000044E0654821680278CA76644920680A6840F8F7
S315000044F0282F1D780571624822680168116331BD55
S3150000450010B50CF018FB594C6168897B884203D0C2
S3150000451008460CF015FA50B90CF011FB616891F9D8
S315000045200F10884205D008460CF018FB08B1012090
S3150000453010BD6068008A0CF040FF6068408A0CF08D
S315000045405AFF6068017B01290CBF012000200CF096
S3150000455021FF002010BD10B54A4C0020207005F048
S31500004560DEF920B92046BDE8104002F085B970E0BA
S3150000457080B5002000F015F828B1002000F005F8FD
S3150000458008B1002002BDFF2002BD38480168487B03
S3150000459002281CBF1128432801D1012070470020A2
S315000045A0704732480168087B01281CBF022803288F
S315000045B001D101207047002070470020704700207D
S315000045C070473149087070477047002070470120D6
S315000045D0704770470020704700207047704770474B
S315000045E00020704780B50020FFF7CFFF20B10020E4
S315000045F0FFF7D7FF00B1012002BD80B50020FFF70D
S31500004600C4FF08B1002002BDFF2002BD80B5002016
S31500004610FFF7BBFF30B1154801680A7B032A01DAB0
S31500004620002002BDFF2002BD10B5040000F0058089
S3150000463040F27D1151A002F0A5FA1349087808B995
S31500004640702010BD0849094B0A68482044431019D8
S315000046505860BDE8104053E704484168088A70472F
S3150000466002484168488A7047D0D8032040F70320A3
S31500004670D1DB0320C7DB0320D2DB0320D4D8032001
S31500004680D8D8032038F70320E1DB03207047002049
S3150000469070470020704704F0FCBE002818BF0EF0DB
S315000046A0E3BD704702F011B801F0D2BE82B08DF8BA
S315000046B00010DDE9002311461A4602B0FDF7EFBDF2
S315000046C033B585B005468DF80420FFF7D9F80446C2
S315000046D02846FFF7E5F87CB10028BDF818000FD191
S315000046E0FFF7B9F98DF80000FF2804BF00218DF807
S315000046F00010CDF808D016E0A8B106A8029012E086
S31500004700FFF7A9F98DF80000FF2804BF00218DF8F6
S3150000471000109DF80000BDF818108DF80C0003AAD3
S31500004720ADF80E100292DDE901010A46014628465F
S31500004730FDF7B5FD07B030BD0000000073B582B0CF
S3150000474004461546FFF79CF806462046FFF7A8F8EC
S315000047502EB120B903A98DF80050019105E04FF460
S31500004760057100BF05A002F00DFADDE900010A4659
S3150000477001462046FDF793FD7FBD0000656D62652D
S31500004780722D6D756C74692D6E6574776F726B2DF5
S31500004790737475622E63000062B38B0708D0521ED5
S315000047A011F8013B00F8013B00F024808B07F6D19D
S315000047B0830740F0208000BF103A07D330B4B1E839
S315000047C03810103AA0E83810F9D230BC530724BF8D
S315000047D0B1E80810A0E8081044BF51F8043B40F8BF
S315000047E0043BD20724BF31F8022B20F8022B44BF2A
S315000047F00B7803707047121F17D35B0009D151F86D
S31500004800043B20F8023B1B0C121F20F8023BF6D299
S315000048100BE051F8043B00F8013B1B0A20F8023B71
S315000048201B0C121F00F8013BF3D238BF121D521E9B
S3150000483024BF11F8013B00F8013BF8D8704780B55A
S31500004840FFF74CF9FBF7ECFDBDE801400EF0F6BDB5
S3150000485080B5FFF746F9FBF70DFE0EF0DBFEBDE86F
S315000048600140FDF7F3BC7047FFF767B9FFF76BB977
S315000048700020704738B504460D46FFF77FF92946F4
S315000048802046BDE834400EF02ABFFFF75EB9FFF7B9
S3150000489069B930B4002513E050F8042BD30744BFA0
S315000048A0A9F101039A18091F042942F8045BFAD2F8
S315000048B013468C0744BF15809B1CC90748BF1D7053
S315000048C050F8041B0029E7D130BC7047DFF8FC1410
S315000048D0012008707047DFF8F4140A7882421CBF82
S315000048E00870FDF796BC70470170090A4170801C7C
S315000048F0704710B504460822FCF790FF04F1080043
S3150000490010BD2DE9FF4104460F46207D0A9E810712
S3150000491020781D464CBF4CF601484CF6010800288D
S3150000492033880CBF1E21202103EB010C624508DAF7
S31500004930009204200A46DFF89814FFF766F97420FF
S3150000494045E008B948F0200801A801F039FE4146C3
S315000049503846FFF7C9FFA189401CFFF7C5FF217D37
S315000049608A0703D5611CFFF7C4FF02E06189FFF7E0
S31500004970BBFF804601F05EFC01464046FFF7B4FFF0
S3150000498001A9FFF7B6FF0B21FFF7AEFF217841F033
S31500004990030100F8011B22780C2A04BF618AFFF785
S315000049A0A3FF218AFFF7A0FFE189FFF79DFF328869
S315000049B080462946FCF732FF207DC10748BFB72055
S315000049C005D431880B984144CF1B0780002004B0E2
S315000049D0BDE8F081F8B504460E46154616220021BC
S315000049E02846FCF762FF6178227802EB01214FF638
S315000049F0DF7001404CF6014399421AD104F10D00D3
S31500004A00871C41780278A88A02EB012240F0020056
S31500004A10AA81A88208223946681CFCF7FFFE07F126
S31500004A2008003278011BC9B2511ACAB2072A06DA3F
S31500004A3046E04CF60100814242D1E01DE0E74278B3
S31500004A40037803EB02230B2B3AD18378DFF8842318
S31500004A508E1EC11C23F02C000328F6B218BFDFF807
S31500004A6078132AD113F00C0018BF0828287002D03A
S31500004A700C2803D01FE0052E08DA21E0072E1FDBE5
S31500004A80487811F8026B06EB00266E8248780E789D
S31500004A9006EB0026881C2E824178067806EB012656
S31500004AA09906EE810ED5A88ADFF8301340F0010092
S31500004AB0A882B52301E00346C9490420FFF79FF801
S31500004AC00020F2BD801C041BE0B2F2BD71B50E469B
S31500004AD08BB0C4490220FFF792F802AA0BA9304610
S31500004AE0FFF778FF040029D002A800F0D9F89DF856
S31500004AF02C502D1B34442246E9B202A8FFF708F8D1
S31500004B00A0B92246E9B202A803F041FC70B9BDF88B
S31500004B1016004CF25E01884204BFBDF81800B0F5DD
S31500004B20805F05D1B0490220FFF769F8012051E006
S31500004B302246E9B202A800F05BF8002856D09DF89C
S31500004B401C0081070DD54FF6FF70ADF81200082244
S31500004B50A6490DF10900FCF7AFFE411E8941C90FB8
S31500004B6007E001F065FBBDF8121088420CBF012179
S31500004B700021BDF81600BDF81820ADF82000ADF8EC
S31500004B80222001239A4802789DF81C008DF82520E2
S31500004B908DF82430C2074CBF20200020ADF8260037
S31500004BA00023BDF81A209DF80800ADF828208DF8DE
S31500004BB02A3020B108280FD00C2812D016E0002188
S31500004BC0BDF81220009202A80190EBB2224608A876
S31500004BD0FBF7AAFD0CB070BD00290CBF042105210E
S31500004BE0EEE700290CBF02210321E9E70020F1E7E7
S31500004BF0FEB50025144602290346764A07DC032340
S31500004C00009304200B467B49FEF7F9FF46E0187D2A
S31500004C10C60743D42678B00703D5774900F091F844
S31500004C203CE016F0040018BF0825F70758BF45F00A
S31500004C30040536074CBF02260126354338B1042940
S31500004C4003DC6E4900F07DF828E0217900E0A178C8
S31500004C50D889002401E0641CE4B20627684E17FBDD
S31500004C6004F73E444FF6FF7C378867450ED08742EF
S31500004C7002BF7788B3F810C0674504BF37798F4203
S31500004C80E9D176792E42E6D00120FEBD0191198A3E
S31500004C90009103465B490420FEF7B1FF0020FEBDEC
S31500004CA038B5044658490420FEF7AFFF207808B906
S31500004CB044A106E0082808BF544902D00C2803D1B5
S31500004CC053490420FEF7A1FF524900F037F8A289A4
S31500004CD0514900F036F8207D81073BA509D54F499B
S31500004CE00420FEF792FF601CFFF794F800F025F809
S31500004CF003E062894A4900F024F8E289494900F054
S31500004D0020F8228A48490420FEF77FFF0420FEF798
S31500004D1037FF28B1FBF7F5FB0146208AFBF7D6FBE8
S31500004D2000F00BF820780C2806D1628A3F49BDE8CE
S31500004D3038400420FEF763BF31BD29460420FEF744
S31500004D405EBF0420FEF75BBF33B5A3B001781F4BEF
S31500004D501446002919780CBF1E22202209B970209A
S31500004D602CE0BDF8901089187E2929DA24AB00932F
S31500004D7002AD019523467D2203A9FFF7C2FD01007E
S31500004D8005D1BDF8080003A9C0B2FDF727FA010056
S31500004D9014D1FFF713F8BDF89030254902460420D8
S31500004DA0FEF733FFBDF89020012321460420FFF7CC
S31500004DB01DF800221F49FFF7C4FF002025B030BDB3
S31500004DC07420FBE7756E69000000000087FD032074
S31500004DD0B4FE020004FF0200E4FE020030FF0200FF
S31500004DE014FF020050FF020074FF020048F7032080
S31500004DF0C4DE03209CFF0200BCFF0200DCFF0200B1
S31500004E0000010300F4FF0200300003004800030025
S31500004E105000030058000300600003007400030004
S31500004E20840003009C000300B0000300C8000300D8
S31500004E30DC000300F800030001E0000000BF0021D1
S31500004E400170704710B50020DFF8B018FF2200246B
S31500004E5041F8304001EBC003401C0A281A71F7DB09
S31500004E6010BD2DE9FC4F82468FB0FF27BDF84000EC
S31500004E708DF8117002288B4605DD1A9E31784B0796
S31500004E8007D5042803DC012011B0BDE8F08F307986
S31500004E9000E0B078DFF864888DF80800002108F19A
S31500004EA00403C8B213F83040FF2C00F0B280491C4E
S31500004EB0C8B20A28F5DBDDF878905FEA090003D06E
S31500004EC0FF2F08BFB420DFD000208DF81200144653
S31500004ED00AAA20790DF11201FEF7FBFD58B1BDF8C3
S31500004EE0340020809DF81200FCF7FDFC00288DF8A8
S31500004EF010003DD113E02079FCF711FB0546FF2D8C
S31500004F0008BFA320C0D02079FCF7F2FC8DF8100072
S31500004F1070BBDFF8EC1701EB051042882280BAF16E
S31500004F20000F0CBF58464FF6FF70019000216088B5
S31500004F301B9D00902A4623889DF80800FBF79CFDE0
S31500004F4018B1E08840F02000E080CDF81490069477
S31500004F500796ADF820B08DF824A08DF8255004A949
S31500004F60BDF84000ADF8220005A8FEF7EAFD10B135
S31500004F709DF8100088E73046FBF7A5FCA01DFBF75F
S31500004F808FFC224659465046FBF79CFDBDF8401063
S31500004F90884224D31D981C99BDF840300390029195
S31500004FA00DF1110001900096DBB22246594650469B
S31500004FB001F0C0FA8DF810005FEA090013D09DF8E1
S31500004FC0100080B99DF81100FF281CD00A2F1ADAAC
S31500004FD008F1040101F8370048F8379013E074200F
S31500004FE08DF8100012E09DF81000BA2808D1A079BB
S31500004FF0C1060BD500208DF81000012001F053FDED
S315000050009DF8100010B911200EF02DFAFCF779FC6E
S31500005010AEE707464FE75CB585B001260A9C0881D6
S3150000502000F054F80146039402940196032049E0E7
S315000050301CB500240094FFF7EEFF16BDF8B504007A
S3150000504084B00E46154603D0300018BF002D01D19E
S3150000505002202AE000276946F8B200F0A9FE010006
S3150000506023D19DF80010032902BF9DF80110227973
S31500005070914202BFBDF802106288914211D19DF89B
S3150000508005009DF8061000EB012020812B469DF8B7
S31500005090041061713246214680B2FFF7C9FF010054
S315000050A003D17F1CF9B20A29D5DB05B0F0BD5CB58A
S315000050B085B00A9C00F00AF8012601460394029482
S315000050C001960620FFF7CDFE07B050BD009304946D
S315000050D013460A46002470471CB500240094FFF7C7
S315000050E0E6FF16BDF0B5022885B004460D46164605
S315000050F01F460BD16946E8B200F05AFE010013D1F3
S315000051009DF8010030719DF8040070713B460B99C3
S315000051100A98049100900021039102910191324670
S3150000512029462046FFF79DFE05B0F0BD3EB5069C1C
S31500005130009400250195FFF7D5FF3EBD2DE9F84106
S3150000514089B00446884616461F46002505A9E8B2DA
S3150000515000F02EFE010022D19DF81410012902BF95
S315000051609DF815102279914202BFBDF8161062888B
S31500005170914210D19DF818006071002103910291AF
S3150000518001910497009643462246E9B20220FFF7B2
S3150000519068FE010003D16D1CE9B20A29D6DB0AB00C
S315000051A0BDE8F081F8B586B005460C4616461F46A2
S315000051B0162200216846FCF778FBADF80C50ADF8D6
S315000051C00A606CB1082221460DF10100FCF726FBAE
S315000051D0BDF8141041F00201ADF81410002104E0EE
S315000051E0380005D0ADF812700C218DF8001007E0DC
S315000051F04FF6FC708642B4BF002008208DF80000F0
S315000052000D980C9B0F9A0E99ADF80E00ADF8103064
S315000052106846FFF799FD07B0F0BD0420FEF7EFBC26
S3150000522080B50346DFF8DC0400880A0007D1BDE834
S315000052300050DFF8D424DFF8D414FEF7E6BC009162
S31500005240DFF8CC24DFF8CC14FEF7DFFC01BD10B587
S31500005250FF280C4605D1DFF8C0140420FEF7CFFC6A
S31500005260FE202146BDE810407CB504460D46FDF7FC
S31500005270C1F9064633462246DFF8A0140420FEF79D
S31500005280BEFC85B1DFF898140A6801A801AB02607C
S31500005290032000908DF80540002236214FF6FC7061
S315000052A00EF08BFB0646304676BDF8B50D46044635
S315000052B0288817461E4608B10020F2BD6A88DFF826
S315000052C06414B2F5004FACBF7B7800230820FEF7CC
S315000052D096FC6888DFF8501413381ED047F6EE7235
S315000052E0801A21D0401E29D0801E06D0401E21D013
S315000052F0401E05D01A380CD02EE0DFF8302428E006
S31500005300DFF82C240820FEF780FC3A79DFF8241415
S315000053101FE07A78DFF820141BE07878B97800EB84
S315000053200122DFF8181414E0DFF814140820FEF741
S3150000533066FC11E03A79DFF80C140AE0DFF808247D
S315000053400820FEF762FC7878B97800EB0122DFF8D6
S31500005350FC130820FEF753FC33463A4629462046FE
S31500005360FFF784FA002802BF688848F221018842C4
S3150000537003D179782046FEF7B9FB6888B0F5004F6F
S31500005380C4BF08200EF08AF80120F2BD2DE9F047CF
S3150000539088B0109C119D81460E46924698460EF0A6
S315000053A0B4FB07467088DFF8A813009022463388BE
S315000053B00220FEF724FC8DF8089003960495ADF8BC
S315000053C01440ADF816708DF818A08DF8198000F00D
S315000053D035FF8DF81A0000F033FF8DF81B00FFF73C
S315000053E0ECF88DF81C0002A8FEF7A9FBA8B9234625
S315000053F02A46314638460EF01CFD70B923462A4629
S3150000540031463846FFF751FF38B9019000972346D9
S315000054102A4649463046FBF787F908B0BDE8F087CB
S315000054202DE9FF471F000C9D0D9C804689461646B8
S315000054302ED0DFF82023DFF820130420FEF7E5FB4B
S3150000544033880BB984A20AE040F20910834208BFF0
S3150000545082A204D0B3F5827F0CBF81A281A20195FE
S315000054607088BE4900900420FEF7CFFB308858B103
S31500005470022D09DD2078A378C1074CBFB84AB94A86
S31500005480B9490420FEF7C1FB77A10420FEF7B7FB5C
S315000054909A490E98002201F1040CD3B21CF833E0AD
S315000054A0864521D0521CD3B20A2BF6DB4FF0000AF8
S315000054B000220B1D13F832C0844518D0521C0A2A4C
S315000054C0F8DB1AE00020029000F033F8FBF750FDFD
S315000054D0BAF1000F02D000F02CF8D04700F029F8FE
S315000054E0FEF700FBBDE8FF8751F833A0E0E7FF2099
S315000054F003F83200002041F83200002F04BF308844
S31500005500002806D17088B0F5004FBCBF08200DF00A
S31500005510AAFF01200DF0C2FF002CD9D02078C107C8
S31500005520D6D54007CED52A4601212046FBF758FCA2
S31500005530C9E7019700942B463246494640467047D4
S315000055407CB504469038894D894E0CD0401E23D038
S31500005550C01E21D0801E1FD0801E1DD013380428E7
S315000055601AD9113827D100F063FE009033462A4637
S3150000557080490420FEF743FBBC2C08D17E49042059
S31500005580FEF73DFBFEF7E7FAFEF7E6FA01E007F065
S31500005590A6FBFEF7E1FA13E0912C03D133462A4627
S315000055A0764902E0764B77492A460420FEF727FB28
S315000055B0FAF761FF04E0224673490220FEF71FFB5B
S315000055C020460EF0D5FD2046FCF75EFD20460EF087
S315000055D04FFE204601F04FFC18B1BDE87C406B49F8
S315000055E01BE673BD1CB50020FCF77DF9684C2068EE
S315000055F068B1684600F0F2FF48B920689DF80010CF
S315000056000078814203D0012808BF022906D16149EA
S315000056100888ADF800006846FDF798F9FCF771F9BF
S3150000562013BD38B55A4909680446702089B10D780A
S3150000563020890090012D08BF0225E37A564A574972
S315000056400120FEF7DCFA21462846BDE83440FDF786
S3150000565001B832BD000000005A444F005345000017
