S01200006E63702D756172742D68772E733337AC
S315000040000067002035F1020015A9000031ED02001D
S31500004010A70A0A010041000004180FAC306704012A
S31500004020000000000000000000000000000000008A
S31500004030000000008CF602000000000000000000F6
S315000040400000000000000000FFFFFFFFFFFFFFFF72
S31500004050FFFFFFFF007003000000000000000000EB
S31500004060FFFFFFFFFFFFFFFF100000000000000042
S31500004070000000000000000000000000000000003A
S315000040800000000000000000247F0020247F0020A4
S31500004090006700204D0E03004EF10200A05D0020D7
S311000040A0AC12002000000400000000002C
S315000041000067002035F1020015A9000031ED02001C
S31500004110A5D5000035ED020039ED020000000000D3
S315000041200000000000000000000000005B440000EA
S315000041303DED02007343000037580000875B000026
S3150000414085D7000001950200216C0000958F0200C2
S315000041503D950200079502000995020003950200AD
S3150000416097330100053601006BB100007B7D00002E
S3150000417045ED020045ED020023EF020045ED020089
S3150000418045ED02001336010045ED020045ED020043
S3150000419045ED020045ED020045ED020045ED020049
S315000041A045ED020045ED020045ED02003F95020097
S315000041B005950200852D01006F95020045ED020070
S315000041C099F0020045ED020000420F48816B89B26A
S315000041D001B1012141F67132826346F21A32036857
S315000041E043F001030360C2644FF480734360426985
S315000041F0D307FCD40022C264C9B203685B085B0023
S31500004200036001B182630020704708000E40000081
S315000042102DE9F84F8046DFF87C902222FF214846A0
S3150000422000F08FF8DFF870B04FF49372FF21584614
S3150000423000F087F819481A4F1A4C00904FF0220ADE
S315000042400026A25D1849BD5D885D521C02EBD27244
S31500004250521000B11932154830F816100098D21CC9
S315000042606A4300F08AF8012D1CBF2BF816A0AA4459
S31500004270761C222EE5DB22234FF4805240F27C513D
S315000042800B4800F07AF849464046BDE8F44F00F086
S31500004290D4BB00BFFC6C0020AC6D002050F10200C6
S315000042A094F3020070F302004CF3020008F30200DC
S315000042B06CF1020070B5814224D210441144401EB4
S315000042C0491E10E011F8013900F80139121F11F8E2
S315000042D0014900F8014911F8015900F8015911F88E
S315000042E0016900F8016993B2042BEBDA93B2002B53
S315000042F01EBF11F8013900F80139521EF6D170BD02
S3150000430000F00DF893B2042BFADA93B2002B1EBF1D
S3150000431011F8013B00F8013B521EF6D170BD11F8B1
S31500004320013B00F8013B121F11F8014B00F8014B4D
S3150000433011F8015B00F8015B11F8016B00F8016BE5
S315000043407047130003D00A46194601F041BA704778
S3150000435010B5034600E0521E90B218B100F003F803
S31500004360F9D0001B10BD13F8010B11F8014BA04248
S31500004370704770472F49087070470EB430B52D4905
S315000043800446087820B301F0AFFA08B301F0FAFB4F
S31500004390012001F004FCFF28054619D001F0F4FBCA
S315000043A0022101F0A7FA0146284601F0F3FB03AB10
S315000043B022462946204801F0DEFF30B1284601F0AA
S315000043C00DFB10B1042000F00BF8284601F051FC5B
S315000043D030BC5DF810FB0C2200211848FFF7B1BF76
S315000043E0164931F81020521C21F8102070470CB4E1
S315000043F080B502AA02F01CF901BC5DF80CFB0D4A5F
S315000044001178A1B9010018BF012810D0042818BFDF
S3150000441005280CD0312818BF332808D037281EBFEE
S315000044203B284FF6FF71884201D0012070470020DB
S3150000443070470000FC7E0020915E00008075002021
S31500004440302818BF322806D034281CBF3628382812
S3150000445001D00020704701207047FEE730B5DFF835
S31500004460485ADFF8484A2B882468C01A04EB4004EF
S31500004470002004E034F8103021F81030401C90423F
S31500004480F8DB002030BDDFF8203ADFF8201A1A8862
S315000044900968801A01EB4001022002F0E1B9F8B583
S315000044A004460F461646DFF8045AF0B208B34FF634
S315000044B0FF70ADF80000002017F8011BC3B2401CC6
S315000044C00DF80310761EC1B2022902DAF1B20029F4
S315000044D0F2D1DFF8D4E92868BEF800301FFA84FC70
S315000044E0ACEB030300F01CFF641C0100DDD000F000
S315000044F0EBBB0120F2BDF8B504460D461646F0B2F8
S3150000450088B1012200F010F8641C0020C2B2401CE1
S315000045101DF80230761EC7B2022F05F8013BEEDA0F
S31500004520F1B20029F2D1F1BD6946A0B296E7014683
S31500004530DFF87C09DFF87C29405C525CDFF8C03B81
S31500004540595C09B102F5997240EAC21080B270470F
S3150000455010B5DFF85C39DFF8AC2B1C5C012C1CBFF6
S3150000456032F81000081802EB400010BD70B590B08C
S3150000457005460C464FF6FF7604E0A8B2FFF783FF28
S31500004580203D2035A9B28C420DD3202201F00AF835
S31500004590002082B23DF81230B342EED1401C81B207
S315000045A02029F6DBEDE710B070BD10B50446618832
S315000045B02088FFF7DBFF0121DFF84C2BDFF84C3BAF
S315000045C0A171208811784118188801EB4001891DD6
S315000045D0A18010BD10B5DFF8384B00F087F800F069
S315000045E040F900F03BF9DFF8840C04F1080144605F
S315000045F004F110028160C26010BD2DE9F04304464B
S31500004600DFF8040B0778B946B9F1060F85B003DD6C
S315000046104FF4377100F010FB0021A1717A1C20883D
S3150000462092B201A9FFF71AFFBDF804104FF6FF7604
S31500004630B14218BF002910D00DF10408711A38F8DC
S315000046401900884209D101254D454BDA38F8150085
S3150000465040B1BDF80410884214D000F047F805B008
S31500004660BDE8F083DFF8081C0A88208812FB0521C4
S3150000467041186A437118101889B280B2FFF776FFA5
S315000046800221A1716D1CDFE72088381800F08EFF2B
S31500004690BDF80200000B4845DFD120883818401DC0
S315000046A000F085FFBDF80210BDF80200711A000A7D
S315000046B001F0FF018842D0D10320A0710122208899
S315000046C03F187F1C6946B8B2FFF7C8FEBDF8000068
S315000046D0FF2802D10421A171C1E7B042BFD0002852
S315000046E0BBD1BCE7A0790228CED1B8E720465CE76B
S315000046F0F8B5DFF81C4ADFF8745B002004F1080106
S3150000470004F11002A071A073A075A960EA606C6044
S315000047102046FFF772FF04F10800FFF76EFF04F171
S315000047201000FFF76AFFA179A07BDFF880670429F4
S3150000473008D100220428ADF8002046D1FFF74AFF31
S315000047400120F2BDA17D04282BD100200429ADF85B
S315000047500000F3D0FFF7CAFF00F080F83068DFF8FA
S31500004760A869238900F080F8060040D10320A073D1
S31500004770A07903284AD1A07B032802D1A07D012875
S3150000478063D0A07901284AD1A07B032854D1A07D0B
S31500004790012818BF0328D1D104F1080004F1100143
S315000047A057E004292BD10020ADF80000FFF79EFF4B
S315000047B000F057F83068DFF85069238A00F054F8A3
S315000047C0060014D10320A07519E0A07D0428B5D0F9
S315000047D000F047F800F042F83068DFF82C692388CB
S315000047E000F042F8060002D10320A0710AE030462C
S315000047F002F0BAF81EB14FF4747100F01DFAA079F8
S315000048000328B5D1A07B0128B5D1B7E70228B8D1D6
S31500004810A07B032804BFA07D01288FD1BCE7032815
S3150000482004BFA07B012889D1A07D03280BD104F108
S315000048301000214608340CE0022812BF0128A07D92
S315000048400328F0D1F3E70228EDD1204604F1080150
S3150000485010346860EC60A9600020F2BD04F110001D
S31500004860A3E604F10800A0E63778DFF83C66FF18F7
S3150000487033887F1CFF1A0122694600EB470002F0CD
S315000048801AB82DE9FE4F0646DFF87C08DFF8888A5D
S31500004890DFF8889A0F460178ADF8081001223488AF
S315000048A00C19641DFFF740FEDFF86018BDF8000024
S315000048B0B1F800A0641C000AADF8000050451CBF0A
S315000048C00121397000251AE0401CC1B2514514D2AD
S315000048D05FFA80FB39F81B10BDF806209142F3D130
S315000048E0C0B2FFF724FEBDF804304FF680721040C8
S315000048F01340984208BF08F80B506D1CADB2BDF8C6
S315000049000000854206DA022201A9FFF70EFEA41C6A
S315000049100020DAE70020D14601E0401C80B248457D
S3150000492017DA18F800108142F7D00120387010E02D
S3150000493021F815A00DE00128DFF8C817F8D0BBF163
S315000049407F0F31F8150008BF4FF0000B584421F8CF
S3150000495010A0A1B27088C01E88424FF6FF7A28DBED
S3150000496000F066F8BDF80200FF25504521D0601C16
S3150000497000F0D4FDBDF80200BDF80610AAEB000257
S31500004980914213D104F1030A040A00F07F0BBDF82B
S31500004990000084420ADA002000E0401C484518DA8C
S315000049A018F80010A142F8D1C5B212E00120387003
S315000049B00DE0B4807088A1B2884208D300F038F8C0
S315000049C0BDF80200641C5045F4D001213970BDE8E1
S315000049D0F78F3088BDF80830181800EB4400801DAA
S315000049E0012201A980B2FFF739FDBDF80400C0F32A
S315000049F0C710401C00EBD0700AEB60047088A1B2AF
S31500004A008842D3D3FF2DA4D0DFF8A404405DBBF1C8
S31500004A107F0F14BF59460021814286DABDF8021085
S31500004A20DFF8DC26535D0906C90F994283D07CE77F
S31500004A3001220DF10201A0B210E5F8B58DF80000D3
S31500004A40DFF8AC1BDFF86004DFF8C0460288DFF849
S31500004A50C00602800B884380DFF8AC361D782188BB
S31500004A60DFF8903BDFF8904BAA1802EB4102921D4B
S31500004A708280002282711A880281AA1802EB410202
S31500004A802388DFF8784B4381921D8281002282734E
S31500004A90DFF86C3B1A880282AA1802EB4101891DD5
S31500004AA02388DFF8C847818243820021817501F09F
S31500004AB0AFFF002853D12070FFF71AFE9DF80010B3
S31500004AC0084318BF01208DF80000012260680088A5
S31500004AD02818801CA11C80B2FFF7C0FC9DF80000BE
S31500004AE000283FD16068DFF81C766946FFF7C9FEEB
S31500004AF0DFF8880B0688A0688179032924D16946E6
S31500004B00FFF7BFFE6168DFF8A823002012E0DFF898
S31500004B10FC351B88984202DA135C012B09D137F861
S31500004B201030B1F800C0634524BFB1F802E09E45DD
S31500004B300AD2401CB042EADB02208871A168606894
S31500004B40E2686160A260E06000204FF6FF7200E05C
S31500004B50401CB04206DA37F810109142F8D1012015
S31500004B608DF80000607828B1012100208DF8001032
S31500004B70607018E09DF8000090B960680388ED1831
S31500004B80ED1C01220DF10201A8B2FFF767FCBDF88A
S31500004B900200C0F30310012808BF8DF8000002D000
S31500004BA09DF80000B8B14D2001F0DEFE6088401C83
S31500004BB06080E068FFF7F9FC9DF8000000F051F80E
S31500004BC038B100F085F820B19DF8000000F0A2FA97
S31500004BD008B90120F2BD0020F2BDF8B50D46DFF898
S31500004BE02C1517467F2F0A8808BF00271E469542B8
S31500004BF03EBFAF4B595D8F42044604D2AD4A535D6A
S31500004C009E4200D11CB940F2646100F015F83946A5
S31500004C102846FFF79DFCDFF8641B0388485D28B132
S31500004C201946284600F0C9FC2060F1BD32462146EF
S31500004C301846BDE8F8405EE40FF67C3001F0F2BE9F
S31500004C4038B5044608461146FFF782FC964D0388A0
S31500004C50DFF82C1B28880A681B1A02EB4302226025
S31500004C6031BDF8B5DFF80416904CDFF8B0560028D1
S31500004C7014BFC8688868DFF8901400880A78861818
S31500004C80B61DB6B2002701E0B61C7F1CDFF87C0417
S31500004C9001888F4216DAF8B2FFF749FCADF800003A
S31500004CA0B3B235F81700DFF8DCCABCF800E0ADF89F
S31500004CB00200A3EB0E032068022200F032FB010083
S31500004CC0E2D001E00120F2BD01F04EFE0020F2BD6F
S31500004CD02DE9F84FDFF83404DFF890250188D06815
S31500004CE0DFF82424714C137884B00025ADF8081041
S31500004CF00188BDF80800CE1806EB4006B61DB6B210
S31500004D0000E06D1CBDF80800854280F2C2804FF0BD
S31500004D10000A78E0BDF802105FFA8AF00143ADF8A8
S31500004D2002104FF6FF72BDF802005F490F88BDF80A
S31500004D300010121AADF804204FF6FF732068F21B1C
S31500004D40761C994200EB4200B6B21DD100F0BBF8CA
S31500004D5001002BD12068F71B012201A900EB4700B7
S31500004D6001F0A9FD010021D1B61CB6B25148DFF809
S31500004D70181AA8F80060425D51F825103046FFF772
S31500004D808EFB002838D18DE04A49495D491C01EB6C
S31500004D90D1714FEAC15900F096F8010006D120689A
S31500004DA0F31B012201A900F0BDFA010077D1B61C60
S31500004DB0B6B2D349A8F80060485D002843D0DFF8B2
S31500004DC0AC2410780021039128B103AA6946A8B241
S31500004DD001F022FE05E0BDF80010E8B200F0EDFBA0
S31500004DE00390F71B20684FEA196203A900EB4700FE
S31500004DF001F061FD010052D1DFF89009415D76189E
S31500004E00B6B20AF1010A2A48475D5FFA8AF1B94249
S31500004E10BFF477AFE8B2FFF79BFB8046B849B8F816
S31500004E200000ADF80000485DC00140EA0520012FF2
S31500004E30ADF802007FF46EAFBDF8020040F07F00CF
S31500004E40ADF802006DE74FF000085FFA88FBBBEB98
S31500004E50196FD1DADFF8141408780028BDF80000BD
S31500004E6004D100F029F8FFF7F9FA03E000F024F87E
S31500004E7001F0D0FD2068B344ABEB070301220DF12E
S31500004E80060100F04FFA010008BF08F10108DCD066
S31500004E9005E0DFF8D803C1688E80012002E001F04A
S31500004EA063FD00202FE300003EF902004467002066
S31500004EB094F3020070F30200411CADF800100122C9
S31500004EC00DF10601704701220DF1020101F0F3BC5C
S31500004ED02DE9F34F85B000218DF803104FF00C0932
S31500004EE0DFF8AC58BDF81810DFF8A868DFF89C3872
S31500004EF05B5C298835684C0891FBF9F9A1444D455E
S31500004F00039302D3DB18039309E0182691FBF6F10D
S31500004F10641AA54203D303EB530189B2039100251A
S31500004F20D24CADF806008DF8042000E06D1C7748E1
S31500004F3001888D4280F2CF80002687E0012202A9F7
S31500004F401FFA88F0FFF78AFAA3680498DFF834E8B6
S31500004F50B3F804C0BEF800300068DC44ACEB0303D1
S31500004F60012202A900F0DEF9010008F1010858D17A
S31500004F700AF1010A5FFA8AFBBBEB176FDEDB38E04A
S31500004F801A468DF80220BDF806309A18ADF80620AC
S31500004F9001235B4A8DF80330505DC30143EA0523C4
S31500004FA0BAF1010FADF8003040F08B80BDF800205B
S31500004FB042F07F02ADF800208A88D21C8A80002841
S31500004FC0DFF8BC17049100F083804146E8B200F098
S31500004FD0F4FAA368DFF8ACE702903A0E04989F88CB
S31500004FE0BEF800300068FB1A02A900F09BF9010028
S31500004FF017D1BDF80000A368DFF884774FF6FF717C
S31500005000091AADF808100122DFF878179B88B1F865
S31500005010008038689B1EA3EB080302A900F082F902
S31500005020010066D1A3689B883868DB1EA3EB0803E2
S3150000503000F076F901005CD1A0688188A9F800101B
S3150000504082889DF8021051188180761CF1B2DFF833
S31500005050480710F805A05145BFF468AFE8B2FFF75E
S3150000506077FA8146DFF83407475DBDF81800B9F8CE
S3150000507000807F1C07EBD777FF05854202BF9DF8AE
S315000050800410F0B28842E0D060680188884524BFE9
S3150000509040884045D9D3BDF806100398814226DAE8
S315000050A0DFF8E826A168535DB1F804C048889C443F
S315000050B00CF103029042BFF663AF012060704520F9
S315000050C017E0BDF80030F2B21343ADF8003073E7D5
S315000050D04FF0000A4EE79DF8030040B960680221D0
S315000050E081716068A168E2686160A260E060012089
S315000050F002E001F039FC002007B0BDE8F08F0000A7
S315000051004CF30200AC6D0020A10C0300740C0300EC
S315000051107C6A00202DE9FE4F5FEA0009534DDFF857
S31500005120607614BFE868A86801220188DFF8700677
S3150000513000880291C0F1FF0101F0FF0141EA002160
S31500005140ADF80210DFF85C06029990F800A0DFF8CF
S3150000515034060688386801EB0A04631D9B1B0DF1B3
S31500005160020100F0DFF8010059D140F6227040EA52
S315000051700A30ADF80200E31C38689B1B01220DF1D2
S31500005180020100F0CFF8010049D13868A31C9B1B2F
S315000051900122A91C00EB430001F08DFB01003ED16A
S315000051A0601CA0EB06085FEA09004FF6FE7B07D0FD
S315000051B0FF21ADF8021000F05DF801002FD109E0E3
S315000051C06868008801226946FFF748F9BDF80000C3
S315000051D0012802D1ADF800B002E0411EADF8001082
S315000051E04FF6FF72BDF80000121AADF80420A41B9A
S315000051F03868012201A900EB440001F05CFB0100C4
S315000052000DD1029C5046A0F1010A80B288B13868DF
S3150000521014FA8AF39B1B00F083F80100F2D001F028
S31500005220A3FB0020BDE8FE8FA9680320887101203A
S31500005230F8E7B9F1000FF7D0E968032088716868CC
S31500005240FFF7B3F9A868FFF7B0F9EA686868A968D4
S31500005250AA60A8606960E8606A600020ADF8020094
S31500005260E96000F007F80100D9D1E0E78C7500206D
S315000052703AF90200012238680DF1020100EB4800FC
S3150000528001F019BBFEB50446DFF80005455CA088B1
S31500005290134662882E18F61CB24205DADFF8082596
S315000052A001215170452033E0C01CDFF8F024A080B6
S315000052B080B2525C1946FFF7F2F860B3DFF8C40417
S315000052C0DFF8BC740688A3883868DB1E9B1B0122A6
S315000052D002A900F027F801001AD1BDF808004FF620
S315000052E0FF71091AADF800100122A38838689B1EC9
S315000052F09E1B694600EB460001F0DDFA010007D16E
S315000053000898A1880180A0884019A0800120FEBDD0
S3150000531001F02AFB0020FEBDFC6C002008F3020011
S315000053200122694600EB430001F0C5BA2DE9F84FAA
S3150000533084B00546894690461C4601F0A3FCDFF87A
S31500005340602413888DF804500127ADF80830B8F1B1
S315000053507F0F9DF80410BDF80800039508BF4FF0B5
S3150000536000088DF8054081423FBFDFF82C14039AF0
S315000053708B5C984507D2DFF824148B5C9C4202D1E3
S31500005380B9F1000F03D140F6D901FFF755FC9DF89E
S3150000539004004146FFF7DCF801250646DFF80C0459
S315000053A08179B6F800A002291FBF817B0229807D82
S315000053B0022802D1432001F0D7FA039ADFF8BC1382
S315000053C0885C002833D09DF80400514600F0F5F8BB
S315000053D0D9F80010814257D0AAF1030000F09EF8D8
S315000053E0DFF8C453DDF80CC06C68DFF8A0336288C0
S315000053F013F80C10A088D21E521A824207DB30B175
S31500005400A86801888A45A4BF4088504572DBE868D1
S315000054108179AC68022938D1442001F0A5FAE86800
S315000054208179012931D0452001F09EFA53E09DF89B
S3150000543005404FF0000B21E00BEBDB700AEB600040
S3150000544000F05DF909EB0B0019F80B10407801EB41
S315000054500020611E8B4507D1BDF8001001F0FF0149
S3150000546000F0FF00ADF8001080B2BDF800108842D1
S315000054700BF1020018BF00255FFA80FBA345DBDBBA
S31500005480002D8DF80540A7D03DE0A8688179012957
S3150000549015D10020FFF7E5FB002834D00020FFF7E8
S315000054A039FE00282FD0BF48BDF8085003789DF874
S315000054B0041003EB4500C01D424680B205E00329F7
S315000054C00FD19DF8041042460020FFF701FD10B1F0
S315000054D000F01CF8B8B93846471EC0B2002810D1F3
S315000054E011E002290CBF40F6C81140F6CA11FFF7B9
S315000054F0A3FB08E000F00AF828B93846471EC0B2F8
S3150000550000287FF444AF05B0BDE8F08F0096BDF8E3
S3150000551006309DF804104A462046B3E601220DF1F6
S31500005520060180B2FEF79ABFF8B505469E489D4F24
S3150000553043681C883B78E01800F038F8BDF8020094
S315000055400026C0F30310012811D1192400F029F810
S31500005550BDF800006D1C30B14FF47F41401A17D0E2
S31500005560FF3813D016E0B61C641EEFD10EE01924E6
S3150000557000F017F8BDF800006D1C20B14FF6FF7162
S31500005580884203D00BE0761C641EF1D170B2F2BDE6
S31500005590761CFBE7BDF80000C0B200B9761CF643E6
S315000055A0F4E701226946A8B2FEF758BFC01C0122E3
S315000055B00DF1020180B2FEF751BF38B50C4600214D
S315000055C0764B009169461D5C2A4620466D1CFEF707
S315000055D092FF05EBD57504EB6504A0B2FFF7A4FFB7
S315000055E00028009948BFC04341FA80F032BD000050
S315000055F042F902006C0C03006E0C0300720C0300EF
S31500005600700C0300F8B5664A1388044668482546B8
S3150000561030F815609C4202D25849485D18B940F6E8
S315000056208321FFF709FB5D494D5D681C00EBD070D7
S3150000563006EB6007B8B2FFF777FF0346192B0FD2C8
S315000056400020DFF840C1DFF838E1ADF8000013FABA
S3150000565087F7BCF80030DEF80000FFF70BF960B101
S3150000566031462046FFF7A9FF00902B46401C0090CC
S315000056707F2269462046FFF759FEF1BD760C0300EE
S315000056807CB5054647480678344621464C1EC9B2C5
S315000056902888022925DB50FA84F000F030F8BDF89E
S315000056A000000028F1D0434829880288E6B27243F8
S315000056B0521890B2FEF7E7FE0020ADF80000012276
S315000056C02D882F48006875192E4E3388ED1A6946C5
S315000056D000EB450001F0EFF801000ED001F044F9AF
S315000056E00BE0FEF7D0FE0120A8712D4A298810880C
S315000056F0891901EB4001891DA980E0B276BD01221E
S31500005700694680B2FEF7AABE28488179022908D0E8
S31500005710817B022908BF083003D0817D022901D18F
S315000057201030ADE7002070477CB504461D4806786A
S3150000573000250CE0208850FA86F0FFF7E0FFBDF860
S31500005740000000281EBF4FF6FF7188426D1C3046D0
S31500005750461EC0B20028EDD1E8B276BD1348817965
S31500005760022908D0817B022908BF083003D0817D39
S31500005770022901D11030D7E7002070474CF3020010
S31500005780446700203EF90200FCF50200A0F1020089
S3150000579036F902009CF1020094F3020070F3020055
S315000057A0740C0300A10C03008C7500207C6A002099
S315000057B0AC6D00203AF9020073696D2D6565707253
S315000057C06F6D322D696E7465726E616C2E630000AA
S315000057D062F30F2262F31F42401810F0030308D051
S315000057E0C91A1FD3DB0748BF00F8012D28BF20F8D0
S315000057F0022D130030B414461546103928BF20E98F
S315000058003C00FAD8490728BF20E90C0048BF40F8F9
S31500005810042D890028BF20F8022D48BF00F8012D6D
S3150000582030BC7047C91818BF00F8012DCB0728BF38
S3150000583000F8012D7047FEE780B50121794801F097
S31500005840F1FA794801210160002001F0A2FE01234E
S3150000585004220221052001F0E0FE0120FEF78AFD68
S3150000586000F00EF8FEF7B7FD01F0CFFF012340224E
S315000058706E496F4801F094FF6E490860C00F02BD83
S3150000588070B501220121042001F014FD6A486B4C19
S3150000589001686B4D6B4E41F0010101600021C26849
S315000058A042F08072C260022267482060296031603F
S315000058B0664867490A6001F0E5FA6649664A674B39
S315000058C00818B0FBF2F0401E1860002129644FF45E
S315000058D080726348634920653160634802602B68C3
S315000058E043F480732B6070BD5348006800B10120FB
S315000058F0C0B27047D12202704170090A81705B49BB
S315000059000A78C2700420521C0A7070472DE9F14FC4
S315000059105749DFF860A10A68DFF82481464E82B055
S31500005920002500904FF6FF79145C01F09DFF641D81
S31500005930E4B201901FE0A91E9DF80800C9B200F06C
S3150000594039FB0746494601F0FBFF81465D463D4867
S315000059500168CA070FD5F06840F08070F060D8F88B
S31500005960001041F48071C8F80010DAF80000002831
S31500005970F1D08AF800703168EFB249B3A74227DA4E
S3150000598001F072FF0199401A80B240F2F51290427E
S315000059901EDAE8B210B95B270125D8E7012805D140
S315000059A03348009A01688F5C0225D0E7E01E8742E3
S315000059B005F1010B08BF4F46C8D0A11E8F4208BF94
S315000059C04FEA1927C2D0601E8742B4D15D27BDE7D2
S315000059D0A7420CBF00200120BDE8FE8F10B5244968
S315000059E00A68145C042C01DA012010BDBDE81040E1
S315000059F08CE710B50F4B186890B04022694601F04D
S31500005A00B8FE58B1C1B2684600F0B6F90446214660
S31500005A10122000F0B5FE204600F02BF910B010BDA4
S31500005A200000000000250A001088144200740020BF
S31500005A309CF70200D4680020F0ED00E0B00F00E013
S31500005A40000E00E0800E00E055CEACC506000E004C
S31500005A50F00004E0FCAC0600F8590D00100004E06C
S31500005A60FF0300400D000100040304E0F77E002060
S31500005A704C680020200000E02DE9F04104469046E5
S31500005A80012522008AB00F461E4606D0012C1DD0E5
S31500005A90102C02D0202C19D01EE0002102F0F5F9BE
S31500005AA00546012C18BF202C08D0022C18BF212C2B
S31500005AB004D0032C1CBF222C232C1AD1012E0197B3
S31500005AC0ADF80C800AD14FF480500BE068462A49A5
S31500005AD0282202F003FCE4E701200BE0022E03D1AA
S31500005AE04FF44050ADF80A006946204602F0CDF961
S31500005AF00546E8B20AB0BDE8F08180B502F087FA43
S31500005B00C0B202BD80B502F0E5FAC0B202BD2DE911
S31500005B10F84380460F4614461D46184E02E030688C
S31500005B20C75D203CE0B22028F9DAE8B2B0B1C4F192
S31500005B3020005FFA85F9C0B2814588BF81463846A4
S31500005B4000F022F8E4B201194A464046FFF7DAFFB0
S31500005B503068C75DA5EB09050024E6E7BDE8F283DA
S31500005B600CB480B50A46014602AB054800F003FCBA
S31500005B7002BC00205DF80CFBC4F102005468002052
S31500005B809F8100007047FEE7DFF840170A6802EBC6
S31500005B9040107047DFF838271368195470472DE90D
S31500005BA0F0415FEA000831D002F0DBFBDFF8242782
S31500005BB0DFF824171678DFF82457FF23FE2E19D1B5
S31500005BC00027DFF81C67DFF81CC7177034782C70C5
S31500005BD007E07C1C0EF80740DCF800E00EF8073002
S31500005BE0E7B23478D1F800E0A742F2DB0EEB040608
S31500005BF006F8013C2E7846450AD202F0B8FB05208D
S31500005C00FEF7EEFB00211B2002F034FCFF2020E013
S31500005C10A6EB08062E701578DFF8CC661778D6F84E
S31500005C2000E001240EF80740A8F10108D1F800C0F1
S31500005C301CF8074014705FFA88F4002CEED1DFF8E8
S31500005C4090260CF8073000211368595502F08FFB97
S31500005C502846BDE8F08110B5044602F082FBDFF865
S31500005C60881609680A5D521C0A55BDE8104002F004
S31500005C707EBBF8B5044600F031F8054602F071FB2C
S31500005C80DFF85036DFF85476DFF84CC6DFF858E612
S31500005C9001E02C46FF25FF2C1CD022460FE0DCF845
S31500005CA00010895C0026A6543C78641C3C70FF29D1
S31500005CB0DCF800601C78B4541A70EAD00A46DEF8A4
S31500005CC000108C5C661E8E54DEF80040A15C11F05C
S31500005CD07F0FE4D0BDE8F24002F049BB10B5DFF813
S31500005CE008160A68145C210605D5DFF8E025136856
S31500005CF04001185C10BDFF2010BDB0B504460D462E
S31500005D00FFF7ECFFFF2818BFFFF7B3FF2846FF2871
S31500005D10DFF8D47504D13868015D01F07F0105E034
S31500005D20FFF799FF3868015D41F080010155640174
S31500005D30DFF8980501680D55B0BD0EB430B50446C0
S31500005D400120FFF72CFFDFF884150A68FF2802EB15
S31500005D5040110ED0DFF8782513681C5403AA0023DF
S31500005D6004E052F8045B01F8015B5B1CDDB2A5425E
S31500005D70F7D330BC5DF810FB7CB504460D4605F143
S31500005D801F000004400DC0B2FFF709FFFF280646BA
S31500005D900DD0DFF83C0501688D553CB1012000901F
S31500005DA02B4600223146204600F002F8304676BDEA
S31500005DB0F3B5054681B0DFF81805016817469DF86A
S31500005DC008201E468B5CF419A34203DA4FF4B77120
S31500005DD000F0E0F830000CD0089C394602A800F02C
S31500005DE0DDF802469DF8081000943346284600F078
S31500005DF001F8F7BD2DE9F047089DDFF8DC64DFF810
S31500005E00CCA48046894614461F460DE0290022464A
S31500005E1012BF414601464046FEF74CFA30683F1B2A
S31500005E20A04410F809900024F8B270B1DAF8000026
S31500005E30214600EB4913581851FA87F12029B2BFC1
S31500005E40FCB2C4F12004E4B2E0E7BDE8F0872DE936
S31500005E50FC410746DFF8780488460168CC5D1546A4
S31500005E601E462919CBB2A34206DB28000DD0C9B2C3
S31500005E70384600F05BF808B1182007E000962B467C
S31500005E80224639464046FFF793FF0020BDE8F681DB
S31500005E900123DCE70A4600E0521C1378002BFBD1F5
S31500005EA0521A0123D2B2D2E72DE9F041804601F120
S31500005EB01F0402F11F00E404C004240E000E04B9FE
S31500005EC0012400B9012084422AD0DFF80C5419DAE3
S31500005ED0001BC0B2FFF763FE0746FF2808BF00207D
S31500005EE01FD0641E00F01FF82E68305CFF2804D017
S31500005EF000F019F8305CFFF7BCFE00F014F82968D2
S31500005F000F540DE08A420BD2411EC9B200F00CF8C4
S31500005F1004462868005DFFF7ACFE2968FF20085597
S31500005F200120BDE8F081E1B2404610E070B5DFF82F
S31500005F30A063336805460C46595D2246FFF7B4FF59
S31500005F4018B130684455002070BD182070BD04E0BB
S31500005F50DFF884231368185C491ECAB2002AF7D1F9
S31500005F60704731B50C46DFF868130A68155CAC4219
S31500005F7003D340F2052100F00DF82146684600F0F3
S31500005F800DF8DFF848139DF800300A6802EB43115C
S31500005F90084432BD0FF2543000F044BD38B5044613
S31500005FA00D46C9042078090EFFF7D1FF207005F0D1
S31500005FB01F0032BD80B5FFF7D4FF007802BD10B5D3
S31500005FC01446FFF7CEFF047010BDF8B5DFF8005396
S31500005FD004462868065DFF2C03D140F22521FFF711
S31500005FE0D9FF06F11F01C904080EFFF7D8FDFF28E7
S31500005FF0074609D02868C655009600232246002188
S31500006000384600F0C2F83846F2BDF8B505460E46E9
S3150000601017460120FFF7C3FDFF28044610D0DFF81E
S31500006020AC023246066806EB44163B462021701940
S3150000603000F01FF82D18DFF8980201680D5520466C
S31500006040F2BD1CB504AC009400F001F816BD10B505
S3150000605014461A46029B2044091BBDE81040C9B2EB
S3150000606007E00CB480B502AAFFF7CFFF02BC5DF8CB
S315000060700CFB2DE9F04781464F460024884615461D
S315000060809A460CE0F6B23419444542DA32463846AE
S31500006090FEF710F9BF19641E641C6D1CE4B244457A
S315000060A037DA2878A8B3312818BF32280ED15AF823
S315000060B0041B07F8011B3228EED1641CE4B2A0458C
S315000060C0A4BF091207F8011BE6DA22E034280ED134
S315000060D0211D5AF8040B88451BDB3870020A010C97
S315000060E0000E7A70B970F8703F1DE41CD4E7A0F179
S315000060F033035AF8041B072B38BFA0F13006C1D36F
S31500006100A0F14103072B34BFA0F137065AF8046B00
S31500006110B8E7A7EB0901C8B2BDE8F0876D49FE20D4
S315000061200870704770B500F02BF800F003F83018CF
S3150000613080B270BD0602294620463BE7E0B58DF8E1
S3150000614004200123120A8DF8052000930A46014611
S31500006150022301A8FFF72CFE07BDF8B500F010F8E2
S31500006160FFF7E8FF8619E91CC9B2FFF7E5FF07024A
S31500006170AD1CE9B2FFF7E0FFC01906EB0040F2BD27
S315000061800D46691C0446C9B214E7FDB5089C2000FB
S315000061900D461E461BD1F7BD4C4B9DF804001B68EF
S315000061A003EB4010C2F12002D2B2BA42B8BF174682
S315000061B081199DF8000003EB40133A465819FEF783
S315000061C079F8E41B7D19BE19A0B200B9F7BDA9B2D2
S315000061D06846FFF7E3FE0546B1B201A8FFF7DEFE0B
S315000061E00646B542A7B2B4BF32462A46D4E770B5D2
S315000061F004460D4602F0B5F83A4A23781268FF2B9A
S3150000620008BF555503D013441E7856551D7025708A
S31500006210BDE8704002F0ABB838B5044602F0A1F80C
S315000062202178FF22FF2908BFFF2507D02D4B1B68C9
S315000062305D5C8D420EBF22705A5D5A5402F097F88B
S31500006240284632BDF8B504460D4602F08AF8217894
S315000062500026FF2913D0234B1B680A46012603E0BC
S315000062608F420CD03A46761C9F5CAF42F8D1DF5D78
S315000062709F54A94203D18A4208BFFF22227002F02E
S3150000628076F8F0B2F2BD0078FF2801D10120704700
S315000062900020704710B5044602E0FFF7EAFC2046EE
S315000062A0FFF7BAFFFF28F8D110BD30B50D4B0078C7
S315000062B01C68255C954203D02846255C9542FBD197
S315000062C021541868425430BD000000004868002080
S315000062D04C680020C46B002054680020A36B00208B
S315000062E0A26B002058680020506800207061636B24
S315000062F065742D6275666665722E630070B5134609
S315000063001044DCB264B101F00F060909451E0A2EDD
S31500006310ACBF37243024A41928462C705B1EF0E746
S31500006320104470BDF0B5002341B1002806D52D23D9
S3150000633013700123B0F1004F18BF40420021002422
S315000063408A4D002601E0C01B761C55F82470B84221
S31500006350F9D2F7B20FB90F0004D0D9B2303656547D
S315000063605B1C0121641C092CEBDBD9B23030505484
S315000063705B1CD8B2F0BD2DE9F84F824696B04FF0BF
S31500006380000914A8884617461D4604ACCB46019062
S3150000639012E04FF0010B074600E0044601988442E4
S315000063A009D39DF80020A41A00F0D4F8002851D192
S315000063B059FA84F904AC7F1C04A88DF800009DF8F6
S315000063C000003978201A00290FD0252905D05FEA68
S315000063D00B0208BF04F8011BE0D05FEA0B0114BFF3
S315000063E04FF0000B7F1C39780A0000F0A680B1F14F
S315000063F0250216D00B3A092A40F28080283A75D039
S315000064000A3A12D0521E3CD0521E57D0083A55D0E6
S31500006410121F39D0D21E37D0921E4FD0D21E65D051
S31500006420BCE7252004F8010BB8E729686A680391E0
S315000064302046083502920024029A9442ADD203996E
S31500006440095D0222FFF75AFF0199884206D300F040
S3150000645085F800287AD159FA86F904A80299491EC6
S315000064608C423CBF202200F8012B0199884206D3BA
S3150000647000F074F8002869D159FA86F904A8641C5A
S31500006480DAE755F8040BCDE755F8046B044600F03F
S3150000649061F800285AD159FA84F9314604AC064607
S315000064A000E0761CF0B2085C0028FAD1F2B2404651
S315000064B0D04700284AD159FA86F96FE76C290AD1E4
S315000064C07A7855F8040B752A0EBF00210121642A3B
S315000064D007D17F1C05E0752955F8040B0CBF002178
S315000064E001212246FFF71EFF241857E755F8041B23
S315000064F00222C9B22046FFF701FF4EE778787828D6
S3150000650018BF58284FF0010BEFD17F1C781E322997
S315000065104FF0000B04D155F8040B81B20422E9E7D1
S3150000652034297FF436AF55F8046B0422310C20462B
S31500006530FFF7E4FE0422B1B2DDE70546EAB200F059
S315000065400AF818B9A9445FFA89F000E0002017B0EC
S31500006550BDE8F08FE2B204A9404650479DF80020FE
S31500006560861AF2B204A940465047000078F70200A6
S3150000657070B5FFF73EFAAA4C2046FFF784FED8B95D
S315000065802046FFF749FEFF28044615D0A5480168B6
S31500006590085D851EE9B22046FFF7C4FD0646E9B24E
S315000065A02046FFF7C3FC2146304600F0E9F82046B6
S315000065B0BDE87040FFF75DBB70BD03460A4696A175
S315000065C00420FFE70CB480B502AA00F031F801BC44
S315000065D05DF80CFB0A00034602D090A11120F1E7FA
S315000065E07047000080B586B002F0D6F930220492DA
S315000065F000218D4A00926723059103930291019130
S31500006600024600238CA10120FFF7DCFF8748817931
S31500006610028843790391029201930179C3788278C3
S315000066200091422087A1FFF7CDFF07B000BD000013
S315000066302DE9F04F85B005460F469046FDF7DFFE83
S315000066400024F0B9FFF750F9D8B10120FFF7A7FAF7
S31500006650FF28824615D00021FFF79CFA294601A89B
S31500006660FFF748F9054687BB00F083F830B9504676
S31500006670FFF7B4F910B10420FDF7B2FE5046FFF75C
S31500006680F8FA05B0BDE8F08F8DF8041001251BE07F
S31500006690644858F8046B006810F80A90F2B2FF2AB2
S315000066A012D0F1B210F801B00BEB0901C9B2504695
S315000066B0FFF73CFC0028E1D1CDF800B00023F2B290
S315000066C049465046FFF761FD7F1C38780028CBD03D
S315000066D0A0F130010A2904D20A2101FB0404303C4E
S315000066E0F2E700F046F80028C8D13978002542299B
S315000066F001A80ED044291AD0462925D057290DD0F5
S315000067006229C5D066292AD06C2925D0702926D0C1
S31500006710BAE758F8040B8DF80400B7E758F8041BDD
S315000067208DF8041002250904090E4170CCE758F8CB
S31500006730041B8DF804100B0A0A0C090E43708270B4
S315000067408DF807100425BFE758F8041B5046FFF7DD
S31500006750A1FB0028B8D091E758F8044BB4E758F8E5
S31500006760041BE2B25046FFF793FB002808BF002443
S31500006770F0E72A4601A95046FFF78ABB0000000051
S315000067802DE9F043122885B080460D4609D03A28F7
S315000067901ED04FF6FE71884204BF284600F0DBF893
S315000067A033E02048224F01684E5D2846FF282CD052
S315000067B0212EB4BF34462024FFF7E6F901462246CF
S315000067C0002001F01AFB3868455D203EF6B2ECE782
S315000067D002F08CF9814603F0ACF8064602F02EFC76
S315000067E0074602F027FC044603F09FF811490B8880
S315000067F016A1029302460C480390CDF8109001961C
S31500006800009723463B20FFF7DDFE2946404605B0AC
S31500006810BDE8F043FDF714BE574600006C7000005B
S31500006820C56B00204C680020547A002068F90200ED
S31500006830546800208C6B002042423870424242422B
S315000068405742420042424242574200005742425794
S315000068505738704200000000DFF800F001670020A2
S3150000686038B504460D4603F0FDFB012C02D1FFF7B7
S31500006870F3FF02E0284603F089FC18B103F0FBFBA6
S31500006880012032BD03F0F7FB002032BD80B583083E
S31500006890800705D54FF6FF7242EA0142009204E0F6
S315000068A041F07F4141F47F0100910422694698003E
S315000068B003F0ACFC02BDF8B506460D4605F0010135
S315000068C006F001000143144601D00120F2BD9CB13F
S315000068D032462B46611C4FF6FF7C01E0921C9B1C46
S315000068E0491E0BD0178867451CBF18880028F5D0AD
S315000068F04B20F2BD03F0BFFB0020F2BD03F0B2FB5C
S31500006900012C01D0B00707D535F8021B3046FFF73A
S31500006910BDFFC0B9B61C641E022C0CD367087F00ED
S315000069207A002946304603F071FC60B906EB47064B
S3150000693005EB4705E41B002CDCD029883046FFF721
S31500006940A5FF0028D6D003F096FBD1E770470020BC
S31500006950704700207047704701987047704770472E
S315000069607047702003F076BC70B5044643381F4D5F
S3150000697008D0401E012809D9801E01280ED9C01F43
S3150000698032D02AE0BDE87040FEF7BEBEFEF7E6FE56
S3150000699020B1FEF7B9FE0028FBD170BD144E307849
S315000069A010BB01213170FDF733FC442C12D00CD3FF
S315000069B0462C05D00ED3472C07D140F6010001E046
S315000069C040F6020003F04EFF04E04FF496712846AD
S315000069D000F028F80020307070BD2846BDE87040F1
S315000069E04FF49F7100F01EB870BD00002CF8020035
S315000069F0FB7E002070470020704700207047012072
S31500006A0070470120704700207047704702F0C3B9F5
S31500006A100020704701207047704700200021704712
S31500006A2042DE704738B504460D4602F0FBFC00F026
S31500006A3029F903F06BFF29462046FFF7BEFD2B46DA
S31500006A4022466D490120FFF78BF829462046BDE80E
S31500006A503440E5E769482DE9F843694E0168B165B8
S31500006A604FF42068026A6749F2650B683366496825
S31500006A707166426AB266816AF166C26A3267016B02
S31500006A807167806B96F83810B06748074CBF346C56
S31500006A90F46B03F021FF002232658442DFF868E1DF
S31500006AA0014624BFAEF12007A742A146716506F153
S31500006AB09002564BDFF858C118D3A0697064E46998
S31500006AC0B464B56DC5F30805062D13D1604511D321
S31500006AD098420FD200884DF64264A0420AD17068EF
S31500006AE0B4685060946040F2017803E00024746456
S31500006AF0B46481464748814238BF0146084670451E
S31500006B006AD20C68B4F1CD3F08BF091DF6D063E028
S31500006B10062C09D1C4B2002C0CBF0520401E06F17C
S31500006B207C04C5B244F82510F14520D25EF8041D58
S31500006B306145F9D39942F7D2CC07F5D5002406F181
S31500006B407C0555F824708F42E2D0641C062CF8D3DD
S31500006B50DEE7F16F002306F17C0506EB8304D4F82B
S31500006B60804045F823405B1C042BF6D91160014692
S31500006B70481EC9B20029ECD1B06DC0F30800032845
S31500006B8010D0042811D0052812D0062813D00C28BE
S31500006B9017D0122818D120480268910719D540F25B
S31500006BA0025816E040F6012813E040F6022810E0ED
S31500006BB040F603280DE0B8F5206F0AD140F6042808
S31500006BC007E040F6052804E018B1322838BF40F641
S31500006BD007284046BDE8F2831049081AF0640021F0
S31500006BE0002006F17C04C5B2401CC7B244F825104B
S31500006BF0062FF8D3002097E740F2020004ED00E0EC
S31500006C000000002000E300E0006700204EF10200D3
S31500006C10104200009C0000201C2005400067002058
S31500006C2003F078BE7FB50121204800F0FBF8012271
S31500006C300121012000F03EFB0421072003F06CFE39
S31500006C401B4A92E838006946032281E838000D2184
S31500006C508DF8081001268DF809208DF800608DF852
S31500006C6007606946134C204603F0D2FE1249042001
S31500006C7008600222114962620860A26A42F00202BA
S31500006C80A2627FBD0B4803F0B7BEA52803D1002141
S31500006C90084803F098BE70470648006800F00100F7
S31500006CA07047074908680028FCD1704730053E0048
S31500006CB0D4F202000020054080E200E000E100E09E
S31500006CC008200540890001EB401101F184410A606A
S31500006CD07047890001EB401101F184410868704753
S31500006CE00122DFF8BC1510B5884232BF0022DFF85A
S31500006CF0B415884201D2144600E002241021DFF8C0
S31500006D00A805FFF7DFFFDFF8F406016821F08071C0
S31500006D1041EA0461016010BDDFF89015DFF8903597
S31500006D200A6802F04072984238BF002204D3DFF8A6
S31500006D30D036984238BF0122086820F0407040EAF9
S31500006D4002600860704738B500F013F841F67130FC
S31500006D50286003F0B0FE002105E038B500F009F820
S31500006D6041F671322A60FFF7D7FF0CB10020286088
S31500006D7031BDDFF824572C6804B101247047C01CCC
S31500006D800F2801D2000770474FF07040704700008F
S31500006D9038B50446002500F053F9DFF86826DFF819
S31500006DA01816944208D0DFF86026944206D0DFF821
S31500006DB00C26944204D006E0086802E0486800E029
S31500006DC0886800F00700401E03281BD8DFE800F0A3
S31500006DD002050C0803F0B5FE04E003F0B8FE01E07E
S31500006DE003F0B2FE05460DE003F067FEDFF80C1671
S31500006DF00968090E01F001010122491C02FA01F19C
S31500006E00B0FBF1F5284632BDDFF8D4164A68D30741
S31500006E1002D40A680242FCD1704780B500F0D0F86F
S31500006E20401C02BD70B50C460246110A01F00F0166
S31500006E300020491E0929DFF8D45613D8DFE801F0EF
S31500006E4005131212071518121B1FDFF85C54C2F344
S31500006E50043608B1FFF7D8FF224631462846BDE87A
S31500006E6070402FE770BD1035F1E730350120EEE7B1
S31500006E7038351020EBE740354FF48030E7E7DFF890
S31500006E809056E4E7F8B50646DFF85806DFF87425AD
S31500006E900768DFF87415DFF82405DFF8604501257B
S31500006EA016F4781365D0B3F5003F2BD0B3F5802FD9
S31500006EB024D0B3F5202F5CD0B3F5402F28D0B3F5FE
S31500006EC0602F4ED0B3F5801F77D0B3F5A01F2AD020
S31500006ED0B3F5B01F2FD0B3F5D01F35D0B3F5F01FE3
S31500006EE01FD0B3F5001F2DD0B3F5101F36D0B3F564
S31500006EF0481F41D0B3F5781F55D05DE003F0DDFDA6
S31500006F00E16802E003F0D9FDA168C1F3082104E0BD
S31500006F1003F0D3FD6169C1F30421491CB0FBF1F70D
S31500006F204BE010461AE0FFF733FF0746206B00F0F0
S31500006F300F00C74041E01046FFF72AFF216A01F023
S31500006F400F0107E0084609E00846FFF721FFA16A9E
S31500006F5001F003018D40B0FBF5F72EE0FFF718FFB7
S31500006F601FE0DFF8B00500F06BF8072825D00928E8
S31500006F7022D103F0A2FD14E0DFF89C0500F060F8D2
S31500006F8004280CD0072818D0082815D103F095FD41
S31500006F9007462068C0F30420401C47430DE003F079
S31500006FA0A8FD074609E003F088FD04463046FFF7D2
S31500006FB034FFB4FBF0F700E000273846F2BD0000CE
S31500006FC001460B0903F00F0301205B1E092BDFF8B6
S31500006FD02C2432D8DFE803F005070B1131311317E3
S31500006FE01F29106800E05069C0F30420704711683B
S31500006FF0090E01F00101491C14E0D06800E0906818
S31500007000C0F308207047DFF81435994215D1116A8C
S3150000701001F00F0106E0DFF8083599420DD1916ABB
S3150000702001F003018840401E7047DFF8F8048142F2
S3150000703003D1106B00F00F0070470020704700006E
S31500007040014601F00F010120491E0729DFF8D82467
S3150000705049D8DFE801F0040F1348202E4836506A5D
S3150000706000F0070002283AD002D3042804D01CD32B
S315000070700520704711690FE002207047516901F041
S315000070800701491E03292FD8DFE801F00F0203117B
S31500007090F2E706207047916901F00701012904D043
S315000070A00229E9D0042902D07047032070470A203C
S315000070B07047116811F001010FD0012914D1092080
S315000070C07047DFF868140A6802F03002102A04D00C
S315000070D0202A04D0302A04D07047072070470420A5
S315000070E070470820704700207047000070B500F018
S315000070F00F0003250326401E0728DFF82C440FD86F
S31500007100DFE800F0042D31762F5976640229DFF886
S31500007110900106D0032919D0042919D005291CD0BD
S3150000712070BD0425002601220121304600F0C2F878
S31500007130FFF709FE656003F0B1FC044603F0BDFCF1
S31500007140FFF7CEFD2046BDE870405FE00126EAE786
S3150000715002250226FFF7C4FDE5E70125FAE710340C
S3150000716002E0183400E01434012929D0022906D09F
S3150000717003290BD0062910D00A291AD070BD012286
S315000071800121002000F096F802201AE001220121D8
S31500007190012000F08FF8012013E003F08EFCFFF7CA
S315000071A09FFD01220021DFF86403FFF78BFD03201A
S315000071B007E0042005E0072902D0092903D070BDA5
S315000071C00020206070BD0121216070BD012906D01C
S315000071D0042915D007290CD0082915D070BD002028
S315000071E0DFF848130A6822F0300242EA00120A6009
S315000071F070BD01220121042000F05CF80120EFE7B8
S3150000720000F006F80220EBE70320E9E70021A4E5F9
S315000072100122012102204DE070B5044600F03DF840
S3150000722001220021022000F045F8217CDFF80453FA
S3150000723000200229296808BF0120490840EA4100C8
S315000072402860082122782846FFF73CFD6968E07A25
S31500007250C90840EAC1016960607AA18840EAC12094
S31500007260A860EE68207AFFF78AFDE288A17A06F028
S315000072707F6646EAC226227A0E4346EAC2160643CD
S31500007280EE60A17B607B227B090141EA0031E07B55
S31500007290014341EA0241296170BD1120D0E6000098
S315000072A00148E8010190D00300400E4004000E4062
S315000072B041787D012DE9F84F0428834692466AD825
S315000072C0DFE800F04C473D0342000127022001257C
S315000072D000260029DFF83082964C5ED0BBF1020F03
S315000072E002BF2068C0F3011000284FF000090AD140
S315000072F02068C1074FF0010905D5206820F030004D
S3150000730040F010002060E763314600F05AF800288C
S31500007310FAD0BAF1000F3ED000F052F80028FBD0A8
S31500007320BBF1020F37D1B9F1000F34D02068C10785
S315000073301BD501222021022000F0D6F819E00427EF
S31500007340082003250226C4E7102720200525042649
S31500007350BFE74027802007250626BAE74FF4807747
S315000073604FF4007009250826B3E70021022000F03B
S3150000737095F8022000F028F8064601220021022096
S31500007380FFF798FF3146022000F040F8E76300F06F
S3150000739017F80028FBD0BDE8F18FE063D8F80000AD
S315000073A0F040C107FAD4BAF1000FF4D0D8F80000C3
S315000073B0E840C107FAD4EEE780400E4005002400FD
S315000073C029464046FFF785BC401E0328584912D877
S315000073D0DFE800F0020C06080869C0F308007047F1
S315000073E0086800E0886800F07F007047524800682F
S315000073F0C0F30A00704700207047000000410E40AD
S31500007400015A620202001E0003002000F8B5401E69
S315000074100D46032805F07F06454C314F3BD8DFE883
S3150000742000F00228101CC5F308051A213846FFF79C
S3150000743050FC0028F9D12069400A45EA402525611B
S31500007440F1BD18213846FFF744FC0028F9D1206821
S31500007450C00946EAC0162660F1BD19213846FFF775
S3150000746038FC0028F9D1A068C00946EAC016A66013
S31500007470F1BD25480168626922F0300242F010022F
S315000074806261C5F3C310FFF77AFC226A2B490A40F2
S31500007490154305432562F1BD40000E40254A10689C
S315000074A0C0F30110002818BF002911D0202902D0EE
S315000074B030290DD00FE04FF40000D16E014081421B
S315000074C0FBD1400209D5D06F800A00F00100704759
S315000074D04FF44000F1E71A48EFE70120704700003B
S315000074E040410E40C068002002280BD1080004D09D
S315000074F014484FF4806343640160002A1CBF0220D5
S31500007500FFF7CCBF0120704790400E40B0400E40C0
S3150000751050410E4006000E00B800320080061600EC
S3150000752090071A00A009140070400E405C410E40FE
S3150000753010400E4024400E409C400E4000F8FF0FC5
S31500007540FF03E10764400E40890001EB401101F1A1
S3150000755084410A60704700F1806300F1C0601960E1
S315000075600260704710B500F00DF804F1806404E085
S3150000757010B500F007F804F1C064012303FA01F125
S31500007580216010BD3022404B5043184400F10C04DA
S3150000759070473E490A68920840EA820008607047D0
S315000075A02DE9F04101F00305164603240F21082EAC
S315000075B098460CD2B70000FA07F2B9403448FFF7F4
S315000075C0CAFF05FA07F204FA07F132480DE0A6F100
S315000075D00802970000FA07F2B9402F48FFF7BBFFF1
S315000075E005FA07F204FA07F12C482D4FFFF7B3FF0F
S315000075F0079C069D2B4842463146FFF7A5FF2A46C3
S3150000760031463846FFF7A0FF224631460120B040FA
S315000076103861BDE8F041244896E7F8B505461746B7
S3150000762038000E461C4607D0002C284602D0FFF72D
S315000076309FFF01E0FFF796FF2A463020124942439A
S3150000764088180F22082E05D2B300416800F015F8FD
S31500007650416006E0A6F108039B00816800F00DF882
S3150000766081604FB9002C3146284602D0BDE8F4406F
S315000076707EE7BDE8F44075E7F1BD9A4021EA0202D3
S3150000768007FA03F11143704700A0004044A40040EC
S3150000769000A4004008A4004004A400400CA400403C
S315000076A014A4004010A4004028A4004010B5DFF840
S315000076B05C41DFF85C11E16103202061606110220A
S315000076C0DFF85001A06122620021A162E16220661A
S315000076D00022DFF84401626210216066A16622671B
S315000076E0E2662EA16267E31D0868DFF830111860B4
S315000076F00722204600F0F2FD2023A37110BD2DE9DC
S31500007700F843DFF80851044628788846914608B9B8
S31500007710FFF7CCFF18204443281900F16006002427
S315000077203769F568BD4212D2B4687068E41B4C45EF
S3150000773088BF4C46C1192246404600F0BFFDB168DD
S31500007740E7198F42A044A9EB040908BF0027ED1BE7
S315000077504D4588BF4D463DB17068C1192A46404621
S3150000776000F0ACFD2C19EF1904B137612046BDE8D5
S31500007770F283F8B504460D46164600F0F2FD0746BC
S31500007780324629462046FFF7BAFFFFE70446384649
S3150000779000F0EDFD2046F2BD0000000052545400FA
S315000077A02DE9F84300F02AF808B9FFF77FFF00F04B
S315000077B0D8FD726901460027182306F1640C03FB05
S315000077C007FE5CF80E0010B17F1C9742F7DB97426C
S315000077D00BDA7B43F018002204664566C0F8688021
S315000077E00267C266C0F8749001E04FF0FF37FFE70A
S315000077F0084600F0BCFD3846BDE8F283034E044659
S3150000780030780D469046994670474FE7006C002049
S3150000781040740020ACF7020050740020B8F7020054
S315000078207FB500F011F818B900F015F803F0D0F99B
S3150000783004B070BD7FB500F007F818B900F00BF87A
S3150000784003F0E1F904B070BD0446084615461E462D
S3150000785002A903F07DBA0899099800910190334670
S3150000786002992A462046704780B500F00AF880B291
S3150000787002BD80B500F005F8FA21B0FBF1F080B248
S3150000788002BD80B503F062FABDE8024003F076BAA5
S3150000789080B503F0E8FB01211748FFF7C3FA03F0B0
S315000078A06FF920B15FF0520121A0FFF7BBF800206D
S315000078B002BD1249012008707047FEB50446002536
S315000078C0216801B91EE000F00CF808B100F002F8DA
S315000078D001201BE001950095002321683A46301DE2
S315000078E09EE7064E064F35700023009301953A46F3
S315000078F0301D9FE70000000030053E009C7500200B
S31500007900B378000003F06EFC0020FEBD03F01AFD04
S31500007910307840B92146301D03F0E0F9206803F0C5
S315000079202DFA852501E00020307020602846FEBD36
S3150000793073797374656D2D74696D65722E630000BD
S315000079400A0A42EA01225040C0F30311484080EA85
S31500007950003041010206C9B2D20E41EA0221484076
S3150000796080B27047010008D4012200F01F01DFF841
S3150000797054378A40400943F82020704701000CD450
S31500007980012200F01F01DFF840378A40400943F822
S315000079902020BFF34F8FBFF36F8F7047010008D4CD
S315000079A0012200F01F01DFF824378A40400943F81E
S315000079B02020704710B5DFF8184730B1012807D0EE
S315000079C0102802D0202803D004E00020204410BD57
S315000079D01C20FBE740F28311DFF80808FFF722F8C6
S315000079E0204610BD426893884089411A8B4201DACD
S315000079F001207047002070477FB50128044604D94E
S31500007A00B0F1100101D010393BD1012818BF202850
S31500007A1032D1FFF7CFFF054600F0A3FC0646A86962
S31500007A2001AB6A4602A904F02DFC00992A89286850
S31500007A3089B200F027F8304600F099FCA86904F0F6
S31500007A409BFC012818D12A68298990882A8A091A54
S31500007A50914211DBA86990F83110022903D104F094
S31500007A600FFC022804DAA86990F83110012903D125
S31500007A70A869002104F057FC200014BF102CFDF764
S31500007A80B8FF7FBD70B504460E46154600F069FC8A
S31500007A90E288B2420CD221888B1A991991FBF5FC27
S31500007AA005FB1C152580A388F3189A1AA280E68088
S31500007AB000F0CDBBF8B5012818BF20280C461546A6
S31500007AC016D1FFF777FF0646307B10B1012171739F
S31500007AD0F1BD707B18B13046BDE8F240AFE00FF261
S31500007AE0C51700F006F818B100F003F80028FBD11E
S31500007AF0F1BDB0693B462A46214604F01BBD70B570
S31500007B0005460E46FFF756FF012D18BF202D0446E9
S31500007B1040D1A069016890F83200E8B904228A646D
S31500007B2000F05AF9A0690068C16C002E07D041F038
S31500007B300401C1640B20FFF715FF052106E021F0C3
S31500007B400401C1640B20FFF719FF0021A06900683A
S31500007B50BDE8704004F06EBD0420486300F03CF9B7
S31500007B60A0690068816B002E07D041F00401816393
S31500007B700B20FFF7F7FE052106E021F004018163E3
S31500007B800B20FFF7FBFE0021A0690068BDE87040EE
S31500007B9004F0D3BD70BDF8B50446DFF84C0681424B
S31500007BA01D462AD00026F2B21C20DFF824154243D7
S31500007BB08F18BB69A3421CD13A893868A9B2FFF76E
S31500007BC061FF38680021C18002E0384600F016F8EF
S31500007BD0204604F055FB02280BDC3889F9893A68FF
S31500007BE0A0EB410091888842EFDA0121204604F09B
S31500007BF09AFB761CF0B20228D5DBF1BD70B50446BF
S31500007C00DFF8E835E089668A2568024670432E1853
S31500007C10A06906F1080104F049FCA06904F030FBF4
S31500007C20012803DDA069002104F07DFB608AA18A9A
S31500007C30401C90FBF1F201FB1200608270BDFEB5A4
S31500007C400446207B68BB60680FF2590641880844E9
S31500007C5000F10807A0696B4601AA02A904F033FBEC
S31500007C6061688A880098019D121A551B4A880888FF
S31500007C7090420ED26189A0698A1A3346394604F0C9
S31500007C8059FC70B96268618950886D1A451902F10C
S31500007C900807A0693346EAB2394604F04BFC00B93E
S31500007CA06073F7BD2DE9F041054698460027F9B205
S31500007CB01C22DFF81C0451434418A369AB4218D1B7
S31500007CC060688188414534BF8688464600F049FB96
S31500007CD061684A8812FA86F1628991FBF2F302FB27
S31500007CE013116268518061688A88961B8E8000F045
S31500007CF03EFB7F1CF8B20228D9DBBDE8F08138B51F
S31500007D001129054609D1A869002104F019FB0021B3
S31500007D1029732846BDE8324091E7132906D1A869A0
S31500007D20012104F00DFB0120287331BD28682A8942
S31500007D308488141BA4B25CB100F1080200881154B7
S31500007D402868018800F0ABF901808188491C818090
S31500007D50A86904F011FB20B9E989A142A8BF012155
S31500007D6005DA012808D1288A844205DB0021A869A2
S31500007D70BDE8344004F0D7BA31BD10B52020FFF776
S31500007D8019FE0446DFF86804A16991F83120012A3A
S31500007D9009D101690A060AD504F0BCFC0146204651
S31500007DA0BDE81040ABE7C16C21F00401C16410BD11
S31500007DB010B5DFF83C4428B92046BDE81040002144
S31500007DC004F038BC00F008F80B20FFF7CBFDE06CA0
S31500007DD040F00400E06410BD0B20DFE580B530B94B
S31500007DE0BDE804400521DFF8080404F023BCFFF7D2
S31500007DF0F3FFBDE802400B20C0E5F8B50C4615467A
S31500007E00FFF7D8FD0646306881883289E8B2121A33
S31500007E10914201DB0120F2BD00270EE000F0A1FA3D
S31500007E20316814F8012B01F1080309885A547F1CA4
S31500007E3031680A88338900F039F9AF42EED3002061
S31500007E40F2BD10B5012818BF20281CD1FFF7B2FDDE
S31500007E500446A06904F0ECF9800414D561688888AA
S31500007E6088B9A06904F02BFA002802BFA06990F82F
S31500007E703210002907D104F0DBF900F44030401E2F
S31500007E808041C00F10BD002010BDF8B50128044682
S31500007E900D4603D9103801D0103852D1204600F0D3
S31500007EA0DDF910B9204600F085F82046FFF782FD7F
S31500007EB006462046FFF77EFD21000FD0012C03D099
S31500007EC0102C0BD0202C3CD1DFF82813DFF8282308
S31500007ED00160802342600381438109E0DFF81C23AF
S31500007EE0DFF81C1302604160402380210381418139
S31500007EF0200018BF102C03D1BDE8F140FDF79CBC53
S31500007F00012C18BF202C53D1012C16BF202CDFF8D2
S31500007F10F4020020012C18BF202CB06111D1DFF82B
S31500007F20E812DFF8E802E961A861A98CF181EB8C1F
S31500007F3033828B4207D21C21304604F03DFC0220DE
S31500007F40F2BD0120F2BDB26992F8310001280CD0D1
S31500007F50308990FBF1F701FB1700002802BF93FB65
S31500007F60F1F001FB10310029E5D12946104603F056
S31500007F70CDFFF0B9B069017F007E01230222FFF731
S31500007F804CFB287C012808D101212046FFF7B7FDCC
S31500007F90B069002104F0C7F90AE000207082318937
S31500007FA0F08991FBF0F0B08200F055F900F053F93A
S31500007FB00020F2BD58B50128044603D9103801D077
S31500007FC0103813D1204600F049F9F0B9204600F0E8
S31500007FD01FF92046FFF7EEFC012C18BF202C0646A1
S31500007FE00FD1B06904F055F810B152BD012052BD51
S31500007FF0B06990F83110012903D100212046FFF71E
S315000080007EFD1C21304604F0D7FB002052BDF8B59A
S31500008010074601280E463C4603D9103801D01038D1
S315000080200BD13846FFF7C6FC05463846FFF7E4FC99
S315000080302968888818B92620F2BD0120F2BD00F013
S3150000804090F90746286800F1080140880A5C3270FA
S315000080502868418800F023F8418081884A1E012C57
S3150000806018BF202C828004D1A86990F8311001290C
S315000080700FD1384600F07BF90020F2BD2889E98946
S315000080802A68A0EB410091888842F2DB2846FFF778
S31500008090B5FDA86904F0F4F80228EFDBE9E72A89C0
S315000080A0491C91FBF2F302FB13117047521C92FB21
S315000080B0F3FC03FB1C220A808A88521C8A8000F08B
S315000080C056B9000000E100E080E100E080E200E057
S315000080D0B47000202DE9F84F0128804604D9B0F18C
S315000080E0100301D0103B10D1002818BF1028894674
S315000080F092460CD0FFF75EFC0646002470680188A5
S31500008100084400F1080B00253BE001200EE0514633
S315000081104846FEF75FFA08E0544506DAAAEB040083
S3150000812082B259464046FFF7C5FC0020BDE8F28FF3
S3150000813000F017F971680B8819F8012B19440A72B7
S3150000814071680A887389521C92FBF3FC03FB1C229C
S315000081500A808A88521C8A8009884F1EBF4100F017
S3150000816006F9FF0F67B1EFB27F1C3F1BFAB2594603
S315000081704046FFF79FFC70683C19E4B200F1080B1B
S315000081806D1CE8B25045C7D200213046FFF72AFCE5
S315000081900028CDD1307B0028F6D02220C6E7F8B5DE
S315000081A00124012807460E46154603D9103801D08A
S315000081B0103815D1380018BF102F04D12946304683
S315000081C0FEF708FA00243846FFF7F4FB012F18BF24
S315000081D0202F05D180692A46314604F0CFF804469F
S315000081E02046F2BDECF10200097000F0977B00001A
S315000081F000000140A46F00202C700020D46E0020E7
S315000082001C6F0020EC700020C86700204867002023
S3150000821070B50546FFF7CEFB0646012D346818BF3C
S31500008220202D0DD1B06990F83110012908D0022116
S3150000823003F074FF0020708200F00DF800F00BF8D8
S3150000824000F08FF80021A18021806180E180BDE8E7
S31500008250704000F08CB83046FFF7D0BC80B50128DE
S3150000826004D9B0F1100101D0103906D1FFF7A2FBF5
S3150000827000281CBF0068002801D1012002BD002093
S3150000828002BD30B4002513E050F8042BD30744BFD9
S31500008290A9F101039A18091F042942F8045BFAD2CE
S315000082A013468C0744BF15809B1CC90748BF1D7029
S315000082B050F8041B0029E7D130BC704762B38B0726
S315000082C008D0521E11F8013B00F8013B00F0248053
S315000082D08B07F6D1830740F0208000BF103A07D302
S315000082E030B4B1E83810103AA0E83810F9D230BCF2
S315000082F0530724BFB1E80810A0E8081044BF51F89E
S31500008300043B40F8043BD20724BF31F8022B20F887
S31500008310022B44BF0B7803707047121F17D35B0004
S3150000832009D151F8043B20F8023B1B0C121F20F820
S31500008330023BF6D20BE051F8043B00F8013B1B0A66
S3150000834020F8023B1B0C121F00F8013BF3D238BF8A
S31500008350121D521E24BF11F8013B00F8013BF8D84C
S315000083607047EFF31180602181F31188704780F325
S315000083701188704710B5364C08220021201DFBF7E6
S31500008380E0FF04F033FA207004F030FA607004F075
S315000083902DFAA0702F480178E17010BD10B500F0DD
S315000083A049FE2D4C2178884203D0084600F04AFD4C
S315000083B048B900F043FE94F90610884205D00846F5
S315000083C000F04BFE08B1012010BD608801F097FA5D
S315000083D0A08801F0B2FA2148017801290CBF0120DA
S315000083E0002001F079FA002010BD10B51C4C0020C9
S315000083F0207004F050FE20B92046BDE8104004F07D
S315000084008FBEBDE81040C9E780B5002000F014F823
S3150000841028B1002000F005F808B1002002BDFF20B9
S3150000842002BD1048007802281CBF1128432801D13C
S3150000843001207047002070470848007801281CBFBB
S315000084400228032801D10120704700207047000050
S315000084500C7B0020B96B00208E6B00200C7F002067
S31500008460047B00200D7F002000207047702070479D
S315000084700020704782B08DF80010DDE90023114618
S315000084801A4602B004F05CBF33B585B005468DF8D8
S31500008490042000F0C5FA0446284600F0D1FA7CB163
S315000084A00028BDF818000FD100F09BFB8DF80000E6
S315000084B0FF2804BF00218DF80010CDF808D016E083
S315000084C0A8B106A8029012E000F08BFB8DF8000020
S315000084D0FF2804BF00218DF800109DF80000BDF8AC
S315000084E018108DF80C0003AAADF80E100292DDE903
S315000084F001010A460146284604F022FF07B030BDB6
S3150000850073B582B00446154600F08AFA0646204640
S3150000851000F096FA2EB120B903A98DF8005001910A
S3150000852005E04FF4057100BF05A0FEF77BFADDE913
S3150000853000010A460146204604F002FF7FBD000006
S31500008540656D6265722D6D756C74692D6E657477D7
S315000085506F726B2D737475622E6300004901020001
S3150000856003D4DFF8780481547047DFF8743402F0DE
S315000085700F021A4402F8041C704700F0070010B5F9
S31500008580C0F10703042B28BF0323C41C072C34BFE8
S315000085900020001F012404FA03F35B1E19408140EA
S315000085A004FA00F0401E1040084310BD890001EB9C
S315000085B0401101F184410A607047002070477047FE
S315000085C03EB572B602F0A2F9DFF81804DFF81844D7
S315000085D04169216000F0C6F901466FF00B00FFF714
S315000085E0BDFF00F0BFF901466FF00A00FFF7B6FFC6
S315000085F000F0B8F901466FF00900FFF7AFFF00F091
S31500008600A9F901466FF00800FFF7A8FF00F0A2F9EC
S3150000861001466FF00700FFF7A1FF00F09BF9014646
S315000086206FF00600FFF79AFF00F094F901466FF02D
S315000086300500FFF793FF0022022100F08DF90146A5
S315000086406FF00400FFF78AFF00F090F901466FF023
S315000086500300FFF783FF00F07DF901466FF002008B
S31500008660FFF77CFF0022072100F076F901466FF044
S315000086700100FFF773FF00F079F901464FF0FF3074
S31500008680FFF76CFF00F072F901460020FFF766FF66
S315000086900022032100F060F901460120FFF75EFF8A
S315000086A000F05CF901460220FFF758FF00F05EF982
S315000086B001460320FFF752FF00F058F90146042057
S315000086C0FFF74CFF00F052F901460520FFF746FF81
S315000086D000F04CF901460620FFF740FF00F046F98E
S315000086E001460720FFF73AFF00F040F9014608204F
S315000086F0FFF734FF00F03AF901460920FFF72EFF95
S3150000870000F034F901460A20FFF728FF00F02EF9A1
S3150000871001460B20FFF722FF00F028F901460C2046
S31500008720FFF71CFF00F022F901460D20FFF716FFA8
S3150000873000F01CF901460E20FFF710FF00F016F9B5
S3150000874001460F20FFF70AFF00F010F9014610203E
S31500008750FFF704FF00F00AF901461120FFF7FEFEBD
S3150000876000F004F901461220FFF7F8FE00F0FEF8CB
S3150000877001461320FFF7F2FE00F0F8F80146142038
S31500008780FFF7ECFE00F0F2F801461520FFF7E6FED3
S3150000879000F0ECF801461620FFF7E0FE00F0E6F8E0
S315000087A001461720FFF7DAFE00F0E0F80146182030
S315000087B0FFF7D4FE00F0DAF801461920FFF7CEFEE7
S315000087C000F0D4F801461A20FFF7C8FE00F0CEF8F4
S315000087D001461B20FFF7C2FE00F0C8F801461C2028
S315000087E0FFF7BCFE00F0C2F801461D20FFF7B6FEFB
S315000087F000F0BCF801461E20FFF7B0FE00F0B6F808
S3150000880001461F20FFF7AAFE00F0B0F8014620201F
S31500008810FFF7A4FE00F0A2F801462120FFF79EFE16
S3150000882000F098F801462220FFF798FE00F092F833
S3150000883001462320FFF792FE00F08CF80146242023
S31500008840FFF78CFE00F086F801462520FFF786FE2E
S3150000885000F080F801462620FFF780FE00F07AF847
S3150000886001462720FFF77AFE61684FF6FF000140B8
S3150000887041F0BF6141F4013161604FF4E021E068ED
S3150000888040F40070E060E06840F01000E060E161F4
S3150000889004F0F3FD04F088FEEFF30880001F53494F
S315000088A04FF0CD3201E040F804298842FBD2504A0D
S315000088B0504892B20021FBF744FD62B64E494F4A3A
S315000088C0012008606846146804F0C0FE240E8F2C50
S315000088D010DA4B484B4C016841F0040202604FF03D
S315000088E05013002230255543521C6351062AF9D3F2
S315000088F0016000E006DC44480168C909C90141F08D
S31500008900200101609DF80100012804D13F4801685B
S3150000891041F00401016000220D213D48FFF746FEAB
S315000089203C4901200860012404F0AAFE04F0E8FF97
S3150000893039496846D1E90023CDE900238DF8034083
S3150000894005F071F902F052FCFEF7A2FF334805F07C
S3150000895021FC37BDFF22FF2104200EE60022012163
S3150000896004200AE600220021042006E60022042153
S31500008970042002E640F2016001F074BF05F02CBC51
S3150000898080B500210B2005F01FFCBDE8014005F075
S3150000899024BC032005F09BBC10B504F045FE04463C
S315000089A004F046FEC0B208B9012C07D1072C11D835
S315000089B0DFE804F004100608080A0C0E002010BDBB
S315000089C0092010BD022010BD032010BD0B2010BDD4
S315000089D0062010BD44F0800010BD000000E400E059
S315000089E018ED00E00040000008ED00E0A05D00206A
S315000089F00C120000A000002044000E40FC81E00F95
S31500008A00B0400E4000A000402C400E4064310E40A5
S31500008A1054300E4010300E40E0F202007CF80200A6
S31500008A2020B500217DA2CBB2D35C834205D0491C80
S31500008A30CDB2082DF7D3002020BD012020BD0000B7
S31500008A4020B5002177A2CBB2D35C834205D0491C66
S31500008A50CDB2082DF7D3002020BD012020BD6548EA
S31500008A6000887047644870476448007870476349D7
S31500008A700870704738B56249624C0870022862492E
S31500008A80624D13D12878042809D0084604F048FB23
S31500008A90287803281EBF0428204604F041FB5C48C2
S31500008AA00168CA0054BF9024BC240FE0002008705F
S31500008AB0207005F064FC2878032818BF042802D12A
S31500008AC005F06FFC01E005F0AFFF9124204606F0AB
S31500008AD003F850B92346132245A10320FBF787FC70
S31500008AE02046BDE8324006F05DBE31BD4448007800
S31500008AF000F00F0070474248017801F00F0102298B
S31500008B0001D1012070470020704710B504463C484B
S31500008B10007800F00F01022918BF032801D0932026
S31500008B2010BD06F0E1FF20813A4A3B480178A17268
S31500008B301078E072204608F021FA0020207304F134
S31500008B40140104F1100008F0DBFAE081002010BDEA
S31500008B5038B52B4800780C4600F00F01022918BFE3
S31500008B60032801D0932032BD2B482A4D017821706D
S31500008B70287800F00BF96070287800F01F00A070CC
S31500008B80002032BD10B5002300E05B1CDCB28C4235
S31500008B9005D210F8014B9442F7D0002010BD0120F9
S31500008BA010BD082108F00EBC1548007801281CBF2E
S31500008BB03128332801D1012070470020704710B5B5
S31500008BC0044600F04AFA010004BF13490C7010BDB8
S31500008BD0114890F9000070470E4800787047012050
S31500008BE070470C480178480918BF012070470000FB
S31500008BF0424200008C6B0020107B00200F7B00207F
S31500008C000D7F0020547C0020847700200C7F0020FC
S31500008C10187B00208E6B0020946B0020000102035D
S31500008C2004051D200203040508090A0B38B504468D
S31500008C3005F0CAFA0546DFF8540A837801789942A6
S31500008C4011D000F043F8641E07D0641E08D0A41E9D
S31500008C5006D0A41E032C03D905E00022194600E025
S31500008C60002208F0D5FB284632BD08F065BC10B5D9
S31500008C70DFF85C3A4C000146986A224608F0D1FBC0
S31500008C80A04201D0002010BD012010BDDFF8402A0F
S31500008C900146107B002800D1704780B5906A08F025
S31500008CA050FC28B1BDE8044040F29B1100F0B1BB76
S31500008CB001BD80B500F00AF808F0ACFB00F0030037
S31500008CC0032801D1012002BD002002BDDFF8000A01
S31500008CD0806A704780B5B0F5004F08D14FF6FF7037
S31500008CE0DFF8241A098800F0B3FEBDF80000DFF8AB
S31500008CF09C194883002002BD2DE9F04F4FEA501C15
S31500008D000C4600F01F000026DFF8008A2FE00EF167
S31500008D10010EEF7E5FFA8EF0B84226D2E8695FFA5E
S31500008D208EF9142717FB09F94844077A07F0070755
S31500008D306745ECD1477AB942E9DB90F801B090F883
S31500008D40009007EB0B0AAAEB090A8A45DFDB14B190
S31500008D50C91B494421700AB1017A117003B1186028
S31500008D60284600E00020BDE8F08F0846761C98F8FB
S31500008D700650F1B2A942F5D2D8F808105FFA86FE7D
S31500008D8051F82E504FF0000E0146C2E7400918BFB9
S31500008D9040F01800704738B5DFF83449A06A08F08B
S31500008DA08BFC0546E80744BFA06A08F08AFCE80386
S31500008DB01ED5E16ADFF8B05A086A18B940F2662192
S31500008DC000F021FDE06A016A486818B94FF41A718B
S31500008DD000F019FDE26A136AA06A5A6800219047FA
S31500008DE030B12846BDE8344040F26921FDF71ABE8D
S31500008DF031BD3EB5684600210022002380E80E0002
S31500008E00DFF88848A07A25788DF80050002818BF2A
S31500008E10022810D1DFF8B85800F00EF858B1A86A49
S31500008E200122002108F0F8FA00F006F818B140F225
S31500008E309E2100F027FC37BD2179A86A6A4608F012
S31500008E4051BB00002DE9F043FF2889B006460AD140
S31500008E50DFF8B80881680A68D069467A017A06F0B0
S31500008E601F0646EA4116F5B205F01F001B2847D239
S31500008E700021019101AB6A46F0B2FFF73DFF5FEAC0
S31500008E8000081CBF019800283AD0DFF80048DFF838
S31500008E9040782179F0B2884231D00B3D102D39BF90
S31500008EA0DFF82C0A0568DFF82C1A0D68002D1CBFA8
S31500008EB02878032824D0786C854214D002A8294645
S31500008EC00622FFF7FBF9B86A7D6402A908F09BFB4E
S31500008ED0B0B9B86A04A908F0AAFBB4F91810B86AC0
S31500008EE008F056FB60B9386B0199C7F82C808842A8
S31500008EF008D19DF8000078732671FFF77AFF80E0AD
S31500008F008A2086E0A57ADFF8609900F08BFA386B44
S31500008F1038B1B86A08F033FC18B140F2D32100F03A
S31500008F2001FF019801993863C868786318B94FF44E
S31500008F30367100F0F7FED8F82000B96C814219D0DE
S31500008F4018B940F2DF2100F0EDFED8F820100868CD
S31500008F5018B940F2E12100F0E5FED8F82010B86A11
S31500008F600A68904718B140F2E22100F0DBFED8F81B
S31500008F702000B8645FF01C029DF8000026A17873FB
S31500008F80267102A8FFF7AAF9786B418A0901C03950
S31500008F90ADF80E10417C09011439ADF8161002A97E
S31500008FA0407C0001ADF81A00E079401E8041C00FF8
S31500008FB08DF82100787C8DF82200B86A08F0ACFBA9
S31500008FC018B140F20D3100F0ADFEB86A0122012160
S31500008FD008F060FC18B140F2323100F0A3FE00F058
S31500008FE062FCA08B00F08BFCE08B00F0A6FC207AE4
S31500008FF000F03CFC00F033FD00F0FAFC284600F0DF
S315000090007BFA97F90E10B86AC905091408F06CFEC8
S31500009010002000F084BE00000000000001000000F7
S31500009020010101016400000064000000000000006E
S315000090300B000000DFF8D40700797047DFF8CC0793
S31500009040B0F91800002854BF05216FF00401081874
S315000090500A2190FBF1F040B270470A2110FB01F0A3
S31500009060FFE7F8B500F5D77140F27722914201D3B8
S315000090708B20F2BDDFF85856DFF890472A6B0A2698
S31500009080002A1EBFA17E01F0C001802911D0E97B14
S3150000909079B992F902100F4617FB06F7B842A1BF3D
S315000090A092F903100A4612FB06F28242B8BF11FB80
S315000090B006F0297B61B10146A86A08F069FA18B181
S315000090C040F2853100F0DEFAA86A08F085FA01E080
S315000090D010FB06F020830020F2BD38B504460B389D
S315000090E0102839BFDFF8E8070068DFF8E8170868D6
S315000090F088B10023002200212046FFF7FDFD50B174
S3150000910004F01F051B2D06D22046FFF73FFE10B9BF
S3150000911028460B2800DAFF2032BDDFF8C4194008C4
S31500009120085C70477047C0B2704711F1630F01DAEF
S315000091300020704711F1240F01DBFF2070476431D6
S315000091400902481101EB90618904080E704770B559
S31500009150DFF87C45DFF8FC590020E064687830B120
S3150000916008F0CAFD0246012A18BF032A01D10020D1
S3150000917070BD606BDFF83439DFF8106500281FBF5B
S31500009180216B09690029022A17D1E364706900F589
S31500009190FA707061607D18B100200021642203E03E
S315000091A0E87829794FF4A0722070A280617080213E
S315000091B0A878A070E180002031E0DFF828597269B4
S315000091C0A94214D1DFF8B019E16402F57A7272612E
S315000091D0617D91B90179217001258278037990F931
S315000091E003109540EB18CB185B1E63700DE0E3642B
S315000091F002F5FA727261617D19B100222280642142
S3150000920005E0417821708278627001780901A180B9
S315000092104179A17002891201E280C0880001A06034
S3150000922000F01DFCE070A07841B2002948BF404222
S31500009230C0B270BD70B50446DFF89464257896F91F
S31500009240160008B18C2070BD3065FFF780FF3076C0
S315000092506901DFF83824DFF8FC385078107301F51F
S3150000926080715161987910B1AD1EEDB203E0306D99
S3150000927040F002003065F17B81B9187870B16078F2
S3150000928081060BD5306D40F0010030656FF00101AD
S31500009290B175506900F50870506102E04FF0FF307B
S315000092A0B07508F05FFD40B108F05AFD0128316D38
S315000092B00CBF0820102008433065032000F01CF97D
S315000092C06A1CB06A4FF4807392B2214608F057FDCB
S315000092D06D1CA84203DA40F2055100F0D3F90020D4
S315000092E070BD00002DE9FC41DFF8E46396F9161025
S315000092F00025091D04296FF0030418D8DFE801F0E2
S315000093000A0A1B1B0300FFF795FF050013D000F0A8
S3150000931080FE7BE096F91600A0420CBF01210021D9
S3150000932000F078FEB57500F071FE8E206FE000F05B
S3150000933070FE8C206BE004F045FFE0B1F06CDFF8C6
S315000093406C17884217D1307EA8B1DFF8301808684C
S31500009350002810D5DFF82808C168C160012200681E
S3150000936000F00F008240521E114204D100F088FB2B
S31500009370642008F052FDFEF7F4FF804696F91600C9
S3150000938010F1010F1CBF96F9160010F1020F2DD136
S3150000939096F91600DFF8F4724042B075FEF764FAEB
S315000093A038620022B06A802108F08AFDF46CB06A47
S315000093B03979326D002C07F10C0306D108F060F8FC
S315000093C0010005D1002125200DE000933346A0477A
S315000093D0C8B10020B0754FF0FF3139628C2500F01E
S315000093E015FE00212620FFF721FC0CE096F9160059
S315000093F0A0420CBF0121002100F00CFE0020B07538
S315000094008E2500F003FE4046FEF7B1FF2846BDE874
S31500009410F681DFF85404FDF705BBDFF8F003408B57
S3150000942070470000F8B5FEF79CFF984D0446A87AF1
S31500009430012803D12046FEF79AFFF1BDA44EDFF8BE
S315000094402874B06A0122012107F0E6FFB06A802283
S31500009450802108F035FD00BF26A00188B06AADF86E
S315000094600010694608F02BFC20B140F2EB5138465B
S31500009470FDF7D8FA02208DF800006946B06A08F0B8
S31500009480F7FB20B140F2ED513846FDF7CBFAB06A52
S3150000949007F0ECFF00212C20FFF7C8FB00210A2073
S315000094A0FFF7C4FB0120A87296F91610091D0729BB
S315000094B014D8DFE801F01818070B040F0F0F08F097
S315000094C0E4FE10E06FF00300B0750CE06FF00201EF
S315000094D0B17508E0892000F007FB04E040F2146152
S315000094E03846FDF79FFA2046FEF741FFFFF746FA9A
S315000094F0F1BD000004010000F8B5644DA97A0446E8
S31500009500A1425CD02EA3724F1E88ADF800600329DD
S31500009510DFF854634FD8DFE801F047023B2BFFF733
S315000095202FFAB86A694608F0CAFB18B140F23161F1
S3150000953000F04CF802208DF800006946B86A08F081
S3150000954097FB18B140F2336100F040F868790028C3
S3150000955014BF00220222B86A022108F0B1FC18B139
